:020000040800F2
:10000000B006002049010008F11400089F13000801
:1000100015140008A90900084D410008000000005F
:100020000000000000000000000000000130000897
:10003000C111000800000000A52C00089933000839
:100040006301000863010008630100086301000800
:1000500063010008630100086301000863010008F0
:1000600063010008630100086301000863010008E0
:1000700063010008630100086301000863010008D0
:1000800063010008630100086301000863010008C0
:1000900095400008AD0900086301000863010008ED
:1000A00063010008630100086301000863010008A0
:1000B0006936000819370008DD38000863010008B8
:1000C0006301000863010008630100086301000880
:1000D0006301000863010008630100086301000870
:1000E0006301000863010008630100086301000860
:1000F0006301000863010008630100086301000850
:10010000630100086301000863010008630100083F
:10011000630100086301000863010008630100082F
:10012000630100086301000863010008630100081F
:10013000DFF810D000F0EEFB00480047B14C00089B
:10014000AFF30080B006002006488047064800470D
:10015000FEE7FEE7FEE7FEE7FEE7FEE7FEE7FEE777
:10016000FEE7FEE7C93300083101000880EA01021A
:1001700010B502F00043400022D04A001FD0010E0B
:1001800001EB1261C0F35600C2F3560240F40000C6
:1001900042F40002A0FB022000047F39140400D0C6
:1001A000401C50EA124001D44000491EC2B20C0665
:1001B00004EBD010401C4008802A02D003E000204D
:1001C00010BD20F00100002900DA0020184310BD06
:1001D0002DE9FE4F804681EA0300C00F0C460090D7
:1001E00021F0004123F00045B8EB0200A94105D2FF
:1001F0004046214690461C460B46024623F00040EE
:10020000104347D0270DC7F30A00C3F30A510290E9
:10021000401A019040286BDAC3F3130040F4801BAE
:100220000098924620B10023D2EB030A63EB0B0B3C
:1002300001985946C0F14002504600F026FA0646A1
:100240000D4650465946019A00F03EFA10EB080060
:100250006141002487EA115284EAE7731A4340D0CF
:10026000009A62B3019A012A4FEA075215DC001B7B
:1002700061EB02014FF0004202EA0752CDE9004271
:10028000001C41F5801132462B4600F075FA03B090
:10029000BDE8F08F40462146F9E7001B61EB020103
:1002A000001C41F5801300185B412018A2F50017CF
:1002B00047EB030140EAD570B6196D4111E06D08B6
:1002C0004FEA360645EAC0754FEA0752001B61EB5C
:1002D0000201001C41F5801149084FEA3000001965
:1002E000514132462B4603B0BDE8F04F00F035BA1D
:1002F0000098012240000023D0EB020263EBE07380
:10030000009821464FEAE074B8EB000061EB04016D
:10031000E9E783F000435BE781F0004158E72DE90E
:10032000FE4F81EA030404F0004421F000410094F0
:100330004FF0000B23F0004350EA01045ED052EA74
:1003400003045BD0C3F30A54C1F30A552C44A4F24E
:10035000F3340194A0FB0254C1F3130141F4801162
:10036000C3F3130343F4801301FB024400FB034E69
:10037000840A970A44EA815447EA8357A4FB076832
:1003800002958D0A05FB07854FEA932C04FB0C545C
:100390002705029D4FEA065847EA1637B5EB0805D0
:1003A0006EEB070C870E920E47EA811742EA831222
:1003B000A7FB0201B6EB0B0164EB00042B0D43EA33
:1003C0000C335E1844EB1C50DA465146E7FB020141
:1003D000C5F313044FEA0B3343EA14534FEA0432D4
:1003E000019C43EA0603A4F10C040294009CCDE9AD
:1003F00000B400F0C1F903B0BDE8F08F0020014661
:10040000F9E72DE9F04D81EA030404F0004B21F0F7
:10041000004514464FF0000A23F0004150EA05025F
:1004200020D054EA01021DD0C5F30A570246C5F395
:100430001303C1F31300C1F30A5640F4801543F4CB
:100440008013A7EB0608101BD64608F2FD3873EBA5
:10045000050002D308F1010801E092185B41B8F1F0
:10046000000F03DA00200146BDE8F08D00204FF4B4
:100470008011064684460EE0171B73EB050705D373
:10048000121B63EB050306434CEA010C49084FEAD3
:10049000300092185B4150EA0107EDD152EA0300A7
:1004A00012D082EA040083EA0501084305D0101B3C
:1004B000AB4106D20122002306E000224FF00043A8
:1004C00002E06FF0010253101AEB06004CEB0851EA
:1004D00010EB0A0041EB0B01BDE8F04D00F03DB917
:1004E0000EB5C10F80EAE0700844CA07002140F24F
:1004F00033438DE80E000A460B4600F03DF903B089
:1005000000BD20F00040C10DC0F3160040F4000013
:100510007F2901DA00207047962903DCC1F196019A
:10052000C840704796398840704700F0004230F06C
:1005300000400AD0C10D01F56071C0F3160042EA17
:100540000151C2084007114370470020014670471F
:1005500030B5041E71F1000404DB4FF0004440424A
:1005600064EB0101141E73F1000405DB1C464FF01F
:100570000043524263EB04038B4208BF824230BD0A
:1005800030B5041E71F1000404DB4FF0004440421A
:1005900064EB0101141E73F1000405DB1C464FF0EF
:1005A0000043524263EB0403994208BF904230BDBE
:1005B00001F0004330B421F0004150EA010206D0BE
:1005C0000A0DA2F56072C1F31301002A02DC30BCEF
:1005D00000207047440F44EAC104C100E01830BC59
:1005E00000EBC25000F082B8002801DBC0F10040EF
:1005F000002901DBC1F100418142704730B50B4653
:10060000014600202022012409E021FA02F59D4242
:1006100005D303FA02F5491B04FA02F52844151E16
:10062000A2F10102F1DC30BD2DE9F05F05460020AA
:1006300092469B4688460646814640241BE0284653
:1006400041464746224600F02FF853465A46C01A04
:10065000914110D311461846224600F016F82D1A83
:1006600067EB01084F4622460120002100F00DF8FB
:1006700017EB00094E41201EA4F10104DFDC4846BF
:1006800031462A464346BDE8F09F202A04DB203A43
:1006900000FA02F1002070479140C2F1200320FAD5
:1006A00003F3194390407047202A04DB203A21FAD3
:1006B00002F00021704721FA02F3D040C2F120027B
:1006C0009140084319467047202A06DBCB17203A91
:1006D00041FA02F043EAE07306E041FA02F3D04047
:1006E000C2F1200291400843194670470029A8BF73
:1006F0007047401C490008BF20F00100704710B44B
:10070000B0FA80FC00FA0CF050EA010404BF10BCFF
:10071000704749B1CCF1200421FA04F411FA0CF12C
:1007200018BF012121430843A3EB0C01CB1D4FEA65
:1007300000614FEA102042BF002010BC704700EB60
:10074000C35010440029A4BF10BC7047401C49008E
:1007500008BF20F0010010BC704710B5141E73F1E3
:10076000000408DA401C41F1000192185B411A4371
:1007700001D120F0010010BD2DE9F04D92469B46BD
:1007800011B1B1FA81F202E0B0FA80F22032904663
:10079000FFF77BFF04460F4640EA0A0041EA0B01DF
:1007A00053465A46084313D0114653EA010019D064
:1007B000C8F140025046FFF777FF05460E46504607
:1007C00059464246FFF761FF084305D0012004E087
:1007D00020463946BDE8F08D0020054346EAE07624
:1007E0002C4337430A986305E40AA0EB0800002273
:1007F000FD0A44EA47540A3002D500200146E9E7E1
:10080000010510196941DDE9084500196941BDE894
:10081000F04DA2E770B521F0004303430CD0C1F3C3
:100820000A550024D5EB040564EB0403D617AD1A72
:10083000B34102DB0020014670BD201841EB02519C
:1008400070BD2DE9F04D00231A461B1A8A4103DBC7
:1008500000200146BDE8F08DC1F30A52C1F3130137
:1008600041F480154FF0000BD10702D100186D4103
:10087000521E0027044640F2FF11384601EB620A7F
:100880003E468046024600204FF48011FFF70CFFE1
:10089000C2197141BB1846EB0100B4EB030C75EBB8
:1008A000000C04D3E41A65EB000517460E46241924
:1008B00008F101006D4180463428E3DDF91946EB6B
:1008C0000600091BA84103D24FF0FF32134601E096
:1008D000002213461BEB070046EB0A51BDE8F04D22
:1008E000FFF73BBFC1F30A52C1F3130140F2FF33DC
:1008F00041F480119A4202DA00200146704740F22A
:1009000033439A42A2F2334202DC5242FFF7CCBE9A
:10091000FFF7BBBE064C074D06E0E06840F0010360
:1009200094E8070098471034AC42F6D3FFF704FC74
:10093000585F0008785F000870B58C1810F8015BEC
:1009400015F0070301D110F8013B2A1106D110F868
:10095000012B03E010F8016B01F8016B5B1EF9D16C
:100960002B0705D40023521E0DD401F8013BFAE7F2
:1009700010F8013BCB1A921C03E013F8015B01F85D
:10098000015B521EF9D5A142D8D3002070BD10B52D
:1009900002460023002003E014882344921C401CDC
:1009A0008842F9DB98B210BD00BFFEE700B587B002
:1009B00001AA01210D4800F0C6F90D4901980880EF
:1009C0009DF80F000B4908709DF810000A49087047
:1009D0009DF81200094908701021044800F012F82F
:1009E00001200749087007B000BD00000064004006
:1009F0002000002016000020170000201900002011
:100A00001E000020B1F5007F3AD00FDC202928D04D
:100A100006DC01291CD004291DD0082940D11DE085
:100A2000402921D0B1F5807F3AD126E0B1F5004FC1
:100A300031D006DCB1F5806F25D0B1F5006F2FD134
:100A400024E0B1F5803F12D0B1F5003F28D111E08C
:100A5000154A826025E00822C26022E01022C260AE
:100A60001FE0082202611CE01022026119E0082246
:100A7000426016E01022426013E00422426010E05F
:100A8000042242600DE0042242600AE000228261FA
:100A90000422426005E0002282610422426000E0FC
:100AA00000BF00BF704700000101010010B500F059
:100AB00055FB00F003FB00F029FB00F01AFD00F0ED
:100AC0002CFD00F0A1FB10BD10B504460B4884427C
:100AD00009D10121480602F0F7F800214FF000701B
:100AE00002F0F2F808E00121880602F0EDF800219A
:100AF0004FF0806002F0E8F810BD00000064004094
:100B000021B9C26842F02002C26003E0026942F0EB
:100B1000200202617047000010B50021837A012293
:100B200002FA03F13D4A126842F001023B4B1A609F
:100B30003A4A1C3212688A43384B1C331A60027BD3
:100B4000CAB9364A0C3212688A43344B0C331A60E5
:100B50004288C38842EA0343304A4032847A42F8EA
:100B600034300288838842EA03432C4A4032847A34
:100B700002EBC4025360027B012A19D1274A0C32CE
:100B800012680A43254B0C331A604288038842EAF4
:100B90000343224A4032847A42F83430C288838840
:100BA00042EA03431D4A4032847A02EBC402536096
:100BB000C27A3AB9194A121D12688A43174B1B1D93
:100BC0001A6006E0154A121D12680A43134B1B1DDA
:100BD0001A60028932B9114A143212688A430F4BE3
:100BE00014331A600289012A06D10C4A14321268A1
:100BF0000A430A4B14331A60427B012A06D1074A82
:100C00001C3212680A43054B1C331A60034A1268EF
:100C100022F00102014B1A6010BD00000066004086
:100C20001AB143690B43436102E043698B4343615B
:100C3000704730B5024600200023146824F00204F7
:100C40001460146844F00104146000E05B1C5468F4
:100C500004F001041CB94FF6FF74A342F6D15468A6
:100C600004F001040CB900206CE08C79012C04D153
:100C7000146844F08004146003E0146824F08004D5
:100C80001460CC79012C04D1146844F04004146041
:100C900003E0146824F0400414600C7A012C04D1A1
:100CA000146844F02004146003E0146824F0200465
:100CB00014604C7A012C04D1146844F010041460C0
:100CC00003E0146824F0100414608C7A012C04D121
:100CD000146844F00804146003E0146824F0080465
:100CE0001460CC7A012C04D1146844F0040414601C
:100CF00003E0146824F0040414608C78A407CD7811
:100D000044EA05640D7944EA05444D7944EA055402
:100D10000D886D1E2C43D461146824F00104146006
:100D2000002300E05B1C546804F001041CB14FF682
:100D3000FF74A342F6D1546804F001040CB1002002
:100D400000E0012030BD30B505460C46134605F5E0
:100D5000D87000EB0410006800F004001872187AD4
:100D600050B905F5D87000EB0410006840F2FF712F
:100D700001EA5050186009E005F5D87000EB041046
:100D800000686FF0604101EAD000586005F5D87046
:100D900000EB0410006800F00200587205F5D870EE
:100DA00000EB0410406800F00F00987205F5D87051
:100DB00000EB04104068000AD87405F5D87000EB09
:100DC000041040684FF6FF7101EA1040988205F563
:100DD000D87000EB04108068D87205F5D87000EB6D
:100DE00004108068010A197305F5D87000EB04102F
:100DF0008068010C597305F5D87000EB0410806809
:100E0000000E987305F5D87000EB0410C068D87315
:100E100005F5D87000EB0410C068010A197405F5D7
:100E2000D87000EB0410C068010C597405F5D87037
:100E300000EB0410C068000E987421462846FFF7A6
:100E40005FFE30BD00218171C171017241728172FA
:100E5000C1728170C17003210171022141710121B0
:100E60000180704710B502460020936803F080634C
:100E7000B3F1806F00D110E0936803F00063B3F129
:100E8000006F01D1012008E0936803F08053B3F1B3
:100E9000805F01D1022000E00420042874D002F514
:100EA000C07303EB00131B6803F0010402F5C07369
:100EB00003EB00131C600B7A7BB94B7A0C8843EA76
:100EC000445302F5C07404EB00142468234302F574
:100ED000C07404EB0014236010E00B7A4C6843EA02
:100EE000C4034C7A234302F5C07404EB0014246855
:100EF000234302F5C07404EB001423608B7A03F0E3
:100F00000F038B7202F5C07303EB00135B6823F0D1
:100F10000F0402F5C07303EB00135C6002F5C073AD
:100F200003EB00135B688C7A234302F5C07404EB77
:100F3000001463608B7B1C064B7B44EA03440B7BF1
:100F400044EA0323CC7A234302F5C07404EB001473
:100F5000A3608B7C1C064B7C44EA03440B7C44EA74
:100F60000323CC7B234302F5C07404EB0014E3603D
:100F700002F5C07303EB00131B6843F0010402F594
:100F8000C07303EB00131C6010BD0246002021B1AA
:100F9000012910D002292CD11CE0936803F0010331
:100FA00040EA8300936803F0020318439368C3F395
:100FB000806318431FE0936803F4807340EA931042
:100FC000936803F4007340EA13209368C3F3C0638B
:100FD000184310E0936803F4803340EA9330936839
:100FE00003F4003340EA13409368C3F300731843DB
:100FF00001E0002000BF00BF20B1052804D0072871
:1010000006D103E0022005E0002003E0012001E01A
:10101000002000BF00BF704700B587B0012148061F
:1010200001F042FE00F065FA00F0EEF82248FFF70A
:101030004BFD04A8FFF706FF01208DF816008DF880
:1010400017008DF8180000208DF819008DF81A008F
:101050008DF81B008DF8120003208DF8130002207C
:101060008DF8140000208DF815002D20ADF810002B
:1010700004A91148FFF7DDFD01208DF80D000020C7
:10108000ADF808008DF80A008DF80B0001208DF8EE
:101090000C000020ADF80000ADF80200ADF804002F
:1010A000ADF80600012202210348FFF7B9FD6846AA
:1010B000FFF732FD07B000BD006400401FB50120FE
:1010C0008DF80D000020ADF808008DF80A008DF8AD
:1010D0000B0001208DF80C002020ADF8000000204E
:1010E000ADF80200012202210748FFF799FD4FF6F3
:1010F0009F70ADF804004FF6FF70ADF8060068462B
:10110000FFF70AFD1FBD0000006400401FB501206D
:101110008DF80D00ADF808008DF80A0000208DF85C
:101120000B0001208DF80C0042F26040ADF8000089
:101130000020ADF80200012210210748FFF770FDE2
:101140004FF61F70ADF804004FF6FF70ADF80600C3
:101150006846FFF7E1FC1FBD006400400EB50121A9
:10116000480601F0A1FD1548FFF7AEFC6846FFF701
:1011700069FE01208DF806008DF807008DF8080043
:1011800000208DF809008DF80A008DF80B008DF80D
:10119000020003208DF8030002208DF804000020D7
:1011A0008DF805002D20ADF8000069460348FFF7D3
:1011B00040FD69460148FFF73CFD0EBD006400405C
:1011C0007047000000B585B0684601F09DFD6FF0E6
:1011D000040002F09BF8002002F0DFF807490198B4
:1011E000B0FBF1F0064908704FF4FA510198B0FBDA
:1011F000F1F00449088005B000BD000000127A003B
:101200002A0000202C00002008B50121142001F044
:101210006BFD4FF40060ADF8000003208DF8020074
:1012200048208DF8030069460F4800F021F84FF47C
:101230008050ADF8000003208DF8020018208DF8D2
:1012400003006946084800F013F84FF4C040ADF8B9
:10125000000003208DF8020010208DF8030069467D
:10126000024800F005F808BD0008014000100140E8
:101270002DE9F0410246002500260020002300242D
:10128000002791F803C00CF00F0591F803C00CF093
:10129000100CBCF1000F03D091F802C04CEA050518
:1012A00091F800C0BCF1000F31D0146800202BE091
:1012B0004FF0010C0CFA00F3B1F800C00CEA030681
:1012C0009E4220D183004FF00F0C0CFA03F7BC4371
:1012D00005FA03FC4CEA040491F803C0BCF1280FA2
:1012E00006D14FF0010C0CFA00FCC2F814C00AE061
:1012F00091F803C0BCF1480F05D14FF0010C0CFA76
:1013000000FCC2F810C0401C0828D1D31460B1F80A
:1013100000C0BCF1FF0F34DD546800202EE000F166
:10132000080C4FF0010808FA0CF3B1F800C00CEA01
:1013300003069E4221D183004FF00F0C0CFA03F7F5
:10134000BC4305FA03FC4CEA040491F803C0BCF169
:10135000280F05D100F1080C08FA0CF8C2F8148027
:1013600091F803C0BCF1480F07D100F1080C4FF011
:10137000010808FA0CF8C2F81080401C0828CED3E7
:101380005460BDE8F08141617047016170474FF6DC
:10139000FF710180022181700421C170704700BF7C
:1013A000FEE7000008B501211C2001F09DFC07208C
:1013B000ADF8000010208DF8030003208DF8020026
:1013C00069461148FFF754FF07210F48FFF7DBFF7D
:1013D0004FF40050ADF8000069460C48FFF748FF95
:1013E0004FF400510948FFF7D0FF4FF47E70ADF87D
:1013F000000069460648FFF73BFF4FF47871044848
:10140000FFF7C1FF08BD00000008014000100140C7
:10141000000C014000BFFEE710B50146002200208D
:101420000CE000EB4003074C34F813308B4204D13E
:1014300000EB400304EB43039A88401C0628F0DDD0
:10144000104610BDF80000202DE9F34F87B00020B2
:10145000059000BF04F094FB1E4909684FF4BB627D
:1014600002FB0100059000221B4B10461B4903F0B4
:101470009BFECDE900010798FFF732F88046DDE9D1
:101480000023FEF7BEFF0022154BCDE90201FEF757
:1014900046FF04460D460599C1EB01118800FFF790
:1014A0001FF8064622462B46FEF7ABFF8246FFF7A3
:1014B0007FF804900020074908600498FFF735F88A
:1014C000044622460B4607A002F09CFE049809B091
:1014D000BDE8F08F680000200000104000002440AC
:1014E000006097404D7620697320252E33660A00F0
:1014F000704708B54FF4A06000F05CF814208DF838
:10150000000000208DF801008DF8020001208DF808
:101510000300684600F016F808BD08B54FF4A06057
:1015200000F048F815208DF8000000208DF801002B
:1015300001208DF802008DF80300684600F002F8E3
:1015400008BD000070B5002100230F22C47804B349
:10155000154C246804F4E064C4F5E064210AC1F188
:101560000403CA40447804FA03F184781440214308
:1015700009010E4C0678A155047804F01F050124DA
:10158000AC4005786D11AD0005F1E025C5F80041CE
:1015900009E0047804F01F050124AC40044D0678EE
:1015A000761145F8264070BD0CED00E000E400E047
:1015B00080E100E002490143024A116070470000E7
:1015C0000000FA050CED00E0FFF726FD25A002F073
:1015D00019FE254802F016FE244802F013FE24A04E
:1015E00002F010FE214802F00DFE1F4802F00AFE34
:1015F000012241F61F4140F2CF7002F0E3F80022D1
:1016000041F61F4140F2E73002F056F801201F4931
:10161000087026E01E480088012809D101F0F2FC7C
:101620001C4801681CA002F0EDFD0020184908804C
:1016300022480088012814D12148017821A002F015
:10164000E1FD012303220421022001F06BFD0020B3
:101650001A4908801A480078042802DB002018493B
:101660000870D7E70D0A0000145F0008D05E00087C
:101670002A20204D6173746572204E6F6465A3A1AA
:101680005E5F5E20202A0D0A00000000AC010020F1
:1016900028000020240000207265666572656E6374
:1016A00065206D6573736167652069732073656E6E
:1016B000743A202564200D0A000000006C00002010
:1016C000480000206D6173746572206E6F64652040
:1016D00073656E6473204D61737465724E756D42EF
:1016E00043203D25643A0D0A000000001FB500BFED
:1016F0000120E649087000BF00BFE54A07CA01ABF8
:1017000007C300BF40F22310E249088000BF012058
:10171000E149088000BF00BFFFF7C8F9DFA002F071
:1017200071FDDF4802F06EFDDE4802F06BFDDEA0C9
:1017300002F068FDDB4802F065FDD94802F062FD69
:10174000002140F2833002F0E1F8002241F61F410F
:1017500040F6AC5002F036F8DD480168DD4800681C
:10176000FEF704FD0446DC4801682046FEF7FEFC57
:10177000DA49086089E1DA48008801280ED1D948A1
:10178000006808B9012000E00020D649086001F097
:1017900025FB0020C0490880D1490880D248008834
:1017A00001287DD1CF48001D006808B9012000E064
:1017B0000020CC49091D0860B7480088042802DBD6
:1017C0000020B549088002F079FAC849086002F0A3
:1017D00035FBB148008800EB4000C54901EB4000F3
:1017E0004088C449088008460088FFF715FEC249B2
:1017F0000880002407E0C14830F814202146C0A02A
:1018000002F000FD641CB94800688442F3DBB7486D
:101810000168C3A002F0F6FCB4480068002833D089
:10182000B6480088002828D19B480188C2A002F051
:10183000E9FC9949098801EB4101AD4A02EB4101FC
:10184000488801F0EFF9A9480068012809DDAB4993
:10185000C74A126831F81200012241F61F4101F017
:10186000B1FFA648C24A126830F81210C14802F00F
:10187000C9FCC1A002F0C6FC06E0A049088801220C
:1018800041F61F4101F09EFF0120C84908808248AF
:101890000088401C8049088008460088042800E031
:1018A00010E001DD00200880C1A002F0ABFC0020A8
:1018B0008D4908800120C8490860AD4908600020B2
:1018C000C6490860C6480088012824D1C548006878
:1018D00008B9012000E00020C2490860B34801882F
:1018E000C1A002F08FFC01F0F5FAC9490880C9A037
:1018F00002F088FCB7A002F085FCC5480088FFF71D
:101900008BFDCE490880A9480088401CA749088063
:101910000020B3490880CA48007801287ED10024FD
:101920000125B048001D006808B9012000E0002032
:10193000AC49091D086057480088B0F5907F14D164
:10194000C048006808B9012000E00020BD490860D7
:10195000BD4800780090BD480378BD4802784D48E6
:101960000188BC4802F04EFC8BE04A48008840F2F7
:10197000211188420CD1B44800780090B348037814
:10198000B348027843480188B34802F03BFC78E052
:1019900040480088B0F5917F0CD1AB4800780090AA
:1019A000AA480378AA4802783A480188AB4802F06E
:1019B00029FC66E03748008840F2231188422ED186
:1019C00088480830006808B9012000E000208549F7
:1019D000083108609C48007800909C4803789C4837
:1019E00002782C4801889EA002F00CFC11E0012036
:1019F00003F0FEF815B104F10A0084B2082C02DDF0
:101A000001209349087004B9012521469D4802F040
:101A1000C8F88F4800780128E9D032E035E01D4849
:101A20000088B0F5927F16D186481030006808B95A
:101A3000012000E0002083491031086082480078CE
:101A400000908248037882480278124801888E48C4
:101A500002F0D8FB15E00F48008840F225118842BB
:101A60000CD179480078009078480378784802785B
:101A700008480188854802F0C5FB02E084A002F016
:101A8000C1FB00206E49087000BF74E6BA01002057
:101A9000E85B000820000020900000200D0A0000F4
:101AA000145F0008D05E00082A20206E6F64652055
:101AB000312067657473207468652072656665728D
:101AC000656E6365206D6573736167650000000076
:101AD000E0010020DC010020E4010020E8010020FA
:101AE00002000020B401224210000020A8010020C2
:101AF000BA000020AE010020B0010020D20000207A
:101B000066696E616C54696D657256616C75655B72
:101B100025645D206973202564200D0A0000000003
:101B20004D657354696D6573496E42432069732036
:101B30002564200D0A0000002B2B2B2B2B2B2B2B8D
:101B40004E756D42633A2025642066697273742075
:101B50006D6573736167652069732073656E743A90
:101B60002B2B2B2B2B2B2B2B2B2B200D0A00000090
:101B7000200100208C5E00082B2B2B2B2B2B2B2BDA
:101B8000436F6C756D6E203D313A666F72206D65E6
:101B900073736167652066696E6973682B2B2B2BE5
:101BA0002B2B2B2B2B2B200D0A000000B601002025
:101BB0002A2A2A2A2A2A2A2A2A2A2A2A726566658B
:101BC00072656E636520656E64202A2A2A2A2A2A95
:101BD0002A2A2A2A200D0A001C010020DC000020ED
:101BE00004000020800121422323232323232323D5
:101BF0002323696E746572727570742025642023C6
:101C000023232323232323232323200D0A0000003F
:101C1000B401002023232323232323232323656EBE
:101C20006420696E74657272757074232323232394
:101C3000232323232323200D0A000000B2010020C8
:101C40001E0000209481214219000020170000206E
:101C500016000020885C0008E05C0008385D000881
:101C60002A2A41425320494E464F20252378202CD2
:101C70002564202C202564207270732C2025237865
:101C80000D0A000000080040905D0008E85D0008B3
:101C90002A2A6172626974726172792077696E644E
:101CA0006F7773202A2A000096B000BF00BF00BFE4
:101CB00000BF0020159014900120FE490870FEF727
:101CC000F5FEFDA002F09EFAFC4802F09BFAFC48EB
:101CD00002F098FAFBA002F095FAF94802F092FAA5
:101CE000F64802F08FFA002241F61F4140F6AC5050
:101CF00001F068FD01F096FD0122FC480188008892
:101D000001F0DAFCFA480168FA480068FEF72EFA9A
:101D10001390F94801681398FEF728FAF74908600C
:101D200000F055BFF6480068012873D1F5480188D6
:101D3000EE480088FFF788FBF349086015980228F1
:101D400069DA0846F14A0168149842F82010EB4815
:101D500001684FF08140FEF709FA0390FEF7E5FBBA
:101D6000CDE90601E94800680190FEF7DEFB00229C
:101D70004FF08043CDE9020103F016FACDE90401EA
:101D8000DDE90623FEF7C5FACDE9080103F006FFF9
:101D9000CDE90C01DD4800680990FEF7C6FBCDE9EE
:101DA0000A01DDE90C23FEF713FA00224FF080430D
:101DB000CDE90E01FEF725FBCDE91201D3484068BD
:101DC0000F90FEF7B2FBCDE91001DDE91223FEF71B
:101DD000BFFB21D2CD4800680D90FEF7A6FBCC4A90
:101DE000CC4BCDE90E01FEF794FACDE91201C748BC
:101DF00040680F90FEF799FBCDE91001DDE9122351
:101E0000FEF7A6FB08D20120C3490870C3A002F068
:101E1000F9F9D5E2CDE3DAE2B84801684FF0814044
:101E2000FEF7A4F90390FEF780FBCDE90601B74861
:101E300000680190FEF779FB00224FF08043CDE966
:101E4000020103F0B1F9CDE90401DDE90623FEF753
:101E500060FACDE9080103F0A1FECDE90C01AB4821
:101E600000680990FEF761FBCDE90A01DDE90C236A
:101E7000FEF7AEF900224FF08043CDE90E01FEF7E8
:101E8000C0FACDE91201A14840680F90FEF74DFB62
:101E9000CDE91001DDE91223FEF772FB74D89B48EF
:101EA00000680D90FEF741FB994A9A4BCDE90E016F
:101EB000FEF72FFACDE91201944840680F90FEF723
:101EC00034FBCDE91001DDE91223FEF741FB5BD2C3
:101ED0008E4840681190FEF728FB02460B46CDE97C
:101EE000120193A002F08EF9884800681190FEF765
:101EF0001CFB02460B46CDE9120193A002F082F9C9
:101F00007E4801684FF08140FEF730F90590FEF7FA
:101F10000CFBCDE908017D4800680390FEF705FB46
:101F200000224FF08043CDE9040103F03DF9CDE9F3
:101F30000601DDE90823FEF7ECF9CDE90A0103F01B
:101F40002DFECDE90E01714800680B90FEF7EDFA09
:101F5000CDE90C01DDE90E23FEF73AF900224FF03E
:101F60008043CDE91001FEF74CFA02460B46CDE95D
:101F700012017BA002F046F90220674908707CA09C
:101F800002F040F91CE2FFE7604800680D90FEF7A0
:101F9000CCFA5F4A5F4BCDE90E01FEF719F9CDE9A6
:101FA00012015A4840680F90FEF7BFFACDE91001C0
:101FB000DDE91223FEF7E4FA5AD85448406811903C
:101FC000FEF7B3FA02460B46CDE912016CA002F00F
:101FD00019F94E4800681190FEF7A7FA02460B4621
:101FE000CDE9120158A002F00DF9444801684FF004
:101FF0008140FEF7BBF80590FEF797FACDE908019E
:10200000424800680390FEF790FA00224FF08043A8
:10201000CDE9040103F0C8F8CDE90601DDE90823A4
:10202000FEF777F9CDE90A0103F0B8FDCDE90E011D
:10203000364800680B90FEF778FACDE90C01DDE92F
:102040000E23FEF7C5F800224FF08043CDE91001C2
:10205000FEF7D7F902460B46CDE9120140A002F087
:10206000D1F803202C4908704BA002F0CBF8A7E16F
:10207000264840680D90FEF758FA254A254BCDE9D1
:102080000E01FEF7A5F8CDE912012048006809907D
:10209000FEF74BFACDE90C011C4840680790FEF7AB
:1020A00044FA404A404BCDE90801FEF791F8CDE9EA
:1020B0000A017BE0BB0100200D0A0000145F00084C
:1020C000D05E00082A20206E6F646520322067658C
:1020D000747320746865207265666572656E6365E9
:1020E000206D65737361676500000000F4010020D6
:1020F000E0010020DC010020E4010020E8010020D4
:1021000074000020F6010020F8010020BC0100202E
:102110003BDF4F8D976E823F9001002069742069EC
:102120007320626C6F636B6564200D0A0000000011
:10213000737065656441727261795B315D202069FD
:10214000732025660D0A0000737065656441727224
:1021500061795B305D206973202566200D0A0000DF
:1021600063616C206973202566200D0A0000000061
:10217000646563656C6572617465200D0A0000001A
:10218000737065656441727261795B315D202069AD
:1021900073202566200D0A0063656C6572617465A5
:1021A000200D0A00FCA9F1D24D62503FDDE90C235D
:1021B000FEF7CEF901D8012000E000200F90FEF7D5
:1021C0008FF9CDE91001DDE91223FEF7C1F93CD901
:1021D000F84800680D90FEF7A8F9F74AF74BCDE9EB
:1021E0000E01FDF7F5FFCDE91201F24840680990B4
:1021F000FEF79BF9CDE90C01EE4800680790FEF769
:1022000094F9EF4AEF4BCDE90801FDF7E1FFCDE985
:102210000A01DDE90C23FEF79BF901D8012000E05B
:1022200000200F90FEF75CF9CDE91001DDE91223E3
:10223000FEF78EF909D9DF4840681390DD48006841
:1022400012901399FEF7D0F95DD1DA4840681190E9
:10225000FEF76BF902460B46CDE91201AFF2E00042
:1022600001F0D0FFD34800681190FEF75EF90246F6
:102270000B46CDE91201AFF2301001F0C3FFD24896
:1022800001684FF08140FDF771FF0590FEF74DF9B1
:10229000CDE90801C74800680390FEF746F900221F
:1022A0004FF08043CDE9040102F07EFFCDE9060145
:1022B000DDE90823FEF72DF8CDE90A0103F06EFCF5
:1022C000CDE90E01BB4800680B90FEF72EF9CDE971
:1022D0000C01DDE90E23FDF77BFF00224FF0804368
:1022E000CDE91001FEF78DF802460B46CDE912014B
:1022F000AFF2941001F086FFB4A001F083FF042038
:10230000B74908705CE0AB4840681190FEF70DF9E2
:1023100002460B46CDE91201AFF29C1001F072FFAC
:10232000A44800681190FEF700F902460B46CDE97B
:102330001201AFF2EC1001F065FFA34801684FF005
:102340008140FDF713FF0590FEF7EFF8CDE9080196
:10235000984800680390FEF7E8F800224FF08043A9
:10236000CDE9040102F020FFCDE90601DDE90823F3
:10237000FDF7CFFFCDE90A0103F010FCCDE90E0116
:102380008C4800680B90FEF7D0F8CDE90C01DDE930
:102390000E23FDF71DFF00224FF08043CDE9100111
:1023A000FEF72FF802460B46CDE91201AFF250209E
:1023B00001F028FF05208A4908708AA001F022FF59
:1023C0001598401C15901498401C1490E6E179482B
:1023D0004068784908608748006848600320159085
:1023E000794801684FF08140FDF7C0FE0390FEF789
:1023F0009CF8CDE906016F4800680190FEF795F85A
:1024000000224FF08043CDE9020102F0CDFECDE97C
:102410000401DDE90623FDF77CFFCDE9080103F0A7
:10242000BDFBCDE90C01634800680990FEF77DF81B
:10243000CDE90A01DDE90C23FDF7CAFE00224FF0C9
:102440008043CDE90E01FDF7DCFFCDE912015948CB
:1024500040680F90FEF769F8CDE91001DDE912231D
:10246000FEF776F820D2534800680D90FEF75DF82D
:10247000514A524BCDE90E01FDF74BFFCDE9120158
:102480004C4840680F90FEF750F8CDE91001DDE9A7
:102490001223FEF75DF807D2012051490870AFF210
:1024A000843001F0AFFE79E1474801684FF0814088
:1024B000FDF75CFE0390FEF738F8CDE906013D48D4
:1024C00000680190FEF731F800224FF08043CDE91B
:1024D000020102F069FECDE90401DDE90623FDF702
:1024E00018FFCDE9080103F059FBCDE90C01314893
:1024F00000680990FEF719F8CDE90A01DDE90C231F
:10250000FDF766FE00224FF08043CDE90E01FDF796
:1025100078FFCDE91201274840680F90FEF705F8D3
:10252000CDE91001DDE91223FEF72AF820D8214871
:1025300000680D90FDF7F9FF1F4A204BCDE90E0111
:10254000FDF7E7FECDE912011A4840680F90FDF74C
:10255000ECFFCDE91001DDE91223FDF7F9FF07D209
:1025600002201F490870AFF2F83001F04BFE15E170
:10257000104800680D90FDF7D8FF0F4A0F4BCDE9CA
:102580000E01FDF725FECDE912010A4840680F90C3
:10259000FDF7CBFFCDE91001DDE91223FDF7F0FFD8
:1025A0002AD803200E490870AFF2144001F02AFE29
:1025B000F4E0FCE0BC0100203BDF4F8D976E823FD2
:1025C000FCA9F1D24D62503FE8010020636F6E73A9
:1025D00074616E742073706565640D0A00000000FC
:1025E000900100206F746865722073746174757354
:1025F0000D0A0000F8010020FB4840680D90FDF72F
:1026000094FFFA4AFA4BCDE90E01FDF7E1FDCDE961
:102610001201F54800680990FDF787FFCDE90C012C
:10262000F14840680790FDF780FFF24AF24BCDE990
:102630000801FDF7CDFDCDE90A01DDE90C23FDF729
:1026400087FF01D8012000E000200F90FDF748FF30
:10265000CDE91001DDE91223FDF77AFF3CD9E2480C
:1026600000680D90FDF761FFE04AE14BCDE90E01F6
:10267000FDF7AEFDCDE91201DB4840680990FDF79A
:1026800054FFCDE90C01D84800680790FDF74DFFD5
:10269000D84AD94BCDE90801FDF79AFDCDE90A01E9
:1026A000DDE90C23FDF754FF01D8012000E00020F4
:1026B0000F90FDF715FFCDE91001DDE91223FDF7BD
:1026C00047FF09D9C84840681390C748006812906E
:1026D0001399FDF789FF03D10420C84908705DE014
:1026E000C14840681190FDF720FF02460B46CDE936
:1026F0001201AFF2745001F085FDBB4800681190E3
:10270000FDF713FF02460B46CDE91201AFF2C850A8
:1027100001F078FDBA4801684FF08140FDF726FDD1
:102720000590FDF702FFCDE90801AF48006803906E
:10273000FDF7FBFE00224FF08043CDE9040102F0DB
:1027400033FDCDE90601DDE90823FDF7E2FDCDE922
:102750000A0103F023FACDE90E01A34800680B90AB
:10276000FDF7E3FECDE90C01DDE90E23FDF730FDB9
:1027700000224FF08043CDE91001FDF742FE0246F2
:102780000B46CDE91201AFF2286001F03BFD0520B8
:102790009A490870AFF2B41001F034FD994800680E
:1027A000FDF7AFFE984908700020984908609848E6
:1027B000008801280FD19748006808B9012000E07F
:1027C00000209449086000209149088000F006FB31
:1027D0000020914908809148008801286AD18E48DC
:1027E0000088042802DB00208B49088001F066FA8B
:1027F0008B49086001F022FB8748008800EB40000D
:10280000884901EB400040888749088008460088D5
:10281000FEF702FE854908808148006830B384488D
:102820000088D0B97C48008800EB40007D4901EB6E
:1028300040004088139000F0F5F9794800680128BD
:1028400019DD7B487B49096830F81100012241F607
:102850001F41139000F0B6FF0DE07548008801227B
:1028600041F61F41139000F0ADFF04E06A48018873
:1028700071A001F0C7FC01207B49088066480088F0
:10288000401C6549088008460088042801DD0020B6
:10289000088076A001F0B6FC7DA001F0B3FC00201A
:1028A0005E49088001207B49086062490860002079
:1028B0007949086079480088012824D1784800685F
:1028C00008B9012000E000207549086066480188C9
:1028D00074A001F097FC00F0FDFA7C4908807CA010
:1028E00001F090FC6AA001F08DFC78480088FEF7AA
:1028F00093FD814908805C480088401C5A49088043
:102900000020664908807D480078012869D10020B0
:102910001390012012906248001D006808B9012040
:1029200000E000205E49091D086075480088B0F588
:10293000907F14D17348006808B9012000E000209E
:1029400070490860704800780090704803787048BB
:1029500002786B4801886F4801F054FC33E1684805
:10296000008840F2211188420CD16748007800901D
:10297000664803786648027861480188664801F035
:1029800041FC20E15E480088B0F5917F0CD15E48A3
:10299000007800905D4803785D48027858480188C7
:1029A0005E4801F02FFC0EE15548008840F22311EB
:1029B000884217D13A480830006808B9012000E081
:1029C00000203749083108604F48007800904F4890
:1029D00003784F4802784A480188514801F012FCB8
:1029E000BCE0F4E0BFE00000BC0100203BDF4F8D05
:1029F000976E823FFCA9F1D24D62503F90010020BA
:102A0000E8010020F801002091010020740000205E
:102A100002000020B401224290000020100000209B
:102A2000A8010020BA000020AE010020B001002063
:102A3000D2000020200100202B2B2B474747206E7F
:102A40006F7468696E6720746F2073656E642021EF
:102A500020696E204E756D42633A256420204747F9
:102A6000472B2B2B0D0A0000B60100202A2A2A2A08
:102A70002A2A2A2A2A2A2A2A7265666572656E63BC
:102A80006520656E64202A2A2A2A2A2A2A2A2A2AC6
:102A9000200D0A001C010020DC00002004000020A2
:102AA0008001214223232323232323232323696E0D
:102AB0007465727275707420256420232323232388
:102AC000232323232323200D0A000000B401002028
:102AD00023232323232323232323656E6420696E6A
:102AE0007465727275707423232323232323232395
:102AF0002323200D0A000000B20100201E00002048
:102B0000200000209481214219000020170000209D
:102B100016000020885C0008E05C0008385D0008B2
:102B2000405E0008012002F063F8129818B1139873
:102B30000A3080B2139040F2DC511398884201DDD4
:102B400000201290139808B901201290214813997F
:102B500001F027F820A0139901F054FB23480078D6
:102B60000128DFD02FE022480088B0F5927F14D1F1
:102B70002048006808B9012000E000201D490860D5
:102B80001D48007800901D480378184802781848BE
:102B900001881B4801F036FB15E01548008840F21B
:102BA000251188420CD1144800780090134803780E
:102BB0000E4802780E480188124801F023FB02E01B
:102BC00011A001F01FFB00201549087000BFFFF79E
:102BD000A9B800000008004070776D20776F726B15
:102BE00073206E6F77202564200D0A0016000020E8
:102BF00020000020A481214219000020170000209D
:102C0000905D0008E85D00082A2A617262697472AA
:102C10006172792077696E646F7773202A2A0000C9
:102C20001E00002010B50446A4F59070062822D29C
:102C3000DFE800F003080D12171C4FF4907002F04B
:102C400057F81CE040F2211002F0D6F817E04FF4DC
:102C5000917002F055F912E040F2231001F078FA79
:102C60000DE04FF4927002F095F908E040F2251063
:102C700002F014FA03E003A001F0C4FA00BF00BFA1
:102C800010BD000063616E20626520612061726288
:102C9000697472617279206D657373616765200D67
:102CA0000A0000007047000029B1064AD2690243B9
:102CB000044BDA6104E0034AD2698243014BDA61D2
:102CC000704700000010024029B1064A1269024311
:102CD000044B1A6104E0034A12698243014B1A61F2
:102CE000704700000010024029B1064A9269024371
:102CF000044B9A6104E0034A92698243014B9A6152
:102D0000704700000010024030B50021002200246E
:102D100000232D4D6D6805F00C0121B1042905D06B
:102D2000082923D105E0294D056022E0274D0560E3
:102D30001FE0254D6D6805F47012234D6D6805F494
:102D40008034022505EB92421CB9214D55430560A4
:102D50000BE01D4D6D6805F400351DB11C4D55434C
:102D6000056002E0194D5543056002E0174D05600E
:102D700000BF00BF144D6D6805F0F0010909154D45
:102D80006B5C0568DD4045600F4D6D6805F4E061E2
:102D9000090A104D6B5C4568DD4085600A4D6D6821
:102DA00005F46051C90A0B4D6B5C4568DD40C56098
:102DB000054D6D6805F44041890B074D6B5CC56896
:102DC000B5FBF3F5056130BD0010024000127A003A
:102DD00000093D002F0000203F00002070B52C4866
:102DE00000782C4908602C4800782C4908602C4851
:102DF00000782849096801EB41012A4A02EB4101A8
:102E0000264A126821F812002248006800EB4000B0
:102E1000244901EB40002149096830F8110022499A
:102E2000097840EA01211B48006800EB40001D4A78
:102E300002EB4000194A126820F812101B48017872
:102E40001448006800EB4000194A1044134A126805
:102E5000815410480068114909684843002815DB6F
:102E6000002411E000250CE004EB44000D4901EBC7
:102E7000400030F815302A4621460EA001F0C2F974
:102E80006D1C032DF0DB641C042CEBDB70BD00001B
:102E90000700002038010020080000203C0100202D
:102EA00009000020BA0000200A0000200B000020CA
:102EB000040200207265636569766564206D617443
:102EC0007269782020256420256420252378200D30
:102ED0000A00000010B53648008860BB35490988F3
:102EE000491E01EB4101344A02EB4101334A344BA4
:102EF0001B6852F8232031F81200FFF793FE304888
:102F00000068401C2E4908602E480088401C2E494D
:102F10000968884204DB00212C4800F03CFD3BE0BE
:102F20002349274A126831F81200012241F61F4155
:102F300000F048FC30E01F490988491E01EB4101BF
:102F40001D4A02EB410222490968491E1B4B53F8F6
:102F5000211032F81100FFF765FE1A4800881A495F
:102F60000968884204DB0021184800F014FD13E0D2
:102F70000F49174A126831F81200012241F61F4129
:102F800000F020FC1248016812A001F03BF9104843
:102F90000068401C0E4908600648008800EB4000AD
:102FA000054901EB40000749098830F8110010BDC0
:102FB000D200002090000020BA0000203002002043
:102FC00020010020B6010020A801002000040040DC
:102FD0001C0100204E6F77207468652066696E6161
:102FE0006C54696D657256616C75652073686966AD
:102FF000742076616C75652069732025640D0A0064
:1030000070470000F0B587B007460120019000200E
:103010008DF80D008DF80C0005208DF80E000024B1
:103020004AE0002545E0E0B28DF80F008DF8105021
:1030300004EB4400244901EB400010F815108DF812
:10304000111004EB4400204901EB400030F815005A
:1030500001128DF8121004EB44001C4901EB4000F2
:1030600010F815108DF8131001A91948FDF7FAFE94
:1030700006464FF4167001F0BBFD00BF3146144800
:10308000FDF783FF0028F9D02A46214611A001F060
:10309000B9F89DF8111014A001F0B4F89DF81210C1
:1030A00016A001F0AFF89DF8131019A001F0AAF8CE
:1030B0006D1C032DB7DB641C042CB2DB0C208DF8D7
:1030C0000F0007B0F0BD0000A2000020E0000020CB
:1030D0000064004069203D2025642C6A203D2025A5
:1030E0006420200D0A000000534D20697320736591
:1030F0006E74323A202523780D0A0000534D206962
:10310000732073656E74333A20252378200D0A00EE
:10311000534D2069732073656E74343A20252378EB
:10312000200D0A002DE9F04186B004460E461746F0
:103130009846042028490870032028490870012077
:103140002749087027480078274908700420274934
:103150000870052026490870009400208DF80900A9
:103160008DF8080008208DF80A001B4800788DF8BB
:103170000B001A4801788DF80C10194801788DF869
:103180000D10194801788DF80E10184801788DF847
:103190000F10174801788DF8101069461548FDF793
:1031A00061FE0546144A0598D2E90032C01842F182
:1031B0000001114A03C20020059000BF29460D48B6
:1031C000FDF7E3FE0028F9D00B480CC80BA001F076
:1031D00019F806B0BDE8F081580000205900002021
:1031E0005A000020480000205B0000205C00002006
:1031F0005D000020006400405000002054686520FD
:1032000073656E64696E67207265666572656E636C
:10321000652074696D652069732020256C6C6420BD
:103220000D0A000010B500F001F810BD0CB500202B
:10323000019000903348006840F4803031490860C4
:1032400000BF3048006800F4003000900198401C36
:103250000190009818B90198B0F5A06FF1D12948F4
:10326000006800F4003010B10120009001E000205F
:1032700000900098012843D12348006840F01000D6
:10328000214908600846006820F0030008600846ED
:10329000006840F0020008601A4840681949486018
:1032A0000846406848600846406840F480604860CE
:1032B0000846406820F47C1048600846406840F4A6
:1032C000E81048600846006840F08070086000BF61
:1032D0000C48006800F000700028F9D009484068E8
:1032E00020F00300074948600846406840F00200AB
:1032F000486000BF0348406800F00C000828F9D17E
:103300000CBD00000010024000200240042808D13B
:103310004FF0E021096941F004014FF0E022116112
:1033200007E04FF0E021096921F004014FF0E022AD
:1033300011617047012808D14FF0E021096941F07F
:1033400001014FF0E02211610EE0811C41B94FF004
:10335000E021096921F001014FF0E022116103E051
:1033600000214FF0E0229161704710B50146002224
:1033700000230020CB10022B03D14FF0E024226960
:1033800002E04FF0E024E26901248C4014400CB1CB
:10339000012000E0002010BD704740B14FF0E02157
:1033A000096941F002014FF0E022116107E04FF09E
:1033B000E021096921F002014FF0E022116170471C
:1033C0004FF0E0214861704710B51348006840F0A5
:1033D00001001149086008464068104908400E493C
:1033E0004860084600680E4908400B4908600846D6
:1033F000006820F4802008600846406820F4FE0041
:1034000048604FF41F008860FFF70CFF4FF000602A
:103410000449086010BD0000001002400000FFF8E1
:10342000FFFFF6FE08ED00E0F0B50C461546002261
:103430000021068C4FF6FE773E400684028B018CFD
:103440004FF60C7632407E1C06EA03162E433243BA
:10345000104EB0420ED0104EB0420BD0B0F1804FA3
:1034600008D00E4EB04205D00D4EB04202D00D4EE7
:10347000B04206D14FF6FD76314044F001063143AB
:1034800005E04FF6F576314044F001063143028302
:103490000184F0BD002C01400034014000040040D4
:1034A00000080040000C0040F0B50C461546002214
:1034B00000210026078C4FF6EF7C07EA0C070784F3
:1034C000028B018C4FF6FF7707EA041640F6FF47A0
:1034D0003A404FF6FF7707EA03373A434FF6FF7754
:1034E00007EA05273A43114FB8420ED0104FB842B1
:1034F0000BD0B0F1804F08D00E4FB84205D00E4F20
:10350000B84202D00D4FB84206D14FF6DF773940AE
:1035100046F01007394305E04FF65F77394044F035
:103520001007394302830184F0BD0000002C0140E4
:10353000003401400004004000080040000C00403E
:10354000F0B50C461546002200210026078C4FF6E8
:10355000FF6C07EA0C070784828B018C4FF6FF771C
:1035600007EA04264FF60C773A404FF6FF7707EA52
:1035700003172F433A43114FB8420ED0104FB842B1
:103580000BD0B0F1804F08D00E4FB84205D00E4F8F
:10359000B84202D00D4FB84206D14FF6FF5739401E
:1035A00046F48077394305E04FF2FF57394044F441
:1035B0008077394382830184F0BD0000002C0140F4
:1035C000003401400004004000080040000C0040AE
:1035D000F0B50C461546002200210026078C4EF659
:1035E000FF7C07EA0C070784828B018C4FF6FF777C
:1035F00007EA043640F6FF473A404FF6FF7707EAFE
:1036000005273A434FF6FF7707EA03373A43114F4E
:10361000B8420ED0104FB8420BD0B0F1804F08D056
:103620000E4FB84205D00E4FB84202D00D4FB842EF
:1036300006D14DF6FF77394046F48057394305E00F
:1036400047F6FF57394044F4805739438283018459
:10365000F0BD0000002C0140003401400004004097
:1036600000080040000C004010B50121880700F060
:10367000BFF9A8B10121880700F08AF9094800784C
:10368000012802D1084908800AE00848007801288A
:1036900006D10749088007480078401C0549087092
:1036A00010BD0000BB01002074000020AC01002010
:1036B0006C000020480000207FB506460C461546E9
:1036C00001210846FFF7F0FAADF80860ADF80440B4
:1036D0000020ADF80A00ADF8060001A94FF08040C7
:1036E00000F090FA01221146900700F0F2F91C2038
:1036F0008DF8000000208DF8010002208DF80200F6
:1037000001208DF803006846FDF71CFF29464FF0A5
:10371000804000F040F97FBD10B50121184800F04D
:1037200067F900282AD00121154800F031F9154821
:10373000007801281FD11448006808B9012000E072
:1037400000201149086011480068401C0F490860BA
:10375000084600680A280AD30DA000F053FD002196
:10376000074800F018F90121880700F014F901203A
:103770001249088002E001201149088010BD0000B4
:1037800000040040AC010020B801224224000020C7
:103790004E6F772074686520534D206973207365E0
:1037A0006E7420746F20616C6C2074686520736C7B
:1037B000617665206E6F646573000000280000204C
:1037C000040000207FB506460C4615460121022064
:1037D000FFF76AFAADF80860ADF804400020ADF8D4
:1037E0000A00ADF8060001A90D4800F00BFA01220D
:1037F00011460B4800F06DF91D208DF800000020E7
:103800008DF8010003208DF8020001208DF80300DF
:103810006846FDF797FE2946014800F0BCF87FBDD9
:103820000004004000B589B001210420FFF73CFAF4
:1038300001210820FFF758FA08A8FDF7A8FDC020CD
:10384000ADF8200004208DF8230003208DF822001D
:1038500008A92048FDF70CFD05A800F025FA40F264
:10386000D750ADF818000020ADF81400ADF81A00DC
:10387000ADF8160005A9184800F0C4F90A231A4645
:103880000321154800F093F802A800F019F90F2061
:10389000ADF8100002A9104800F0BCF80122114652
:1038A0000D4800F016F91E208DF8040001208DF857
:1038B00005008DF806008DF8070001A8FDF742FE0F
:1038C0000021054800F06FF90121034800F063F87A
:1038D00009B000BD000C01400008004010B50121F6
:1038E000084800F085F840B107480068401C0649C8
:1038F00008600021034800F056F90121014800F05A
:1039000047F810BD000800406800002030B589B0BD
:1039100005460C4601210420FFF7C6F901210820C5
:10392000FFF7E2F98020ADF8200018208DF8230081
:1039300003208DF8220008A91348FDF799FCADF883
:103940001850ADF814400020ADF81A00ADF816007C
:1039500005A90E4800F056F96020ADF804000120DA
:10396000ADF806000020ADF80C0001A9074800F0F2
:10397000B9F80821054800F007F90121034800F0D3
:103980000AF809B030BD0000000C014000080040FA
:10399000CA430282704721B1028842F001020280CC
:1039A00004E002884FF6FE731A4002807047F0B5BB
:1039B0000C4615461E460021002200230189028B79
:1039C000038C4FF6F877394021434FF6FC473A40D5
:1039D00040F201173A434FF6DD773B404FF6FF7751
:1039E00007EA06172F433B43018102830384F0BD9E
:1039F00030B50246002000230024158A05EA0103A1
:103A0000958905EA010413B10CB1012000E0002002
:103A100030BD000070B505460C46244885420ED0E6
:103A2000234885420BD0B5F1804F08D0214885420C
:103A300005D02148854202D02048854200D100E0CF
:103A400000BF208850B92389A28861882846FFF7E3
:103A5000EBFCE188284600F0A8F825E0208804283F
:103A60000AD12389A28861882846FFF71DFDE188D5
:103A7000284600F0A3F817E0208808280AD12389F7
:103A8000A28861882846FFF75BFDE188284600F0A0
:103A9000A2F809E02389A28861882846FFF798FDEB
:103AA000E188284600F0A0F870BD0000002C01401D
:103AB000003401400004004000080040000C0040B9
:103AC000002101804180012181800021C18001818C
:103AD00070471AB183890B43838102E083898B434A
:103AE0008381704770B5002400220023058C4FF6B7
:103AF000EF7635400584028C8388048B48F6FF7589
:103B00002C404FF6FF452C400D884FF6FF7606EA15
:103B100005252C434FF6DF752A400D8906EA051569
:103B20002A434D8806EA05152A43154DA84202D0BE
:103B3000144DA8421DD14FF67F752A404D894FF68E
:103B4000FF7606EA05152A434FF6BF752A408D8891
:103B500006EA05152A434FF6FF352B404FF2FF7555
:103B60002B408D8906EA85052B43CD8906EA85051C
:103B70002B4383800483CD880587028470BD0000B9
:103B8000002C0140003401400A460021018B4FF215
:103B9000FF7319404FF6FF7303EA022319430183B1
:103BA00070470187704781847047028B4FF6F3732B
:103BB0001A400283028B0A4302837047028B4FF242
:103BC000FF331A400283028B4FF6FF7303EA01238F
:103BD0001A4302837047828B4FF6F3731A40828335
:103BE000828B0A4382837047828B4FF2FF331A40E5
:103BF0008283828B4FF6FF7303EA01231A43828389
:103C000070470000002202881D4B98420ED01D4BC9
:103C100098420BD0B0F1804F08D01B4B984205D092
:103C20001A4B984202D01A4B984204D14FF68F7328
:103C30001A404B881A43174B984207D0164B9842AC
:103C400004D04FF6FF431A40CB881A4302808B887A
:103C500083850B8803850A4B98420BD0094B984209
:103C600008D00E4B984205D00D4B984202D00D4B18
:103C7000984201D10B7A03860123838270470000AA
:103C8000002C0140003401400004004000080040C6
:103C9000000C0040001000400014004000400140B3
:103CA00000440140004801404FF6FF71818000212F
:103CB0000180C18041800172704700002DE9FC4104
:103CC0000024A046002037E0002132E000EB400253
:103CD0004D4B03EB420232F811804C4A1278012A14
:103CE00011D100220CE04A4B33F81230434506D183
:103CF000484B43F8340003EBC4035960641C521C66
:103D0000032AF0D314E0444A1278012A10D1002289
:103D10000CE0424B33F81230434506D13D4B43F89B
:103D2000340003EBC4035960641C521C032AF0D313
:103D3000491C0329CADB401C0428C5DB0025384880
:103D40000068A04202DB0020354908603449086859
:103D500014E0304951F83010324A128891420CD1A7
:103D60002C4901EBC00149682F4A42F825106D1C0F
:103D70002B490968491C2A4A1160401CA042E8DB13
:103D8000002000900190002700BF0DE0264951F867
:103D90002010491E254A11601146098889B22DF864
:103DA0001710791C8FB2401CA842EFDBBDF8001041
:103DB0001F48FCF7ECFD1F490860012608E03DF8AC
:103DC00016101B48FCF7E3FD1A4941F82600761C43
:103DD000AE42F4DB002011E016490988164A118032
:103DE00001280ADB134931F82020411E114B33F81A
:103DF0002110511A104A22F81010401CA842EBDB87
:103E00002846BDE8FC810000BA000020BA0100206D
:103E10009600002040020020BB0100209C000020F2
:103E20002C0100209000002030020020DC00002047
:103E300092000020A0020020D2000020F0B5002354
:103E4000002500240022012119E00E4830F811500D
:103E5000002011E000EB40060B4F37F816309D4272
:103E600009D100EB400607EB4606B488074E26F85A
:103E70001240561CF2B2401C0628EBDB491C0329F9
:103E8000E3DBF0BDBA000020F80000209200002023
:103E900021B1828942F40052828104E082894DF688
:103EA000FF731A408281704700B587B0012144F248
:103EB0000400FEF719FF4FF40070ADF81800182049
:103EC0008DF81B0003208DF81A0006A91E48FDF787
:103ED000CFF94FF48060ADF8180004208DF81B0076
:103EE00003208DF81A0006A91748FDF7C1F925200F
:103EF0008DF8040003208DF805008DF806000120E0
:103F00008DF8070001A8FDF71DFB4FF47A300290F1
:103F10000020ADF80C00ADF80E00ADF81000ADF8C3
:103F200014000C20ADF8120002A9084800F042F875
:103F3000012240F22551054800F017F801210348FD
:103F4000FFF7A6FF07B000BD0008014000380140A0
:103F500002460020B1F5007F00D100BF13880B405E
:103F60000BB1012000E000207047F0B503460024AB
:103F700000260025002040F66A17B94200D100BF94
:103F80001846C1F3421401F01F06012707FA06F58F
:103F9000012C01D10C3004E0022C01D1103000E0E2
:103FA00014301AB107682F43076002E00768AF4377
:103FB0000760F0BD2DE9F04786B005460E460024A7
:103FC000A24600BFA1460027B08900B100BF2F461E
:103FD0002C8A4CF6FF700440F08804432C82AC8994
:103FE0004EF6F3100440B0883189084371890843C4
:103FF0000443AC81AC8A4FF6FF400440B0890443CF
:10400000AC8201A8FEF780FE1F48874202D1DDF88E
:1040100010A001E0DDF80CA0A88900F4004040B138
:104020000AEBCA0000EB0A1031684900B0FBF1F856
:1040300007E00AEBCA0000EB0A1031688900B0FB08
:10404000F1F86420B8FBF0F004012009642101FBC1
:104050001089A88900F4004040B1322000EBC9006B
:10406000B0FBF1F000F00700044308E0322000EB61
:1040700009106421B0FBF1F000F00F0004432C8123
:1040800006B0BDE8F087000000380140C1F3080227
:104090008280704700B587B001AA00211F48FCF755
:1040A00052FE1F49019808809DF80F001D490870B5
:1040B0009DF810001C4908709DF811001B490870FC
:1040C0009DF812001A4908709DF8130019490870EC
:1040D0009DF8140018490870BDF8180017490880A9
:1040E000BDF81800164909880844154908800020C1
:1040F000ADF8180002210948FCF784FC0848008844
:10410000012802D10F49088006E0054800880228EE
:1041100002D101200C49088007B000BD00640040B6
:1041200000000020070000200800002009000020F7
:104130000A0000200B0000200C00002014000020CA
:1041400012000020020000201000002000BFFEE747
:1041500030B587B004461A480078401C18490870EA
:104160000846007817490870019400208DF80D006A
:104170008DF80C0008208DF80E00134800788DF89B
:104180000F00124801788DF810100E4801788DF854
:10419000121001A90E48FCF765FE0546632000F0E9
:1041A00051FD00BF29460A48FCF7EFFE0028F9D070
:1041B00022460348017807A000F024F807B030BD7C
:1041C0007001002093010020900100209101002047
:1041D000006400403E3E3E3E3E696E637265617320
:1041E000655F666C6167202523782C204944202078
:1041F0002523782069732073656E743C3C3C3C3CFD
:104200000D0A00000FB4054B10B503A9044A02982B
:1042100000F06AF910BC5DF814FB00008D4C00083A
:10422000FC010020490050EAC12018BF04204A0DBB
:1042300018BF40F0010040F2FF72B2EB515F08BFBF
:1042400040F00200012808BF052070472DE9F04129
:104250004F1E00EBC7010446D1E9000115461E467A
:1042600037F006020DD02A463346FCF758F87F1E79
:1042700004EBC703D3E90023FBF7AAFF37F00602DC
:10428000F1D1022F25D0042F13D0062F18BFBDE87F
:10429000F0812A463346FCF742F8D4E90A23FBF7BB
:1042A00097FF2A463346FCF73AF8D4E90823FBF790
:1042B0008FFF2A463346FCF732F8D4E90623FBF792
:1042C00087FF2A463346FCF72AF8D4E90423FBF794
:1042D0007FFF2A463346FCF722F8D4E90223FBF796
:1042E00077FF2A463346FCF71AF8D4E90023BDE8E5
:1042F000F041FBF76DBF0000002213461046014954
:10430000FCF77FB80000F03FFBF762BF00221346C6
:1043100010461146FCF775B840F2013200204FF00C
:10432000E041FCF777BA0000024A00201107FCF7D1
:1043300071BA000001FDFFFF02E008C8121F08C1AA
:10434000002AFAD170477047002001E001C1121F16
:10435000002AFBD170470000014908607047000047
:10436000000200202DE9FF5F82B00021DDE904306A
:10437000020DDDF840B0034318D044F61050A2F20D
:10438000FF3242431514119801281FD0A5EB0B00F2
:10439000401C5FEA000A4FF000064E4FDFF83891EC
:1043A000B046504615D5CAF1000413E01198012417
:1043B0004AA3012801D16FEA0B010298119AC0E9C2
:1043C0000031C0E9024206B0BDE8F09FCBF1000029
:1043D000DFE704460021404A491842EB0450CDE98A
:1043E000001012E0E00707D032463B4640464946FF
:1043F000FBF795FF8046894632463B4610461946F4
:10440000FBF78DFF06460F466410002CEAD1DDE96C
:104410000401DDE90023BAF1000F06DAFBF77FFFA4
:1044200042464B46FBF77BFF05E0FBF7EAFF4246BF
:104430004B46FBF7E6FF04460E460022284BFCF7EE
:104440009FF803D84FF0FF30014607E00022254BCC
:1044500020463146FBF7BCFEFCF744FA102409E085
:10446000002C0ADB0A220023FCF7DEF8039B303223
:104470001A55641E50EA0102F2D1641C039AC4F179
:1044800011031444119A012A03D0012208430DD1CB
:104490000AE0084304D000204FF0110B119072E79E
:1044A000A3EB0B056D1E0DE05B4504DD4FF0000234
:1044B00005F1010504E003DA4FF00002A5F1010562
:1044C000002AECD002981199C0E90231C0E90045F8
:1044D00079E70000000014400000F03F30000000C9
:1044E0000000F0430000E03F2DE9FF4F95B09A46F1
:1044F000884606460025EEE1252877D10024274688
:10450000F94A0121039400E0044316F8013F203BDF
:1045100001FA03F01042F7D130782A2811D06FF059
:104520002F033078A0F13002092A16D8039A44F0FC
:10453000020402EB820203EB42021044761C039059
:10454000EFE758F8042B0392002A03DA504244F4B0
:104550000054039044F00204761C30782E2816D1C3
:1045600016F8010F44F004042A280DD06FF02F0232
:104570003078A0F13003092B09D807EB870302EB51
:104580004303C718761CF3E758F8047B761C307891
:104590006C280FD006DC4C2817D068280DD06A286C
:1045A00014D104E0742810D07A280FD10DE044F41F
:1045B00000140AE044F4801401E044F440147278DA
:1045C000824202D104F58014761C761C307866286D
:1045D0000BD013DC582877D009DC002875D045288B
:1045E000F6D04628F4D047281AD193E118E0632882
:1045F00035D0642879D0652812D18BE1702873D02A
:1046000008DC6728F1D069286FD06E280DD06F289C
:1046100006D1ACE073282CD0752874D0782853D0FC
:104620005246179990476D1C54E1C4F3025002287A
:1046300009D003280DD0D8F8001004280DD00D6043
:1046400008F1040846E1D8F80010EA17C1E9005261
:10465000F6E7D8F800100D80F2E70D70F0E718F8D3
:10466000041B8DF8001000208DF80100EB4601209E
:1046700003E058F804BB4FF0FF3061074FF0000132
:1046800002D40DE009F101018946B9420FDA8145F2
:10469000F8DB1BF809100029F4D108E009F1010149
:1046A00089468142FADB1BF809100029F6D10398EC
:1046B0005346A0EB090721463846179A00F080FAC6
:1046C000284400EB090507E044E008E10DE01BF891
:1046D000010B524617999047B9F10109F7D2534699
:1046E00021463846179AF2E039E00A21C4F3025213
:1046F0004FF0000B0091022A06D058F8040BC117A6
:10470000032A09D00AE023E008F1070020F007029D
:10471000F2E80201904605E000B2C117042A01D177
:1047200040B2C117002906DA0A460021404261EB77
:1047300002012D2202E0220504D52B228DF804204F
:10474000012203E0E20701D02022F7E7914657E07B
:104750000A2100E010214FF0000B00910BE0102126
:104760004FF0000B44F004040827009103E00820F8
:104770004FF0000B0090C4F30252022A05D058F803
:10478000040B0021032A08D008E008F1070020F0FC
:104790000702F2E80201904603E080B2042A00D149
:1047A000C0B24FF0000922072AD53278702A07D00C
:1047B000DDF800C08CF0100C5CEA0B0C05D00EE0AC
:1047C00040228DF80420012208E050EA010306D0BF
:1047D00030238DF804308DF8052002229146009B8D
:1047E00083F0080353EA0B030AD150EA010201D116
:1047F000620705D530228DF804204FF001097F1E95
:104800003278582A04D039A20C920CAA02920BE0FA
:104810003BA2F9E75B46009AFBF706FF0C9B9B5C0B
:10482000029A521E0292137050EA0102F2D10298CB
:1048300004A9081A00F1200B600702D524F4803483
:1048400000E001275F4502DDA7EB0B0000E0002040
:1048500000EB0B01009003984944401A0390E003D9
:1048600006D453462146179A039800F0A9F9054447
:10487000002706E001A85246C05D179990476D1CBD
:104880007F1C4F45F6DBE0030CD553462146179AB3
:10489000039800F095F9054404E03020524617993A
:1048A00090476D1C0099481E00900029F5DC08E037
:1048B0000298029952460078491C02911799904734
:1048C0006D1CBBF10001ABF1010BF1DC5BE100F011
:1048D00065F90544761C307800287FF40DAE19B0D8
:1048E0002846BDE8F08F000009280100303132333E
:1048F000343536373839616263646566000000001C
:104900003031323334353637383941424344454605
:1049100000000000600700D4062708F1070020F01F
:104920000700F0E80223804603F0004C5FEA0C0029
:1049300001D097A009E0200501D596A005E0E00789
:1049400001D095A001E0AFF24C001390307823F035
:10495000004365280CD006DC452809D046281DD028
:1049600047287FD13BE0662818D067287AD136E007
:104970000021112F01DB112000E0781CCDE900019E
:1049800004A90CA8FFF7EEFCDDE90D010C9A4FF02D
:10499000000B07F10109109200914EE04FF000402A
:1049A0000097CDE9011004A90CA8FFF7DBFCDDE9B5
:1049B0000D020C9B0F994FF0000B91461093009243
:1049C00011B9791C00EB0109B7EB090003D4C0F160
:1049D000FF3B07F10109A9EB0700019042E0012F1D
:1049E00000DA01270021112F01DD112000E03846F7
:1049F000CDE9000104A90CA8FFF7B4FCDDE90D0125
:104A00000C9A00914FF0000BB946109221070FD479
:104A1000009A4A4503DA914601E0A9F10109B9F18A
:104A2000010F05DD109AA9F10101515C3029F4D084
:104A3000B84202DA10F1040F03DA0121CDE90110C6
:104A400010E0002803DC8344A9EB000102E0411CD4
:104A5000494500DD8946A0EB0B00401C01904FF05A
:104A600000400290200705D40198484502DB4FF032
:104A7000FF30019000208DF84B0002980DF14B079C
:104A8000B0F1004F25D002200C902B200D90029801
:104A900000280CDA404202902D200D9007E00A21F8
:104AA0000298FBF7ABFD3031029007F8011D0C991D
:104AB000481E0C900029F2DC02980028EFD1791EE4
:104AC0000D980870307800F0200040F0450007F89D
:104AD000020D11A8C01BC01D02901398007800B1F0
:104AE000012000EB0901019801EBE07102980144FB
:104AF0000398401A401E0390E00306D45346214613
:104B0000179A039800F05CF805441398007818B1E0
:104B10005246179990476D1CE00323D55346214612
:104B2000179A039800F04CF805441BE0BBF1000F06
:104B300007DB0098584504DD1098179910F80B0012
:104B400001E0179930205246904701980BF1010B74
:104B5000401E05F10105019004D12E2052461799FF
:104B600090476D1CB9F10001A9F10109DEDC05E0F7
:104B700017F8010B5246179990476D1C0299481E71
:104B800002900029F4DC53462146179A03989EE6CA
:104B90002D0000002B000000200000002DE9F04156
:104BA000044600251E461746880404D405E039460D
:104BB0002020B0476D1C641EF9D52846BDE8F08161
:104BC0002DE9F041044600251E469046C80301D554
:104BD000302700E02027880404D505E04146384608
:104BE000B0476D1C641EF9D52846BDE8F081000071
:104BF00070B504461148008800FB04F5B5F1807FCC
:104C000001D36FF07F452846FEF7DAFB0020FEF760
:104C100091FB0120FEF78EFB00BF1020FEF7A5FBE5
:104C200007490870084600780128F6D1C01EFEF733
:104C300081FB0020FEF77EFB70BD00002C000020F1
:104C40002E00002010B504460E49097801FB04F03F
:104C5000FEF7B6FB0020FEF76DFB0120FEF76AFBB6
:104C600000BF1020FEF781FB074908700846007856
:104C70000128F6D1C01EFEF75DFB0020FEF75AFBAF
:104C800010BD00002A0000202E00002070B5044650
:104C90000D46E1B20548FFF7F9F900BF402103488E
:104CA000FFF756F90028F9D0204670BD00380140C2
:104CB00010B5FCF787FAFCF775FBFFF7F5F84FF432
:104CC000A060FCF777FC012020B1012805D0022864
:104CD00009D105E0FCF778FC06E0FCF707FD03E0EE
:104CE000FCF7E2FF00E000BF00BF002010BD0000A5
:104CF00030B587B0044601202A4908702A49087057
:104D000003202A49087004202949087005202949F0
:104D10000870062028490870019400208DF80D00C5
:104D20008DF80C0008208DF80E001E4800788DF8D4
:104D30000F001D4801788DF810101C4801788DF87F
:104D400011101B4801788DF812101A4801788DF85F
:104D50001310194801788DF8141001A91748FCF7B1
:104D600081F805460120FFF743FF154A0698D2E96E
:104D70000032C01842F10001114A03C2002006901F
:104D800000BF29460D48FCF700F90028F9D00C486F
:104D90000CC80CA0FFF736FA214610A0FFF732FA34
:104DA00007B030BD78010020790100207A01002091
:104DB0007B0100207C0100207D0100200064004078
:104DC0004001002074696D655478207374616D70C2
:104DD00020256C6C64200D0A000000003E3E3E3E23
:104DE0003E494420202523782069732073656E7422
:104DF0003C3C3C3C3C0D0A0030B587B004460220E8
:104E00002A4908702A49087003202A49087004209A
:104E1000294908700520294908700620284908708A
:104E2000019400208DF80D008DF80C0008208DF8FD
:104E30000E001E4800788DF80F001D4801788DF88F
:104E400010101C4801788DF811101B4801788DF85E
:104E500012101A4801788DF81310194801788DF84E
:104E6000141001A91748FBF7FDFF05460120FFF7C5
:104E7000BFFE154A0698D2E90032C01842F100017F
:104E8000114A03C20020069000BF29460D48FCF7D6
:104E90007CF80028F9D00C480CC80CA0FFF7B2F938
:104EA000214610A0FFF7AEF907B030BD8001002009
:104EB0008101002082010020830100208401002064
:104EC00085010020006400404801002074696D6580
:104ED0005478207374616D7020256C6C64200D0A09
:104EE000000000003E3E3E3E3E49442020252378FF
:104EF0002069732073656E743C3C3C3C3C0D0A0099
:104F000030B587B0044617480078401C1549087032
:104F1000019400208DF80D008DF80C0008208DF80C
:104F20000E00114800788DF80F00104801788DF8B8
:104F300010100F4801788DF8121001A90D48FBF7E9
:104F400091FF05460120FFF753FE00BF294609489F
:104F5000FCF71BF80028F9D0214607A0FFF752F90B
:104F600007B030BD700100208801002089010020B9
:104F70008B010020006400403E3E3E3E3E494420FE
:104F8000202523782069732073656E743C3C3C3C7B
:104F90003C0D0A0030B587B0044605202A49087048
:104FA0002A49087003202A490870042029490870FA
:104FB000052029490870062028490870019400201E
:104FC0008DF80D008DF80C0008208DF80E001E489D
:104FD00000788DF80F001D4801788DF810101C48DE
:104FE00001788DF811101B4801788DF812101A48BD
:104FF00001788DF81310194801788DF8141001A963
:105000001748FBF72FFF05460220FFF7F1FD154A71
:105010000698D2E90032C01842F10001114A03C2D9
:105020000020069000BF29460D48FBF7AEFF002880
:10503000F9D00C480CC80CA0FFF7E4F8214610A0EA
:10504000FFF7E0F807B030BD98010020990100207B
:105050009A0100209B0100209C0100209D0100205E
:10506000006400406001002074696D65547820730D
:1050700074616D7020256C6C64200D0A00000000C6
:105080003E3E3E3E3E494420202523782069732041
:1050900073656E743C3C3C3C3C0D0A0030B587B0F7
:1050A000044601202B49087002202B490870032078
:1050B0002A49087004202A490870052029490870E7
:1050C000062029490870019400208DF80D008DF804
:1050D0000C0008208DF80E001E4800788DF80F0097
:1050E0001D4801788DF810101C4801788DF81110BA
:1050F0001B4801788DF812101A4801788DF81310AA
:10510000194801788DF8141001A91848FBF7AAFE78
:1051100005460220FFF76CFD154A0698D2E90032D9
:10512000C01842F10001124A03C20020069000BFDD
:1051300029460E48FBF729FF0028F9D021460DA08B
:10514000FFF760F80A480CC811A0FFF75BF807B03A
:1051500030BD0000A0010020A1010020A20100201C
:10516000A3010020A4010020A5010020006400404C
:10517000600100203E3E3E3E3E49442020252378EB
:105180002069732073656E743C3C3C3C3C0D0A0006
:1051900074696D655478207374616D7020256C6C32
:1051A00064200D0A000000002DE9F04D1D460C465C
:1051B00098B0174621F0004123F00043002814BFA7
:1051C0004FF0010C4FF0000C0CEB440CFE4A0CEBC2
:1051D00002064FEA620C66452BD33E0018BF01263B
:1051E00006EB45061644F94A964222D3F84A53EA9A
:1051F000070C02D0944205D148B918B000201146DE
:10520000BDE8F08D002808BF4FF0000C01D04FF032
:10521000010C0CEB440212F5001F0AD8002F14BF3A
:105220004FF0010C4FF0000C0CEB450212F5001F83
:1052300007D918B03A462B462146BDE8F04DFFF796
:1052400063B80022DFF88CA3002CB8BF534526DAE0
:10525000DFF884C36345A8BF022220DADFF870C3F9
:105260009C451CDCDFF874C30CEB235CBCF1140F11
:1052700008DDCCF1340627FA06FC0CFA06F6BE422D
:105280000DD108E05FB9CCF1140623FA06FC0CFA44
:1052900006F69E4203D10CF00102C2F1020251EA6D
:1052A000000C19D1002D17DA002C18BF022A01D0EA
:1052B000012A07D00220FFF74FF818B0BDE8F04DE3
:1052C000FFF71AB80220FFF747F8FFF715F818B0F4
:1052D00081F00041BDE8F08DB7F1000C6CD1534571
:1052E00025D104F1804212F5801201BF0028002070
:1052F000B74918B008BFBDE8F08DB548884207DC53
:10530000002DA1BF6046294618B0BDE8F08D07E02A
:10531000281E05DA80F0004118B06046BDE8F08D27
:10532000AF497944D1E9000118B0BDE8F08DDFF84C
:10533000A0C2634525D1002D1FDA19B1514512D104
:10534000D8B909E0002840F0EC82A24A214618B002
:1053500062F31E01BDE8F08D0020214618B060F315
:105360001E01BDE8F08D08DA18B02346BDE8F04D07
:10537000024600206146FBF744B818B02146BDE85C
:10538000F08D514518DAB5F1804F0DD0A5F1005CD4
:10539000BCF1FF5C10D1B4F1000C0DDB18B061461C
:1053A000BDE8F04D00F0FABB234618B00246BDE858
:1053B000F04D1946FAF7B3BF060024F0004C3BD17C
:1053C000D9B1514533D1002C06DD002DA1BF0020FD
:1053D000514618B0BDE8F08D002C01DD002D1BDB1F
:1053E000002C13DA002D11DB012A4FF0000014BF4E
:1053F00078497C4918B0BDE8F08D022A18BF002C0E
:105400000AD0012A08D1002C06DA0AE0002CB8BF25
:10541000002D11DA012A04D0002018B00146BDE8A1
:10542000F08D18B000204FF00041BDE8F08DA1F1E3
:105430004050B0F17F601AD0012000EBE47050EAD8
:10544000020421D0624C521E4FF0000B104304BFE7
:105450004FF0000B644C654883427CDD644A65482C
:1054600093421FDD884217DB002D25DB37E0002C3F
:1054700000DA4AB1022A0CBF01204FF0FF3018B009
:10548000BDE8F04DFBF72CB80120FEF765FF18B022
:10549000BDE8F04DFEF73ABF4D4A8A4202DC002DCE
:1054A0000ADC1CE0814202DA002D18DA04E0484BE5
:1054B000994220DD002D12DD0220FEF74DFFFEF7A0
:1054C0002BFF05460E460022534658462146FAF762
:1054D00026FF18B066F31E012846BDE8F08D0220B5
:1054E000FEF73AFFFEF720FF0A46214618B062F3A6
:1054F0001E01BDE8F08D002230466146FAF709FF33
:1055000080460E466FF00102FBF784F94FF05532EA
:10551000394BFAF701FF42463346FAF700FF002203
:10552000364BFAF7F9FE824642463346049110465E
:105530001946FAF7F4FE5246049BFAF7F0FE8A4643
:1055400000904FF0C0422E4B40463146FAF7E7FE3E
:105550002C4A2B4B00E027E0CDE90601514600988C
:10556000FAF7DDFE82460191274A284B4046314634
:10557000FAF7D5FE5246019BFAF7CBFE82460B4660
:1055800002460591DDE90601FAF722FEDDE9062370
:10559000002688463046FAF7BCFE5246059BFAF7CD
:1055A000BBFE024600F07EB90020B1F5801F07DA8D
:1055B000352230466146FBF72DF906466FF0340080
:1055C00000EB215024E00000FFFF1F00FFFF0F0051
:1055D0000000F03F0000F07F0000404301FCFFFFAF
:1055E0005A0900000000F0FF0000F0BF0000E04199
:1055F0000000F043FFFFEF3F5555D53F0000E03F6F
:105600004715F73FFE822B6544DF5DF80BAE543E35
:10561000A0F2FF300190C1F3130040F07F6141F030
:1056200040510291FE498842D8BF002004DDFD4967
:105630008142C8BF012001DD0D9008E000200D90DF
:105640000198401C01900298A0F5801002900299E8
:10565000F54878440B910D9900EBC100D0E9002387
:105660000F9330460A920B99FAF753FECDE90601E3
:10567000DDE90A2130460F9BFAF7AAFD02460B46E8
:105680000020EA49FAF7BDFE059102460B4600905C
:10569000DDE90601FAF743FE1490E5488A464FF02B
:1056A000000878440299006812904FF0005040EAD8
:1056B00061010D980F9B01EB804000F500210991DD
:1056C0000A9A1298FAF725FE32460B9BFAF724FE47
:1056D00042465346FAF723FE06460291404651469B
:1056E000099B129AFAF71BFEDDE90623FAF714FE6E
:1056F0003246029BFAF70DFE059B009AFAF70FFE61
:105700000091149A0490534610461946FAF707FE82
:1057100006460246C7480B46029106217844FEF72A
:1057200095FDCDE90510029B324610461946FAF761
:10573000F6FDDDE90532FAF7F2FD0591064653461E
:1057400040461946149AFAF743FD009B049AFAF76B
:10575000E6FD3246059BFAF73BFDCDE905104246D2
:10576000534610461946FAF7DAFD0022B24B029171
:105770000A90FAF72DFDDDE90532FAF729FD0E460C
:105780004246AD4B4046FAF7C4FD029B0A9AFAF72F
:10579000C0FDDDE90532FAF7BFFD424602910A90ED
:1057A000334610465146FAF7BAFDCDE90601534695
:1057B000149A02990A98FAF7B2FD8A460290334683
:1057C000424600990498FAF7AAFD5346029AFAF75E
:1057D000FFFC82460B4602460591DDE90601FAF719
:1057E000F7FCDDE90623002088460646FAF791FD1E
:1057F0005246059BFAF790FD824609914FF06042B0
:105800008E4B30464146FAF78AFD049006918C4A49
:105810008A4B50460999FAF782FD82460291894ADD
:10582000894B30464146FAF77AFD5246029BFAF719
:10583000CFFC864B7B440D9A03EBC203D3E90023D4
:10584000FAF7C6FC0E9007910198FAF749FE059108
:10585000DDE9061382460E9A0498FAF7B9FC7C4AF1
:105860007A440D9B02EBC303D3E900230093029219
:10587000FAF7AEFC5246059BFAF7AAFC00268846CA
:1058800052463046059BFAF744FD009B029AFAF710
:1058900040FD069B049AFAF73CFD079B0E9AFAF727
:1058A0003BFD024600200B46029038462946FAF797
:1058B00036FD824601912B4638461946029AFAF780
:1058C00028FD32464346FAF72AFD5246019BFAF775
:1058D0007FFC07468A463246434629460298FAF735
:1058E0001EFD05460E463A465346FAF771FC594AE4
:1058F0008846914221DBA8EB020353EA000210D153
:105900002A463346FAF705FDCDE90401524A534BC6
:1059100038465146FAF75CFCDDE90423FAF730FE1D
:1059200021D20220FEF718FDFEF7F6FC0A462146BA
:1059300018B062F31E01BDE8F08D494B28F000421B
:105940009A4210D3474A08EB020353EA00027FF45D
:10595000C6AD2A463346FAF7DCFC3A465346FAF718
:105960000FFE7FF6BCAD0022019228F000403E49B8
:105970003E4A01EB2051824223DA481C4FF4801149
:1059800021FA00F040443A4AC0F30A517A44394BB4
:10599000A1F2FF31CB4020EA0303C0F3130040F42F
:1059A0008010C1F11401C84012680190B8F1000FD5
:1059B000BCBF4042019028463146FAF7AAFC054692
:1059C0000E462A46334638465146FAF701FC4FF058
:1059D00000084246284B40460591FAF7A0FCCDE965
:1059E0000601264A264B40460599FAF798FC009195
:1059F00002902A46334640460599FAF78AFC3A4611
:105A00005346FAF789FC1F4A1F4BFAF788FC009BA4
:105A1000029AFAF7DDFB0746884602460B4635E058
:105A20008E9803007AB60B00A20500000000F03F3C
:105A3000DA050000080500000000084009C7EE3F35
:105A4000FD033ADCF5015B14E02F3EBEE0030000ED
:105A5000A403000000009040FE822B654715973C90
:105A600000CC904000346F3F01FCFFFF0000E03F9E
:105A7000F0020000FFFF0F00432EE63F396CA80C38
:105A8000615C20BEEF39FAFE422EE63FDDE90601F9
:105A9000FAF79EFBDDE9062305460E46FAF739FCC8
:105AA0003A464346FAF738FC0F462A4633460090FA
:105AB00010461946FAF733FC824602462E488846BD
:105AC0000B4605217844FEF7C1FB52464346FAF7E0
:105AD00026FC2A463346FAF71FFC80468A463B4698
