:020000040800F2
:100000005807002049010008211400087713000850
:10001000ED13000891090008D14900080000000014
:10002000000000000000000000000000D53C0008B7
:10003000A911000800000000793900086D4000088F
:100040006301000863010008630100086301000800
:1000500063010008630100086301000863010008F0
:1000600063010008630100086301000863010008E0
:1000700063010008630100086301000863010008D0
:1000800063010008630100086301000863010008C0
:100090001949000895090008630100086301000878
:1000A00063010008630100086301000863010008A0
:1000B000FD400008C5410008D14200086301000866
:1000C0006301000863010008630100086301000880
:1000D0006301000863010008630100086301000870
:1000E0006301000863010008630100086301000860
:1000F0006301000863010008630100086301000850
:10010000630100086301000863010008630100083F
:10011000630100086301000863010008630100082F
:10012000630100086301000863010008630100081F
:10013000DFF810D000F0D2FB00480047ED54000873
:10014000AFF3008058070020064880470648004764
:10015000FEE7FEE7FEE7FEE7FEE7FEE7FEE7FEE777
:10016000FEE7FEE79D4000083101000880EA010239
:1001700010B502F00043400022D04A001FD0010E0B
:1001800001EB1261C0F35600C2F3560240F40000C6
:1001900042F40002A0FB022000047F39140400D0C6
:1001A000401C50EA124001D44000491EC2B20C0665
:1001B00004EBD010401C4008802A02D003E000204D
:1001C00010BD20F00100002900DA0020184310BD06
:1001D0002DE9FE4F804681EA0300C00F0C460090D7
:1001E00021F0004123F00045B8EB0200A94105D2FF
:1001F0004046214690461C460B46024623F00040EE
:10020000104347D0270DC7F30A00C3F30A510290E9
:10021000401A019040286BDAC3F3130040F4801BAE
:100220000098924620B10023D2EB030A63EB0B0B3C
:1002300001985946C0F14002504600F096F9064632
:100240000D4650465946019A00F09EF910EB080001
:100250006141002487EA115284EAE7731A4340D0CF
:10026000009A62B3019A012A4FEA075215DC001B7B
:1002700061EB02014FF0004202EA0752CDE9004271
:10028000001C41F5801132462B4600F0D5F903B031
:10029000BDE8F08F40462146F9E7001B61EB020103
:1002A000001C41F5801300185B412018A2F50017CF
:1002B00047EB030140EAD570B6196D4111E06D08B6
:1002C0004FEA360645EAC0754FEA0752001B61EB5C
:1002D0000201001C41F5801149084FEA3000001965
:1002E000514132462B4603B0BDE8F04F00F095B9BE
:1002F0000098012240000023D0EB020263EBE07380
:10030000009821464FEAE074B8EB000061EB04016D
:10031000E9E783F000435BE781F0004158E72DE90E
:10032000F04D81EA030404F0004B21F0004514462F
:100330004FF0000A23F0004150EA050220D054EAB1
:1003400001021DD0C5F30A570246C5F31303C1F3DA
:100350001300C1F30A5640F4801543F48013A7EB51
:100360000608101BD64608F2FD3873EB050002D3D1
:1003700008F1010801E092185B41B8F1000F03DABF
:1003800000200146BDE8F08D00204FF480110646A4
:1003900084460EE0171B73EB050705D3121B63EBB6
:1003A000050306434CEA010C49084FEA3000921855
:1003B0005B4150EA0107EDD152EA030012D082EA14
:1003C000040083EA0501084305D0101BAB4106D2A7
:1003D0000122002306E000224FF0004302E06FF00C
:1003E000010253101AEB06004CEB085110EB0A0007
:1003F00041EB0B01BDE8F04D00F00FB99623002250
:10040000114600F0DCB820F00040C10DC0F316002A
:1004100040F400007F2901DA00207047962903DCB0
:10042000C1F19601C840704796398840704700F086
:10043000004230F000400AD0C10D01F56071C0F3F8
:10044000160042EA0151C2084007114370470020DC
:100450000146704730B5041E71F1000404DB4FF013
:100460000044404264EB0101141E73F1000405DBFB
:100470001C464FF00043524263EB04038B4208BF1B
:10048000824230BD30B5041E71F1000404DB4FF030
:100490000044404264EB0101141E73F1000405DBCB
:1004A0001C464FF00043524263EB0403994208BFDD
:1004B000904230BD002801DBC0F10040002901DB83
:1004C000C1F1004181427047002801DBC0F10040CA
:1004D000002901DBC1F100418842704730B50B466D
:1004E000014600202022012409E021FA02F59D4264
:1004F00005D303FA02F5491B04FA02F52844151E38
:10050000A2F10102F1DC30BD2DE9F05F05460020CB
:1005100092469B4688460646814640241BE0284674
:1005200041464746224600F0EBF953465A46C01A68
:10053000914110D311461846224600F016F82D1AA4
:1005400067EB01084F4622460120002100F00DF81C
:1005500017EB00094E41201EA4F10104DFDC4846E0
:1005600031462A464346BDE8F09F202A04DB203A64
:1005700000FA02F1002070479140C2F1200320FAF6
:1005800003F3194390407047202A06DBCB17203A2B
:1005900041FA02F043EAE07306E041FA02F3D04088
:1005A000C2F1200291400843194670470029A8BFB4
:1005B0007047401C490008BF20F00100704710B48C
:1005C000B0FA80FC00FA0CF050EA010404BF10BC41
:1005D000704749B1CCF1200421FA04F411FA0CF16E
:1005E00018BF012121430843A3EB0C01CB1D4FEAA7
:1005F00000614FEA102042BF002010BC704700EBA2
:10060000C35010440029A4BF10BC7047401C4900CF
:1006100008BF20F0010010BC704710B5141E73F124
:10062000000408DA401C41F1000192185B411A43B2
:1006300001D120F0010010BD2DE9F04D92469B46FE
:1006400011B1B1FA81F202E0B0FA80F220329046A4
:10065000FFF78BFF04460F4640EA0A0041EA0B0110
:1006600053465A46084313D0114653EA010019D0A5
:10067000C8F14002504600F043F905460E46504688
:1006800059464246FFF771FF084305D0012004E0B8
:1006900020463946BDE8F08D0020054346EAE07665
:1006A0002C4337430A986305E40AA0EB08000022B4
:1006B000FD0A44EA47540A3002D500200146E9E722
:1006C000010510196941DDE9084500196941BDE8D6
:1006D000F04DA2E72DE9FE4F81EA030404F0004447
:1006E00021F0004100944FF0000B23F0004350EA4A
:1006F00001045ED052EA03045BD0C3F30A54C1F391
:100700000A552C44A4F2F3340194A0FB0254C1F323
:10071000130141F48011C3F3130343F4801301FB6D
:10072000024400FB034E840A970A44EA815447EAD4
:100730008357A4FB076802958D0A05FB07854FEADE
:10074000932C04FB0C542705029D4FEA065847EAF8
:100750001637B5EB08056EEB070C870E920E47EACD
:10076000811742EA8312A7FB0201B6EB0B0164EB8F
:1007700000042B0D43EA0C335E1844EB1C50DA46A0
:100780005146E7FB0201C5F313044FEA0B3343EA7A
:1007900014534FEA0432019C43EA0603A4F10C040B
:1007A0000294009CCDE900B4FFF746FF03B0BDE81A
:1007B000F08F00200146F9E770B521F000430343B4
:1007C0000CD0C1F30A550024D5EB040564EB0403F7
:1007D000D617AD1AB34102DB0020014670BD2018C8
:1007E00041EB025170BD2DE9F04D00231A461B1A52
:1007F0008A4103DB00200146BDE8F08DC1F30A52B7
:10080000C1F3130141F480154FF0000BD10702D161
:1008100000186D41521E0027044640F2FF11384671
:1008200001EB620A3E468046024600204FF48011EA
:1008300000F066F8C2197141BB1846EB0100B4EB39
:10084000030C75EB000C04D3E41A65EB00051746A6
:100850000E46241908F101006D4180463428E3DD7D
:10086000F91946EB0600091BA84103D24FF0FF32ED
:10087000134601E0002213461BEB070046EB0A512A
:10088000BDE8F04DFFF7C9BE0EB5C10F80EAE070BC
:100890000844CA07002140F233438DE80E000A469F
:1008A0000B46FFF7C9FE03B000BDC1F30A52C1F306
:1008B000130140F2FF3341F480119A4202DA002022
:1008C0000146704740F233439A42A2F2334202DCBF
:1008D000524200F015B8FFF748BE0000064C074D25
:1008E00006E0E06840F0010394E807009847103400
:1008F000AC42F6D3FFF720FCCC670008EC67000899
:10090000202A04DB203A21FA02F00021704721FA64
:1009100002F3D040C2F120029140084319467047CB
:1009200070B58C1810F8015B15F0070301D110F8B1
:10093000013B2A1106D110F8012B03E010F8016BDE
:1009400001F8016B5B1EF9D12B0705D40023521E61
:100950000DD401F8013BFAE710F8013BCB1A921CC9
:1009600003E013F8015B01F8015B521EF9D5A142C7
:10097000D8D3002070BD10B502460023002003E04C
:1009800014882344921C401C8842F9DB98B210BDA5
:1009900000BFFEE700B587B001AA01210D4800F0B5
:1009A000C6F90D49019808809DF80F000B490870A1
:1009B0009DF810000A4908709DF812000949087056
:1009C0001021044800F012F801200749087007B010
:1009D00000BD0000006400401E0000201400002044
:1009E00015000020170000201C000020B1F5007F3A
:1009F0003AD00FDC202928D006DC01291CD004299C
:100A00001DD0082940D11DE0402921D0B1F5807FBB
:100A10003AD126E0B1F5004F31D006DCB1F5806F58
:100A200025D0B1F5006F2FD124E0B1F5803F12D071
:100A3000B1F5003F28D111E0154A826025E0082277
:100A4000C26022E01022C2601FE0082202611CE0A6
:100A50001022026119E00822426016E01022426072
:100A600013E00422426010E0042242600DE0042200
:100A700042600AE0002282610422426005E0002216
:100A800082610422426000E000BF00BF70470000A6
:100A90000101010010B500F055FB00F003FB00F070
:100AA00029FB00F0BEFC00F0D0FC00F0A1FB10BD63
:100AB00010B504460B48844209D10121480602F0D2
:100AC0006DFF00214FF0007002F068FF08E0012187
:100AD000880602F063FF00214FF0806002F05EFFA5
:100AE00010BD00000064004021B9C26842F020023D
:100AF000C26003E0026942F0200202617047000018
:100B000010B50021837A012202FA03F13D4A1268EE
:100B100042F001023B4B1A603A4A1C3212688A4387
:100B2000384B1C331A60027BCAB9364A0C32126841
:100B30008A43344B0C331A604288C38842EA034329
:100B4000304A4032847A42F834300288838842EA5C
:100B500003432C4A4032847A02EBC4025360027B86
:100B6000012A19D1274A0C3212680A43254B0C334B
:100B70001A604288038842EA0343224A4032847A58
:100B800042F83430C288838842EA03431D4A403227
:100B9000847A02EBC4025360C27A3AB9194A121D30
:100BA00012688A43174B1B1D1A6006E0154A121D76
:100BB00012680A43134B1B1D1A60028932B9114A8D
:100BC000143212688A430F4B14331A600289012AC7
:100BD00006D10C4A143212680A430A4B14331A60C5
:100BE000427B012A06D1074A1C3212680A43054B90
:100BF0001C331A60034A126822F00102014B1A608A
:100C000010BD0000006600401AB143690B43436108
:100C100002E043698B434361704730B502460020D0
:100C20000023146824F002041460146844F00104E2
:100C3000146000E05B1C546804F001041CB94FF61A
:100C4000FF74A342F6D1546804F001040CB90020EB
:100C50006CE08C79012C04D1146844F08004146099
:100C600003E0146824F080041460CC79012C04D1D2
:100C7000146844F04004146003E0146824F0400455
:100C800014600C7A012C04D1146844F02004146020
:100C900003E0146824F0200414604C7A012C04D181
:100CA000146844F01004146003E0146824F0100485
:100CB00014608C7A012C04D1146844F00804146088
:100CC00003E0146824F008041460CC7A012C04D1E9
:100CD000146844F00404146003E0146824F004046D
:100CE00014608C78A407CD7844EA05640D7944EA51
:100CF00005444D7944EA05540D886D1E2C43D4619A
:100D0000146824F001041460002300E05B1C5468A4
:100D100004F001041CB14FF6FF74A342F6D15468ED
:100D200004F001040CB1002000E0012030BD30B51A
:100D300005460C46134605F5D87000EB0410006814
:100D400000F004001872187A50B905F5D87000EB5D
:100D50000410006840F2FF7101EA5050186009E089
:100D600005F5D87000EB041000686FF0604101EAEF
:100D7000D000586005F5D87000EB0410006800F052
:100D80000200587205F5D87000EB0410406800F0BE
:100D90000F00987205F5D87000EB04104068000A47
:100DA000D87405F5D87000EB041040684FF6FF7159
:100DB00001EA1040988205F5D87000EB04108068B5
:100DC000D87205F5D87000EB04108068010A197319
:100DD00005F5D87000EB04108068010C597305F517
:100DE000D87000EB04108068000E987305F5D87079
:100DF00000EB0410C068D87305F5D87000EB041040
:100E0000C068010A197405F5D87000EB0410C068B9
:100E1000010C597405F5D87000EB0410C068000E81
:100E2000987421462846FFF75FFE30BD002181718E
:100E3000C171017241728172C1728170C1700321EE
:100E400001710221417101210180704710B50246F4
:100E50000020936803F08063B3F1806F00D110E04D
:100E6000936803F00063B3F1006F01D1012008E043
:100E7000936803F08053B3F1805F01D1022000E05A
:100E80000420042874D002F5C07303EB00131B6820
:100E900003F0010402F5C07303EB00131C600B7A2E
:100EA0007BB94B7A0C8843EA445302F5C07404EBD7
:100EB00000142468234302F5C07404EB001423607B
:100EC00010E00B7A4C6843EAC4034C7A234302F5E2
:100ED000C07404EB00142468234302F5C07404EBCF
:100EE000001423608B7A03F00F038B7202F5C0733A
:100EF00003EB00135B6823F00F0402F5C07303EBF0
:100F000000135C6002F5C07303EB00135B688C7A1E
:100F1000234302F5C07404EB001463608B7B1C0652
:100F20004B7B44EA03440B7B44EA0323CC7A234300
:100F300002F5C07404EB0014A3608B7C1C064B7C90
:100F400044EA03440B7C44EA0323CC7B234302F5AD
:100F5000C07404EB0014E36002F5C07303EB0013EC
:100F60001B6843F0010402F5C07303EB00131C601F
:100F700010BD0246002021B1012910D002292CD138
:100F80001CE0936803F0010340EA8300936803F0D8
:100F9000020318439368C3F3806318431FE0936808
:100FA00003F4807340EA9310936803F4007340EAFB
:100FB00013209368C3F3C063184310E0936803F4ED
:100FC000803340EA9330936803F4003340EA1340DF
:100FD0009368C3F30073184301E0002000BF00BF13
:100FE00020B1052804D0072806D103E0022005E03F
:100FF000002003E0012001E0002000BF00BF704797
:1010000000B587B00121480602F0B8FC00F009FAEB
:1010100000F0EEF82248FFF74BFD04A8FFF706FFAB
:1010200001208DF816008DF817008DF818000020AB
:101030008DF819008DF81A008DF81B008DF812003C
:1010400003208DF8130002208DF8140000208DF885
:1010500015002D20ADF8100004A91148FFF7DDFDA3
:1010600001208DF80D000020ADF808008DF80A0071
:101070008DF80B0001208DF80C000020ADF8000069
:10108000ADF80200ADF80400ADF80600012202211F
:101090000348FFF7B9FD6846FFF732FD07B000BD12
:1010A000006400401FB501208DF80D000020ADF850
:1010B00008008DF80A008DF80B0001208DF80C0057
:1010C0002020ADF800000020ADF80200012202212E
:1010D0000748FFF799FD4FF69F70ADF804004FF6F3
:1010E000FF70ADF806006846FFF70AFD1FBD00005F
:1010F000006400401FB501208DF80D00ADF8080018
:101100008DF80A0000208DF80B0001208DF80C00EE
:1011100042F26040ADF800000020ADF8020001226C
:1011200010210748FFF770FD4FF61F70ADF804005F
:101130004FF6FF70ADF806006846FFF7E1FC1FBDF3
:10114000006400400EB50121480602F017FC154866
:10115000FFF7AEFC6846FFF769FE01208DF8060038
:101160008DF807008DF8080000208DF809008DF833
:101170000A008DF80B008DF8020003208DF80300A3
:1011800002208DF8040000208DF805002D20ADF818
:10119000000069460348FFF740FD69460148FFF734
:1011A0003CFD0EBD006400407047000000B585B0F6
:1011B000684602F013FC6FF0040002F011FF0020FB
:1011C00002F055FF07490198B0FBF1F0064908709D
:1011D0004FF4FA510198B0FBF1F00449088005B0D2
:1011E00000BD000000127A002A0000202C00002020
:1011F00008B50121142002F0E1FB4FF40060ADF8C6
:10120000000003208DF8020048208DF80300694695
:101210000F4800F021F84FF48050ADF80000032093
:101220008DF8020018208DF803006946084800F088
:1012300013F84FF4C040ADF8000003208DF8020011
:1012400010208DF803006946024800F005F808BD3B
:1012500000080140001001402DE9F0410246002540
:101260000026002000230024002791F803C00CF082
:101270000F0591F803C00CF0100CBCF1000F03D067
:1012800091F802C04CEA050591F800C0BCF1000FCE
:1012900031D0146800202BE04FF0010C0CFA00F361
:1012A000B1F800C00CEA03069E4220D183004FF043
:1012B0000F0C0CFA03F7BC4305FA03FC4CEA0404D8
:1012C00091F803C0BCF1280F06D14FF0010C0CFAC5
:1012D00000FCC2F814C00AE091F803C0BCF1480F4A
:1012E00005D14FF0010C0CFA00FCC2F810C0401CF4
:1012F0000828D1D31460B1F800C0BCF1FF0F34DD71
:10130000546800202EE000F1080C4FF0010808FAA4
:101310000CF3B1F800C00CEA03069E4221D1830011
:101320004FF00F0C0CFA03F7BC4305FA03FC4CEA30
:10133000040491F803C0BCF1280F05D100F1080C9A
:1013400008FA0CF8C2F8148091F803C0BCF1480FF9
:1013500007D100F1080C4FF0010808FA0CF8C2F8A8
:101360001080401C0828CED35460BDE8F081416154
:1013700070470161704700BFFEE7000008B501211A
:101380001C2002F01BFB0720ADF8000010208DF898
:10139000030003208DF8020069461148FFF75CFF47
:1013A00007210F48FFF7E3FF4FF40050ADF80000AE
:1013B00069460C48FFF750FF4FF400510948FFF70A
:1013C000D8FF4FF47E70ADF8000069460648FFF77D
:1013D00043FF4FF478710448FFF7C9FF08BD0000D0
:1013E0000008014000100140000C014000BFFEE772
:1013F00010B50146002200200CE000EB4003074C32
:1014000034F813308B4204D100EB400304EB430368
:101410009A88401C0628F0DD104610BDE800002028
:10142000704708B54FF4A06000F05CF814208DF808
:10143000000000208DF801008DF8020001208DF8D9
:101440000300684600F016F808BD08B54FF4A06028
:1014500000F048F815208DF8000000208DF80100FC
:1014600001208DF802008DF80300684600F002F8B4
:1014700008BD000070B5002100230F22C47804B31A
:10148000154C246804F4E064C4F5E064210AC1F159
:101490000403CA40447804FA03F1847814402143D9
:1014A00009010E4C0678A155047804F01F050124AB
:1014B000AC4005786D11AD0005F1E025C5F800419F
:1014C00009E0047804F01F050124AC40044D0678BF
:1014D000761145F8264070BD0CED00E000E400E018
:1014E00080E100E002490143024A116070470000B8
:1014F0000000FA050CED00E0FFF782FD25A003F0E7
:10150000C3FA254803F0C0FA244803F0BDFA24A02A
:1015100003F0BAFA214803F0B7FA1F4803F0B4FA0F
:10152000012241F61F4140F2CF7002F0A1FE0022DD
:1015300041F61F4141F2873002F014FE01201F499D
:10154000087026E01E480088012809D102F0C4FB7B
:101550001C4801681CA003F097FA00201849088075
:1015600022480088012814D12148017821A003F0E5
:101570008BFA012303220421022002F03DFC00200B
:101580001A4908801A480078042802DB002018490C
:101590000870D7E70D0A0000886700084467000854
:1015A0002A20204D6173746572204E6F6465A3A17B
:1015B0005E5F5E20202A0D0A000000009C010020D2
:1015C00024000020200000207265666572656E634D
:1015D00065206D6573736167652069732073656E3F
:1015E000743A202564200D0A000000002600002027
:1015F000480000206D6173746572206E6F64652011
:1016000073656E6473204D61737465724E756D42BF
:1016100043203D25643A0D0A0000000000B5A1B04A
:1016200000201F900120FE49087000201E901D9090
:10163000FC49D1E900028968CDE91B211A900120FB
:10164000199040F22311F848018001201890F749C1
:10165000088017901690FFF71DFA002140F28330A2
:1016600002F04EFE002241F61F4140F6AC5002F05F
:10167000FFFDEF480168EF480068FEF777FD159021
:10168000ED4801681598FEF771FDEC49086000F01F
:101690005BBF199800287DD000202090FEE31D98A4
:1016A000022878DA1AA9209851F82010E44A1E98E6
:1016B00042F82010E14801684FF08140FEF756FDE6
:1016C0000390FEF7B4FECDE90601DD480068019005
:1016D000FEF7ADFE00224FF08043CDE9020104F099
:1016E00081F9CDE90401DDE90623FEF712FECDE91B
:1016F000080104F063FECDE90C01D14800680990AF
:10170000FEF795FECDE90A01DDE90C23FEF760FD49
:1017100000224FF08043CDE90E01FEF700FE0022CB
:10172000C84BCDE91001FEF7F4FDCDE91401C44822
:1017300040681190FEF77BFECDE91201DDE914232C
:10174000FEF788FE10D2BE4800681590BC4840687D
:1017500014901599FEF7AEFE06D20120BA49087022
:10176000BAA003F091F94DE2B44801684FF081400E
:10177000FEF7FCFC0390FEF75AFECDE90601B048E7
:1017800000680190FEF753FE00224FF08043CDE940
:10179000020101E0FDE33CE204F024F9CDE904019B
:1017A000DDE90623FEF7B5FDCDE9080104F006FEEC
:1017B000CDE90C01A24800680990FEF738FECDE99A
:1017C0000A01DDE90C23FEF703FD00224FF0804300
:1017D000CDE90E01FEF7A3FD00229A4BCDE91001E1
:1017E000FEF797FDCDE91401954840681190FEF78A
:1017F0001EFECDE91201DDE91423FEF743FE6AD88F
:101800008F48006815908E48406814901599FEF72F
:1018100051FE60D28A4840681390FEF708FE0246E7
:101820000B46CDE914018EA003F02EF98448006820
:101830001390FEF7FCFD02460B46CDE914018EA085
:1018400003F022F97D4801684FF08140FEF78EFCDD
:101850000590FEF7ECFDCDE908017948006803909A
:10186000FEF7E5FD00224FF08043CDE9040104F0CE
:10187000B9F8CDE90601DDE90823FEF74AFDCDE917
:101880000A0104F09BFDCDE90E016D4800680B9044
:10189000FEF7CDFDCDE90C01DDE90E23FEF798FC46
:1018A00000224FF08043CDE91001FEF738FD002201
:1018B000644BCDE91201FEF72CFD02460B46CDE943
:1018C000140173A003F0E0F802205F49087074A0CF
:1018D00003F0DAF896E15A480068159058484068D5
:1018E00014901599FEF7F0FD60D2554840681390AA
:1018F000FEF79DFD02460B46CDE914016CA003F0F6
:10190000C3F84F4800681390FEF791FD02460B465E
:10191000CDE9140158A003F0B7F8484801684FF02A
:101920008140FEF723FC0590FEF781FDCDE908011B
:10193000434800680390FEF77AFD00224FF0804391
:10194000CDE9040104F04EF8CDE90601DDE90823F4
:10195000FEF7DFFCCDE90A0104F030FDCDE90E0110
:10196000374800680B90FEF762FDCDE90C01DDE918
:101970000E23FEF72DFC00224FF08043CDE910012D
:10198000FEF7CDFC00222F4BCDE91201FEF7C1FC82
:1019900002460B46CDE914013DA003F075F8032083
:1019A0002949087048A003F06FF82BE124484068EB
:1019B00015902348006814901599FEF77BFD2DD1F2
:1019C0001F4840681390FEF732FD02460B46CDE9F2
:1019D000140137A003F058F8194800681390FEF777
:1019E00026FD02460B46CDE9140123A003F04CF876
:1019F000124801684FF08140FEF7B8FB0590FEF7F2
:101A000016FDCDE908010E4800680390FEF70FFDB2
:101A100000224FF08043CDE904015BE08FE000003D
:101A2000AA010020086400081E0000208000002099
:101A3000D0010020CC010020D4010020D8010020DA
:101A4000AC0100200000F83F80010020697420698B
:101A50007320626C6F636B6564200D0A00000000E8
:101A6000737065656441727261795B315D202069D4
:101A7000732025660D0A00007370656564417272FB
:101A800061795B305D206973202566200D0A0000B6
:101A900063616C206973202566200D0A0000000038
:101AA000646563656C6572617465200D0A000000F1
:101AB000737065656441727261795B315D20206984
:101AC00073202566200D0A0063656C65726174657C
:101AD000200D0A0003F086FFCDE90601DDE90823A9
:101AE000FEF717FCCDE90A0104F068FCCDE90E0110
:101AF000FE4800680B90FEF79AFCCDE90C01DDE989
:101B00000E23FEF765FB00224FF08043CDE9100164
:101B1000FEF705FC0022F64BCDE91201FEF7F9FBBA
:101B200002460B46CDE91401AFF29C0002F0ACFF77
:101B3000F0A002F0A9FF0420F349087062E0EB482E
:101B400040681390FEF773FC02460B46CDE9140182
:101B5000AFF2A40002F098FFE44800681390FEF78B
:101B600066FC02460B46CDE91401AFF2F40002F028
:101B70008BFFE64801684FF08140FEF7F7FA0590C9
:101B8000FEF755FCCDE90801D84800680390FEF740
:101B90004EFC00224FF08043CDE9040103F022FF08
:101BA000CDE90601DDE90823FEF7B3FBCDE90A0123
:101BB00004F004FCCDE90E01CC4800680B90FEF760
:101BC00036FCCDE90C01DDE90E23FEF701FB002216
:101BD0004FF08043CDE91001FEF7A1FB0022C44B7A
:101BE000CDE91201FEF795FB02460B46CDE9140143
:101BF000AFF2641002F048FF0520C3490870C4A08A
:101C000002F042FF1D98401C1D901E98401C1E9023
:101C100082E2B6484068B54908601AA9209851F890
:101C20002000B249486003201D90B84801684FF079
:101C30008140FEF79BFA0390FEF7F9FBCDE9060120
:101C4000AA4800680190FEF7F2FB00224FF08043A3
:101C5000CDE9020103F0C6FECDE90401DDE906236A
:101C6000FEF757FBCDE9080104F0A8FBCDE90C0114
:101C70009E4800680990FEF7DAFBCDE90A01DDE92C
:101C80000C23FEF7A5FA00224FF08043CDE90E01A8
:101C9000FEF745FB0022964BCDE91001FEF739FB1C
:101CA000CDE91401914840681190FEF7C0FBCDE9E1
:101CB0001201DDE91423FEF7CDFB11D28B48006839
:101CC00015908A48406814901599FEF7F3FB07D2E7
:101CD00001208D490870AFF28C2002F0D5FE1BE286
:101CE0008A4801684FF08140FEF740FA0390FEF702
:101CF0009EFBCDE906017D4800680190FEF797FB49
:101D000000224FF08043CDE9020103F06BFECDE9E4
:101D10000401DDE90623FEF7FCFACDE9080104F031
:101D20004DFBCDE90C01714800680990FEF77FFB7F
:101D3000CDE90A01DDE90C23FEF74AFA00224FF053
:101D40008043CDE90E01FEF7EAFA0022684BCDE9A7
:101D50001001FEF7DEFACDE91401644840681190E5
:101D6000FEF765FBCDE91201DDE91423FEF78AFBDE
:101D70006ED85E48006815905C48406814901599CC
:101D8000FEF798FB64D2594840681390FEF74FFB6A
:101D900002460B46CDE91401AFF23C3002F074FE6E
:101DA000524800681390FEF742FB02460B46CDE90D
:101DB0001401AFF23C3002F067FE544801684FF066
:101DC0008140FEF7D3F90590FEF731FBCDE908011C
:101DD000464800680390FEF72AFB00224FF080433C
:101DE000CDE9040103F0FEFDCDE90601DDE908239C
:101DF000FEF78FFACDE90A0104F0E0FACDE90E0111
:101E00003A4800680B90FEF712FBCDE90C01DDE9C2
:101E10000E23FEF7DDF900224FF08043CDE91001DB
:101E2000FEF77DFA0022324BCDE91201FEF771FA7E
:101E300002460B46CDE91401AFF2AC3002F024FEAD
:101E4000022031490870AFF2A83002F01DFE63E1B4
:101E50002648006815902548406814901599FEF7AB
:101E600033FB7DD2214840681390FEF7E0FA02462A
:101E70000B46CDE91401AFF2C83002F005FE1B4855
:101E800000681390FEF7D3FA02460B46CDE9140121
:101E9000AFF21C4002F0F8FD1C4800E049E1016887
:101EA0004FF08140FEF762F90590FEF7C0FACDE9E8
:101EB00008010E4800680390FEF7B9FA00224FF0BF
:101EC0008043CDE9040103F08DFDCDE90601DDE994
:101ED0000823FEF71EFACDE90A0104F06FFACDE9F6
:101EE0000E01024800680B901AE00000AC010020CF
:101EF0000000F83F636F6E7374616E7420737065D9
:101F000065640D0A0000000080010020D801002057
:101F10006F74686572207374617475730D0A0000C4
:101F2000FEF785FACDE90C01DDE90E23FEF750F945
:101F300000224FF08043CDE91001FEF7F0F90022B6
:101F4000FA4BCDE91201FEF7E4F902460B46CDE962
:101F50001401AFF2C44002F097FD0320F44900E001
:101F600005E00870AFF2A04002F08EFDD4E0F14829
:101F700040681590EF48006814901599FEF79AFA9A
:101F800066D1EC4840681390FEF751FA02460B46C2
:101F900000E0D4E0CDE91401AFF2EC4002F074FDB2
:101FA000E44800681390FEF742FA02460B46CDE97A
:101FB0001401AFF23C5002F067FDDF4801684FF0BA
:101FC0008140FEF7D3F80590FEF731FACDE908011C
:101FD000D84800680390FEF72AFA00224FF08043A9
:101FE000CDE9040103F0FEFCCDE90601DDE908239B
:101FF000FEF78FF9CDE90A0104F0E0F9CDE90E0111
:10200000CC4800680B90FEF712FACDE90C01DDE92F
:102010000E23FEF7DDF800224FF08043CDE91001DA
:10202000FEF77DF90022C14BCDE91201FEF771F9EF
:1020300002460B46CDE91401AFF2AC5002F024FD8C
:10204000AFF2501002F020FD0420B949087063E09F
:10205000B84840681390FEF7EAF902460B46CDE90E
:102060001401AFF2B45002F00FFDB24800681390B3
:10207000FEF7DDF902460B46CDE91401AFF2086028
:1020800002F002FDAC4801684FF08140FEF76EF8A7
:102090000590FEF7CCF9CDE90801A6480068039049
:1020A000FEF7C5F900224FF08043CDE9040103F0AB
:1020B00099FCCDE90601DDE90823FEF72AF9CDE90F
:1020C0000A0104F07BF9CDE90E019A4800680B90F3
:1020D000FEF7ADF9CDE90C01DDE90E23FEF778F846
:1020E00000224FF08043CDE91001FEF718F90022DD
:1020F0008E4BCDE91201FEF70CF902460B46CDE9F5
:102100001401AFF2746002F0BFFC0520884908702A
:10211000AFF2042002F0B8FC1AA9209851F8200070
:102120001590FEF770F9854908702098401C80B220
:10213000209020980128FFF6B2AA00201990179845
:10214000012873D17E48006808B9012000E0002012
:102150007B4908607B480088042802DB002079491D
:10216000088002F0EDF97849086002F0A9FA754894
:10217000008800EB4000754901EB4000408874493D
:10218000088008460088FFF733F97249088000206C
:1021900015900CE07049159831F810000246149023
:1021A0006EA0159902F070FC1598401C15906649B8
:1021B000159809688842EDDB634801686FA002F05A
:1021C00063FC61480068002839D063480088002813
:1021D0002DD15C4801886FA002F056FC5948008858
:1021E00000EB4000594901EB40004088159001F098
:1021F00083FB5548006801280ADD57487349096880
:1022000030F81100012241F61F41159002F030F81C
:1022100051486E49096830F81100014615906C4824
:1022200002F032FC6BA002F02FFC08E024E04A48E8
:102230000088012241F61F41159002F019F8012093
:10224000714908803F480088401C3E490880084684
:102250000088042801DD002008806CA002F014FC36
:1022600000207449087001207349086057490860CC
:1022700000207249086017901898012854D1002056
:102280001590012014906E48006808B9012000E004
:1022900000206B4908606B480088B0F5907F14D12E
:1022A0006948006808B9012000E00020664908601C
:1022B000664800780090664803786648027861486E
:1022C0000188654802F0E0FB37E15E48008840F293
:1022D0002111884216D15C48001D006808B901210F
:1022E00000E000215848001D016058480078009027
:1022F000574803785748027852480188574802F0F7
:10230000C3FB1AE14F480088B0F5917F0DD14F48CB
:10231000007800904E4803784E480278494801887A
:102320004F4802F0B1FB08E10CE19BE00000F83FF0
:1023300080010020AC010020D80100208101002094
:10234000B80122428000002098010020AA0000204D
:102350009E010020A0010020C200002066696E617D
:102360006C54696D657256616C75655B25645D20A2
:102370006973202564200D0A000000004D65735428
:10238000696D6573496E4243206973202564200D91
:102390000A0000002B2B2B2B2B2B2B2B4E756D4269
:1023A000633A202564206669727374206D657373C7
:1023B0006167652069732073656E743A2B2B2B2B34
:1023C0002B2B2B2B2B2B200D0A00000010010020A3
:1023D000006700082B2B2B2B2B2B2B2B436F6C75A3
:1023E0006D6E203D313A666F72206D657373616763
:1023F000652066696E6973682B2B2B2B2B2B2B2B7F
:102400002B2B200D0A000000A60100202A2A2A2AD0
:102410002A2A2A2A2A2A2A2A7265666572656E6322
:102420006520656E64202A2A2A2A2A2A2A2A2A2A2C
:10243000200D0A000F0000200C010020CC0000201D
:10244000840121421E0000209481214217000020B7
:102450001500002014000020FC64000854650008EA
:10246000AC6500083B48008840F2231188422CD11B
:10247000394800780090394803783948027835485F
:10248000018838A002F000FB1AE0012002F0F2FF00
:10249000149818B115980A3080B21590159808282C
:1024A00002DD01202E490870159808B9012014900A
:1024B0003548159901F0EFFF34A0159902F0E4FAC0
:1024C000274800780028E0D037E022480088B0F59F
:1024D000927F14D13048006808B9012100E0002142
:1024E0002D4801601C48007800901C4803781C4867
:1024F000027818480188294802F0C6FA1DE01548FC
:10250000008840F22511884214D12548006808B996
:10251000012000E00020224908600F480078009068
:102520000E4803780E4802780A4801881D4802F0D8
:10253000ABFA02E01CA002F0A7FA002020490870C4
:10254000189000BF00201690169800287FF4A1A8CC
:1025500021B000BD1E000020170000201500002043
:10256000140000202A2A41425320494E464F20257C
:102570002378202C2564202C202564207270732C55
:10258000202523780D0A00000008004070776D2098
:102590002564200D0A000000A48121420466000881
:1025A000880121425C6600082A2A6172626974729D
:1025B0006172792077696E646F7773202A2A000030
:1025C0001C0000209AB000BF0120FD4908700020C7
:1025D00017901690FEF75EFAFAA002F055FAFA4844
:1025E00002F052FAF94802F04FFAF9A002F04CFA60
:1025F000F64802F049FAF44802F046FA002241F6A1
:102600001F4140F6AC5001F033FE002140F2833010
:1026100001F076FEF8480168F8480068FDF7A6FD6D
:102620001590F74801681598FDF7A0FDF549086079
:1026300001F023B8F448008800F40040002800F0BE
:102640003286F1480088C0F30D00189000201990E0
:1026500000F01EBE179802287EDAEC491998085C33
:102660001590FDF7CBFEEA4A169942F82100E5489D
:1026700001684FF08140FDF779FD0390FDF7D7FE2B
:10268000CDE90601E24800680190FDF7D0FE002286
:102690004FF08043CDE9020103F0A4F9CDE9040134
:1026A000DDE90623FDF735FECDE9080103F086FEDE
:1026B000CDE90C01D64800680990FDF7B8FECDE9D8
:1026C0000A01DDE90C23FDF783FD00224FF0804372
:1026D000CDE90E01FDF723FE0022CE4BCDE910011E
:1026E000FDF717FECDE91401C94840681190FDF7C8
:1026F0009EFECDE91201DDE91423FDF7ABFE6CD29D
:10270000C34800681590C248406814901599FDF7B9
:10271000D1FE62D2BE4840681390FDF788FE0246A3
:102720000B46CDE91401BCA002F0AEF9B848006830
:102730001390FDF77CFE02460B46CDE91401BCA0C8
:1027400002F0A2F9AF4801684FF08140FDF70EFD9D
:102750000590FDF76CFE00E0A5E2CDE90801AC486C
:1027600000680390FDF763FE00224FF08043CDE93F
:10277000040103F037F9CDE90601DDE90823FDF78F
:10278000C8FDCDE90A0103F019FECDE90E01A0480C
:1027900000680B90FDF74BFECDE90C01DDE90E233F
:1027A000FDF716FD00224FF08043CDE91001FDF743
:1027B000B6FD0022974BCDE91201FDF7AAFD0246B6
:1027C0000B46CDE91401A0A002F05EF90120A24958
:1027D0000870A2A002F058F95EE28A4801684FF042
:1027E0008140FDF7C3FC0390FDF721FECDE9060112
:1027F000874800680190FDF71AFE00224FF08043E1
:10280000CDE9020103F0EEF8CDE90401DDE906238C
:10281000FDF77FFDCDE9080103F0D0FDCDE90C0106
:102820007B4800680990FDF702FECDE90A01DDE969
:102830000C23FDF7CDFC00224FF08043CDE90E01C3
:10284000FDF76DFD0022734BCDE91001FDF761FD31
:10285000CDE914016E4840681190FDF7E8FDCDE91F
:102860001201DDE91423FDF70DFE6AD868480068FF
:1028700015906748406814901599FDF71BFE60D2CB
:10288000634840681390FDF7D2FD02460B46CDE940
:10289000140177A002F0F8F85D4800681390FDF786
:1028A000C6FD02460B46CDE9140161A002F0ECF82A
:1028B000544801684FF08140FDF758FC0590FDF742
:1028C000B6FDCDE90801524800680390FDF7AFFD61
:1028D00000224FF08043CDE9040103F083F8CDE9F5
:1028E0000601DDE90823FDF714FDCDE90A0103F037
:1028F00065FDCDE90E01464800680B90FDF797FD98
:10290000CDE90C01DDE90E23FDF762FC00224FF05A
:102910008043CDE91001FDF702FD00223D4BCDE9DA
:102920001201FDF7F6FC02460B46CDE9140146A064
:1029300002F0AAF802204849087053A002F0A4F857
:10294000AAE1334800681590314840681490159901
:10295000FDF7BAFD33D22E4840681390FDF767FDAE
:1029600002460B46CDE914012BA002F08DF8284851
:1029700000681390FDF75BFD02460B46CDE914019C
:102980002BA002F081F81F4801684FF08140FDF74D
:10299000EDFB0590FDF74BFDCDE908011C480068F3
:1029A0000390FDF744FD00224FF08043CDE9040180
:1029B00003F018F8CDE90601DDE908236CE09AE0A0
:1029C000AB0100200D0A000088670008446700087A
:1029D0002A20206E6F64652032206765747320742E
:1029E0006865207265666572656E6365206D6573E6
:1029F0007361676500000000D0010020CC01002059
:102A0000D4010020D801002044000020E40100206F
:102A1000AC0100200000F83F73706565644172727C
:102A200061795B315D20206973202566200D0A00E5
:102A3000737065656441727261795B305D206973A2
:102A4000202566200D0A000063616C206973202533
:102A500066200D0A000000008001002069742069D2
:102A60007320626C6F636B6564200D0A00000000C8
:102A7000737065656441727261795B315D202069B4
:102A8000732025660D0A0000646563656C657261DC
:102A90007465200D0A000000FDF73BFCCDE90A013A
:102AA00003F08CFCCDE90E01FE4800680B90FDF7A9
:102AB000BEFCCDE90C01DDE90E23FDF789FB002208
:102AC0004FF08043CDE91001FDF729FC0022F64BC1
:102AD000CDE91201FDF71DFC02460B46CDE91401BC
:102AE000AFF29C0001F0D0FF0320F0490870F0A085
:102AF00001F0CAFFD0E0EB4840681590E948006853
:102B000014901599FDF7D6FC63D1E6484068139000
:102B1000FDF78DFC02460B46CDE91401AFF208101B
:102B200001F0B2FFDF4800681390FDF780FC024619
:102B30000B46CDE91401AFF2081001F0A5FFDF4804
:102B400001684FF08140FDF711FB0590FDF76FFC28
:102B5000CDE90801D34800680390FDF768FC002226
:102B60004FF08043CDE9040102F03CFFCDE90601BE
:102B7000DDE90823FDF7CDFBCDE90A0103F01EFCDA
:102B8000CDE90E01C74800680B90FDF750FCCDE978
:102B90000C01DDE90E23FDF71BFB00224FF0804303
:102BA000CDE91001FDF7BBFB0022BF4BCDE91201BF
:102BB000FDF7AFFB02460B46CDE91401AFF27810EA
:102BC00001F062FFBEA001F05FFF0420B74908706A
:102BD00062E0B44840681390FDF729FC02460B46BA
:102BE000CDE91401AFF2D01001F04EFFAD480068FE
:102BF0001390FDF71CFC02460B46CDE91401AFF221
:102C0000D01001F041FFAD4801684FF08140FDF761
:102C1000ADFA0590FDF70BFCCDE90801A14800686D
:102C20000390FDF704FC00224FF08043CDE904013E
:102C300002F0D8FECDE90601DDE90823FDF769FBC6
:102C4000CDE90A0103F0BAFBCDE90E019548006811
:102C50000B90FDF7ECFBCDE90C01DDE90E23FDF750
:102C6000B7FA00224FF08043CDE91001FDF757FB82
:102C700000228D4BCDE91201FDF74BFB02460B46BE
:102C8000CDE91401AFF2402001F0FEFE0520874996
:102C9000087090A001F0F8FE1798401C1790169845
:102CA000401C1690E4E27F4840687E4908608D49E8
:102CB0001998085C1590FDF7A1FB7A49486003203C
:102CC00017907E4801684FF08140FDF74FFA03905E
:102CD000FDF7ADFBCDE90601724800680190FDF7F4
:102CE000A6FB00224FF08043CDE9020102F07AFEFC
:102CF000CDE90401DDE90623FDF70BFBCDE9080171
:102D000003F05CFBCDE90C01664800680990FDF713
:102D10008EFBCDE90A01DDE90C23FDF759FA00220B
:102D20004FF08043CDE90E01FDF7F9FA00225E4B2A
:102D3000CDE91001FDF7EDFACDE9140159484068DD
:102D40001190FDF774FBCDE91201DDE91423FDF7C5
:102D500081FB6FD253480068159052484068149028
:102D60001599FDF7A7FB65D24E4840681390FDF713
:102D70005EFB02460B46CDE91401AFF2643001F070
:102D800083FE484800681390FDF751FB02460B464E
:102D9000CDE91401AFF2683001F076FE47480168D2
:102DA0004FF08140FDF7E2F90590FDF740FBCDE9DA
:102DB00008013C4800680390FDF739FB00224FF002
:102DC0008043CDE9040102F00DFECDE90601DDE905
:102DD0000823FDF79EFACDE90A0103F0EFFACDE9E9
:102DE0000E01304800680B90FDF721FBCDE90C0186
:102DF000DDE90E23FDF7ECF900224FF08043CDE929
:102E00001001FDF78CFA0022274BCDE91201FDF7E6
:102E100080FA02460B46CDE91401AFF2D43001F03E
:102E200033FE012021490870AFF2D03001F02CFEB2
:102E30001EE2FFE7214801684FF08140FDF796F957
:102E40000390FDF7F4FACDE90601164800680190F9
:102E5000FDF7EDFA00224FF08043CDE9020102F0C8
:102E6000C1FDCDE90401DDE90623FDF752FACDE904
:102E7000080103F0A3FACDE90C010A4800680990A3
:102E8000FDF7D5FACDE90A01DDE90C23FDF7A0F93C
:102E900000224FF08043CDE90E01FDF740FA0022F9
:102EA000014B21E0AC0100200000F83F8001002030
:102EB00063656C6572617465200D0A00D80100209D
:102EC000636F6E7374616E742073706565640D0A50
:102ED000000000006F74686572207374617475730C
:102EE0000D0A0000E4010020CDE91001FDF711FA00
:102EF000CDE91401FB4840681190FDF798FACDE93F
:102F00001201DDE91423FDF7BDFA6FD8F54800681A
:102F10001590F448406814901599FDF7CBFA65D2E6
:102F2000F04840681390FDF782FA02460B46CDE95F
:102F30001401AFF2C44001F0A7FDEA480068139005
:102F4000FDF775FA02460B46CDE91401AFF22050A9
:102F500001F09AFDE44801684FF08140FDF706F961
:102F60000590FDF764FACDE90801DE48006803909A
:102F7000FDF75DFA00224FF08043CDE9040102F035
:102F800031FDCDE90601DDE90823FDF7C2F9CDE900
:102F90000A0103F013FACDE90E01D24800680B9044
:102FA000FDF745FACDE90C01DDE90E23FDF710F937
:102FB00000224FF08043CDE91001FDF7B0F9002267
:102FC000CA4BCDE91201FDF7A4F902460B46CDE943
:102FD0001401AFF28C5001F057FD0220C449087073
:102FE000AFF25C5001F050FD42E1FFE7BD480068E0
:102FF0001590BC48406814901599FDF765FA64D2A5
:10300000B84840681390FDF712FA02460B46CDE926
:103010001401AFF2FC5001F037FDB2480068139084
:10302000FDF705FA02460B46CDE91401AFF2006048
:1030300001F02AFDAC4801684FF08140FDF796F899
:103040000590FDF7F4F9CDE90801A6480068039062
:10305000FDF7EDF900224FF08043CDE9040102F0C5
:10306000C1FCCDE90601DDE90823FDF752F9CDE900
:103070000A0103F0A3F9CDE90E019A4800680B900C
:10308000FDF7D5F9CDE90C01DDE90E23FDF7A0F838
:1030900000224FF08043CDE91001FDF740F90022F6
:1030A000924BCDE91201FDF734F902460B46CDE90A
:1030B0001401AFF26C6001F0E7FC03208C4908704A
:1030C000AFF2142001F0E0FCD2E086484068159091
:1030D0008448006814901599FDF7ECF964D1814893
:1030E00040681390FDF7A3F902460B46CDE91401A1
:1030F000AFF2DC6001F0C8FC7A4800681390FDF77D
:1031000096F902460B46CDE91401AFF2DC6001F0FE
:10311000BBFC754801684FF08140FDF727F805902A
:10312000FDF785F9CDE908016E4800680390FDF7C9
:103130007EF900224FF08043CDE9040102F052FCF9
:10314000CDE90601DDE90823FDF7E3F8CDE90A0141
:1031500003F034F9CDE90E01624800680B90FDF7E9
:1031600066F9CDE90C01DDE90E23FDF731F8002207
:103170004FF08043CDE91001FDF7D1F800225B4B01
:10318000CDE91201FDF7C5F802460B46CDE9140161
:10319000AFF24C7001F078FCAFF2DC2001F074FC6F
:1031A00004205349087063E04E4840681390FDF7CF
:1031B0003EF902460B46CDE91401AFF2A47001F0CE
:1031C00063FC484800681390FDF731F902460B464E
:1031D000CDE91401AFF2A87001F056FC4248016835
:1031E0004FF08140FCF7C2FF0590FDF720F9CDE9D3
:1031F00008013C4800680390FDF719F900224FF0E0
:103200008043CDE9040102F0EDFBCDE90601DDE9E3
:103210000823FDF77EF8CDE90A0103F0CFF8CDE9E8
:103220000E01304800680B90FDF701F9CDE90C0163
:10323000DDE90E23FCF7CCFF00224FF08043CDE9FF
:103240001001FDF76CF80022284BCDE91201FDF7C3
:1032500060F802460B46CDE91401AFF6140001F008
:1032600013FC052022490870AFF2983001F00CFCE5
:1032700020491998085C2049087000BF40211F4868
:1032800001F0A8FA0128F9D11998401C80B21990D0
:10329000DDE918108842FFF6DDA919A001F0F4FB62
:1032A0000020194908801948007801280FD11848D2
:1032B000006808B9012000E00020154908600020DE
:1032C0001249087000F0F4FB0020124908801248EF
:1032D000007801287CD10E48001D0068F0B901205B
:1032E0001DE00000AC010020D80100200000F83FE4
:1032F00080010020E401002081010020003801400D
:103300000D0A0D0A00000000440000200200002009
:10331000B4012242800000200F0000200020D84984
:103320000860D8480088042802DB0020D5490880BE
:10333000AFF2544001F0A8FBD2480188D2A001F0BE
:10334000A3FBDD480078DD490978DD4A1278CDE934
:1033500000210290DB480378DB480278DB480178E3
:10336000DB4801F091FBDB480288DB480188DBA0E9
:1033700001F08AFB01F0E4F8E649086001F0A0F9E9
:10338000C048008800EB4000E34901EB4000408862
:10339000E249088008460088FEF72AF8E0490880DC
:1033A000002015900CE0DF49159831F81000024616
:1033B0001490DDA0159901F067FB1598401C15903D
:1033C000D449159809688842EDDBD248016800E0CD
:1033D00059E0DDA001F058FBCE48006800282ED04F
:1033E000D048008810BBA7480188DDA001F04CFB45
:1033F000A448008800EB4000C74901EB400040882A
:10340000159000F079FAC348006801280ADDC54824
:10341000E149096830F81100012241F61F41159079
:1034200000F026FFDDA001F02FFB0DE0BD48008875
:10343000012241F61F41159000F01AFF04E0914867
:103440000188E3A001F020FB0120ED4908808D48B0
:103450000088401C8B49088008460088042801DD4C
:1034600000200880E7A001F00FFBEFA001F00CFBAB
:103470000020EE4908700120ED490860C649086047
:103480000020EC490860EC480088012824D1EB4872
:10349000006808B9012000E00020E8490860D84829
:1034A0000188E7A001F0F0FA00F07EFBEE49088009
:1034B000EEA001F0E9FADCA001F0E6FAEA480088A3
:1034C000FDF796FFF3490880CD480088401CCC49A1
:1034D00008800020D8490880EF48007801287DD175
:1034E0000020159001201490D448001D006808B9F0
:1034F000012000E00020D149091D0860E74800884C
:10350000B0F5907F14D1E648006808B9012000E0CA
:103510000020E3490860E34800780090E24803781F
:10352000E2480278DD480188E14801F0ADFAA0E008
:10353000DA48008840F22111884216D1D848001D8F
:10354000006808B9012100E00021D548001D016094
:10355000D44800780090D4480378D4480278CF4803
:103560000188D44801F090FA83E0CC480088B0F597
:10357000917F0CD1CB4800780090CB480378CB48A2
:103580000278C6480188CC4801F07EFA71E0C34851
:10359000008840F2231188422FD1C2480078009061
:1035A000C1480378C1480278BC480188C34801F08B
:1035B0006BFA1DE0012001F05DFF149818B1159819
:1035C0000A3080B2159040F2DC511598884201DD36
:1035D00000201490159818B9012000E04DE01490D7
:1035E000B748159900F057FFB6A0159901F04CFAAD
:1035F000AE4800780128DDD03BE0A8480088B0F54F
:10360000927F16D1A6481030006808B9012000E06A
:103610000020A34910310860A24800780090A24819
:103620000378A24802789D480188AB4801F02CFA43
:103630001FE09A48008840F22511884216D17F4841
:103640000830006808B9012000E000207B490831FB
:103650000860944800780090934803789348027873
:103660008E4801889D4801F00FFA02E09CA001F00D
:103670000BFA00208849087000BFFEF7DBBF00008E
:10368000B8012242800000202A2A2A2A2A2A2A2A2D
:103690002A2A2A2A2025642E207265666572656EA4
:1036A00063652073746172742A2A2A2A2A2A2A2AB4
:1036B0002A2A200D0A0000000C0000200B00002028
:1036C0000A00002009000020080000200700002058
:1036D000A864000812000020100000202A2A2A7482
:1036E000696D65207374616D702028616363756D09
:1036F000756C61746565642C206E65772920617234
:1037000065202825642C202564292A2A2A200D0AD0
:103710000000000098010020AA0000209E01002067
:10372000A0010020C200002066696E616C54696DC2
:10373000657256616C75655B25645D206973202533
:1037400064200D0A000000004D657354696D6573B7
:10375000496E4243206973202564200D0A00000051
:103760002B2B2B2B2B2B2B2B4E756D42633A2025AD
:1037700064206669727374206D6573736167652078
:1037800069732073656E743A2B2B2B2B2B2B2B2BF1
:103790002B2B200D0A000000100100202B2B2B2BBF
:1037A0002B2B2B2B436F6C756D6E203D313A666F62
:1037B00072206D6573736167652066696E697368F1
:1037C0002B2B2B2B2B2B2B2B2B2B200D0A00000014
:1037D0002B2B2B474747206E6F7468696E672074E8
:1037E0006F2073656E64202120696E204E756D42D6
:1037F000633A256420204747472B2B2B0D0A0000F6
:10380000A60100202A2A2A2A2A2A2A2A2A2A2A2AF9
:103810007265666572656E636520656E64202A2A2E
:103820002A2A2A2A2A2A2A2A200D0A000F000020E2
:103830000C010020CC000020040000208001214267
:1038400023232323232323232323696E7465727286
:10385000757074202564202323232323232323230B
:103860002323200D0A000000A4010020232323238A
:10387000232323232323656E6420696E746572728B
:103880007570742323232323232323232323200D31
:103890000A000000A20100201C0000201E000020E1
:1038A0009481214217000020150000201400002000
:1038B000FC64000854650008AC650008B4660008A4
:1038C0000008004070776D20776F726B73206E6F09
:1038D00077202564200D0A00046600085C66000855
:1038E0002A2A6172626974726172792077696E64E2
:1038F0006F7773202A2A000010B50446A4F5907053
:10390000062822D2DFE800F003080D12171C4FF43E
:10391000907001F00BFE1CE040F2211001F08AFED5
:1039200017E04FF4917001F009FF12E040F223100C
:1039300001F050F80DE04FF4927001F049FF08E0FB
:1039400040F2251001F0C8FF03E003A001F09CF84D
:1039500000BF00BF10BD000063616E206265206182
:1039600020617262697472617279206D657373612E
:103970006765200D0A0000007047000029B1064A63
:10398000D2690243044BDA6104E0034AD2698243FC
:10399000014BDA61704700000010024029B1064A6D
:1039A00012690243044B1A6104E0034A126982431C
:1039B000014B1A61704700000010024029B1064A0D
:1039C00092690243044B9A6104E0034A926982437C
:1039D000014B9A61704700000010024030B5002191
:1039E0000022002400232D4D6D6805F00C0121B14B
:1039F000042905D0082923D105E0294D056022E0DE
:103A0000274D05601FE0254D6D6805F47012234DAC
:103A10006D6805F48034022505EB92421CB9214DF6
:103A2000554305600BE01D4D6D6805F400351DB173
:103A30001C4D5543056002E0194D5543056002E0F9
:103A4000174D056000BF00BF144D6D6805F0F00113
:103A50000909154D6B5C0568DD4045600F4D6D68CB
:103A600005F4E061090A104D6B5C4568DD40856036
:103A70000A4D6D6805F46051C90A0B4D6B5C4568D1
:103A8000DD40C560054D6D6805F44041890B074D6B
:103A90006B5CC568B5FBF3F5056130BD00100240F5
:103AA00000127A0000093D002F0000203F00002096
:103AB00070B52C4800782C4908602C4800782C49B7
:103AC00008602C4800782849096801EB41012A4A1E
:103AD00002EB4101264A126821F8120022480068D0
:103AE00000EB4000244901EB40002149096830F80F
:103AF00011002249097840EA01211B48006800EBC7
:103B000040001D4A02EB4000194A126820F81210CA
:103B10001B4801781448006800EB4000194A104423
:103B2000134A1268815410480068114909684843D3
:103B3000002815DB002411E000250CE004EB440014
:103B40000D4901EB400030F815302A4621460EA001
:103B500000F09AFF6D1C032DF0DB641C042CEBDBE2
:103B600070BD000007000020280100200800002090
:103B70002C01002009000020AA0000200A000020DB
:103B80000B000020AC0200207265636569766564F5
:103B9000206D6174726978202025642025642025B9
:103BA0002378200D0A00000010B53648008860BB5D
:103BB00035490978491E01EB4101344A02EB4101C4
:103BC000334A344B1B6852F8232031F81200FFF7B8
:103BD00093FE30480068401C2E4908602E4800883B
:103BE000401C2E490968884204DB00212C4800F063
:103BF000CCFB3BE02349274A126831F8120001222E
:103C000041F61F4100F034FB30E01F490978491E9E
:103C100001EB41011D4A02EB410222490968491E9C
:103C20001B4B53F8211032F81100FFF765FE1A48BC
:103C300000881A490968884204DB0021184800F00E
:103C4000A4FB13E00F49174A126831F81200012251
:103C500041F61F4100F00CFB1248016812A000F071
:103C600013FF10480068401C0E49086006480078A1
:103C700000EB4000054901EB40000749098830F896
:103C8000110010BDC200002080000020AA0000200A
:103C9000D802002010010020A60100209801002079
:103CA000000400400C0100204E6F772074686520EE
:103CB00066696E616C54696D657256616C756520DC
:103CC00073686966742076616C7565206973202558
:103CD000640D0A0070470000F0B587B00746012068
:103CE000019000208DF80D008DF80C0005208DF856
:103CF0000E0000244AE0002545E0E0B28DF80F00F8
:103D00008DF8105004EB4400244901EB400010F8FA
:103D100015108DF8111004EB4400204901EB400010
:103D200030F8150001128DF8121004EB44001C4904
:103D300001EB400010F815108DF8131001A9194877
:103D4000FDF784F806464FF4167001F093FB00BFB0
:103D500031461448FDF70DF90028F9D02A462146CE
:103D600011A000F091FE9DF8111014A000F08CFE3F
:103D70009DF8121016A000F087FE9DF8131019A0F0
:103D800000F082FE6D1C032DB7DB641C042CB2DB3B
:103D90000C208DF80F0007B0F0BD0000920000204D
:103DA000D00000200064004069203D2025642C6A7A
:103DB000203D20256420200D0A000000534D20697D
:103DC000732073656E74323A202523780D0A000043
:103DD000534D2069732073656E74333A2025237820
:103DE000200D0A00534D2069732073656E74343AB8
:103DF00020252378200D0A002DE9F04186B00446E5
:103E00000E46174698460420284908700320284982
:103E10000870012027490870274800782749087052
:103E200004202749087005202649087000940020C6
:103E30008DF809008DF8080008208DF80A001B484D
:103E400000788DF80B001A4801788DF80C1019488D
:103E500001788DF80D10194801788DF80E1018486A
:103E600001788DF80F10174801788DF81010694609
:103E70001548FCF7EBFF0546144A0598D2E90032D5
:103E8000C01842F10001114A03C20020059000BF92
:103E900029460D48FDF76DF80028F9D00B480CC8ED
:103EA0000BA000F0F1FD06B0BDE8F0815800002045
:103EB000590000205A000020480000205B0000202C
:103EC0005C0000205D0000200064004050000020E5
:103ED0005468652073656E64696E672072656665F7
:103EE00072656E63652074696D6520697320202595
:103EF0006C6C64200D0A000010B500F001F810BDD4
:103F00000CB50020019000903348006840F48030E8
:103F10003149086000BF3048006800F4003000906C
:103F20000198401C0190009818B90198B0F5A06F55
:103F3000F1D12948006800F4003010B10120009050
:103F400001E0002000900098012843D12348006838
:103F500040F01000214908600846006820F0030086
:103F600008600846006840F0020008601A4840688F
:103F7000194948600846406848600846406840F46F
:103F8000806048600846406820F47C10486008461D
:103F9000406840F4E81048600846006840F08070CF
:103FA000086000BF0C48006800F000700028F9D0DD
:103FB0000948406820F00300074948600846406807
:103FC00040F00200486000BF0348406800F00C0069
:103FD0000828F9D10CBD000000100240002002406A
:103FE000042808D14FF0E021096941F004014FF0A5
:103FF000E022116107E04FF0E021096921F004019E
:104000004FF0E02211617047012808D14FF0E02104
:10401000096941F001014FF0E02211610EE0811CBD
:1040200041B94FF0E021096921F001014FF0E02290
:10403000116103E000214FF0E0229161704710B55B
:104040000146002200230020CB10022B03D14FF0A9
:10405000E024226902E04FF0E024E26901248C4070
:1040600014400CB1012000E0002010BD704740B1A9
:104070004FF0E021096941F002014FF0E0221161A7
:1040800007E04FF0E021096921F002014FF0E02242
:10409000116170474FF0E0214861704710B5134837
:1040A000006840F001001149086008464068104966
:1040B00008400E494860084600680E4908400B4910
:1040C00008600846006820F48020086008464068C0
:1040D00020F4FE0048604FF41F008860FFF70CFFDB
:1040E0004FF000600449086010BD0000001002405D
:1040F0000000FFF8FFFFF6FE08ED00E010B501211B
:10410000880700F04EF9A8B10121880700F03AF9BC
:1041100009480078012807D1084908800848007834
:10412000401C0749087005E006A000F0ADFC012026
:104130000B49087010BD00009C01002026000020E3
:104140004800002074696D65723220696E74657272
:104150007275707420636F6D6573200D0A00000026
:10416000280000207FB506460C461546012108466A
:10417000FFF704FCADF80860ADF804400020ADF88E
:104180000A00ADF8060001A94FF0804000F086F962
:1041900001221146900700F015F91C208DF800004F
:1041A00000208DF8010004208DF8020001208DF818
:1041B00003006846FDF75EF929464FF0804000F0A5
:1041C000E4F87FBD10B50121184800F0EAF8002896
:1041D0002AD00121154800F0D5F8154800780128AB
:1041E0001FD11448006808B9012000E000201149DF
:1041F000086011480068401C0F49086008460068C4
:104200000A280AD30DA000F03FFC0021074800F067
:10421000BCF80121880700F0B8F801201249088095
:1042200002E001201149088010BD00000004004098
:104230009C010020B8012242200000204E6F772010
:1042400074686520534D2069732073656E74207403
:104250006F20616C6C2074686520736C61766520DA
:104260006E6F6465730000002400002004000020CD
:104270007FB506460C46154601210220FFF77EFB5E
:10428000ADF80860ADF804400020ADF80A00ADF8C4
:10429000060001A90D4800F001F9012211460B4862
:1042A00000F090F81D208DF8000000208DF801002E
:1042B00003208DF8020001208DF803006846FDF709
:1042C000D9F82946014800F060F87FBD000400409D
:1042D00010B50121084800F064F858B101210648E2
:1042E00000F050F80548006808B9012000E00020FF
:1042F0000249086010BD0000000800409C81214276
:1043000030B589B005460C4601210420FFF736FB85
:1043100001210820FFF752FB8020ADF82000182073
:104320008DF8230003208DF8220008A91348FCF71C
:1043300093FFADF81850ADF814400020ADF81A0006
:10434000ADF8160005A90E4800F0A8F86020ADF8F9
:1043500004000120ADF806000020ADF80C0001A912
:10436000074800F039F80821054800F087F80121D6
:10437000034800F00AF809B030BD0000000C01400D
:1043800000080040CA430282704721B1028842F00F
:104390000102028004E002884FF6FE731A40028098
:1043A000704730B50246002000230024158A05EA34
:1043B0000103958905EA010413B10CB1012000E065
:1043C000002030BD1AB183890B43838102E08389C9
:1043D0008B4383817047000070B5002400220023C6
:1043E000058C4FF6EF7635400584028C8388048B6C
:1043F00048F6FF752C404FF6FF452C400D884FF6D0
:10440000FF7606EA05252C434FF6DF752A400D8915
:1044100006EA05152A434D8806EA05152A43154D77
:10442000A84202D0144DA8421DD14FF67F752A40F4
:104430004D894FF6FF7606EA05152A434FF6BF75FC
:104440002A408D8806EA05152A434FF6FF352B4092
:104450004FF2FF752B408D8906EA85052B43CD89E8
:1044600006EA85052B4383800483CD880587028473
:1044700070BD0000002C0140003401400A460021BC
:10448000018B4FF2FF7319404FF6FF7303EA0223CB
:10449000194301837047018770470000002202889A
:1044A0001D4B98420ED01D4B98420BD0B0F1804F5F
:1044B00008D01B4B984205D01A4B984202D01A4B99
:1044C000984204D14FF68F731A404B881A43174B0A
:1044D000984207D0164B984204D04FF6FF431A403B
:1044E000CB881A4302808B8883850B8803850A4B0F
:1044F00098420BD0094B984208D00E4B984205D0F9
:104500000D4B984202D00D4B984201D10B7A038695
:104510000123838270470000002C014000340140D9
:104520000004004000080040000C00400010004063
:104530000014004000400140004401400048014098
:104540002DE9FC410024A046002037E0002132E0A4
:1045500000EB40024D4B03EB420232F811804C4A13
:104560001278012A11D100220CE04A4B33F81230A4
:10457000434506D1484B43F8340003EBC40359606C
:10458000641C521C032AF0D314E0444A1278012A16
:1045900010D100220CE0424B33F81230434506D1D3
:1045A0003D4B43F8340003EBC4035960641C521CB8
:1045B000032AF0D3491C0329CADB401C0428C5DBAD
:1045C000002538480068A04202DB00203549086019
:1045D0003449086814E0304951F83010324A1278F2
:1045E00091420CD12C4901EBC00149682F4A42F895
:1045F00025106D1C2B490968491C2A4A1160401C72
:10460000A042E8DB002000900190002700BF0DE0F1
:10461000264951F82010491E254A11601146098883
:1046200089B22DF81710791C8FB2401CA842EFDB1D
:10463000BDF800101F48FCF79EF91F4908600126CD
:1046400008E03DF816101B48FCF795F91A4941F8A7
:104650002600761CAE42F4DB002011E016490988E2
:10466000164A118001280ADB134931F82020411E27
:10467000114B33F82110511A104A22F81010401C27
:10468000A842EBDB2846BDE8FC810000AA00002020
:10469000AA01002086000020E8020020AB010020D3
:1046A0008C0000201C01002080000020D802002087
:1046B000CC0000208200002048030020C20000201F
:1046C000F0B50023002500240022012119E00E4846
:1046D00030F81150002011E000EB40060B4F37F886
:1046E00016309D4209D100EB400607EB4606B48820
:1046F000074E26F81240561CF2B2401C0628EBDB8F
:10470000491C0329E3DBF0BDAA000020E8000020DB
:104710008200002021B1828942F40052828104E0AB
:1047200082894DF6FF731A408281704700B587B0C9
:10473000012144F20400FFF741F94FF40070ADF895
:10474000180018208DF81B0003208DF81A0006A908
:104750001E48FCF781FD4FF48060ADF8180004207E
:104760008DF81B0003208DF81A0006A91748FCF7E6
:1047700073FD25208DF8040003208DF805008DF8C9
:10478000060001208DF8070001A8FCF773FE4FF426
:104790007A3002900020ADF80C00ADF80E00ADF8B4
:1047A0001000ADF814000C20ADF8120002A9084862
:1047B00000F042F8012240F22551054800F017F8B8
:1047C00001210348FFF7A6FF07B000BD0008014024
:1047D0000038014002460020B1F5007F00D100BF43
:1047E00013880B400BB1012000E000207047F0B5AA
:1047F0000346002400260025002040F66A17B9422F
:1048000000D100BF1846C1F3421401F01F06012772
:1048100007FA06F5012C01D10C3004E0022C01D17D
:10482000103000E014301AB107682F43076002E02F
:104830000768AF430760F0BD2DE9F04786B0054635
:104840000E460024A24600BFA1460027B08900B151
:1048500000BF2F462C8A4CF6FF700440F0880443BA
:104860002C82AC894EF6F3100440B088318908439D
:10487000718908430443AC81AC8A4FF6FF40044081
:10488000B0890443AC8201A8FFF7A8F81F4887420B
:1048900002D1DDF810A001E0DDF80CA0A88900F439
:1048A000004040B10AEBCA0000EB0A103168490031
:1048B000B0FBF1F807E00AEBCA0000EB0A10316820
:1048C0008900B0FBF1F86420B8FBF0F00401200986
:1048D000642101FB1089A88900F4004040B1322016
:1048E00000EBC900B0FBF1F000F00700044308E062
:1048F000322000EB09106421B0FBF1F000F00F0052
:1049000004432C8106B0BDE8F08700000038014068
:10491000C1F308028280704700B587B001AA002168
:104920001F48FCF704FA1F49019808809DF80F0002
:104930001D4908709DF810001C4908709DF8110071
:104940001B4908709DF812001A4908709DF8130061
:10495000194908709DF8140018490870BDF818002E
:1049600017490880BDF818001649098808441549F8
:1049700008800020ADF8180002210948FCF736F83D
:1049800008480088012802D10F49088006E0054840
:104990000088022802D101200C49087007B000BD30
:1049A00000640040000000200700002008000020F4
:1049B000090000200A0000200B0000200C0000204D
:1049C0001200002010000020020000200F00002034
:1049D00000BFFEE730B587B004461A480078401C97
:1049E000184908700846007817490870019400209B
:1049F0008DF80D008DF80C0008208DF80E0013487E
:104A000000788DF80F00124801788DF810100E48CC
:104A100001788DF8121001A90E48FCF717FA054627
:104A2000022000F027FD00BF29460A48FCF7A1FA42
:104A30000028F9D022460348017807A000F024F8A6
:104A400007B030BD600100208301002080010020FC
:104A500081010020006400403E3E3E3E3E696E63A0
:104A600072656173655F666C6167202523782C2011
:104A7000494420202523782069732073656E743C97
:104A80003C3C3C3C0D0A00000FB4054B10B503A99B
:104A9000044A029800F06AF910BC5DF814FB0000AB
:104AA000C9540008DC010020490050EAC12018BFA9
:104AB00004204A0D18BF40F0010040F2FF72B2EB33
:104AC000515F08BF40F00200012808BF0520704771
:104AD0002DE9F0414F1E00EBC7010446D1E900016A
:104AE00015461E4637F006020DD02A463346FBF720
:104AF000F1FD7F1E04EBC703D3E90023FBF768FB3E
:104B000037F00602F1D1022F25D0042F13D0062F43
:104B100018BFBDE8F0812A463346FBF7DBFDD4E938
:104B20000A23FBF755FB2A463346FBF7D3FDD4E9AE
:104B30000823FBF74DFB2A463346FBF7CBFDD4E9B0
:104B40000623FBF745FB2A463346FBF7C3FDD4E9B2
:104B50000423FBF73DFB2A463346FBF7BBFDD4E9B4
:104B60000223FBF735FB2A463346FBF7B3FDD4E9B6
:104B70000023BDE8F041FBF72BBB000000221346E9
:104B800010460149FBF7CBBB0000F03FFBF720BB11
:104B90000022134610461146FBF7C1BB40F201321A
:104BA00000204FF0E041FBF707BE0000024A002062
:104BB0001107FBF701BE000001FDFFFF02E008C87E
:104BC000121F08C1002AFAD170477047002001E087
:104BD00001C1121F002AFBD1704700000149086083
:104BE00070470000E00100202DE9FF5F82B0002146
:104BF000DDE90430020DDDF840B0034318D044F67F
:104C00001050A2F2FF3242431514119801281FD010
:104C1000A5EB0B00401C5FEA000A4FF000064E4F68
:104C2000DFF83891B046504615D5CAF1000413E0BC
:104C3000119801244AA3012801D16FEA0B010298BF
:104C4000119AC0E90031C0E9024206B0BDE8F09F08
:104C5000CBF10000DFE704460021404A491842EB4F
:104C60000450CDE9001012E0E00707D032463B4681
:104C700040464946FBF72EFD8046894632463B4674
:104C800010461946FBF726FD06460F466410002C19
:104C9000EAD1DDE90401DDE90023BAF1000F06DA0B
:104CA000FBF718FD42464B46FBF714FD05E0FBF70A
:104CB00036FB42464B46FBF732FB04460E460022CB
:104CC000284BFBF7DFFB03D84FF0FF30014607E02E
:104CD0000022254B20463146FBF77AFAFBF7E5FD2B
:104CE000102409E0002C0ADB0A220023FBF70CFC4D
:104CF000039B30321A55641E50EA0102F2D1641C43
:104D0000039AC4F111031444119A012A03D0012219
:104D100008430DD10AE0084304D000204FF0110BE6
:104D2000119072E7A3EB0B056D1E0DE05B4504DDF2
:104D30004FF0000205F1010504E003DA4FF0000234
:104D4000A5F10105002AECD002981199C0E90231C1
:104D5000C0E9004579E70000000014400000F03F82
:104D6000300000000000F0430000E03F2DE9FF4F5D
:104D700095B09A46884606460025EEE1252877D16B
:104D800000242746F94A0121039400E0044316F861
:104D9000013F203B01FA03F01042F7D130782A2876
:104DA00011D06FF02F033078A0F13002092A16D805
:104DB000039A44F0020402EB820203EB4202104425
:104DC000761C0390EFE758F8042B0392002A03DACD
:104DD000504244F40054039044F00204761C3078AE
:104DE0002E2816D116F8010F44F004042A280DD0FD
:104DF0006FF02F023078A0F13003092B09D807EBB0
:104E0000870302EB4303C718761CF3E758F8047BCB
:104E1000761C30786C280FD006DC4C2817D0682818
:104E20000DD06A2814D104E0742810D07A280FD14C
:104E30000DE044F400140AE044F4801401E044F46A
:104E400040147278824202D104F58014761C761CDC
:104E5000307866280BD013DC582877D009DC00287E
:104E600075D04528F6D04628F4D047281AD193E1CA
:104E700018E0632835D0642879D0652812D18BE1F9
:104E8000702873D008DC6728F1D069286FD06E28AD
:104E90000DD06F2806D1ACE073282CD0752874D0C3
:104EA000782853D05246179990476D1C54E1C4F3AB
:104EB0000250022809D003280DD0D8F80010042889
:104EC0000DD00D6008F1040846E1D8F80010EA178B
:104ED000C1E90052F6E7D8F800100D80F2E70D7036
:104EE000F0E718F8041B8DF8001000208DF8010081
:104EF000EB46012003E058F804BB4FF0FF30610798
:104F00004FF0000102D40DE009F101018946B942D8
:104F10000FDA8145F8DB1BF809100029F4D108E00D
:104F200009F1010189468142FADB1BF809100029C9
:104F3000F6D103985346A0EB090721463846179A45
:104F400000F080FA284400EB090507E044E008E19E
:104F50000DE01BF8010B524617999047B9F1010972
:104F6000F7D2534621463846179AF2E039E00A2133
:104F7000C4F302524FF0000B0091022A06D058F8F9
:104F8000040BC117032A09D00AE023E008F1070047
:104F900020F00702F2E80201904605E000B2C117D6
:104FA000042A01D140B2C117002906DA0A460021BD
:104FB000404261EB02012D2202E0220504D52B22A2
:104FC0008DF80420012203E0E20701D02022F7E758
:104FD000914657E00A2100E010214FF0000B0091AC
:104FE0000BE010214FF0000B44F00404082700915F
:104FF00003E008204FF0000B0090C4F30252022A95
:1050000005D058F8040B0021032A08D008E008F165
:10501000070020F00702F2E80201904603E080B2A8
:10502000042A00D1C0B24FF0000922072AD53278F5
:10503000702A07D0DDF800C08CF0100C5CEA0B0C75
:1050400005D00EE040228DF80420012208E050EA4D
:10505000010306D030238DF804308DF8052002229C
:105060009146009B83F0080353EA0B030AD150EAF0
:10507000010201D1620705D530228DF804204FF0DE
:1050800001097F1E3278582A04D039A20C920CAA4A
:1050900002920BE03BA2F9E75B46009AFBF734FA79
:1050A0000C9B9B5C029A521E0292137050EA010202
:1050B000F2D1029804A9081A00F1200B600702D56A
:1050C00024F4803400E001275F4502DDA7EB0B00EC
:1050D00000E0002000EB0B01009003984944401AC7
:1050E0000390E00306D453462146179A039800F034
:1050F000A9F90544002706E001A85246C05D1799AA
:1051000090476D1C7F1C4F45F6DBE0030CD55346E2
:105110002146179A039800F095F9054404E03020E1
:105120005246179990476D1C0099481E009000291F
:10513000F5DC08E00298029952460078491C029179
:10514000179990476D1CBBF10001ABF1010BF1DC2D
:105150005BE100F065F90544761C307800287FF4A7
:105160000DAE19B02846BDE8F08F000009280100F7
:1051700030313233343536373839616263646566CD
:10518000000000003031323334353637383941428F
:105190004344454600000000600700D4062708F19C
:1051A000070020F00700F0E80223804603F0004CDF
:1051B0005FEA0C0001D097A009E0200501D596A078
:1051C00005E0E00701D095A001E0AFF24C0013909C
:1051D000307823F0004365280CD006DC452809D040
:1051E00046281DD047287FD13BE0662818D0672885
:1051F0007AD136E00021112F01DB112000E0781C6C
:10520000CDE9000104A90CA8FFF7EEFCDDE90D01D2
:105210000C9A4FF0000B07F10109109200914EE03B
:105220004FF000400097CDE9011004A90CA8FFF74A
:10523000DBFCDDE90D020C9B0F994FF0000B914652
:105240001093009211B9791C00EB0109B7EB09002A
:1052500003D4C0F1FF3B07F10109A9EB070001905E
:1052600042E0012F00DA01270021112F01DD11207A
:1052700000E03846CDE9000104A90CA8FFF7B4FC12
:10528000DDE90D010C9A00914FF0000BB946109228
:1052900021070FD4009A4A4503DA914601E0A9F1AB
:1052A0000109B9F1010F05DD109AA9F10101515C65
:1052B0003029F4D0B84202DA10F1040F03DA0121E8
:1052C000CDE9011010E0002803DC8344A9EB0001C4
:1052D00002E0411C494500DD8946A0EB0B00401C63
:1052E00001904FF000400290200705D401984845F6
:1052F00002DB4FF0FF30019000208DF84B00029848
:105300000DF14B07B0F1004F25D002200C902B205F
:105310000D90029800280CDA404202902D200D904A
:1053200007E00A210298FBF7D9F83031029007F81C
:10533000011D0C99481E0C900029F2DC02980028EF
:10534000EFD1791E0D980870307800F0200040F001
:10535000450007F8020D11A8C01BC01D029013984C
:10536000007800B1012000EB0901019801EBE07128
:10537000029801440398401A401E0390E00306D4AB
:1053800053462146179A039800F05CF80544139899
:10539000007818B15246179990476D1CE00323D549
:1053A00053462146179A039800F04CF805441BE039
:1053B000BBF1000F07DB0098584504DD10981799E2
:1053C00010F80B0001E017993020524690470198E1
:1053D0000BF1010B401E05F10105019004D12E20B7
:1053E0005246179990476D1CB9F10001A9F10109C6
:1053F000DEDC05E017F8010B5246179990476D1C4B
:105400000299481E02900029F4DC53462146179A5F
:1054100003989EE62D0000002B00000020000000F5
:105420002DE9F041044600251E461746880404D4A1
:1054300005E039462020B0476D1C641EF9D528468A
:10544000BDE8F0812DE9F041044600251E46904656
:10545000C80301D5302700E02027880404D505E0E3
:1054600041463846B0476D1C641EF9D52846BDE854
:10547000F081000070B504461148008800FB04F577
:10548000B5F1807F01D36FF07F452846FEF702FE1D
:105490000020FEF7B9FD0120FEF7B6FD00BF102089
:1054A000FEF7CDFD07490870084600780128F6D1BF
:1054B000C01EFEF7A9FD0020FEF7A6FD70BD00008E
:1054C0002C0000202E00002070B504460D46E1B2ED
:1054D0000548FFF71DFA00BF40210348FFF77AF99E
:1054E0000028F9D0204670BD0038014010B5FBF708
:1054F0005DFEFBF743FFFFF719F94FF4A060FBF7E0
:10550000F1FF012020B1012805D0022809D105E0D2
:10551000FBF7F2FF06E0FCF781F803E0FDF752F835
:1055200000E000BF00BF002010BD000030B587B014
:10553000044601202A4908702A49087003202A4994
:1055400008700420294908700520294908700620A0
:1055500028490870019400208DF80D008DF80C008A
:1055600008208DF80E001E4800788DF80F001D48A9
:1055700001788DF810101C4801788DF811101B4827
:1055800001788DF812101A4801788DF81310194817
:1055900001788DF8141001A91748FBF757FC054650
:1055A0000120FFF767FF154A0698D2E90032C018BC
:1055B00042F10001114A03C20020069000BF2946B3
:1055C0000D48FBF7D6FC0028F9D00C480CC80CA0FD
:1055D000FFF75AFA214610A0FFF756FA07B030BD80
:1055E00068010020690100206A0100206B01002091
:1055F0006C0100206D01002000640040300100209B
:1056000074696D655478207374616D7020256C6CBD
:1056100064200D0A000000003E3E3E3E3E4944200C
:10562000202523782069732073656E743C3C3C3CD4
:105630003C0D0A0030B587B0044602202A490870A4
:105640002A49087003202A49087004202949087053
:105650000520294908700620284908700194002077
:105660008DF80D008DF80C0008208DF80E001E48F6
:1056700000788DF80F001D4801788DF810101C4837
:1056800001788DF811101B4801788DF812101A4816
:1056900001788DF81310194801788DF8141001A9BC
:1056A0001748FBF7D3FB05460120FFF7E3FE154A39
:1056B0000698D2E90032C01842F10001114A03C233
:1056C0000020069000BF29460D48FBF752FC002839
:1056D000F9D00C480CC80CA0FFF7D6F9214610A051
:1056E000FFF7D2F907B030BD700100207101002032
:1056F0007201002073010020740100207501002058
:10570000006400403801002074696D65547820738E
:1057100074616D7020256C6C64200D0A000000001F
:105720003E3E3E3E3E49442020252378206973209A
:1057300073656E743C3C3C3C3C0D0A0030B587B050
:10574000044617480078401C154908700194002051
:105750008DF80D008DF80C0008208DF80E00114812
:1057600000788DF80F00104801788DF810100F4860
:1057700001788DF8121001A90D48FBF767FB05466B
:105780000120FFF777FE00BF29460948FBF7F1FB30
:105790000028F9D0214607A0FFF776F907B030BD01
:1057A0006001002078010020790100207B010020A9
:1057B000006400403E3E3E3E3E4944202025237882
:1057C0002069732073656E743C3C3C3C3C0D0A00C0
:1057D00030B587B0044605202A4908702A49087068
:1057E00003202A4908700420294908700520294906
:1057F0000870062028490870019400208DF80D00DB
:105800008DF80C0008208DF80E001E4800788DF8E9
:105810000F001D4801788DF810101C4801788DF894
:1058200011101B4801788DF812101A4801788DF874
:105830001310194801788DF8141001A91748FBF7C7
:1058400005FB05460220FFF715FE154A0698D2E92A
:105850000032C01842F10001114A03C20020069034
:1058600000BF29460D48FBF784FB0028F9D00C48FF
:105870000CC80CA0FFF708F9214610A0FFF704F9A7
:1058800007B030BD88010020890100208A01002076
:105890008B0100208C0100208D010020006400405D
:1058A0005001002074696D655478207374616D70C7
:1058B00020256C6C64200D0A000000003E3E3E3E38
:1058C0003E494420202523782069732073656E7437
:1058D0003C3C3C3C3C0D0A0030B587B004460120FE
:1058E0002B49087002202B49087003202A490870B0
:1058F00004202A49087005202949087006202949F2
:105900000870019400208DF80D008DF80C0008201F
:105910008DF80E001E4800788DF80F001D480178A4
:105920008DF810101C4801788DF811101B48017873
:105930008DF812101A4801788DF813101948017863
:105940008DF8141001A91848FBF780FA05460220CB
:10595000FFF790FD154A0698D2E90032C01842F1CF
:105960000001124A03C20020069000BF29460E48DB
:10597000FBF7FFFA0028F9D021460DA0FFF784F8C5
:105980000A480CC811A0FFF77FF807B030BD00002F
:10599000900100209101002092010020930100203D
:1059A0009401002095010020006400405001002077
:1059B0003E3E3E3E3E494420202523782069732008
:1059C00073656E743C3C3C3C3C0D0A0074696D652B
:1059D0005478207374616D7020256C6C64200D0AFE
:1059E000000000002DE9F04D1D460C4698B017460A
:1059F00021F0004123F00043002814BF4FF0010CB8
:105A00004FF0000C0CEB440CFE4A0CEB02064FEA84
:105A1000620C66452BD33E0018BF012606EB4506F7
:105A20001644F94A964222D3F84A53EA070C02D0A8
:105A3000944205D148B918B000201146BDE8F08D58
:105A4000002808BF4FF0000C01D04FF0010C0CEB08
:105A5000440212F5001F0AD8002F14BF4FF0010CAA
:105A60004FF0000C0CEB450212F5001F07D918B0DF
:105A70003A462B462146BDE8F04DFFF787B8002295
:105A8000DFF88CA3002CB8BF534526DADFF884C3B7
:105A90006345A8BF022220DADFF870C39C451CDCF6
:105AA000DFF874C30CEB235CBCF1140F08DDCCF100
:105AB000340627FA06FC0CFA06F6BE420DD108E0C1
:105AC0005FB9CCF1140623FA06FC0CFA06F69E42E6
:105AD00003D10CF00102C2F1020251EA000C19D10B
