:020000040800F2
:10000000A006002049010008B51400080B140008E0
:1000100081140008150A0008093E000800000000CD
:10002000000000000000000000000000F92B0008A4
:100030002D120008000000009D280008912F0008E4
:100040006301000863010008630100086301000800
:1000500063010008630100086301000863010008F0
:1000600063010008630100086301000863010008E0
:1000700063010008630100086301000863010008D0
:1000800063010008630100086301000863010008C0
:10009000513D0008190A00086301000863010008C7
:1000A00063010008630100086301000863010008A0
:1000B0006132000815330008D934000863010008D4
:1000C0006301000863010008630100086301000880
:1000D0006301000863010008630100086301000870
:1000E0006301000863010008630100086301000860
:1000F0006301000863010008630100086301000850
:10010000630100086301000863010008630100083F
:10011000630100086301000863010008630100082F
:10012000630100086301000863010008630100081F
:10013000DFF810D000F024FC0048004725490008F3
:10014000AFF30080A006002006488047064800471D
:10015000FEE7FEE7FEE7FEE7FEE7FEE7FEE7FEE777
:10016000FEE7FEE7C12F00083101000880EA010226
:1001700010B502F00043400022D04A001FD0010E0B
:1001800001EB1261C0F35600C2F3560240F40000C6
:1001900042F40002A0FB022000047F39140400D0C6
:1001A000401C50EA124001D44000491EC2B20C0665
:1001B00004EBD010401C4008802A02D003E000204D
:1001C00010BD20F00100002900DA0020184310BD06
:1001D0002DE9FE4F804681EA0300C00F0C460090D7
:1001E00021F0004123F00045B8EB0200A94105D2FF
:1001F0004046214690461C460B46024623F00040EE
:10020000104347D0270DC7F30A00C3F30A510290E9
:10021000401A019040286BDAC3F3130040F4801BAE
:100220000098924620B10023D2EB030A63EB0B0B3C
:1002300001985946C0F14002504600F05CFA06466B
:100240000D4650465946019A00F074FA10EB08002A
:100250006141002487EA115284EAE7731A4340D0CF
:10026000009A62B3019A012A4FEA075215DC001B7B
:1002700061EB02014FF0004202EA0752CDE9004271
:10028000001C41F5801132462B4600F0ABFA03B05A
:10029000BDE8F08F40462146F9E7001B61EB020103
:1002A000001C41F5801300185B412018A2F50017CF
:1002B00047EB030140EAD570B6196D4111E06D08B6
:1002C0004FEA360645EAC0754FEA0752001B61EB5C
:1002D0000201001C41F5801149084FEA3000001965
:1002E000514132462B4603B0BDE8F04F00F06BBAE7
:1002F0000098012240000023D0EB020263EBE07380
:10030000009821464FEAE074B8EB000061EB04016D
:10031000E9E783F000435BE781F0004158E72DE90E
:10032000FE4F81EA030404F0004421F000410094F0
:100330004FF0000B23F0004350EA01045ED052EA74
:1003400003045BD0C3F30A54C1F30A552C44A4F24E
:10035000F3340194A0FB0254C1F3130141F4801162
:10036000C3F3130343F4801301FB024400FB034E69
:10037000840A970A44EA815447EA8357A4FB076832
:1003800002958D0A05FB07854FEA932C04FB0C545C
:100390002705029D4FEA065847EA1637B5EB0805D0
:1003A0006EEB070C870E920E47EA811742EA831222
:1003B000A7FB0201B6EB0B0164EB00042B0D43EA33
:1003C0000C335E1844EB1C50DA465146E7FB020141
:1003D000C5F313044FEA0B3343EA14534FEA0432D4
:1003E000019C43EA0603A4F10C040294009CCDE9AD
:1003F00000B400F0F7F903B0BDE8F08F002001462B
:10040000F9E72DE9F04D81EA030404F0004B21F0F7
:10041000004514464FF0000A23F0004150EA05025F
:1004200020D054EA01021DD0C5F30A570246C5F395
:100430001303C1F31300C1F30A5640F4801543F4CB
:100440008013A7EB0608101BD64608F2FD3873EBA5
:10045000050002D308F1010801E092185B41B8F1F0
:10046000000F03DA00200146BDE8F08D00204FF4B4
:100470008011064684460EE0171B73EB050705D373
:10048000121B63EB050306434CEA010C49084FEAD3
:10049000300092185B4150EA0107EDD152EA0300A7
:1004A00012D082EA040083EA0501084305D0101B3C
:1004B000AB4106D20122002306E000224FF00043A8
:1004C00002E06FF0010253101AEB06004CEB0851EA
:1004D00010EB0A0041EB0B01BDE8F04D00F073B9E1
:1004E0000EB5C10F80EAE0700844CA07002140F24F
:1004F00033438DE80E000A460B4600F073F903B053
:1005000000BD0EB540F2334102910021CDE900114A
:100510000A460B4600F066F903B000BD20F000402B
:10052000C10DC0F3160040F400007F2901DA00205D
:100530007047962903DCC1F19601C840704796398F
:100540008840704770B5C1F30A5201F0004500249D
:10055000C1F3130140F2FF3341F480119A4201DAF2
:10056000002070BD40F233439A42A2F2334203DCD2
:10057000524200F0CFF800E090402C43F1D04042CE
:1005800070BD00F0004230F000400AD0C10D01F50E
:100590006071C0F3160042EA0151C20840071143DE
:1005A000704700200146704730B5041E71F1000409
:1005B00004DB4FF00044404264EB0101141E73F170
:1005C000000405DB1C464FF00043524263EB04037A
:1005D0008B4208BF824230BD30B5041E71F1000469
:1005E00004DB4FF00044404264EB0101141E73F140
:1005F000000405DB1C464FF00043524263EB04034A
:10060000994208BF904230BD01F0004330B421F060
:10061000004150EA010206D00A0DA2F56072C1F352
:100620001301002A02DC30BC00207047440F44EA6A
:10063000C104C100E01830BC00EBC25000F08CB81F
:10064000002801DBC0F10040002901DBC1F10041BD
:1006500081427047002801DBC0F10040002901DB26
:10066000C1F100418842704730B50B460146002079
:100670002022012409E021FA02F59D4205D303FA64
:1006800002F5491B04FA02F52844151EA2F10102E5
:10069000F1DC30BD2DE9F05F0546002092469B4617
:1006A00088460646814640241BE028464146474688
:1006B000224600F02FF853465A46C01A914110D3F3
:1006C00011461846224600F016F82D1A67EB01086D
:1006D0004F4622460120002100F00DF817EB0009DB
:1006E0004E41201EA4F10104DFDC484631462A4673
:1006F0004346BDE8F09F202A04DB203A00FA02F1CD
:10070000002070479140C2F1200320FA03F31943FF
:1007100090407047202A04DB203A21FA02F00021A1
:10072000704721FA02F3D040C2F120029140084301
:1007300019467047202A06DBCB17203A41FA02F00F
:1007400043EAE07306E041FA02F3D040C2F120022E
:1007500091400843194670470029A8BF7047401CC4
:10076000490008BF20F00100704710B4B0FA80FCC7
:1007700000FA0CF050EA010404BF10BC704749B104
:10078000CCF1200421FA04F411FA0CF118BF012174
:1007900021430843A3EB0C01CB1D4FEA00614FEA54
:1007A000102042BF002010BC704700EBC350104423
:1007B0000029A4BF10BC7047401C490008BF20F0AE
:1007C000010010BC704710B5141E73F1000408DA64
:1007D000401C41F1000192185B411A4301D120F005
:1007E000010010BD2DE9F04D92469B4611B1B1FAC2
:1007F00081F202E0B0FA80F220329046FFF77BFFF0
:1008000004460F4640EA0A0041EA0B0153465A46A5
:10081000084313D0114653EA010019D0C8F1400231
:100820005046FFF777FF05460E465046594642466A
:10083000FFF761FF084305D0012004E02046394658
:10084000BDE8F08D0020054346EAE0762C433743AF
:100850000A986305E40AA0EB08000022FD0A44EAB6
:1008600047540A3002D500200146E9E70105101976
:100870006941DDE9084500196941BDE8F04DA2E78D
:1008800070B521F0004303430CD0C1F30A55002496
:10089000D5EB040564EB0403D617AD1AB34102DBB4
:1008A0000020014670BD201841EB025170BD2DE9BA
:1008B000F04D00231A461B1A8A4103DB0020014633
:1008C000BDE8F08DC1F30A52C1F3130141F4801564
:1008D0004FF0000BD10702D100186D41521E0027C6
:1008E000044640F2FF11384601EB620A3E4680465C
:1008F000024600204FF48011FFF70CFFC21971412E
:10090000BB1846EB0100B4EB030C75EB000C04D3F1
:10091000E41A65EB000517460E46241908F101009C
:100920006D4180463428E3DDF91946EB0600091BCA
:10093000A84103D24FF0FF32134601E000221346D4
:100940001BEB070046EB0A51BDE8F04DFFF73BBF3C
:10095000C1F30A52C1F3130140F2FF3341F4801195
:100960009A4202DA00200146704740F233439A422D
:10097000A2F2334202DC5242FFF7CCBEFFF7BBBE0D
:10098000064C074D06E0E06840F0010394E80700DC
:1009900098471034AC42F6D3FFF7CEFB645B0008F7
:1009A000845B000870B58C1810F8015B15F0070324
:1009B00001D110F8013B2A1106D110F8012B03E0F8
:1009C00010F8016B01F8016B5B1EF9D12B0705D400
:1009D0000023521E0DD401F8013BFAE710F8013B49
:1009E000CB1A921C03E013F8015B01F8015B521E65
:1009F000F9D5A142D8D3002070BD10B5024600231E
:100A0000002003E014882344921C401C8842F9DB38
:100A100098B210BD00BFFEE700B587B001AA012162
:100A20000D4800F0C6F90D49019808809DF80F00A7
:100A30000B4908709DF810000A4908709DF81200D3
:100A4000094908701021044800F012F801200749F4
:100A5000087007B000BD00000064004020000020C6
:100A60001600002017000020190000201E000020A2
:100A7000B1F5007F3AD00FDC202928D006DC01290F
:100A80001CD004291DD0082940D11DE0402921D0C7
:100A9000B1F5807F3AD126E0B1F5004F31D006DCC8
:100AA000B1F5806F25D0B1F5006F2FD124E0B1F5FD
:100AB000803F12D0B1F5003F28D111E0154A826085
:100AC00025E00822C26022E01022C2601FE0082256
:100AD00002611CE01022026119E00822426016E067
:100AE0001022426013E00422426010E004224260BF
:100AF0000DE0042242600AE000228261042242608A
:100B000005E0002282610422426000E000BF00BFD5
:100B1000704700000101010010B500F055FB00F026
:100B200003FB00F029FB00F0C6FC00F0D8FC00F04D
:100B3000A1FB10BD10B504460B48844209D1012128
:100B4000480601F0BDFE00214FF0007001F0B8FE34
:100B500008E00121880601F0B3FE00214FF080601B
:100B600001F0AEFE10BD00000064004021B9C26873
:100B700042F02002C26003E0026942F020020261FA
:100B80007047000010B50021837A012202FA03F1B8
:100B90003D4A126842F001023B4B1A603A4A1C324D
:100BA00012688A43384B1C331A60027BCAB9364A32
:100BB0000C3212688A43344B0C331A604288C38863
:100BC00042EA0343304A4032847A42F834300288A1
:100BD000838842EA03432C4A4032847A02EBC402FF
:100BE0005360027B012A19D1274A0C3212680A434A
:100BF000254B0C331A604288038842EA0343224A99
:100C00004032847A42F83430C288838842EA03430F
:100C10001D4A4032847A02EBC4025360C27A3AB968
:100C2000194A121D12688A43174B1B1D1A6006E0F1
:100C3000154A121D12680A43134B1B1D1A600289C4
:100C400032B9114A143212688A430F4B14331A60B6
:100C50000289012A06D10C4A143212680A430A4B4F
:100C600014331A60427B012A06D1074A1C321268EB
:100C70000A43054B1C331A60034A126822F0010232
:100C8000014B1A6010BD0000006600401AB14369B4
:100C90000B43436102E043698B434361704730B5C6
:100CA000024600200023146824F002041460146833
:100CB00044F00104146000E05B1C546804F001047B
:100CC0001CB94FF6FF74A342F6D1546804F0010436
:100CD0000CB900206CE08C79012C04D1146844F02C
:100CE0008004146003E0146824F080041460CC795C
:100CF000012C04D1146844F04004146003E014682B
:100D000024F0400414600C7A012C04D1146844F0DF
:100D10002004146003E0146824F0200414604C7A6A
:100D2000012C04D1146844F01004146003E014682A
:100D300024F0100414608C7A012C04D1146844F05F
:100D40000804146003E0146824F008041460CC7AEA
:100D5000012C04D1146844F00404146003E0146806
:100D600024F0040414608C78A407CD7844EA056468
:100D70000D7944EA05444D7944EA05540D886D1E09
:100D80002C43D461146824F001041460002300E0B3
:100D90005B1C546804F001041CB14FF6FF74A342BD
:100DA000F6D1546804F001040CB1002000E00120E9
:100DB00030BD30B505460C46134605F5D87000EB3E
:100DC0000410006800F004001872187A50B905F594
:100DD000D87000EB0410006840F2FF7101EA505037
:100DE000186009E005F5D87000EB041000686FF09A
:100DF000604101EAD000586005F5D87000EB04109E
:100E0000006800F00200587205F5D87000EB04107D
:100E1000406800F00F00987205F5D87000EB0410E0
:100E20004068000AD87405F5D87000EB04104068DB
:100E30004FF6FF7101EA1040988205F5D87000EB7B
:100E400004108068D87205F5D87000EB0410806833
:100E5000010A197305F5D87000EB04108068010CC5
:100E6000597305F5D87000EB04108068000E987374
:100E700005F5D87000EB0410C068D87305F5D8707C
:100E800000EB0410C068010A197405F5D87000EB76
:100E90000410C068010C597405F5D87000EB0410FB
:100EA000C068000E987421462846FFF75FFE30BDEB
:100EB00000218171C171017241728172C1728170B0
:100EC000C17003210171022141710121018070472C
:100ED00010B502460020936803F08063B3F1806F81
:100EE00000D110E0936803F00063B3F1006F01D10B
:100EF000012008E0936803F08053B3F1805F01D1D3
:100F0000022000E00420042874D002F5C07303EB33
:100F100000131B6803F0010402F5C07303EB001318
:100F20001C600B7A7BB94B7A0C8843EA445302F578
:100F3000C07404EB00142468234302F5C07404EB6E
:100F40000014236010E00B7A4C6843EAC4034C7A27
:100F5000234302F5C07404EB00142468234302F514
:100F6000C07404EB001423608B7A03F00F038B72C0
:100F700002F5C07303EB00135B6823F00F0402F566
:100F8000C07303EB00135C6002F5C07303EB001346
:100F90005B688C7A234302F5C07404EB0014636031
:100FA0008B7B1C064B7B44EA03440B7B44EA032304
:100FB000CC7A234302F5C07404EB0014A3608B7C4D
:100FC0001C064B7C44EA03440B7C44EA0323CC7BA1
:100FD000234302F5C07404EB0014E36002F5C07310
:100FE00003EB00131B6843F0010402F5C07303EB2D
:100FF00000131C6010BD0246002021B1012910D051
:1010000002292CD11CE0936803F0010340EA83001D
:10101000936803F0020318439368C3F38063184393
:101020001FE0936803F4807340EA9310936803F41D
:10103000007340EA13209368C3F3C063184310E0C1
:10104000936803F4803340EA9330936803F40033E9
:1010500040EA13409368C3F30073184301E0002093
:1010600000BF00BF20B1052804D0072806D103E047
:10107000022005E0002003E0012001E0002000BF85
:1010800000BF704700B587B00121480601F008FC99
:1010900000F011FA00F0EEF82248FFF74BFD04A82B
:1010A000FFF706FF01208DF816008DF817008DF868
:1010B000180000208DF819008DF81A008DF81B001B
:1010C0008DF8120003208DF8130002208DF8140013
:1010D00000208DF815002D20ADF8100004A911484E
:1010E000FFF7DDFD01208DF80D000020ADF80800B0
:1010F0008DF80A008DF80B0001208DF80C000020FF
:10110000ADF80000ADF80200ADF80400ADF806003F
:10111000012202210348FFF7B9FD6846FFF732FDBF
:1011200007B000BD006400401FB501208DF80D0020
:101130000020ADF808008DF80A008DF80B000120A2
:101140008DF80C002020ADF800000020ADF8020062
:10115000012202210748FFF799FD4FF69F70ADF875
:1011600004004FF6FF70ADF806006846FFF70AFD71
:101170001FBD0000006400401FB501208DF80D0068
:10118000ADF808008DF80A0000208DF80B00012052
:101190008DF80C0042F26040ADF800000020ADF880
:1011A0000200012210210748FFF770FD4FF61F7063
:1011B000ADF804004FF6FF70ADF806006846FFF783
:1011C000E1FC1FBD006400400EB50121480601F09E
:1011D00067FB1548FFF7AEFC6846FFF769FE012084
:1011E0008DF806008DF807008DF8080000208DF8B6
:1011F00009008DF80A008DF80B008DF8020003201D
:101200008DF8030002208DF8040000208DF8050001
:101210002D20ADF8000069460348FFF740FD694600
:101220000148FFF73CFD0EBD006400407047000020
:1012300000B585B0684601F063FB6FF0040001F073
:1012400061FE002001F0A5FE07490198B0FBF1F016
:10125000064908704FF4FA510198B0FBF1F00449C7
:10126000088005B000BD000000127A002A000020AE
:101270002C00002008B50121142001F031FB4FF4AF
:101280000060ADF8000003208DF8020048208DF8C2
:10129000030069460F4800F021F84FF48050ADF884
:1012A000000003208DF8020018208DF80300694625
:1012B000084800F013F84FF4C040ADF800000320D8
:1012C0008DF8020010208DF803006946024800F0F6
:1012D00005F808BD00080140001001402DE9F0416B
:1012E000024600250026002000230024002791F854
:1012F00003C00CF00F0591F803C00CF0100CBCF10A
:10130000000F03D091F802C04CEA050591F800C027
:10131000BCF1000F31D0146800202BE04FF0010C1D
:101320000CFA00F3B1F800C00CEA03069E4220D18B
:1013300083004FF00F0C0CFA03F7BC4305FA03FCD3
:101340004CEA040491F803C0BCF1280F06D14FF019
:10135000010C0CFA00FCC2F814C00AE091F803C0BA
:10136000BCF1480F05D14FF0010C0CFA00FCC2F89B
:1013700010C0401C0828D1D31460B1F800C0BCF1E3
:10138000FF0F34DD546800202EE000F1080C4FF010
:10139000010808FA0CF3B1F800C00CEA03069E42FB
:1013A00021D183004FF00F0C0CFA03F7BC4305FA70
:1013B00003FC4CEA040491F803C0BCF1280F05D1EA
:1013C00000F1080C08FA0CF8C2F8148091F803C078
:1013D000BCF1480F07D100F1080C4FF0010808FAE2
:1013E0000CF8C2F81080401C0828CED35460BDE829
:1013F000F08141617047016170474FF6FF710180D4
:10140000022181700421C170704700BFFEE7000017
:1014100008B501211C2001F063FA0720ADF8000097
:1014200010208DF8030003208DF802006946114852
:10143000FFF754FF07210F48FFF7DBFF4FF4005081
:10144000ADF8000069460C48FFF748FF4FF4005123
:101450000948FFF7D0FF4FF47E70ADF800006946F1
:101460000648FFF73BFF4FF478710448FFF7C1FFD0
:1014700008BD00000008014000100140000C0140C0
:1014800000BFFEE710B50146002200200CE000EB93
:101490004003074C34F813308B4204D100EB400377
:1014A00004EB43039A88401C0628F0DD104610BD6B
:1014B000F0000020704708B54FF4A06000F05CF821
:1014C00014208DF8000000208DF801008DF8020036
:1014D00001208DF80300684600F016F808BD08B535
:1014E0004FF4A06000F048F815208DF800000020AF
:1014F0008DF8010001208DF802008DF80300684688
:1015000000F002F808BD000070B5002100230F2292
:10151000C47804B3154C246804F4E064C4F5E064B2
:10152000210AC1F10403CA40447804FA03F1847823
:101530001440214309010E4C0678A155047804F0AB
:101540001F050124AC4005786D11AD0005F1E025C3
:10155000C5F8004109E0047804F01F050124AC40FF
:10156000044D0678761145F8264070BD0CED00E07C
:1015700000E400E080E100E002490143024A11601A
:10158000704700000000FA050CED00E0FFF77AFD5F
:1015900025A002F095FC254802F092FC244802F0B8
:1015A0008FFC24A002F08CFC214802F089FC1F482B
:1015B00002F086FC012241F61F4140F2CF7001F09B
:1015C000FFFE002241F61F4141F2873001F072FE1A
:1015D00001201F49087026E01E480088012809D113
:1015E00001F00CFB1C4801681CA002F069FC002003
:1015F0001849088022480088012814D12148017820
:1016000021A002F05DFC012303220421022001F04D
:1016100085FB00201A4908801A480078042802DB5C
:10162000002018490870D7E70D0A0000205B000869
:10163000DC5A00082A20204D6173746572204E6FB9
:101640006465A3A15E5F5E20202A0D0A00000000F1
:10165000A401002028000020240000207265666597
:1016600072656E6365206D6573736167652069736C
:101670002073656E743A202564200D0A0000000076
:1016800068000020480000206D6173746572206E50
:101690006F64652073656E6473204D617374657249
:1016A0004E756D4243203D25643A0D0A000000004E
:1016B0009EB000BF0120FE49087000201B901A90C8
:1016C000FC4A07CA17AB07C30120169040F223104B
:1016D000F949088000BF0120F849088000BF00BF19
:1016E000FFF71AFAF6A002F0EBFBF64802F0E8FB6F
:1016F000F54802F0E5FBF5A002F0E2FBF24802F04B
:10170000DFFBF04802F0DCFB002140F2833001F007
:1017100001FF002241F61F4140F6AC5001F050FE9F
:10172000F4480168F4480068FEF720FD1590F3487E
:1017300001681598FEF71AFDF149086000F0CFBF67
:10174000169800287DD000201C90F2E31A980228F9
:1017500078DA17A91C9851F82010EA4A1B9842F829
:101760002010E74801684FF08140FEF7FFFC03902E
:10177000FEF707FFCDE90601E24800680190FEF799
:1017800000FF00224FF08043CDE9020103F046FB49
:10179000CDE90401DDE90623FEF7BBFDCDE9080133
:1017A00004F028F8CDE90C01D64800680990FEF74E
:1017B000E8FECDE90A01DDE90C23FEF709FD002270
:1017C0004FF08043CDE90E01FEF71BFE0022CE4B09
:1017D000CDE91001FEF79DFDCDE91401C94840682F
:1017E0001190FEF7CEFECDE91201DDE91423FEF7DC
:1017F000DBFE10D2C34800681590C24840681490C0
:101800001599FEF71DFF06D20120C0490870C0A03F
:1018100002F056FB67E2BA4801684FF08140FEF7DC
:10182000A5FC0390FEF7ADFECDE90601B5480068C2
:101830000190FEF7A6FE00224FF08043CDE90201A1
:1018400001E0FDE356E203F0E9FACDE90401DDE948
:101850000623FEF75EFDCDE9080103F0CBFFCDE9DD
:101860000C01A84800680990FEF78BFECDE90A013B
:10187000DDE90C23FEF7ACFC00224FF08043CDE9FC
:101880000E01FEF7BEFD00229F4BCDE91001FEF7D1
:1018900040FDCDE914019B4840681190FEF771FEB0
:1018A000CDE91201DDE91423FEF796FE6AD89548CA
:1018B000006815909348406814901599FEF7C0FE93
:1018C00060D2904840681390FEF75BFE02460B46DC
:1018D000CDE9140193A002F0F3FA8A48006813904E
:1018E000FEF74FFE02460B46CDE9140193A002F02D
:1018F000E7FA834801684FF08140FEF737FC059016
:10190000FEF73FFECDE908017E4800680390FEF730
:1019100038FE00224FF08043CDE9040103F07EFA47
:10192000CDE90601DDE90823FEF7F3FCCDE90A0164
:1019300003F060FFCDE90E01724800680B90FEF7DE
:1019400020FECDE90C01DDE90E23FEF741FC00226B
:101950004FF08043CDE91001FEF753FD00226A4BA2
:10196000CDE91201FEF7D5FC02460B46CDE9140184
:1019700078A002F0A5FA02206449087079A002F06C
:101980009FFAB0E15F48006815905E484068149087
:101990001599FEF75FFE60D25A4840681390FEF733
:1019A000F0FD02460B46CDE9140172A002F088FA60
:1019B000544800681390FEF7E4FD02460B46CDE95B
:1019C00014015EA002F07CFA4D4801684FF081409E
:1019D000FEF7CCFB0590FEF7D4FDCDE908014948A0
:1019E00000680390FEF7CDFD00224FF08043CDE963
:1019F000040103F013FACDE90601DDE90823FEF73F
:101A000088FCCDE90A0103F0F5FECDE90E013D4861
:101A100000680B90FEF7B5FDCDE90C01DDE90E2362
:101A2000FEF7D6FB00224FF08043CDE91001FEF710
:101A3000E8FC0022344BCDE91201FEF76AFC0246B5
:101A40000B46CDE9140143A002F03AFA03202F49D6
:101A500008704EA002F034FA45E12A48406815901B
:101A60002848006814901599FEF7EAFD1ED1254814
:101A700040681390FEF785FD02460B46CDE9140140
:101A80003CA002F01DFA1F4800681390FEF779FD94
:101A900002460B46CDE9140128A002F011FA1848BD
:101AA00001684FF08140FEF761FB75E0B8E000008F
:101AB000B2010020405800082000002088000020CB
:101AC0000D0A0000205B0008DC5A00082A20206E66
:101AD0006F646520312067657473207468652072B7
:101AE00065666572656E6365206D657373616765B4
:101AF00000000000D8010020D4010020DC010020FB
:101B0000E0010020B40100200000F83F880100201F
:101B1000697420697320626C6F636B6564200D0AC1
:101B200000000000737065656441727261795B3119
:101B30005D202069732025660D0A000073706565BD
:101B40006441727261795B305D2069732025662083
:101B50000D0A000063616C206973202566200D0A60
:101B600000000000646563656C6572617465200D3A
:101B70000A000000737065656441727261795B31BF
:101B80005D20206973202566200D0A0063656C6561
:101B900072617465200D0A000590FEF7F2FCCDE934
:101BA0000801FE4800680390FEF7EBFC00224FF0AE
:101BB0008043CDE9040103F031F9CDE90601DDE907
:101BC0000823FEF7A6FBCDE90A0103F013FECDE9D9
:101BD0000E01F24800680B90FEF7D3FCCDE90C0132
:101BE000DDE90E23FEF7F4FA00224FF08043CDE941
:101BF0001001FEF706FC0022E94BCDE91201FEF7C9
:101C000088FB02460B46CDE91401AFF2B80002F0A2
:101C100057F9E4A002F054F90420E749087062E0A3
:101C2000DE4840681390FEF7ACFC02460B46CDE957
:101C30001401AFF2C00002F043F9D84800681390D5
:101C4000FEF79FFC02460B46CDE91401AFF21410DB
:101C500002F036F9D94801684FF08140FEF786FA64
:101C60000590FEF78EFCCDE90801CC480068039092
:101C7000FEF787FC00224FF08043CDE9040103F01A
:101C8000CDF8CDE90601DDE90823FEF742FBCDE9F9
:101C90000A0103F0AFFDCDE90E01C04800680B90CA
:101CA000FEF76FFCCDE90C01DDE90E23FEF790FA9B
:101CB00000224FF08043CDE91001FEF7A2FB002285
:101CC000B74BCDE91201FEF724FB02460B46CDE9E6
:101CD0001401AFF2801002F0F3F80520B649087045
:101CE000B7A002F0EDF81A98401C1A901B98401CFF
:101CF0001B9080E2A9484068A849086017A91C9871
:101D000051F82000A549486003201A90AB480168AB
:101D10004FF08140FEF72AFA0390FEF732FCCDE93E
:101D200006019E4800680190FEF72BFC00224FF050
:101D30008043CDE9020103F071F8CDE90401DDE94A
:101D40000623FEF7E6FACDE9080103F053FDCDE9DD
:101D50000C01924800680990FEF713FCCDE90A01D6
:101D6000DDE90C23FEF734FA00224FF08043CDE981
:101D70000E01FEF746FB0022894BCDE91001FEF76C
:101D8000C8FACDE91401854840681190FEF7F9FBC7
:101D9000CDE91201DDE91423FEF706FC11D27F48DC
:101DA000006815907D48406814901599FEF748FC2E
:101DB00007D2012080490870AFF2AC2002F080F811
:101DC00019E27E4801684FF08140FEF7CFF9039099
:101DD000FEF7D7FBCDE90601704800680190FEF7D9
:101DE000D0FB00224FF08043CDE9020103F016F84A
:101DF000CDE90401DDE90623FEF78BFACDE9080100
:101E000003F0F8FCCDE90C01644800680990FEF786
:101E1000B8FBCDE90A01DDE90C23FEF7D9F9002270
:101E20004FF08043CDE90E01FEF7EBFA00225C4B48
:101E3000CDE91001FEF76DFACDE91401574840686D
:101E40001190FEF79EFBCDE91201DDE91423FEF7A8
:101E5000C3FB70D8514800681590504840681490F2
:101E60001599FEF7EDFB66D24C4840681390FEF7DB
:101E700088FB02460B46CDE91401AFF2583002F060
:101E80001FF8464800681390FEF77BFB02460B469E
:101E9000CDE91401AFF25C3002F012F84748016856
:101EA0004FF08140FEF762F90590FEF76AFBCDE93D
:101EB00008013A4800680390FEF763FB00224FF0E8
:101EC0008043CDE9040102F0A9FFCDE90601DDE977
:101ED0000823FEF71EFACDE90A0103F08BFCCDE9D9
:101EE0000E012E4800680B90FEF74BFBCDE90C016C
:101EF000DDE90E23FEF76CF900224FF08043CDE9B7
:101F00001001FEF77EFA0022254BCDE91201FEF703
:101F100000FA02460B46CDE91401AFF2C83001F0D9
:101F2000CFFF022024490870AFF2C83001F0C8FF8B
:101F300061E16DE1FFE719480068159017484068B6
:101F400014901599FEF786FB7BD2144840681390D5
:101F5000FEF717FB02460B46CDE91401AFF2EC3059
:101F600001F0AEFF0D4800681390FEF70AFB024631
:101F70000B46CDE91401AFF23C4001F0A1FF0F4840
:101F800001684FF08140FEF7F1F80590FEF7F9FA8D
:101F9000CDE9080101480068039019E0B401002070
:101FA0000000F83F636F6E7374616E742073706528
:101FB00065640D0A0000000088010020E001002097
:101FC0006F74686572207374617475730D0A000014
:101FD000FEF7D7FA00224FF08043CDE9040102F06A
:101FE0001DFFCDE90601DDE90823FEF792F9CDE9F1
:101FF0000A0103F0FFFBCDE90E01FE4800680B90DB
:10200000FEF7BFFACDE90C01DDE90E23FEF7E0F89B
:1020100000224FF08043CDE91001FEF7F2F90022D3
:10202000F54BCDE91201FEF774F902460B46CDE9F6
:102030001401AFF2E04001F043FF0320EF4901E05B
:10204000ECE005E00870AFF2BC4001F039FFD2E0EF
:10205000E84840681590E748006814901599FEF725
:10206000EFFA64D1E34840681390FEF78AFA02461B
:102070000B46CDE91401AFF2045001F021FFDD4819
:1020800000681390FEF77DFA02460B46CDE9140175
:10209000AFF2585001F014FFD94801684FF0814069
:1020A000FEF764F80590FEF76CFACDE90801D14817
:1020B00000680390FEF765FA00224FF08043CDE9F7
:1020C000040102F0ABFECDE90601DDE90823FEF7CD
:1020D00020F9CDE90A0103F08DFBCDE90E01C548D9
:1020E00000680B90FEF74DFACDE90C01DDE90E23F7
:1020F000FEF76EF800224FF08043CDE91001FEF7A5
:1021000080F90022BC4BCDE91201FEF702F902462C
:102110000B46CDE91401AFF2C45001F0D1FEAFF28D
:102120007C1001F0CDFE0420B449087063E0B14892
:1021300040681390FEF725FA02460B46CDE91401DC
:10214000AFF2D05001F0BCFEAA4800681390FEF731
:1021500018FA02460B46CDE91401AFF2206001F0F7
:10216000AFFEA74801684FF08140FDF7FFFF0590E3
:10217000FEF707FACDE908019E4800680390FEF7D4
:1021800000FA00224FF08043CDE9040102F046FE40
:10219000CDE90601DDE90823FEF7BBF8CDE90A0128
:1021A00003F028FBCDE90E01924800680B90FEF782
:1021B000E8F9CDE90C01DDE90E23FEF709F800226C
:1021C0004FF08043CDE91001FEF71BF900228A4B46
:1021D000CDE91201FEF79DF802460B46CDE9140148
:1021E000AFF2906001F06CFE052084490870AFF2F8
:1021F000302001F065FE17A91C9851F820001590B9
:10220000FEF78CF97F4908701C98401C80B21C9026
:102210001C980128FFF69AAA002016907A48008898
:1022200001280ED17948006808B9012000E000209B
:102230007649086000F0CEFB00207549088072499D
:10224000088074480088012875D17048001D006816
:1022500008B9012000E000206C49091D08606C48A5
:102260000088042802DB00206949088001F084FB13
:102270006949086001F040FC6548008800EB4000B7
:10228000664901EB4000408865490880084600889F
:10229000FFF7F8F863490880002015900CE06249C8
:1022A000159831F810000246149060A0159901F0BD
:1022B00007FE1598401C15905749159809688842E3
:1022C000EDDB5548016861A001F0FAFD5248006855
:1022D000002839D05448008800282DD14C48018866
:1022E00060A001F0EDFD4A48008800EB40004B493A
:1022F00001EB40004088159000F090FA46480068D5
:1023000001280ADD48486549096830F811000122B2
:1023100041F61F41159001F053F843485F490968A1
:1023200030F81100014615905D4801F0C9FD5DA02F
:1023300001F0C6FD08E024E03B480088012241F698
:102340001F41159001F03CF8012063490880304896
:102350000088401C2E49088008460088042801DDBA
:10236000002008805DA001F0ABFD00202949088015
:1023700001206449086049490860002062490860FA
:1023800000BF62480088012824D16148006808B96C
:10239000012000E000205E4908604F4801885DA0F0
:1023A00001F08EFD00F092FB6449088064A001F00A
:1023B00087FD53A001F084FD60480088FFF762F8B4
:1023C0006949088044480088401C4349088000202F
:1023D0004E4908806548007801280AD100201590F0
:1023E000012014904A48001D006808B90120C0E08F
:1023F000BEE073E1B40100200000F83F8801002036
:10240000E00100208901002002000020B4012242E6
:102410008800002010000020A0010020B200002051
:10242000A6010020A8010020CA00002066696E6194
:102430006C54696D657256616C75655B25645D20D1
:102440006973202564200D0A000000004D65735457
:10245000696D6573496E4243206973202564200DC0
:102460000A0000002B2B2B2B2B2B2B2B4E756D4298
:10247000633A202564206669727374206D657373F6
:102480006167652069732073656E743A2B2B2B2B63
:102490002B2B2B2B2B2B200D0A00000018010020CA
:1024A000985A00082B2B2B2B2B2B2B2B436F6C7547
:1024B0006D6E203D313A666F72206D657373616792
:1024C000652066696E6973682B2B2B2B2B2B2B2BAE
:1024D0002B2B200D0A000000AE0100202A2A2A2AF8
:1024E0002A2A2A2A2A2A2A2A7265666572656E6352
:1024F0006520656E64202A2A2A2A2A2A2A2A2A2A5C
:10250000200D0A0014010020D40000200400002047
:102510008001214223232323232323232323696EA2
:10252000746572727570742025642023232323231D
:10253000232323232323200D0A000000AC010020C5
:1025400023232323232323232323656E6420696EFF
:10255000746572727570742323232323232323232A
:102560002323200D0A000000AA0100201E000020E5
:1025700000205C4908605C480088B0F5907F14D169
:102580005A48006808B9012000E000205749086057
:1025900057480078009057480378574802785248C7
:1025A0000188564801F08CFC93E04F48018840F2C6
:1025B000211081420CD14E48007800904D4803789C
:1025C0004D480278484801884D4801F079FC80E088
:1025D00045480088B0F5917F0CD1454800780090BF
:1025E00044480378444802783F480188454801F050
:1025F00067FC6EE03C48008840F2231188422CD1F1
:102600003B48007800903B4803783B4802783648C6
:1026100001883DA001F054FC1AE0012002F046F9C7
:10262000149818B115980A3080B21590159808289A
:1026300002DD012030490870159808B90120149076
:102640003A48159901F0B1F839A0159901F038FC14
:10265000294800780028E0D03BE023480088B0F506
:10266000927F16D121481030006808B9012000E09F
:1026700000201E49103108601D48007800901D4858
:1026800003781D480278184801882C4801F018FC8E
:102690001FE01548008840F22511884216D11148E4
:1026A000001D006808B9012000E000200D49091D47
:1026B00008600F48007800900E4803780E480278B2
:1026C000094801881E4801F0FBFB02E01DA001F053
:1026D000F7FB00212148017000BF00BF00BFFFF7DA
:1026E0002FB8000084012142200000209481214263
:1026F000190000201700002016000020E0580008F4
:1027000038590008905900082A2A41425320494E5E
:10271000464F20252378202C2564202C202564205A
:102720007270732C202523780D0A000000080040E9
:1027300070776D202564200D0A000000E85900081C
:10274000405A00082A2A61726269747261727920A3
:1027500077696E646F7773202A2A00001E000020BC
:1027600000BF00BF00BF00BF01201849087000BFB4
:1027700000BFFEF7D1F916A001F0A2FB154801F049
:102780009FFB154801F09CFB14A001F099FB124837
:1027900001F096FB0F4801F093FB012219480188D4
:1027A0001948008800F086FD00F03AFE17480168DD
:1027B00017480068FDF7DAFC044616480168204611
:1027C000FDF7D4FC1449086000BFFEE7B301002008
:1027D0000D0A0000205B0008DC5A00082A20206E49
:1027E0006F64652032206765747320746865207299
:1027F00065666572656E6365206D65737361676597
:1028000000000000E6010020E4010020D8010020C3
:10281000D4010020DC010020E001002010B50446B6
:10282000A4F59070062822D2DFE800F003080D120C
:10283000171C4FF4907002F095F81CE040F2211044
:1028400002F014F917E04FF4917002F093F912E0DE
:1028500040F2231001F0DAFA0DE04FF4927002F02A
:10286000D3F908E040F2251002F052FA03E003A089
:1028700001F026FB00BF00BF10BD000063616E20A9
:102880006265206120617262697472617279206D83
:10289000657373616765200D0A00000070470000D2
:1028A00029B1064AD2690243044BDA6104E0034AC3
:1028B000D2698243014BDA61704700000010024088
:1028C00029B1064A12690243044B1A6104E0034A23
:1028D00012698243014B1A617047000000100240E8
:1028E00029B1064A92690243044B9A6104E0034A03
:1028F00092698243014B9A617047000000100240C8
:1029000030B500210022002400232D4D6D6805F014
:102910000C0121B1042905D0082923D105E0294D56
:10292000056022E0274D05601FE0254D6D6805F428
:102930007012234D6D6805F48034022505EB924238
:102940001CB9214D554305600BE01D4D6D6805F424
:1029500000351DB11C4D5543056002E0194D55432E
:10296000056002E0174D056000BF00BF144D6D68A3
:1029700005F0F0010909154D6B5C0568DD40456007
:102980000F4D6D6805F4E061090A104D6B5C4568F8
:10299000DD4085600A4D6D6805F46051C90A0B4D34
:1029A0006B5C4568DD40C560054D6D6805F44041D0
:1029B000890B074D6B5CC568B5FBF3F5056130BD50
:1029C0000010024000127A0000093D002F00002094
:1029D0003F00002070B52C4800782C4908602C4836
:1029E00000782C4908602C4800782849096801EBD8
:1029F00041012A4A02EB4101264A126821F81200DD
:102A00002248006800EB4000244901EB40002149C6
:102A1000096830F811002249097840EA01211B4871
:102A2000006800EB40001D4A02EB4000194A1268A2
:102A300020F812101B4801781448006800EB400091
:102A4000194A1044134A1268815410480068114909
:102A500009684843002815DB002411E000250CE03C
:102A600004EB44000D4901EB400030F815302A46D4
:102A700021460EA001F024FA6D1C032DF0DB641C2E
:102A8000042CEBDB70BD00000700002030010020AB
:102A9000080000203401002009000020B2000020BE
:102AA0000A0000200B000020F4010020726563651D
:102AB00069766564206D61747269782020256420D0
:102AC000256420252378200D0A00000010B5364823
:102AD000008860BB35490988491E01EB4101344A31
:102AE00002EB4101334A344B1B6852F8232031F882
:102AF0001200FFF793FE30480068401C2E49086022
:102B00002E480088401C2E490968884204DB0021B9
:102B10002C4800F044FD3BE02349274A126831F875
:102B20001200012241F61F4100F04AFC30E01F492B
:102B30000988491E01EB41011D4A02EB410222496D
:102B40000968491E1B4B53F8211032F81100FFF79A
:102B500065FE1A4800881A490968884204DB00218A
:102B6000184800F01CFD13E00F49174A126831F8AD
:102B70001200012241F61F4100F022FC12480168B8
:102B800012A001F09DF910480068401C0E49086031
:102B90000648008800EB4000054901EB400007496A
:102BA000098830F8110010BDCA00002088000020FC
:102BB000B20000202002002018010020AE010020F9
:102BC000A001002000040040140100204E6F772077
:102BD0007468652066696E616C54696D65725661D2
:102BE0006C75652073686966742076616C75652004
:102BF00069732025640D0A0070470000F0B587B0A6
:102C000007460120019000208DF80D008DF80C0082
:102C100005208DF80E0000244AE0002545E0E0B2D2
:102C20008DF80F008DF8105004EB4400244901EB9F
:102C3000400010F815108DF8111004EB44002049E5
:102C400001EB400030F8150001128DF8121004EB72
:102C500044001C4901EB400010F815108DF81310CA
:102C600001A91948FEF734F906464FF4167001F031
:102C70001DFE00BF31461448FEF7BDF90028F9D00B
:102C80002A46214611A001F01BF99DF8111014A04D
:102C900001F016F99DF8121016A001F011F99DF837
:102CA000131019A001F00CF96D1C032DB7DB641C87
:102CB000042CB2DB0C208DF80F0007B0F0BD000033
:102CC0009A000020D80000200064004069203D20C8
:102CD00025642C6A203D20256420200D0A00000078
:102CE000534D2069732073656E74323A2025237822
:102CF0000D0A0000534D2069732073656E74333ADA
:102D000020252378200D0A00534D20697320736518
:102D10006E74343A20252378200D0A002DE9F04105
:102D200086B004460E461746984604202849087087
:102D30000320284908700120274908702748007897
:102D40002749087004202749087005202649087083
:102D5000009400208DF809008DF8080008208DF8F7
:102D60000A001B4800788DF80B001A4801788DF88E
:102D70000C10194801788DF80D10194801788DF85C
:102D80000E10184801788DF80F10174801788DF84B
:102D9000101069461548FEF79BF80546144A059839
:102DA000D2E90032C01842F10001114A03C20020EA
:102DB000059000BF29460D48FEF71DF90028F9D0FF
:102DC0000B480CC80BA001F07BF806B0BDE8F08101
:102DD00058000020590000205A0000204800002020
:102DE0005B0000205C0000205D00002000640040CB
:102DF000500000205468652073656E64696E67201A
:102E00007265666572656E63652074696D652069BB
:102E1000732020256C6C64200D0A000010B500F0B2
:102E200001F810BD0CB500200190009033480068F7
:102E300040F480303149086000BF3048006800F439
:102E4000003000900198401C0190009818B901983A
:102E5000B0F5A06FF1D12948006800F4003010B13E
:102E60000120009001E0002000900098012843D14B
:102E70002348006840F010002149086008460068B7
:102E800020F0030008600846006840F00200086077
:102E90001A48406819494860084640684860084632
:102EA000406840F4806048600846406820F47C1028
:102EB00048600846406840F4E810486008460068EA
:102EC00040F08070086000BF0C48006800F000709F
:102ED0000028F9D00948406820F0030007494860FD
:102EE0000846406840F00200486000BF0348406860
:102EF00000F00C000828F9D10CBD000000100240C1
:102F000000200240042808D14FF0E021096941F077
:102F100004014FF0E022116107E04FF0E021096960
:102F200021F004014FF0E02211617047012808D11F
:102F30004FF0E021096941F001014FF0E0221161F9
:102F40000EE0811C41B94FF0E021096921F0010137
:102F50004FF0E022116103E000214FF0E022916187
:102F6000704710B50146002200230020CB10022B31
:102F700003D14FF0E024226902E04FF0E024E2693F
:102F800001248C4014400CB1012000E0002010BD51
:102F9000704740B14FF0E021096941F002014FF064
:102FA000E022116107E04FF0E021096921F0020100
:102FB0004FF0E022116170474FF0E0214861704707
:102FC00010B51348006840F0010011490860084638
:102FD0004068104908400E494860084600680E499C
:102FE00008400B4908600846006820F4802008600B
:102FF0000846406820F4FE0048604FF41F008860D7
:10300000FFF70CFF4FF000600449086010BD00009E
:10301000001002400000FFF8FFFFF6FE08ED00E0A0
:10302000F0B50C46154600220021068C4FF6FE77BF
:103030003E400684028B018C4FF60C7632407E1C9B
:1030400006EA03162E433243104EB0420ED0104E05
:10305000B0420BD0B0F1804F08D00E4EB04205D038
:103060000D4EB04202D00D4EB04206D14FF6FD7665
:10307000314044F00106314305E04FF6F57631402A
:1030800044F00106314302830184F0BD002C01406D
:10309000003401400004004000080040000C0040E3
:1030A000F0B50C461546002200210026078C4FF68D
:1030B000EF7C07EA0C070784028B018C4FF6FF7741
:1030C00007EA041640F6FF473A404FF6FF7707EA53
:1030D00003373A434FF6FF7707EA05273A43114F84
:1030E000B8420ED0104FB8420BD0B0F1804F08D08C
:1030F0000E4FB84205D00E4FB84202D00D4FB84225
:1031000006D14FF6DF77394046F01007394305E026
:103110004FF65F77394044F010073943028301844A
:10312000F0BD0000002C01400034014000040040CC
:1031300000080040000C0040F0B50C461546002287
:1031400000210026078C4FF6FF6C07EA0C07078466
:10315000828B018C4FF6FF7707EA04264FF60C7737
:103160003A404FF6FF7707EA03172F433A43114FD0
:10317000B8420ED0104FB8420BD0B0F1804F08D0FB
:103180000E4FB84205D00E4FB84202D00D4FB84294
:1031900006D14FF6FF57394046F48077394305E0B2
:1031A0004FF2FF57394044F48077394382830184DA
:1031B000F0BD0000002C014000340140000400403C
:1031C00000080040000C0040F0B50C4615460022F7
:1031D00000210026078C4EF6FF7C07EA0C070784C7
:1031E000828B018C4FF6FF7707EA043640F6FF47E3
:1031F0003A404FF6FF7707EA05273A434FF6FF7745
:1032000007EA03373A43114FB8420ED0104FB84285
:103210000BD0B0F1804F08D00E4FB84205D00E4F02
:10322000B84202D00D4FB84206D14DF6FF77394073
:1032300046F48057394305E047F6FF57394044F4D8
:103240008057394382830184F0BD0000002C014087
:10325000003401400004004000080040000C004021
:1032600010B50121880700F0C7F9C0B10121880716
:1032700000F092F90A480078012805D10948006851
:10328000401C084908600AE007480078012806D178
:103290000649088006480078401C0549087010BDA2
:1032A000B30100206C000020A40100206800002071
:1032B000480000207FB506460C4615460121084609
:1032C000FFF7EEFAADF80860ADF804400020ADF865
:1032D0000A00ADF8060001A94FF0804000F096FA10
:1032E00001221146900700F0F8F91C208DF800002B
:1032F00000208DF8010002208DF8020001208DF8D9
:1033000003006846FEF700F929464FF0804000F0C0
:1033100046F97FBD10B50121184800F06DF900286D
:103320002AD00121154800F037F915480078012806
:103330001FD11448006808B9012000E0002011499D
:10334000086011480068401C0F4908600846006882
:103350000A280AD30DA000F0B3FD0021074800F0B1
:103360001EF90121880700F01AF90120124908808E
:1033700002E001201149088010BD00000004004057
:10338000A4010020B8012242240000204E6F7720C3
:1033900074686520534D2069732073656E742074C2
:1033A0006F20616C6C2074686520736C6176652099
:1033B0006E6F646573000000280000200400002088
:1033C0007FB506460C46154601210220FFF768FA34
:1033D000ADF80860ADF804400020ADF80A00ADF883
:1033E000060001A90D4800F011FA012211460B4810
:1033F00000F073F91D208DF8000000208DF8010009
:1034000003208DF8020001208DF803006846FEF7C6
:103410007BF82946014800F0C2F87FBD0004004057
:1034200000B589B001210420FFF73AFA01210820F4
:10343000FFF756FA08A8FDF7E0FFC020ADF820001E
:1034400004208DF8230003208DF8220008A92048CD
:10345000FDF744FF05A800F02BFA0520ADF8180091
:103460000020ADF81400ADF81A00ADF8160005A95B
:10347000184800F0CBF90A231A460321154800F03A
:103480009AF802A800F020F90C20ADF8100002A96B
:10349000104800F0C3F8012211460E4800F01DF953
:1034A0001E208DF8040001208DF805008DF806001F
:1034B0008DF8070001A8FEF727F80021054800F065
:1034C00076F90121034800F06AF809B000BD000058
:1034D000000C01400008004010B50121094800F02F
:1034E0008BF850B1084801880848008800F0EAF9D4
:1034F0000446FDF713F8064908600121014800F071
:103500004BF810BD00080040E6010020E401002057
:10351000E801002030B589B005460C4601210420A1
:10352000FFF7BEF901210820FFF7DAF98020ADF896
:10353000200018208DF8230003208DF8220008A910
:103540001348FDF7CBFEADF81850ADF8144000203D
:10355000ADF81A00ADF8160005A90E4800F056F9AE
:103560006020ADF804000120ADF806000020ADF8A1
:103570000C0001A9074800F0B9F80821054800F03F
:1035800007F90121034800F00AF809B030BD000036
:10359000000C014000080040CA430282704721B17C
:1035A000028842F00102028004E002884FF6FE73B6
:1035B0001A4002807047F0B50C4615461E460021A1
:1035C000002200230189028B038C4FF6F8773940E3
:1035D00021434FF6FC473A4040F201173A434FF679
:1035E000DD773B404FF6FF7707EA06172F433B4353
:1035F000018102830384F0BD30B502460020002320
:103600000024158A05EA0103958905EA010413B12E
:103610000CB1012000E0002030BD000070B505466F
:103620000C46244885420ED0234885420BD0B5F184
:10363000804F08D02148854205D02148854202D0DC
:103640002048854200D100E000BF208850B923897E
:10365000A28861882846FFF7E3FCE188284600F04D
:10366000A8F825E0208804280AD12389A288618847
:103670002846FFF715FDE188284600F0A3F817E07B
:10368000208808280AD12389A28861882846FFF764
:1036900053FDE188284600F0A2F809E02389A288BA
:1036A00061882846FFF790FDE188284600F0A0F8E1
:1036B00070BD0000002C01400034014000040040B7
:1036C00000080040000C00400021018041800121E1
:1036D00081800021C180018170471AB183890B4329
:1036E000838102E083898B438381704770B5002416
:1036F00000220023058C4FF6EF7635400584028CBE
:103700008388048B48F6FF752C404FF6FF452C400C
:103710000D884FF6FF7606EA05252C434FF6DF7538
:103720002A400D8906EA05152A434D8806EA051543
:103730002A43154DA84202D0144DA8421DD14FF680
:103740007F752A404D894FF6FF7606EA05152A4314
:103750004FF6BF752A408D8806EA05152A434FF6B5
:10376000FF352B404FF2FF752B408D8906EA85050A
:103770002B43CD8906EA85052B4383800483CD88BE
:103780000587028470BD0000002C01400034014018
:103790000A460021018B4FF2FF7319404FF6FF7369
:1037A00003EA02231943018370470187704781842C
:1037B0007047028B4FF6F3731A400283028B0A4361
:1037C00002837047028B4FF2FF331A400283028B51
:1037D0004FF6FF7303EA01231A4302837047828B7B
:1037E0004FF6F3731A408283828B0A4382837047B9
:1037F000828B4FF2FF331A408283828B4FF6FF7326
:1038000003EA01231A4382837047000000220288E2
:103810001D4B98420ED01D4B98420BD0B0F1804FFB
:1038200008D01B4B984205D01A4B984202D01A4B35
:10383000984204D14FF68F731A404B881A43174BA6
:10384000984207D0164B984204D04FF6FF431A40D7
:10385000CB881A4302808B8883850B8803850A4BAB
:1038600098420BD0094B984208D00E4B984205D095
:103870000D4B984202D00D4B984201D10B7A038632
:103880000123838270470000002C01400034014076
:103890000004004000080040000C00400010004000
:1038A0000014004000400140004401400048014035
:1038B0004FF6FF71818000210180C180418001723B
:1038C000704700002DE9FF5F0446894600BF0020D5
:1038D00002900022214B1046214901F09FFA074631
:1038E0000022204BFCF71BFD05460E46611C09F12A
:1038F000010201FB02F0FCF7F3FD2A463346CDE955
:103900000001FCF77EFD8246FCF71CFE0290164982
:10391000096801EB41010801FCF7F3FD07460022AD
:10392000124BFCF7FCFC82468B460298FCF7D8FD54
:10393000054652465B46FCF764FDCDE90001FCF705
:1039400063FE03900848016809A000F0B9FA00205E
:1039500005490860039804B0BDE8F09F00001840D6
:1039600000002440000052406C0000200000F03FA6
:103970002564200D0A0000002DE9FC410024A0462A
:10398000002037E0002132E000EB40024D4B03EB1A
:10399000420232F811804C4A1278012A11D10022D9
:1039A0000CE04A4B33F81230434506D1484B43F8FC
:1039B000340003EBC4035960641C521C032AF0D387
:1039C00014E0444A1278012A10D100220CE0424B44
:1039D00033F81230434506D13D4B43F8340003EB36
:1039E000C4035960641C521C032AF0D3491C0329E8
:1039F000CADB401C0428C5DB002538480068A0420B
:103A000002DB0020354908603449086814E0304979
:103A100051F83010324A128891420CD12C4901EBF6
:103A2000C00149682F4A42F825106D1C2B490968CE
:103A3000491C2A4A1160401CA042E8DB002000908B
:103A40000190002700BF0DE0264951F82010491EC3
:103A5000254A11601146098889B22DF81710791C82
:103A60008FB2401CA842EFDBBDF800101F48FCF7E6
:103A7000C4FF1F490860012608E03DF816101B48E6
:103A8000FCF7BBFF1A4941F82600761CAE42F4DB76
:103A9000002011E016490988164A118001280ADB26
:103AA000134931F82020411E114B33F82110511ACF
:103AB000104A22F81010401CA842EBDB2846BDE853
:103AC000FC810000B2000020B20100208E00002026
:103AD00030020020B30100209400002024010020C7
:103AE0008800002020020020D40000208A0000204E
:103AF00090020020CA000020F0B500230025002419
:103B00000022012119E00E4830F81150002011E088
:103B100000EB40060B4F37F816309D4209D100EB01
:103B2000400607EB4606B488074E26F81240561C9E
:103B3000F2B2401C0628EBDB491C0329E3DBF0BD95
:103B4000B2000020F00000208A00002021B182890C
:103B500042F40052828104E082894DF6FF731A40DC
:103B60008281704700B587B0012144F20400FEF75E
:103B7000B7FE4FF40070ADF8180018208DF81B0048
:103B800003208DF81A0006A91E48FDF7A7FB4FF485
:103B90008060ADF8180004208DF81B0003208DF81C
:103BA0001A0006A91748FDF799FB25208DF8040097
:103BB00003208DF805008DF8060001208DF8070020
:103BC00001A8FDF7A1FC4FF47A3002900020ADF877
:103BD0000C00ADF80E00ADF81000ADF814000C208C
:103BE000ADF8120002A9084800F042F8012240F2A4
:103BF0002551054800F017F801210348FFF7A6FFFB
:103C000007B000BD00080140003801400246002016
:103C1000B1F5007F00D100BF13880B400BB101202C
:103C200000E000207047F0B5034600240026002580
:103C3000002040F66A17B94200D100BF1846C1F310
:103C4000421401F01F06012707FA06F5012C01D1E5
:103C50000C3004E0022C01D1103000E014301AB115
:103C600007682F43076002E00768AF430760F0BDB5
:103C70002DE9F04786B005460E460024A24600BF57
:103C8000A1460027B08900B100BF2F462C8A4CF610
:103C9000FF700440F08804432C82AC894EF6F31088
:103CA0000440B08831890843718908430443AC81DA
:103CB000AC8A4FF6FF400440B0890443AC8201A8AF
:103CC000FEF71EFE1F48874202D1DDF810A001E07A
:103CD000DDF80CA0A88900F4004040B10AEBCA004E
:103CE00000EB0A1031684900B0FBF1F807E00AEB7D
:103CF000CA0000EB0A1031688900B0FBF1F86420BB
:103D0000B8FBF0F004012009642101FB1089A889A7
:103D100000F4004040B1322000EBC900B0FBF1F0EC
:103D200000F00700044308E0322000EB0910642192
:103D3000B0FBF1F000F00F0004432C8106B0BDE8A9
:103D4000F087000000380140C1F30802828070470C
:103D500000B587B001AA00211F48FDF72AF81F49C6
:103D6000019808809DF80F001D4908709DF810000B
:103D70001C4908709DF811001B4908709DF812003D
:103D80001A4908709DF81300194908709DF814002D
:103D900018490870BDF8180017490880BDF81800C8
:103DA000164909880844154908800020ADF8180014
:103DB00002210948FCF75CFE08480088012802D16E
:103DC0000F49088006E005480088022802D101203A
:103DD0000C49088007B000BD0064004000000020CE
:103DE0000700002008000020090000200A00002031
:103DF0000B0000200C000020140000201200002006
:103E0000020000201000002000BFFEE730B587B0A0
:103E100004461A480078401C184908700846007883
:103E200017490870019400208DF80D008DF80C00E2
:103E300008208DF80E00134800788DF80F00124806
:103E400001788DF810100E4801788DF8121001A934
:103E50000E48FDF73DF80546022000F027FD00BFA3
:103E600029460A48FDF7C7F80028F9D0224603483A
:103E7000017807A000F024F807B030BD68010020E9
:103E80008B0100208801002089010020006400408F
:103E90003E3E3E3E3E696E6372656173655F666C71
:103EA0006167202523782C20494420202523782071
:103EB00069732073656E743C3C3C3C3C0D0A000009
:103EC0000FB4054B10B503A9044A029800F06AF933
:103ED00010BC5DF814FB000001490008EC01002053
:103EE000490050EAC12018BF04204A0D18BF40F015
:103EF000010040F2FF72B2EB515F08BF40F00200D8
:103F0000012808BF052070472DE9F0414F1E00EB46
:103F1000C7010446D1E9000115461E4637F00602E6
:103F20000DD02A463346FCF7FAF97F1E04EBC7038F
:103F3000D3E90023FCF74CF937F00602F1D1022F48
:103F400025D0042F13D0062F18BFBDE8F0812A46D4
:103F50003346FCF7E4F9D4E90A23FCF739F92A4699
:103F60003346FCF7DCF9D4E90823FCF731F92A469B
:103F70003346FCF7D4F9D4E90623FCF729F92A469D
:103F80003346FCF7CCF9D4E90423FCF721F92A469F
:103F90003346FCF7C4F9D4E90223FCF719F92A46A1
:103FA0003346FCF7BCF9D4E90023BDE8F041FCF747
:103FB0000FB900000022134610460149FCF721BA50
:103FC0000000F03FFCF704B90022134610461146EA
:103FD000FCF717BA40F2013200204FF0E041FCF745
:103FE0004FBC0000024A00201107FCF749BC00004A
:103FF00001FDFFFF02E008C8121F08C1002AFAD124
:1040000070477047002001E001C1121F002AFBD158
:10401000704700000149086070470000F00100206F
:104020002DE9FF5F82B00021DDE90430020DDDF8EB
:1040300040B0034318D044F61050A2F2FF3242437E
:104040001514119801281FD0A5EB0B00401C5FEA46
:10405000000A4FF000064E4FDFF83891B046504648
:1040600015D5CAF1000413E0119801244AA30128D0
:1040700001D16FEA0B010298119AC0E90031C0E941
:10408000024206B0BDE8F09FCBF10000DFE7044636
:104090000021404A491842EB0450CDE9001012E0DB
:1040A000E00707D032463B4640464946FCF737F921
:1040B0008046894632463B4610461946FCF72FF9A2
:1040C00006460F466410002CEAD1DDE90401DDE963
:1040D0000023BAF1000F06DAFCF721F942464B46FD
:1040E000FCF71DF905E0FCF78CF942464B46FCF75E
:1040F00088F904460E460022284BFCF76DFA03D8D7
:104100004FF0FF30014607E00022254B20463146A4
:10411000FCF75EF8FCF71CFC102409E0002C0ADB1D
:104120000A220023FCF7B6FA039B30321A55641EAC
:1041300050EA0102F2D1641C039AC4F11103144441
:10414000119A012A03D0012208430DD10AE0084345
:1041500004D000204FF0110B119072E7A3EB0B0578
:104160006D1E0DE05B4504DD4FF0000205F1010519
:1041700004E003DA4FF00002A5F10105002AECD0BB
:1041800002981199C0E90231C0E9004579E70000C1
:10419000000014400000F03F300000000000F04339
:1041A0000000E03F2DE9FF4F95B09A46884606464D
:1041B0000025EEE1252877D100242746F94A012180
:1041C000039400E0044316F8013F203B01FA03F09A
:1041D0001042F7D130782A2811D06FF02F033078B1
:1041E000A0F13002092A16D8039A44F0020402EB27
:1041F000820203EB42021044761C0390EFE758F86A
:10420000042B0392002A03DA504244F40054039032
:1042100044F00204761C30782E2816D116F8010FCF
:1042200044F004042A280DD06FF02F023078A0F15A
:104230003003092B09D807EB870302EB4303C718A8
:10424000761CF3E758F8047B761C30786C280FD086
:1042500006DC4C2817D068280DD06A2814D104E059
:10426000742810D07A280FD10DE044F400140AE02D
:1042700044F4801401E044F440147278824202D184
:1042800004F58014761C761C307866280BD013DC7D
:10429000582877D009DC002875D04528F6D0462864
:1042A000F4D047281AD193E118E0632835D0642868
:1042B00079D0652812D18BE1702873D008DC67288B
:1042C000F1D069286FD06E280DD06F2806D1ACE0F0
:1042D00073282CD0752874D0782853D0524617995B
:1042E00090476D1C54E1C4F30250022809D0032802
:1042F0000DD0D8F8001004280DD00D6008F1040886
:1043000046E1D8F80010EA17C1E90052F6E7D8F8FC
:1043100000100D80F2E70D70F0E718F8041B8DF81F
:10432000001000208DF80100EB46012003E058F852
:1043300004BB4FF0FF3061074FF0000102D40DE0E5
:1043400009F101018946B9420FDA8145F8DB1BF812
:1043500009100029F4D108E009F1010189468142E0
:10436000FADB1BF809100029F6D103985346A0EB9D
:10437000090721463846179A00F080FA284400EBD6
:10438000090507E044E008E10DE01BF8010B524687
:1043900017999047B9F10109F7D25346214638469B
:1043A000179AF2E039E00A21C4F302524FF0000BF1
:1043B0000091022A06D058F8040BC117032A09D02D
:1043C0000AE023E008F1070020F00702F2E802010A
:1043D000904605E000B2C117042A01D140B2C117CE
:1043E000002906DA0A460021404261EB02012D2233
:1043F00002E0220504D52B228DF80420012203E0DF
:10440000E20701D02022F7E7914657E00A2100E0B9
:1044100010214FF0000B00910BE010214FF0000B2A
:1044200044F004040827009103E008204FF0000B3B
:104430000090C4F30252022A05D058F8040B002160
:10444000032A08D008E008F1070020F00702F2E88C
:104450000201904603E080B2042A00D1C0B24FF0BE
:10446000000922072AD53278702A07D0DDF800C06B
:104470008CF0100C5CEA0B0C05D00EE040228DF89D
:104480000420012208E050EA010306D030238DF811
:1044900004308DF8052002229146009B83F008032A
:1044A00053EA0B030AD150EA010201D1620705D594
:1044B00030228DF804204FF001097F1E3278582AEF
:1044C00004D039A20C920CAA02920BE03BA2F9E7AD
:1044D0005B46009AFCF7DEF80C9B9B5C029A521E2E
:1044E0000292137050EA0102F2D1029804A9081A4C
:1044F00000F1200B600702D524F4803400E001278E
:104500005F4502DDA7EB0B0000E0002000EB0B0194
:10451000009003984944401A0390E00306D45346A0
:104520002146179A039800F0A9F90544002706E0F0
:1045300001A85246C05D179990476D1C7F1C4F45DE
:10454000F6DBE0030CD553462146179A039800F09A
:1045500095F9054404E030205246179990476D1CA8
:104560000099481E00900029F5DC08E002980299A5
:1045700052460078491C0291179990476D1CBBF177
:104580000001ABF1010BF1DC5BE100F065F90544E2
:10459000761C307800287FF40DAE19B02846BDE8AF
:1045A000F08F0000092801003031323334353637BE
:1045B000383961626364656600000000303132336F
:1045C000343536373839414243444546000000000F
:1045D000600700D4062708F1070020F00700F0E884
:1045E0000223804603F0004C5FEA0C0001D097A044
:1045F00009E0200501D596A005E0E00701D095A0CF
:1046000001E0AFF24C001390307823F000436528AE
:104610000CD006DC452809D046281DD047287FD17C
:104620003BE0662818D067287AD136E00021112FA8
:1046300001DB112000E0781CCDE9000104A90CA8E1
:10464000FFF7EEFCDDE90D010C9A4FF0000B07F1CE
:104650000109109200914EE04FF000400097CDE923
:10466000011004A90CA8FFF7DBFCDDE90D020C9B8F
:104670000F994FF0000B91461093009211B9791CDD
:1046800000EB0109B7EB090003D4C0F1FF3B07F1D0
:104690000109A9EB0700019042E0012F00DA012790
:1046A0000021112F01DD112000E03846CDE9000185
:1046B00004A90CA8FFF7B4FCDDE90D010C9A0091E8
:1046C0004FF0000BB946109221070FD4009A4A45CB
:1046D00003DA914601E0A9F10109B9F1010F05DD05
:1046E000109AA9F10101515C3029F4D0B84202DAE4
:1046F00010F1040F03DA0121CDE9011010E00028C8
:1047000003DC8344A9EB000102E0411C494500DDC4
:104710008946A0EB0B00401C01904FF00040029036
:10472000200705D40198484502DB4FF0FF30019087
:1047300000208DF84B0002980DF14B07B0F1004FAF
:1047400025D002200C902B200D90029800280CDA26
:10475000404202902D200D9007E00A210298FBF7BD
:1047600083FF3031029007F8011D0C99481E0C9010
:104770000029F2DC02980028EFD1791E0D9808700C
:10478000307800F0200040F0450007F8020D11A835
:10479000C01BC01D02901398007800B1012000EBEF
:1047A0000901019801EBE071029801440398401A55
:1047B000401E0390E00306D453462146179A0398FF
:1047C00000F05CF805441398007818B15246179928
:1047D00090476D1CE00323D553462146179A039852
:1047E00000F04CF805441BE0BBF1000F07DB00981C
:1047F000584504DD1098179910F80B0001E017993F
:1048000030205246904701980BF1010B401E05F1F4
:104810000105019004D12E205246179990476D1C36
:10482000B9F10001A9F10109DEDC05E017F8010B7F
:104830005246179990476D1C0299481E0290002914
:10484000F4DC53462146179A03989EE62D0000009B
:104850002B000000200000002DE9F0410446002557
:104860001E461746880404D405E039462020B04788
:104870006D1C641EF9D52846BDE8F0812DE9F04194
:10488000044600251E469046C80301D5302700E0A7
:104890002027880404D505E041463846B0476D1C02
:1048A000641EF9D52846BDE8F081000070B50446C5
:1048B0001148008800FB04F5B5F1807F01D36FF04B
:1048C0007F452846FEF778FB0020FEF72FFB0120EE
:1048D000FEF72CFB00BF1020FEF743FB07490870D2
:1048E000084600780128F6D1C01EFEF71FFB002005
:1048F000FEF71CFB70BD00002C0000202E000020E5
:1049000070B504460D46E1B20548FFF71DFA00BF39
:1049100040210348FFF77AF90028F9D0204670BDFE
:104920000038014010B5FCF783FCFCF771FDFFF780
:1049300019F94FF4A060FCF71FFE022020B10128F6
:1049400005D0022809D105E0FCF720FE06E0FCF7BF
:10495000AFFE03E0FDF704FF00E000BF00BF002052
:1049600010BD000030B587B0044601202A49087008
:104970002A49087003202A49087004202949087030
:104980000520294908700620284908700194002054
:104990008DF80D008DF80C0008208DF80E001E48D3
:1049A00000788DF80F001D4801788DF810101C4814
:1049B00001788DF811101B4801788DF812101A48F3
:1049C00001788DF81310194801788DF8141001A999
:1049D0001748FCF77DFA05460120FFF767FF154AE7
:1049E0000698D2E90032C01842F10001114A03C210
:1049F0000020069000BF29460D48FCF7FCFA00286D
:104A0000F9D00C480CC80CA0FFF75AFA214610A0A8
:104A1000FFF756FA07B030BD700100207101002089
:104A20007201002073010020740100207501002034
:104A3000006400403801002074696D65547820736B
:104A400074616D7020256C6C64200D0A00000000FC
:104A50003E3E3E3E3E494420202523782069732077
:104A600073656E743C3C3C3C3C0D0A0030B587B02D
:104A7000044602202A4908702A49087003202A495E
:104A8000087004202949087005202949087006206B
:104A900028490870019400208DF80D008DF80C0055
:104AA00008208DF80E001E4800788DF80F001D4874
:104AB00001788DF810101C4801788DF811101B48F2
:104AC00001788DF812101A4801788DF813101948E2
:104AD00001788DF8141001A91748FCF7F9F905467B
:104AE0000120FFF7E3FE154A0698D2E90032C0180C
:104AF00042F10001114A03C20020069000BF29467E
:104B00000D48FCF778FA0028F9D00C480CC80CA026
:104B1000FFF7D6F9214610A0FFF7D2F907B030BD54
:104B200078010020790100207A0100207B0100201B
:104B30007C0100207D010020006400404001002035
:104B400074696D655478207374616D7020256C6C88
:104B500064200D0A000000003E3E3E3E3E494420D7
:104B6000202523782069732073656E743C3C3C3C9F
:104B70003C0D0A0030B587B0044617480078401C49
:104B800015490870019400208DF80D008DF80C0077
:104B900008208DF80E00114800788DF80F0010489D
:104BA00001788DF810100F4801788DF8121001A9C6
:104BB0000D48FCF78DF905460120FFF777FE00BF91
:104BC00029460948FCF717FA0028F9D0214607A022
:104BD000FFF776F907B030BD6801002080010020A2
:104BE0008101002083010020006400403E3E3E3EE3
:104BF0003E494420202523782069732073656E7414
:104C00003C3C3C3C3C0D0A0030B587B004460520D6
:104C10002A4908702A49087003202A49087004208C
:104C2000294908700520294908700620284908707C
:104C3000019400208DF80D008DF80C0008208DF8EF
:104C40000E001E4800788DF80F001D4801788DF881
:104C500010101C4801788DF811101B4801788DF850
:104C600012101A4801788DF81310194801788DF840
:104C7000141001A91748FCF72BF905460220FFF78D
:104C800015FE154A0698D2E90032C01842F100011B
:104C9000114A03C20020069000BF29460D48FCF7C8
:104CA000AAF90028F9D00C480CC80CA0FFF708F9A5
:104CB000214610A0FFF704F907B030BD9001002095
:104CC0009101002092010020930100209401002016
:104CD00095010020006400405801002074696D6552
:104CE0005478207374616D7020256C6C64200D0AFB
:104CF000000000003E3E3E3E3E49442020252378F1
:104D00002069732073656E743C3C3C3C3C0D0A008A
:104D100030B587B0044601202B49087002202B498A
:104D2000087003202A49087004202A4908700520C9
:104D300029490870062029490870019400208DF83F
:104D40000D008DF80C0008208DF80E001E4800782C
:104D50008DF80F001D4801788DF810101C4801785F
:104D60008DF811101B4801788DF812101A4801783F
:104D70008DF81310194801788DF8141001A91848FE
:104D8000FCF7A6F805460220FFF790FD154A0698A5
:104D9000D2E90032C01842F10001124A03C20020D9
:104DA000069000BF29460E48FCF725F90028F9D0E7
:104DB00021460DA0FFF784F80A480CC811A0FFF7A0
:104DC0007FF807B030BD0000980100209901002055
:104DD0009A0100209B0100209C0100209D010020E1
:104DE00000640040580100203E3E3E3E3E494420C3
:104DF000202523782069732073656E743C3C3C3C0D
:104E00003C0D0A0074696D655478207374616D708F
:104E100020256C6C64200D0A000000002DE9F04D87
:104E20001D460C4698B0174621F0004123F0004380
:104E3000002814BF4FF0010C4FF0000C0CEB440C99
:104E4000FE4A0CEB02064FEA620C66452BD33E008D
:104E500018BF012606EB45061644F94A964222D3AE
:104E6000F84A53EA070C02D0944205D148B918B069
:104E700000201146BDE8F08D002808BF4FF0000C5F
:104E800001D04FF0010C0CEB440212F5001F0AD8C0
:104E9000002F14BF4FF0010C4FF0000C0CEB45023B
:104EA00012F5001F07D918B03A462B462146BDE837
:104EB000F04DFFF787B80022DFF88CA3002CB8BFB5
:104EC000534526DADFF884C36345A8BF022220DAFF
:104ED000DFF870C39C451CDCDFF874C30CEB235C6B
:104EE000BCF1140F08DDCCF1340627FA06FC0CFAED
:104EF00006F6BE420DD108E05FB9CCF1140623FAE4
:104F000006FC0CFA06F69E4203D10CF00102C2F137
:104F1000020251EA000C19D1002D17DA002C18BF3B
:104F2000022A01D0012A07D00220FFF773F818B037
:104F3000BDE8F04DFFF73EB80220FFF76BF8FFF732
:104F400039F818B081F00041BDE8F08DB7F1000CE0
:104F50006CD1534525D104F1804212F5801201BF76
:104F600000280020B74918B008BFBDE8F08DB5484B
:104F7000884207DC002DA1BF6046294618B0BDE875
:104F8000F08D07E0281E05DA80F0004118B0604679
:104F9000BDE8F08DAF497944D1E9000118B0BDE812
:104FA000F08DDFF8A0C2634525D1002D1FDA19B1BD
:104FB000514512D1D8B909E0002840F0EC82A24A4C
:104FC000214618B062F31E01BDE8F08D0020214695
:104FD00018B060F31E01BDE8F08D08DA18B0234662
:104FE000BDE8F04D024600206146FBF70ABA18B052
:104FF0002146BDE8F08D514518DAB5F1804F0DD04E
:10500000A5F1005CBCF1FF5C10D1B4F1000C0DDB2C
:1050100018B06146BDE8F04D00F0ECBB234618B077
:105020000246BDE8F04D1946FBF779B9060024F0B9
:10503000004C3BD1D9B1514533D1002C06DD002DB8
:10504000A1BF0020514618B0BDE8F08D002C01DD55
:10505000002D1BDB002C13DA002D11DB012A4FF091
:10506000000014BF78497C4918B0BDE8F08D022AD1
:1050700018BF002C0AD0012A08D1002C06DA0AE059
:10508000002CB8BF002D11DA012A04D0002018B07E
:105090000146BDE8F08D18B000204FF00041BDE89A
:1050A000F08DA1F14050B0F17F601AD0012000EBEB
:1050B000E47050EA020421D0624C521E4FF0000B03
:1050C000104304BF4FF0000B644C654883427CDD05
:1050D000644A654893421FDD884217DB002D25DBBB
:1050E00037E0002C00DA4AB1022A0CBF01204FF051
:1050F000FF3018B0BDE8F04DFBF7F2B90120FEF724
:1051000089FF18B0BDE8F04DFEF75EBF4D4A8A42F8
:1051100002DC002D0ADC1CE0814202DA002D18DAE4
:1051200004E0484B994220DD002D12DD0220FEF7FD
:1051300071FFFEF74FFF05460E46002253465846C4
:105140002146FBF7ECF818B066F31E012846BDE8CF
:10515000F08D0220FEF75EFFFEF744FF0A4621466F
:1051600018B062F31E01BDE8F08D002230466146A2
:10517000FBF7CFF880460E466FF00102FBF780FB8D
:105180004FF05532394BFBF7C7F842463346FBF731
:10519000C6F80022364BFBF7BFF88246424633463C
:1051A000049110461946FBF7BAF85246049BFBF7E8
:1051B000B6F88A4600904FF0C0422E4B404631462A
:1051C000FBF7ADF82C4A2B4B00E027E0CDE90601B8
:1051D00051460098FBF7A3F882460191274A284BD5
:1051E00040463146FBF79BF85246019BFBF791F88E
:1051F00082460B4602460591DDE90601FAF7E8FF13
:10520000DDE90623002688463046FBF782F8524641
:10521000059BFBF781F8024600F07EB90020B1F54E
:10522000801F07DA352230466146FBF729FB064628
:105230006FF0340000EB215024E00000FFFF1F005E
:10524000FFFF0F000000F03F0000F07F0000404330
:1052500001FCFFFF3E0900000000F0FF0000F0BF6E
:105260000000E0410000F043FFFFEF3F5555D53F00
:105270000000E03F4715F73FFE822B6544DF5DF8F5
:105280000BAE543EA0F2FF300190C1F3130040F08A
:105290007F6141F040510291FE498842D8BF002011
:1052A00004DDFD498142C8BF012001DD0D9008E009
:1052B00000200D900198401C01900298A0F58010EC
:1052C00002900299F54878440B910D9900EBC100CA
:1052D000D0E900230F9330460A920B99FBF719F897
:1052E000CDE90601DDE90A2130460F9BFAF770FF90
:1052F00002460B460020EA49FBF783F80591024677
:105300000B460090DDE90601FBF709F81490E5482B
:105310008A464FF0000878440299006812904FF0D6
:10532000005040EA61010D980F9B01EB804000F5B1
:10533000002109910A9A1298FAF7EBFF32460B9B6B
:10534000FAF7EAFF42465346FAF7E9FF06460291AA
:1053500040465146099B129AFAF7E1FFDDE9062320
:10536000FAF7DAFF3246029BFAF7D3FF059B009A61
:10537000FAF7D5FF0091149A049053461046194647
:10538000FAF7CDFF06460246C7480B4602910621B2
:105390007844FEF7B9FDCDE90510029B3246104670
:1053A0001946FAF7BCFFDDE90532FAF7B8FF0591B7
:1053B0000646534640461946149AFAF709FF009BE1
:1053C000049AFAF7ACFF3246059BFAF701FFCDE9E4
:1053D00005104246534610461946FAF7A0FF002230
:1053E000B24B02910A90FAF7F3FEDDE90532FAF7C3
:1053F000EFFE0E464246AD4B4046FAF78AFF029B4F
:105400000A9AFAF786FFDDE90532FAF785FF424688
:1054100002910A90334610465146FAF780FFCDE9D3
:1054200006015346149A02990A98FAF778FF8A46B9
:1054300002903346424600990498FAF770FF5346AB
:10544000029AFAF7C5FE82460B4602460591DDE94F
:105450000601FAF7BDFEDDE9062300208846064670
:10546000FAF757FF5246059BFAF756FF8246099115
:105470004FF060428E4B30464146FAF750FF0490A1
:1054800006918C4A8A4B50460999FAF748FF8246A2
:105490000291894A894B30464146FAF740FF52460D
:1054A000029BFAF795FE864B7B440D9A03EBC203F1
:1054B000D3E90023FAF78CFE0E9007910198FBF7D1
:1054C0000FF80591DDE9061382460E9A0498FAF763
:1054D0007FFE7C4A7A440D9B02EBC303D3E9002391
:1054E00000930292FAF774FE5246059BFAF770FE9B
:1054F0000026884652463046059BFAF70AFF009B75
:10550000029AFAF706FF069B049AFAF702FF079B36
:105510000E9AFAF701FF024600200B460290384629
:105520002946FAF7FCFE824601912B463846194679
:10553000029AFAF7EEFE32464346FAF7F0FE52467A
:10554000019BFAF745FE07468A46324643462946FE
:105550000298FAF7E4FE05460E463A465346FAF735
:1055600037FE594A8846914221DBA8EB020353EAF1
:10557000000210D12A463346FAF7CBFECDE90401EA
:10558000524A534B38465146FAF722FEDDE90423CE
:10559000FBF722F821D20220FEF73CFDFEF71AFDB0
:1055A0000A46214618B062F31E01BDE8F08D494B52
:1055B00028F000429A4210D3474A08EB020353EA0C
:1055C00000027FF4C6AD2A463346FAF7A2FE3A46F9
:1055D0005346FBF701F87FF6BCAD0022019228F09C
:1055E00000403E493E4A01EB2051824223DA481CEA
:1055F0004FF4801121FA00F040443A4AC0F30A51B6
:105600007A44394BA1F2FF31CB4020EA0303C0F3C7
:10561000130040F48010C1F11401C84012680190D9
:10562000B8F1000FBCBF4042019028463146FAF75E
:1056300070FE05460E462A46334638465146FAF76E
:10564000C7FD4FF000084246284B40460591FAF747
:1056500066FECDE90601264A264B40460599FAF733
:105660005EFE009102902A46334640460599FAF7BD
:1056700050FE3A465346FAF74FFE1F4A1F4BFAF7C1
:105680004EFE009B029AFAF7A3FD074688460246A3
:105690000B4635E08E9803007AB60B0086050000B5
:1056A0000000F03FBE050000EC04000000000840D0
:1056B00009C7EE3FFD033ADCF5015B14E02F3EBE67
:1056C000C40300008803000000009040FE822B65A8
:1056D0004715973C00CC904000346F3F01FCFFFF22
:1056E0000000E03FD4020000FFFF0F00432EE63F22
:1056F000396CA80C615C20BEEF39FAFE422EE63F01
:10570000DDE90601FAF764FDDDE9062305460E46EC
:10571000FAF7FFFD3A464346FAF7FEFD0F462A46E2
:105720003346009010461946FAF7F9FD82460246C4
:105730002E4888460B4605217844FEF7E5FB524685
:105740004346FAF7ECFD2A463346FAF7E5FD804674
:105750008A463B4628463146009AFAF7E0FD3B462A
:10576000009AFAF735FD0691009000224FF0804331
:1057700040465146FAF7CDFD0F460C90424653463F
:1057800028463146FAF7CBFD3B460C9AFAF739FE2C
:10579000069B009AFAF7BDFD2A463346FAF7B9FD93
:1057A0000022134BFAF7B8FD054601980E4601EBAF
:1057B00000510815002810DC28463146019AFBF7F5
:1057C0005FF8FEF78DFB042808BFFEF70BFC2846A8
:1057D0003146019AFBF754F805460B4618B02A46A5
:1057E00058462146BDE8F04DFAF799BD7401000016
:1057F0000000F03F2DE9F04106460F46FBF757F851
:10580000041E0D4618BF0120284320F00040C0F1BF
:105810007F6000F1E040C00F0ED0301C18BF0120A7
:10582000384320F00040C0F17F6000F1E040C00F3D
:1058300004BF0120FEF7EEFB20462946BDE8F081BB
:10584000295C8F4100008041B81E654100000000C6
:10585000000000000000F03F000000000000F83FE2
:1058600000000000000000000000004003B8E23F1C
:10587000000000000000000006D0CF43EBFD4C3ECE
:10588000033333333333E33FFFAB6FDBB66DDB3FC3
:105890004D268F515555D53F01411DA96074D13F0B
:1058A00065DBC9934A86CD3FEF4E454A287ECA3F05
:1058B0003E5555555555C53F93BDBE166CC166BF87
:1058C0002CDE25AF6A56113FF16BD2C541BDBBBE80
:1058D000D0A4BE726937663E0000000000000000E0
:1058E0002A2A4D65733120494E464FA3BA284341B9
:1058F0004E52785F49442C205278315F44415441E4
:10590000302C205278315F44415441312C20527860
:10591000315F444154413329203D202820252378FC
:10592000202C252378202C20252378202C2025238B
:1059300078292A2A200D0A002A2A4D657332204927
:105940004E464FA3BA2843414E52785F49442C201B
:105950005278315F44415441302C205278315F44B9
:10596000415441312C205278315F44415441332914
:10597000203D202820252378202C252378202C202A
:10598000252378202C20252378292A2A200D0A0077
:105990002A2A4D65733320494E464FA3BA28434106
:1059A0004E52785F49442C205278315F4441544133
:1059B000302C205278315F44415441312C205278B0
:1059C000315F444154413329203D2028202523784C
:1059D000202C252378202C20252378202C202523DB
:1059E00078292A2A200D0A002A2A4D657335204974
:1059F0004E464FA3BA2843414E52785F49442C206B
:105A00005278315F44415441302C205278315F4408
:105A1000415441312C205278315F44415441332963
:105A2000203D202820252378202C252378202C2079
:105A3000252378202C20252378292A2A200D0A00C6
:105A40002A2A4D65733620494E464FA3BA28434152
:105A50004E52785F49442C205278315F4441544182
:105A6000302C205278315F44415441312C205278FF
:105A7000315F444154413329203D2028202523789B
:105A8000202C252378202C20252378202C2025232A
:105A900078292A2A200D0A0066696E616C54696DA6
:105AA000657256616C75655B66696E616C54696D93
:105AB0006572417272617953686966745F7A657262
:105AC0006F5D2076616C75653A2025642B2B2B2B3E
:105AD0002B2B2B2B2B2B200D0A0000002A20202003
