:020000040800F2
:10000000D00600204D0A0008CD030008CF030008E9
:10001000D3030008D7030008DB030008000000003A
:10002000000000000000000000000000DF030008E6
:10003000E103000800000000E3030008E5030008F6
:10004000670A0008670A0008670A0008670A0008CC
:10005000670A0008670A0008670A0008670A0008BC
:10006000670A0008670A0008670A0008670A0008AC
:10007000670A0008670A0008670A0008670A00089C
:10008000670A0008670A0008670A0008670A00088C
:10009000670A0008670A0008670A0008670A00087C
:1000A000670A0008670A0008670A0008670A00086C
:1000B00003040008E70300081F040008670A00089B
:1000C000670A0008670A0008670A0008670A00084C
:1000D000670A0008670A0008670A0008670A00083C
:1000E000670A0008670A0008670A0008670A00082C
:1000F000670A0008670A0008670A0008670A00081C
:10010000670A0008670A0008670A0008670A00080B
:10011000670A0008670A0008670A0008670A0008FB
:10012000670A0008670A0008670A0008670A0008EB
:1001300000F002F800F03AF80AA090E8000C8244BF
:100140008344AAF10107DA4501D100F02FF8AFF29C
:10015000090EBAE80F0013F0010F18BFFB1A43F0A5
:1001600001031847602C0000802C0000103A24BFC7
:1001700078C878C1FAD8520724BF30C830C144BF0C
:1001800004680C607047000000230024002500264E
:10019000103A28BF78C1FBD8520728BF30C148BFEA
:1001A0000B6070471FB51FBD10B510BD02F073F98D
:1001B0001146FFF7F7FF00F009F802F091F903B4D8
:1001C000FFF7F2FF03BC00F0CFFB000008B50020F2
:1001D000009000F053FA00F05DFB4FF4A06000F0D7
:1001E00055FC4FF47A3000F0CDFB00F021FA654861
:1001F000654908606548006802F04EFC84B241F62B
:100200001F41204600F0E6FABAE0002000F050FA64
:1002100000909DF8000000283DD09DF800000128C6
:1002200027D002280DD0032802D0042832D129E09B
:100230004FF07E515648006802F0A4FB5449086014
:1002400028E05348006802F071FB0646514A524BC1
:1002500002F082FA044602F051F94D49086000218B
:100260004B48006802F038FC02D80020484908607A
:1002700010E04FF07E514648006802F02DFD4449E1
:10028000086007E045494148006802F025FD3F4904
:10029000086000BF00BF42480078012812D14FF02B
:1002A0007E514048006802F06DFB3E4908604FF007
:1002B0007E513D48006802F065FB3B490860002024
:1002C0003749087039480078012812D13848006849
:1002D00008B9012000E00020354908604FF07E5148
:1002E0003448006802F04EFB3249086000202F4974
:1002F000087031480078012842D13048006808B9B8
:10030000012000E000202D4908602D4920480068A8
:1003100002F016FC044602F0A3FB2A4908600846D6
:100320000068FF2802DBFF20086006E0254800681F
:10033000002802DC0020234908602248008881B29E
:10034000214801F0DBFF052000F0E1FA0D211E48F5
:1003500001F0D4FF052000F0DAFA0A211A4801F072
:10036000CDFF02E00020134908604021164802F04A
:1003700033F80128F6D100200B4908600E490870B7
:1003800043E700000000C8422800002030000020A1
:10039000140000209A9999999999B93F00009841C1
:1003A0003E00002004000020080000203C00002047
:1003B00094012342000000203D000020948121424E
:1003C000000020413800002000380140704700BF85
:1003D000FEE700BFFEE700BFFEE700BFFEE7704795
:1003E00070477047704710B50121144801F035FE81
:1003F00030B10121114801F041FE0120104908707F
:1004000010BD10B50121880701F027FE30B1012190
:10041000880701F033FE01200A49087010BD10B5AD
:100420000121094801F019FE30B10121064801F00F
:1004300025FE01200549087010BD000000040040A1
:100440003C0000203D000020000800403E0000204D
:100450000CB50020019000906C48006840F480309A
:100460006A49086000BF6948006800F400300090E5
:100470000198401C0190009818B90198B0F5A06F40
:10048000F1D16248006800F4003010B10120009002
:1004900001E0002000900098012843D15C480068EA
:1004A00040F010005A4908600846006820F0030038
:1004B00008600846006840F0020008605348406841
:1004C000524948600846406848600846406840F421
:1004D000806048600846406820F47C104860084608
:1004E000406840F4E81048600846006840F08070BA
:1004F000086000BF4548006800F000700028F9D08F
:100500004248406820F0030040494860084640687F
:1005100040F00200486000BF3C48406800F00C001A
:100520000828F9D10CBD10B5FFF792FF10BD10B52A
:100530003648006840F001003449086008464068C9
:10054000344908403149486008460068324908404B
:100550002E4908600846006820F48020086008469C
:10056000406820F4FE0048604FF41F008860FFF7E9
:10057000DAFF4FF000602949086010BD10B5002176
:1005800000200022214B5B6803F00C0121B10429FB
:1005900006D0082928D107E0214B224C236027E010
:1005A0001F4B204C236023E0184B5B6803F4701052
:1005B000164B5B6803F48032022303EB904022B9B0
:1005C000194B4343174C23600DE0104B5B6803F459
:1005D000003323B1144B4343124C236003E0104B10
:1005E0004343104C236003E00D4B0E4C236000BFCF
:1005F00000BF064B5B68C3F303130C4CE15C094B73
:100600001B68CB40074C236010BD00000010024067
:10061000002002400000FFF8FFFFF6FE08ED00E0BA
:1006200000127A004000002000093D004400002034
:1006300008B50121482000F0B3FD2020ADF80000EE
:1006400010208DF8030003208DF802006946094848
:1006500000F0EAFA2021074800F093FB2020ADF8D3
:1006600000006946044800F0DFFA2021024800F04B
:1006700088FB08BD000C01400018014008B50121AD
:10068000442000F08DFD1C20ADF8000048208DF8BE
:1006900003006946354800F0C7FA0120ADF80000B4
:1006A00028208DF803006946314800F0BDFA08BDE6
:1006B00010B5044614B101202E4908702D48007869
:1006C000002837D01021294800F041FB78B10821DB
:1006D000264800F03CFB50B10421244800F037FBD1
:1006E00028B10121224800F032FB012822D10A2042
:1006F00000F00DF900201F49087010211B4800F080
:1007000026FB08B9012010BD0821184800F01FFB86
:1007100008B90220F7E70421144800F018FB08B9D3
:100720000320F0E70121124800F011FB01281BD142
:100730000420E8E710210D4800F009FB012813D13F
:1007400008210A4800F003FB01280DD104210748C5
:1007500000F0FDFA012807D10121054800F0F7FA61
:1007600010B90120034908700020CCE700180140AF
:1007700000080140540000207FB504460D4616468F
:100780000121022000F019FDADF80840ADF8045039
:100790000020ADF80A00ADF8060001A93B4800F0C2
:1007A00037FE01221146394801F0A9F91D208DF8C4
:1007B000000000208DF8010003208DF802000120C8
:1007C0008DF80300684600F066F9F1B22F4801F099
:1007D0007BF97FBD7FB505460C460121084600F038
:1007E000ECFCADF80850ADF804400020ADF80A006C
:1007F000ADF8060001A94FF0804000F009FE01228B
:100800001146900701F07BF91C208DF800000020B4
:100810008DF8010002208DF8020001208DF8030000
:10082000684600F038F90121880701F04DF97FBDD5
:100830007FB504460D4616460121042000F0BDFC9C
:10084000ADF80840ADF804500020ADF80A00ADF84E
:10085000060001A90E4800F0DBFD012211460C48FC
:1008600001F04DF91E208DF8000000208DF80100E8
:1008700004208DF8020001208DF80300684600F086
:100880000AF9F1B2024801F01FF97FBD00040040EF
:100890000008004010B56FF0040000F046F92E4843
:1008A00000682E49B0FBF1F02D4908700846007829
:1008B00000EB4001C1EBC0104FF6FF7101EAC00030
:1008C0002849088010BD0146254A12784A434FF056
:1008D000E0235A6100229A611A46126942F001022D
:1008E0001A6100BF4FF0E022106900F001021AB156
:1008F00000F48032002AF5D04FF0E022126922F095
:1009000001024FF0E0231A6100229A61704701460C
:10091000144A12884A434FF0E0235A6100229A6138
:100920001A46126942F001021A6100BF4FF0E0223C
:10093000106900F001021AB100F48032002AF5D0EB
:100940004FF0E022126922F001024FF0E0231A6119
:1009500000229A61704700004000002000127A00D7
:10096000560000205800002000BF704700BF354AE5
:10097000128802F04002002AF9D0C2B2314B1B1D8E
:100980001A80704710B586B00446012144F2040075
:1009900000F006FC4FF40070ADF8140003208DF851
:1009A000160018208DF8170005A9274800F03CF91B
:1009B0004FF48060ADF8140004208DF8170005A9ED
:1009C000214800F031F901940020ADF80800ADF89D
:1009D0000A00ADF80C00ADF810000C20ADF80E00C8
:1009E00001A9184801F091FB0121164801F019FCFA
:1009F00006B010BD30B5A1B002460B46002109E09B
:100A000092FBF3F003FB10250846491C4DF82050DB
:100A100092FBF3F2002AF3D1481E01460DE05DF887
:100A200021000A2804DA3DF8210080B221B030BD4F
:100A30003DF82100373080B2F8E70029EFDA00BF37
:100A4000F4E70000003801400008014009488047F1
:100A500009480047FEE7FEE7FEE7FEE7FEE7FEE7A0
:100A6000FEE7FEE7FEE7FEE704480549054A064BB8
:100A7000704700002F05000831010008D000002059
:100A8000D0060020D0020020D002002031490143CE
:100A9000314A1160704770B5002100230F22C478DD
:100AA00004B32D4C246804F4E064C4F5E064210A26
:100AB000C1F10403CA40447804FA03F18478144075
:100AC00021430901254C0678A155047804F01F053F
:100AD0000124AC4005786D11AD0005F1E025C5F8A5
:100AE000004109E0047804F01F050124AC401C4DCE
:100AF0000678761145F8264070BD1A4A0A4002432E
:100B0000154B1B1F1A60704739B1134A121D12682A
:100B10000243114B1B1D1A6006E00F4A121D12689A
:100B200082430D4B1B1D1A607047042808D14FF0FB
:100B3000E021096941F004014FF0E022116107E072
:100B40004FF0E021096921F004014FF0E02211612A
:100B5000704700000000FA050CED00E000E400E042
:100B600080E100E080FFFF1F10B50446CC488442BE
:100B700008D10121042000F02DFB0021042000F009
:100B800029FB46E0C748844208D10121082000F033
:100B900021FB0021082000F01DFB3AE0C2488442FE
:100BA00008D10121102000F015FB0021102000F0D9
:100BB00011FB2EE0BD48844208D10121202000F025
:100BC00009FB0021202000F005FB22E0B848844208
:100BD00008D10121402000F0FDFA0021402000F062
:100BE000F9FA16E0B348844208D10121802000F0D0
:100BF000F1FA0021802000F0EDFA0AE0AE488442CC
:100C000007D10121801500F0E5FA0021A01500F0C0
:100C1000E1FA10BD10B50121084600F0DBFA002111
:100C2000012000F0D7FA10BD2DE9F0410246002561
:100C30000026002000230024002791F803C00CF0B8
:100C40000F0591F803C00CF0100CBCF1000F03D09D
:100C500091F802C04CEA050591F800C0BCF1000F04
:100C600031D0146800202BE04FF0010C0CFA00F397
:100C7000B1F800C00CEA03069E4220D183004FF079
:100C80000F0C0CFA03F7BC4305FA03FC4CEA04040E
:100C900091F803C0BCF1280F06D14FF0010C0CFAFB
:100CA00000FCC2F814C00AE091F803C0BCF1480F80
:100CB00005D14FF0010C0CFA00FCC2F810C0401C2A
:100CC0000828D1D31460B1F800C0BCF1FF0F34DDA7
:100CD000546800202EE000F1080C4FF0010808FADB
:100CE0000CF3B1F800C00CEA03069E4221D1830048
:100CF0004FF00F0C0CFA03F7BC4305FA03FC4CEA67
:100D0000040491F803C0BCF1280F05D100F1080CD0
:100D100008FA0CF8C2F8148091F803C0BCF1480F2F
:100D200007D100F1080C4FF0010808FA0CF8C2F8DE
:100D30001080401C0828CED35460BDE8F0814FF6E7
:100D4000FF710180022181700421C1707047024649
:100D5000002093680B400BB1012000E00020704799
:100D60000146886880B2704702460020D3680B4075
:100D70000BB1012000E0002070470146C86880B236
:100D8000704701617047416170470AB1016100E03D
:100D900041617047C16070474FF480320A438261FD
:100DA0008161826182698269704702460020434BFB
:100DB00018684FF68073184040EA021008433F4B12
:100DC000186070473E49C8617047F0B50A46002375
:100DD00000240021002500F00046B6F1004F02D1AA
:100DE000364EF16901E0354E7168C0F3034583B2B8
:100DF00000F44016B6F5401F08D121F070612F4E67
:100E0000766826F070662D4F7E6012E000F4801642
:100E1000B6F5801F06D1032606FA05F4A14341F07A
:100E2000706106E0460D360103FA06F6B14341F063
:100E3000706122B1460D360103FA06F6314300F027
:100E40000046B6F1004F02D11C4EF16101E01B4E8D
:100E50007160F0BD30B500228B071C0F0F2303FA21
:100E600004F2164B08338C1053F824309343134C80
:100E700008348D1044F8253023468C1053F8243064
:100E80008C07240F00FA04F423430C4C08348D1013
:100E900044F8253030BD0A49DC3108607047000055
:100EA00000080140000C0140001001400014014006
:100EB00000180140001C01400020014000000140DA
:100EC00000002042DF48006840F00100DD49086072
:100ED00008464068DC490840DA494860084600682E
:100EE000DA490840D74908600846006820F48020A5
:100EF00008600846406820F4FE0048604FF41F0078
:100F000088607047CF49096821F48031CD4A11606B
:100F10001146096821F480211160B0F5803F03D0AB
:100F2000B0F5802F0ED106E0C649096841F4803142
:100F3000C44A116007E0C349096841F4A021C14ACD
:100F4000116000E000BF00BF704710B501460022ED
:100F5000002300204A11012A02D1BA4C236806E07E
:100F6000022A02D1B74C236A01E0B64C636A01F051
:100F70001F02012494401C400CB1012000E000201D
:100F800010BD38B5002000900024002500BF31209E
:100F9000FFF7DBFF05460098401C00900098B0F575
:100FA000A06F01D0002DF2D03120FFF7CEFF08B1A5
:100FB000012400E00024204638BD01460020A14A5B
:100FC000106820F0F80040EAC10010607047A049A6
:100FD00008607047024600209A4B586820F47C1045
:100FE00042EA01031843974B5860704798490866D6
:100FF000704701460020934A506820F003000843E0
:10100000506070478F48406800F00C007047014600
:1010100000208C4A506820F0F00008435060704770
:1010200001460020874A506820F4E0600843506081
:10103000704701460020834A506820F4605040EA1F
:10104000C1005060704729B17E4A527A02437D4BFD
:101050005A7204E07B4A527A82437A4B5A72704742
:101060007B49D8310860704701460020754A5068B6
:1010700020F440400843506070470021714A2032FC
:101080001170704A82F82010012802D004280AD179
:1010900004E001216B4A2032117005E00521694A04
:1010A0002032117000E000BF00BF7047694908603E
:1010B00070476449096A0143624A11627047654991
:1010C00044390860704730B5002100220024002315
:1010D0005C4D6D6805F00C0121B1042905D008298B
:1010E00023D105E05C4D056022E05B4D05601FE00B
:1010F000544D6D6805F47012524D6D6805F48034DE
:10110000022505EB92421CB9544D554305600BE096
:101110004C4D6D6805F400351DB1504D55430560CB
:1011200002E04D4D5543056002E04B4D056000BFA8
:1011300000BF444D6D6805F0F0010909484D6B5C36
:101140000568DD4045603F4D6D6805F4E061090AC2
:10115000434D6B5C4568DD4085603A4D6D6805F434
:101160006051C90A3E4D6B5C4568DD40C560354D38
:101170006D6805F44041890B3A4D6B5CC568B5FB61
:10118000F3F5056130BD29B12E4A526902432D4B5A
:101190005A6104E02B4A526982432A4B5A617047D4
:1011A00029B1284A92690243264B9A6104E0254AF4
:1011B00092698243234B9A61704729B1214AD269CF
:1011C0000243204BDA6104E01E4AD26982431D4B80
:1011D000DA61704729B11B4AD2680243194BDA60C1
:1011E00004E0184AD2688243164BDA60704729B18E
:1011F000144A12690243134B1A6104E0114A12693E
:101200008243104B1A617047124940390860704799
:101210000F49C86470470B49C87170470948406A54
:1012200040F0807007494862704701460020054A37
:1012300092680A400AB1012000E00020704701498D
:1012400088727047001002400000FFF8FFFFF6FEB2
:10125000000042428004424200127A0000093D0030
:101260005A0000206A00002010B50446FE4884425F
:1012700008D10121C014FFF7ADFF0021E014FFF7F2
:10128000A9FFC4E0B4F1804F08D101210846FFF75F
:10129000AEFF00210120FFF7AAFFB8E0F348844227
:1012A00008D101210220FFF7A2FF00210220FFF751
:1012B0009EFFACE0EE48844208D101210420FFF7F4
:1012C00096FF00210420FFF792FFA0E0E948844246
:1012D00008D101210820FFF78AFF00210820FFF72D
:1012E00086FF94E0E448844208D101211020FFF7F2
:1012F0007EFF00211020FFF77AFF88E0DF4884425C
:1013000008D101212020FFF772FF00212020FFF7E4
:101310006EFF7CE0DA48844208D101214014FFF7D7
:1013200059FF00216014FFF755FF70E0D548844253
:1013300009D10121C804FFF74DFF00214FF400201F
:10134000FFF748FF63E0D048844209D10121080536
:10135000FFF740FF00214FF48010FFF73BFF56E0FE
:10136000CA48844209D101214805FFF733FF002113
:101370004FF40010FFF72EFF49E0C548844208D122
:1013800001214020FFF733FF00214020FFF72FFF0E
:101390003DE0C048844208D101218020FFF727FFAB
:1013A00000218020FFF723FF31E0BB48844208D1B1
:1013B00001218015FFF71BFF0021A015FFF717FF84
:1013C00025E0B648844209D101210804FFF702FF55
:1013D00000214FF48030FFF7FDFE18E0B048844252
:1013E00009D101214804FFF7F5FE00214FF4003038
:1013F000FFF7F0FE0BE0AB48844208D101218804DE
:10140000FFF7E8FE00214FF48020FFF7E3FE10BD58
:1014100000220288944B98420ED0994B98420BD0F0
:10142000B0F1804F08D0914B984205D0904B984234
:1014300002D0904B984204D14FF68F731A404B88DC
:101440001A438D4B984207D08C4B984204D04FF6EC
:10145000FF431A40CB881A4302808B8883850B8810
:101460000385814B98420BD0854B984208D08B4B1B
:10147000984205D08A4B984202D08A4B984201D1BB
:101480000B7A038601238382704770B50024002203
:101490000023058C4FF6FE7635400584028C838848
:1014A000048B4FF68F752C40B51E2C400D882C43B5
:1014B000751E2A400D892A434D882A436A4DA84249
:1014C0000BD06F4DA84208D0744DA84205D0744D82
:1014D000A84202D0734DA84213D14FF6F7752A40A7
:1014E0004D892A434FF6FB752A408D882A434FF6D3
:1014F000FF652B404FF6FF552B408D892B43CD893F
:101500002B4383800483CD888586028470BD70B5AB
:10151000002400220023058C4FF6EF763540058429
:10152000028C8388048B48F6FF752C404FF6FF45EC
:101530002C400D884FF6FF7606EA05252C434FF622
:10154000DF752A400D8906EA05152A434D8806EA0B
:1015500005152A43444DA84202D0494DA8421DD149
:101560004FF67F752A404D894FF6FF7606EA05153E
:101570002A434FF6BF752A408D8806EA05152A438F
:101580004FF6FF352B404FF2FF752B408D8906EA51
:1015900085052B43CD8906EA85052B43838004838B
:1015A000CD880587028470BD70B500240022002319
:1015B000058C4FF6FF6635400584028C8388848B4A
:1015C0004FF68F752C404FF6FC752C400D882C4340
:1015D0004FF6FF552A400D894FF6FF7606EA05259E
:1015E0002A434D8806EA05252A431F4DA84202D00A
:1015F000234DA8421DD14FF2FF752A404D894FF669
:10160000FF7606EA05252A434FF6FF352A408D88E6
:1016100006EA05252A434EF6FF752B404DF6FF7569
:101620002B408D8906EA05152B43CD8906EA051561
:101630002B4383808483CD888587028470BD70B5F9
:10164000002200230024058C4EF6FF7635400584E9
:10165000038C8488828B48F6FF752A404FF6FF453D
:101660002A400D8820E00000002C014000040040CA
:1016700000080040000C0040001000400014004032
:1016800000340140004C0140005001400054014032
:1016900000180040001C00400020004000400140B5
:1016A00000440140004801404FF6FF7606EA052558
:1016B0002A434DF6FF752B400D8906EA05352B436D
:1016C0004D8806EA05352B43FA4DA84202D0FA4D63
:1016D000A84208D14BF6FF752C408D894FF6FF7656
:1016E00006EA85152C4384808283CD88A0F840507B
:1016F000038470BD828B4FF2FF331A408283828B4A
:101700004FF6FF7303EA01231A4382837047F0B553
:101710000C461546002200210026078C4EF6FF7C61
:1017200007EA0C070784828B018C4FF6FF7707EAE4
:10173000043640F6FF473A404FF6FF7707EA0527A1
:101740003A434FF6FF7707EA03373A43D94FB84297
:101750000ED0D94FB8420BD0B0F1804F08D0D74F40
:10176000B84205D0D64FB84202D0D64FB84206D1C3
:101770004DF6FF77394046F48057394305E047F688
:10178000FF57394044F48057394382830184F0BDC8
:10179000828B4FF6F3731A408283828B0A438283D3
:1017A0007047F0B50C461546002200210026078C34
:1017B0004FF6FF6C07EA0C070784828B018C4FF60B
:1017C000FF7707EA04264FF60C773A404FF6FF778B
:1017D00007EA03172F433A43B64FB8420ED0B64F2D
:1017E000B8420BD0B0F1804F08D0B44FB84205D00A
:1017F000B34FB84202D0B34FB84206D14FF6FF57AD
:10180000394046F48077394305E04FF2FF573940BD
:1018100044F48077394382830184F0BD028B4FF218
:10182000FF331A400283028B4FF6FF7303EA012352
:101830001A4302837047F0B50C461546002200217A
:101840000026078C4FF6EF7C07EA0C070784028B13
:10185000018C4FF6FF7707EA041640F6FF473A403F
:101860004FF6FF7707EA03373A434FF6FF7707EA69
:1018700005273A438F4FB8420ED08F4FB8420BD056
:10188000B0F1804F08D08D4FB84205D08C4FB84290
:1018900002D08C4FB84206D14FF6DF77394046F080
:1018A0001007394305E04FF65F77394044F01007E1
:1018B000394302830184F0BD028B4FF6F3731A4063
:1018C0000283028B0A4302837047F0B50C4615462B
:1018D00000220021068C4FF6FE773E400684028BE4
:1018E000018C4FF60C7632407E1C06EA03162E431E
:1018F0003243704EB0420ED06F4EB0420BD0B0F1BA
:10190000804F08D06D4EB04205D06D4EB04202D02F
:101910006C4EB04206D14FF6FD76314044F00106E0
:10192000314305E04FF6F576314044F0010631438E
:1019300002830184F0BD70B505460C465D488542C2
:101940000ED05D4885420BD0B5F1804F08D05B4882
:10195000854205D05A48854202D05A48854200D176
:1019600000E000BF208850B92389A28861882846FA
:10197000FFF7ABFFE1882846FFF79EFF25E02088B0
:1019800004280AD12389A28861882846FFF753FFDB
:10199000E1882846FFF742FF17E0208808280AD18F
:1019A0002389A28861882846FFF7FBFEE188284644
:1019B000FFF7EEFE09E02389A28861882846FFF739
:1019C000A6FEE1882846FFF795FE70BD2DE9F0419F
:1019D00005460C4600260127608808B9022600E06B
:1019E0000026A088012801D1022700E001272088D5
:1019F000A0B92389A28861882846FFF766FFE1889D
:101A00002846FFF759FF23893A4631462846FFF713
:101A100012FFE1882846FFF701FF13E02389A2881F
:101A200061882846FFF707FFE1882846FFF7F6FEA2
:101A300023893A4631462846FFF747FFE188284682
:101A4000FFF73AFFBDE8F0810A884B881A438B887C
:101A50001A43CB881A430B891A434B891A438B8943
:101A60001A43A0F8442070474FF6FF71818000218F
:101A70000180C18041800172704700210180418056
:101A80008180C180018141818181C18170470021B4
:101A900001804180012181800021C1800181704746
:101AA0000021018041808180C1800181418181814B
:101AB00070470000002C0140003401400004004049
:101AC00000080040000C004021B1028842F00102F1
:101AD000028004E002884FF6FE731A4002807047CD
:101AE00031B1B0F8442042F40042A0F8442005E0AF
:101AF000B0F84420C2F30E02A0F8442070471AB197
:101B000083890B43838102E083898B438381704700
:101B10008182704741EA0203A0F8483070471AB149
:101B200083890B43838102E083898B4383817047E0
:101B300001894FF6F8721140018170470A46002171
:101B400001894FF68F73194011430181704730B5F9
:101B500004460D4629462046FFF7F0FF208940F055
:101B60000700208130BD2DE9F04104460D461646A0
:101B70001F46602D06D13B46012231462046FFF725
:101B80005AFE05E03B46012231462046FFF79DFE06
:101B900029462046FFF7D2FF208940F00700208128
:101BA000BDE8F08130B50C4600210189C9B24FF67D
:101BB000FF7505EA0325154325432943018130BDFF
:101BC0002DE9F04105460E46174698460024434647
:101BD0003A4631462846FFF7E5FF2C894FF6F87064
:101BE000044044F007044FF68F70044044F0700442
:101BF0002C81BDE8F081F0B504460D4616461F461F
:101C00003B46324629462046FFF7CCFF208940F468
:101C100080402081F0BD0185828270470A46002104
:101C200001884FF68F731940114301807047F0B55A
:101C30000C4615461E460021002200230189028B16
:101C4000038C4FF6F877394021434FF6FC473A4072
:101C500040F201173A434FF6DD773B404FF6FF77EE
:101C600007EA06172F433B43018102830384F0BD3B
:101C70000A460021018B4FF68F73194011430183EF
:101C800070470A460021018B48F6FF7319404FF652
:101C9000FF7303EA02231943018370470A460021B8
:101CA000818B4FF68F7319401143818370470A4629
:101CB0000021818B48F6FF7319404FF6FF7303EA4A
:101CC000022319438183704721B1028842F08002C8
:101CD000028004E002884FF67F731A40028070474A
:101CE00021B1828842F00402828004E082884FF6AB
:101CF000FB731A408280704721B1828842F008024B
:101D0000828004E082884FF6F7731A408280704721
:101D100021B1828842F00102828004E082884FF67D
:101D2000FE731A40828070470A460021018B4FF6ED
:101D3000F77319401143018370470A460021018B54
:101D40004FF2FF7319404FF6FF7303EA0223194362
:101D5000018370470A460021818B4FF6F7731940C3
:101D60001143818370470A460021818B4FF2FF7334
:101D700019404FF6FF7303EA02231943818370472A
:101D80000A460021018B4FF6FB7319401143018372
:101D900070470A460021018B4FF6FF3319404FF67A
:101DA000FF7303EA02231943018370470A460021A7
:101DB000818B4FF6FB7319401143818370470A46AC
:101DC0000021818B4FF6FF3319404FF6FF7303EA72
:101DD00002231943818370470A460021018B4FF685
:101DE0007F7319401143018370470A460021018B1C
:101DF000C1F30E014FF6FF7303EA02231943018377
:101E000070470A460021818B4FF67F7319401143BA
:101E1000818370470A460021818BC1F30E014FF682
:101E2000FF7303EA02231943818370470A460021A6
:101E3000018C4FF6FD7319401143018470470A4627
:101E40000021018C4FF6F77319401143018470474C
:101E50000A460021018C4FF6DF7319404FF6FF73DD
:101E600003EA02131943018470470A460021018CDA
:101E70004FF67F7319404FF6FF7303EA02131943BD
:101E8000018470470A460021018C4FF6FF53194028
:101E90004FF6FF7303EA02231943018470470A4691
:101EA0000021018C4FF2FF7319404FF6FF7303EAD4
:101EB00002231943018470470A460021018C4DF624
:101EC000FF7319404FF6FF7303EA0233194301848D
:101ED000704730B5002301248C40A3B2048C9C438E
:101EE0000484048C02FA01F5ADB22C43048430BDA5
:101EF00030B5002304248C40A3B2048C9C4304849A
:101F0000048C02FA01F5ADB22C43048430BD70B5E7
:101F10000346002000241846183001258D40ACB23D
:101F20001D8CA5431D8409B1082909D100EB61006E
:101F3000056825F0700505600568154305600EE02D
:101F40000D1FC5F34E052844056825F4E0450560DE
:101F500005684FF6FF7606EA02263543056070BD38
:101F600021B1028842F00202028004E002884FF6AA
:101F7000FD731A400280704721B1028842F00402CA
:101F8000028004E002884FF6FB731A40028070471B
:101F900021B1828842F08002828004E082884FF67C
:101FA0007F731A408280704702884FF6F7731A4099
:101FB000028002880A430280704782884FF68F733E
:101FC0001A40828082880A438280704702894FF6D5
:101FD000F8731A40028102890A430281704702891C
:101FE0004FF67F731A40028102890A4302817047CB
:101FF000818470478185704781867047018770476B
:1020000081877047A0F84010704702884FF6FF4361
:102010001A40028002880A43028070470146888E77
:1020200070470146088F70470146888F7047014608
:10203000B1F8400070470146888C70470146088D12
:10204000704702460020138A0B400BB1012000E0CC
:1020500000207047CA430282704730B50246002014
:1020600000230024158A05EA0103958905EA010485
:1020700013B10CB1012000E0002030BDCA43028240
:102080007047000010B50446FB48844209D1012185
:102090008803FFF79FF800214FF48040FFF79AF87C
:1020A00032E0F648844209D101214804FFF79FF845
:1020B00000214FF40030FFF79AF825E0F048844201
:1020C00009D101218804FFF792F800214FF4802004
:1020D000FFF78DF818E0EB48844209D10121C804CC
:1020E000FFF785F800214FF40020FFF780F80BE0A0
:1020F000E548844208D101210805FFF778F800215E
:102100004FF48010FFF773F810BD2DE9F04786B04B
:1021100005460E460024A24600BFA1460027B0890E
:1021200000B100BF2F462C8A4CF6FF700440F088A7
:1021300004432C82AC894EF6F3100440B0883189F8
:102140000843718908430443AC81AC8A4FF6FF40D1
:102150000440B0890443AC8201A8FEF7B4FFC6482E
:10216000874202D1DDF810A001E0DDF80CA0A889BB
:1021700000F4004040B10AEBCA0000EB0A103168DD
:102180004900B0FBF1F807E00AEBCA0000EB0A10C7
:1021900031688900B0FBF1F86420B8FBF0F004016D
:1021A0002009642101FB1089A88900F4004040B196
:1021B000322000EBC900B0FBF1F000F0070004434F
:1021C00008E0322000EB09106421B0FBF1F000F0D0
:1021D0000F0004432C8106B0BDE8F0874FF4165180
:1021E000016000218180C18001810C214181002199
:1021F0008181704710B502460020108A4FF2FF031C
:1022000018400B884C8823438C882343CC88234375
:102210001843108210BD0021018041808180C1805F
:10222000704721B1828942F40052828104E08289A0
:102230004DF6FF731A4082817047F0B503460024C3
:1022400000260025002040F66A17B94200D100BFE1
:102250001846C1F3421401F01F06012707FA06F5DC
:10226000012C01D10C3004E0022C01D1103000E02F
:1022700014301AB107682F43076002E00768AF43C4
:102280000760F0BD1AB1838A0B43838202E0838A20
:102290008B4383827047028A4FF6F0731A400282A2
:1022A000028A0A430282704782894FF2FF731A4002
:1022B000828182890A438281704721B1828942F0FA
:1022C0000202828104E082894FF6FD731A40828106
:1022D0007047028A4FF6DF731A400282028A0A436D
:1022E0000282704721B1028A42F48042028204E0F5
:1022F000028A4BF6FF731A4002827047C1F308024C
:102300008280704701468888C0F308007047818941
:1023100041F0010181817047028BD2B20283028BAE
:1023200042EA012202837047028B02F47F42028359
:10233000028B0A430283704721B1828A42F0200255
:10234000828204E0828A4FF6DF731A4082827047ED
:1023500021B1828A42F01002828204E0828A4FF622
:10236000EF731A408282704721B1828A42F00802DC
:10237000828204E0828A4FF6F7731A4082827047A5
:1023800021B1828942F40042828103E08289C2F352
:102390000E028281704721B1828A42F400628282F9
:1023A00004E0828A4FF2FF731A4082827047828A69
:1023B0004FF6FB731A408282828A0A4382827047F8
:1023C00021B1828A42F00202828204E0828A4FF6C0
:1023D000FD731A408282704702460020B1F5007FEB
:1023E00000D100BF13880B400BB1012000E000209A
:1023F000704701F40072B2F5007F00D100BFCA43FC
:102400000280704770B5024600240023002500209A
:1024100040F66A16B14200D100BFC1F3421501F087
:102420001F03012606FA03F3012D02D196893340DA
:1024300006E0022D02D1168A334001E0968A33402D
:102440000C12012606FA04F41688344013B10CB1BC
:10245000012000E0002070BD10B50022002340F6EE
:102460006A14A14200D100BF0A1201249440A3B211
:10247000DC43048010BD00000038014000440040EF
:1024800000480040004C004000500040704770473A
:10249000704770477047754600F02CF8AE4605004F
:1024A0006946534620F00700854618B020B5FEF770
:1024B000DBFABDE820404FF000064FF000074FF078
:1024C00000084FF0000B21F00701AC46ACE8C00952
:1024D000ACE8C009ACE8C009ACE8C0098D4670475B
:1024E00010B50446AFF300802046BDE81040FDF76C
:1024F00066BE0000004870477000002021F00042D6
:10250000A2F16052B2F5801F01F0004328BFD2F162
:102510007F6C0BD95FEA001C43EAC20242EB5070A9
:1025200018BF704728BF20F001007047B2F5801F28
:10253000BCBF184670474FEA410C1CF5001F02D281
:10254000084600F0C4BB70B500F0B2F80000008986
:10255000FFF7F6BF4FF00040A0F580007047000085
:1025600010B591EA030F48BF83F0004300F1FC80EF
:10257000841A71EB030C05D2121943EB0C03001BF8
:1025800061EB0C01DFF824E14FEA1154A4EB135C7A
:102590001EEA430F18BF9EEA445F73D023EA0E037E
:1025A000DCF1200E21EA045143F4801332D322FAE5
:1025B0000CFE10EB0E0023FA0CFE41EB0E01CCF1E9
:1025C000200E03FA0EFE10EB0E0051F10001B1F5E2
:1025D000801FCCF1200E32D201EB045112FA0EF220
:1025E000BDE8104058BF7047401C38BF5FEA420248
:1025F00018BF7047002814BF20F0010041F100010E
:102600004FEA410313F5001F38BF7047A1F1C041E5
:1026100000F09CB8012A43EB0302ACF1200CDCF182
:102620001F0E32BF4FF0000E23FA0CF310EB030025
:1026300041EB0451B4EB115FD0D0A1EB045101F593
:10264000801149085FEA300001EB04510ED350F1CC
:10265000000038BF12FA0EFE08D1BDE81040C9E7ED
:10266000401C38BF5FEA4202CAD1C3E7BDE8104050
:102670004FEA410313F5001F38BF7047A1F1C04175
:1026800000F064B89EEA445F08D011EA5E0FBDE82E
:10269000104004BF01F0004100207047BDE8104029
:1026A00070B500F005F800BF64FBBE3E0000E0FF1F
:1026B0000EF1020E2EF0030E5EF8046B364205D4C6
:1026C000012A43EB030515F5001F12D8012841EB41
:1026D000010C1CF5001F0CD80ED14FEAD17C15F56A
:1026E000001F0CEB4C0C0CF1020C08BF4CEBD37C24
:1026F00004E04FF0080C01E04FEAD37C0CEB4C05F2
:1027000026FA05F606F00706B6F1040C06D20EEB23
:10271000860CBDE870404CF0010C6047DFE80CF01F
:10272000090B02024FF000414FF00000A1F500211B
:1027300070BD19461046012851EB010418BFD4F5AD
:10274000001484BF002001F0004170BD0808A0F50E
:1027500000114FEA3101704710B591EA030F48BFED
:1027600083F000433FF504AF841A71EB030C07D2EA
:1027700012198CF0004C43EB0C03001B61EB0C01B5
:10278000DFF8A4E14FEA1154A4EB135C1EEA430FF7
:1027900018BF9EEA445F00F0B08023EA6E03524205
:1027A00021EA0451C3EB6E0338BF5B1EDCF1200E3F
:1027B00025D322FA0CFE10EB0E0043FA0CFE41EB7F
:1027C0000E01CCF1200E03FA0EFE10EB0E0051F1BB
:1027D0000001CCF1200E29D412FA0EF201EB0451C3
:1027E000BDE8104058BF7047401C1CBFB2F1004FFD
:1027F000704700280CBF491C20F00100704712EB05
:10280000020E43EB030218BF4FF0010E4EEA4202E4
:10281000ACF1200CDCF11E0E54D943FA0CFE10EB87
:102820000E0051F1FF31CCF11E0ED5D50EF1010E87
:1028300012FA0EFE404141EB010101EB445C5FEAFC
:102840005C5C10D910EBDE7001EB045138BFBEF1B7
:10285000004FBDE8104018BF704700280CBF491C4E
:1028600020F00100704730D24FEAD42C11F500114E
:1028700024F400641BD0B1FA81F20B3AA41AA41E0E
:10288000D2F12003914030FA03F31943904001EB59
:10289000CC71002C01EB0451BDE81040A8BF70477B
:1028A00001F1C0414FF0000001F000417047B0FA63
:1028B00080F310FA03F100D110BDE41A173C48056B
:1028C000C90AE4E701EB045110BD491001EB0451C2
:1028D000BDE810404FEA300002E04FF000017047C1
:1028E0004A0008BF0042F8D0B2F5001F28BF704769
:1028F00001F000414FF0000070479EEA445F07D0AE
:1029000011EA5E0FBDE8104004BF002100207047AF
:10291000BDE8104070B5FFF7CBFE00BF40DFF63ECC
:1029200083F00041104670470000E0FF43004FEA8B
:10293000D30C4FEA3C0C43401FBF40070CF16051E1
:1029400013F0FE4F70471CF0006F03D100200CF015
:10295000004170470CF0004343EA507010B540EA64
:10296000CC0000F06EF900BF000000924FEA0001B9
:10297000FFF7ECBE4FF000414FF00000A1F5002141
:102980007047000090EA010F48BF81F0004100F15C
:10299000AA81421A3CBF801A89184FEAD0524FF0E0
:1029A0007F4C1CEA410FA2EBD15318BF9CEA026F87
:1029B00000F03B804FF0004C4CEA00204CEA012133
:1029C00021FA03FC10EB0C0C1ED202F1FF325FEA7D
:1029D0001C2040EBC25038BF70471CF07F0F4FEAFD
:1029E000400C18BFBCF17F4F38BF7047C3F12003C4
:1029F000994008BF20F00100BCF17F4F38BF7047FD
:102A0000A0F1C04000F063B94FEA3C00000A40EB7F
:102A1000C25028BF1CF0FF0F4FEA400CE6D018BF91
:102A2000BCF17F4F38BF7047EAE79CEA026F05D0E0
:102A300010EA5C0F08BF00F00040704710B500F0CE
:102A400000F900BF64FBBE3E401058BFC0F14040DB
:102A5000491058BFC1F140418142EFF300807047F7
:102A600041000B0ED3F19E0208D950F400034FEA47
:102A7000032323FA02F048BF4042704710B500F02C
:102A8000E0F800BF49922480002070476FF00042B8
:102A900082EA200070470000C10DD1F19E0206DBE2
:102AA0004FEA002343F0004323FA02F0704700424C
:102AB00007D54FEA4001B1F1FE4F02D24FF00000BE
:102AC000704710B500F0BDF849922480002070478F
:102AD0006FEA20007047000050EA010C00F11380FB
:102AE0001CF5000F58BFBCF5000F01D48842704799
:102AF00007D710F5000F58BF11F5000F15D4884205
:102B00007047894270471CF5000F04D5BCF5000FD3
:102B1000F7D5814270474FF0807C1CEB400F38BFE7
:102B20001CEB410F01D28142704710B500F089F8CB
:102B3000922449004FF000504FF08051FFF784BFBE
:102B40004FF47F0C1CEAD0121EBF1CEAD11392EA8C
:102B50000C0F93EA0C0F00F0478090EA010F48BF7A
:102B600042F480724FF0004C4CEA00204CEA012104
:102B700002EB0302A0FB0113A2F50002002918BF1B
:102B800043F001035B0028BF4FEA330342EB2242CC
:102B90005FEA132C4CEBC2502EBFBCEB436FB2F577
:102BA0007C0F70474FEA036CBCF1004F08BF20F068
:102BB0000100B2F57C0F38BF70470BD582F0FF02E1
:102BC00012F5803FC8BF704700F1C040D8BF00F089
:102BD0000040704700F5000C5FEA4C0C48BF70479E
:102BE000B0F1C04000F073B890EA010F0CEAD113C5
:102BF00048BF42F48072624538BF634504D280EA20
:102C0000010000F00040704710B500F01AF800BF56
:102C10008900013E00F007B800F009B85FEA410CF6
:102C20005FEA1C6C08D080EA010000F050B85FEA4F
:102C3000400C5FEA1C6CF6D14FF00040A0F580001C
:102C400070470EF1020E2EF0030E5EF8044B244284
:102C500004D44FEA4102B2F17F4F11D84FEA40034A
:102C6000B3F17F4F0CD80ED14FEAD07CB2F17F4F39
:102C70000CEB4C0C0CF1020C08BF4CEBD17C04E0CB
:102C80004FF0080C01E04FEAD17C0CEB4C0324FA26
:102C900003F404F00704B4F1040C06D20EEB840C28
:102CA000BDE810404CF0010C6047DFE80CF007086D
:102CB00002024FF00040A0F5800010BD084642001F
:102CC00018BFD2F1807288BF00F0004010BDFF2114
:102CD00041EAD050C005704790EA010F48BF81F02B
:102CE00000413FF556AE421A04D882F00042A0EBF4
:102CF000020011444FEAD0524FF07F4C1CEA410FC2
:102D0000A2EBD15318BF9CEA026F4AD04FF0004C9F
:102D10004CEA00204CEA012121FA03FCB0EB0C0C38
:102D20000FD412F0FE0F36D05FEA4C001DD5001212
:102D300040EBC25038BF70471CF03F0F18BF7047C0
:102D40000BE0A2F101025FEA1C2040EBC25038BF49
:102D500070471CF07F0F18BF7047C3F120039940E4
:102D600014BF401E20F00100704780084FEA122374
:102D700008BF7047B0FA80FCA2EB0C02CCF1280C23
:102D800060FA0CF093EA122F04BF00EBC2507047B8
:102D90004FEAC3707047130A5FEADC1008BF704740
:102DA000F6E79CEA026F04D010EA5C0F08BF00202F
:102DB000704710B5FFF745FF40DFF63E81F0004059
:102DC00070470000E42D00080000002070000000A3
:102DD0006C010008542E00087000002060060000FE
:102DE00088010008000000000000304100000000E1
:102DF00000004041000000000000704100000000A1
:102E0000000000000000000000803B4500000000C2
:102E100000007A4400389C450000000000000000DB
:102E20000000000000A24A040000000000000000B2
:102E30000102030406070809010000000000000069
:102E4000000001020304010203040607080902044A
:042E50000608000070
:0400000508000131BD
:00000001FF
