:020000040800F2
:100000004807002049010008DD0D0008330D0008F5
:10001000A90D00084B030008D130000800000000C3
:100020000000000000000000000000003124000873
:10003000650B000800000000D5200008C927000853
:100040006301000863010008630100086301000800
:1000500063010008630100086301000863010008F0
:1000600063010008630100086301000863010008E0
:1000700063010008630100086301000863010008D0
:1000800063010008630100086301000863010008C0
:1000900019300008510300086301000863010008DB
:1000A00063010008630100086301000863010008A0
:1000B000592800082129000863010008630100088D
:1000C0006301000863010008630100086301000880
:1000D000630100082D2D000863010008630100087A
:1000E0006301000863010008630100086301000860
:1000F0006301000863010008630100086301000850
:10010000630100086301000863010008630100083F
:10011000630100086301000863010008630100082F
:10012000630100086301000863010008630100081F
:10013000DFF810D000F0A0F80048004701350008B3
:10014000AFF3008048070020064880470648004774
:10015000FEE7FEE7FEE7FEE7FEE7FEE7FEE7FEE777
:10016000FEE7FEE7F927000831010008C10F80EA29
:10017000E0700844CA079623002100F04FB8000041
:10018000002801DBC0F10040002901DBC1F1004182
:1001900081427047002801DBC0F10040002901DBEB
:1001A000C1F10041884270472DE9F05F054600200B
:1001B00092469B4688460646814640241BE02846D8
:1001C00041464746224600F078F853465A46C01A40
:1001D000914110D311461846224600F05FF82D1ABF
:1001E00067EB01084F4622460120002100F056F837
:1001F00017EB00094E41201EA4F10104DFDC484644
:1002000031462A464346BDE8F09F0029A8BF704703
:10021000401C490008BF20F00100704710B4B0FA3C
:1002200080FC00FA0CF050EA010404BF10BC7047D7
:1002300049B1CCF1200421FA04F411FA0CF118BFF1
:10024000012121430843A3EB0C01CB1D4FEA0061C0
:100250004FEA102042BF002010BC704700EBC35093
:1002600010440029A4BF10BC7047401C490008BFBF
:1002700020F0010010BC7047064C074D06E0E06816
:1002800040F0010394E8070098471034AC42F6D3DD
:10029000FFF752FF143D0008343D0008202A04DB1C
:1002A000203A00FA02F1002070479140C2F1200389
:1002B00020FA03F3194390407047202A04DB203AC8
:1002C00021FA02F00021704721FA02F3D040C2F176
:1002D0002002914008431946704770B58C1810F8F9
:1002E000015B15F0070301D110F8013B2A1106D17B
:1002F00010F8012B03E010F8016B01F8016B5B1E95
:10030000F9D12B0705D40023521E0DD401F8013B6F
:10031000FAE710F8013BCB1A921C03E013F8015BDB
:1003200001F8015B521EF9D5A142D8D3002070BD5F
:1003300010B502460023002003E014882344921CD9
:10034000401C8842F9DB98B210BD00BFFEE70000F8
:1003500000B587B001AA01210D4800F0C6F90D498A
:10036000019808809DF80F000B4908709DF8100057
:100370000A4908709DF812000949087010210448C4
:1003800000F012F801200749087007B000BD000016
:10039000006400401E000020140000201500002012
:1003A000170000201C000020B1F5007F3AD00FDCC0
:1003B000202928D006DC01291CD004291DD00829B9
:1003C00040D11DE0402921D0B1F5807F3AD126E00F
:1003D000B1F5004F31D006DCB1F5806F25D0B1F515
:1003E000006F2FD124E0B1F5803F12D0B1F5003F6E
:1003F00028D111E0154A826025E00822C26022E07F
:100400001022C2601FE0082202611CE0102202617B
:1004100019E00822426016E01022426013E0042234
:10042000426010E0042242600DE0042242600AE0D3
:10043000002282610422426005E0002282610422DF
:10044000426000E000BF00BF7047000001010100F2
:1004500010B500F055FB00F003FB00F029FB00F0A5
:10046000BEFC00F0D0FC00F0A1FB10BD10B50446AE
:100470000B48844209D10121480601F03DFE0021CC
:100480004FF0007001F038FE08E00121880601F00D
:1004900033FE00214FF0806001F02EFE10BD000001
:1004A0000064004021B9C26842F02002C26003E04B
:1004B000026942F0200202617047000010B500217D
:1004C000837A012202FA03F13D4A126842F00102E6
:1004D0003B4B1A603A4A1C3212688A43384B1C3331
:1004E0001A60027BCAB9364A0C3212688A43344B0E
:1004F0000C331A604288C38842EA0343304A4032D0
:10050000847A42F834300288838842EA03432C4AD2
:100510004032847A02EBC4025360027B012A19D173
:10052000274A0C3212680A43254B0C331A60428862
:10053000038842EA0343224A4032847A42F8343044
:10054000C288838842EA03431D4A4032847A02EB20
:10055000C4025360C27A3AB9194A121D12688A431A
:10056000174B1B1D1A6006E0154A121D12680A433C
:10057000134B1B1D1A60028932B9114A14321268DA
:100580008A430F4B14331A600289012A06D10C4AA0
:10059000143212680A430A4B14331A60427B012A50
:1005A00006D1074A1C3212680A43054B1C331A60F5
:1005B000034A126822F00102014B1A6010BD0000CC
:1005C000006600401AB143690B43436102E043698E
:1005D0008B434361704730B5024600200023146806
:1005E00024F002041460146844F00104146000E074
:1005F0005B1C546804F001041CB94FF6FF74A3425D
:10060000F6D1546804F001040CB900206CE08C7938
:10061000012C04D1146844F08004146003E01468D1
:1006200024F080041460CC79012C04D1146844F0C7
:100630004004146003E0146824F0400414600C7A51
:10064000012C04D1146844F02004146003E0146801
:1006500024F0200414604C7A012C04D1146844F076
:100660001004146003E0146824F0100414608C7A01
:10067000012C04D1146844F00804146003E01468E9
:1006800024F008041460CC7A012C04D1146844F0DE
:100690000404146003E0146824F0040414608C78EB
:1006A000A407CD7844EA05640D7944EA05444D7900
:1006B00044EA05540D886D1E2C43D461146824F05F
:1006C00001041460002300E05B1C546804F0010482
:1006D0001CB14FF6FF74A342F6D1546804F0010434
:1006E0000CB1002000E0012030BD30B505460C46BD
:1006F000134605F5D87000EB0410006800F0040004
:100700001872187A50B905F5D87000EB041000681B
:1007100040F2FF7101EA5050186009E005F5D87009
:1007200000EB041000686FF0604101EAD0005860EF
:1007300005F5D87000EB0410006800F00200587254
:1007400005F5D87000EB0410406800F00F009872B7
:1007500005F5D87000EB04104068000AD87405F560
:10076000D87000EB041040684FF6FF7101EA1040AA
:10077000988205F5D87000EB04108068D87205F5F2
:10078000D87000EB04108068010A197305F5D87061
:1007900000EB04108068010C597305F5D87000EB6C
:1007A00004108068000E987305F5D87000EB0410F3
:1007B000C068D87305F5D87000EB0410C068010A52
:1007C000197405F5D87000EB0410C068010C597459
:1007D00005F5D87000EB0410C068000E987421462F
:1007E0002846FFF75FFE30BD00218171C1710172A3
:1007F00041728172C1728170C17003210171022145
:10080000417101210180704710B5024600209368B4
:1008100003F08063B3F1806F00D110E0936803F0C0
:100820000063B3F1006F01D1012008E0936803F089
:100830008053B3F1805F01D1022000E0042004283E
:1008400074D002F5C07303EB00131B6803F00104BE
:1008500002F5C07303EB00131C600B7A7BB94B7A73
:100860000C8843EA445302F5C07404EB0014246876
:10087000234302F5C07404EB0014236010E00B7AEC
:100880004C6843EAC4034C7A234302F5C07404EB7A
:1008900000142468234302F5C07404EB00142360A1
:1008A0008B7A03F00F038B7202F5C07303EB001316
:1008B0005B6823F00F0402F5C07303EB00135C6068
:1008C00002F5C07303EB00135B688C7A234302F5D7
:1008D000C07404EB001463608B7B1C064B7B44EA02
:1008E00003440B7B44EA0323CC7A234302F5C07410
:1008F00004EB0014A3608B7C1C064B7C44EA03448D
:100900000B7C44EA0323CC7B234302F5C07404EB45
:100910000014E36002F5C07303EB00131B6843F09F
:10092000010402F5C07303EB00131C6010BD024606
:10093000002021B1012910D002292CD11CE093689C
:1009400003F0010340EA8300936803F002031843B5
:100950009368C3F3806318431FE0936803F48073C4
:1009600040EA9310936803F4007340EA13209368FD
:10097000C3F3C063184310E0936803F4803340EA84
:100980009330936803F4003340EA13409368C3F351
:100990000073184301E0002000BF00BF20B105280C
:1009A00004D0072806D103E0022005E0002003E080
:1009B000012001E0002000BF00BF704700B587B0F4
:1009C0000121480601F088FB00F009FA00F0EEF87A
:1009D0002248FFF74BFD04A8FFF706FF01208DF822
:1009E00016008DF817008DF8180000208DF81900FA
:1009F0008DF81A008DF81B008DF8120003208DF879
:100A0000130002208DF8140000208DF815002D2011
:100A1000ADF8100004A91148FFF7DDFD01208DF8A5
:100A20000D000020ADF808008DF80A008DF80B00CD
:100A300001208DF80C000020ADF80000ADF8020098
:100A4000ADF80400ADF80600012202210348FFF7CB
:100A5000B9FD6846FFF732FD07B000BD00640040F5
:100A60001FB501208DF80D000020ADF808008DF8AD
:100A70000A008DF80B0001208DF80C002020ADF845
:100A800000000020ADF80200012202210748FFF714
:100A900099FD4FF69F70ADF804004FF6FF70ADF86A
:100AA00006006846FFF70AFD1FBD00000064004015
:100AB0001FB501208DF80D00ADF808008DF80A0073
:100AC00000208DF80B0001208DF80C0042F26040F0
:100AD000ADF800000020ADF8020001221021074807
:100AE000FFF770FD4FF61F70ADF804004FF6FF7072
:100AF000ADF806006846FFF7E1FC1FBD006400404A
:100B00000EB50121480601F0E7FA1548FFF7AEFCE3
:100B10006846FFF769FE01208DF806008DF8070092
:100B20008DF8080000208DF809008DF80A008DF876
:100B30000B008DF8020003208DF8030002208DF8D1
:100B4000040000208DF805002D20ADF80000694656
:100B50000348FFF740FD69460148FFF73CFD0EBD25
:100B6000006400407047000000B585B0684601F0A1
:100B7000E3FA6FF0040001F0E1FD002001F025FE32
:100B800007490198B0FBF1F0064908704FF4FA519B
:100B90000198B0FBF1F00449088005B000BD0000E9
:100BA00000127A002A0000202C00002008B5012144
:100BB000142001F0B1FA4FF40060ADF800000320FA
:100BC0008DF8020048208DF8030069460F4800F0B8
:100BD00021F84FF48050ADF8000003208DF802009A
:100BE00018208DF803006946084800F013F84FF408
:100BF000C040ADF8000003208DF8020010208DF8F1
:100C000003006946024800F005F808BD00080140ED
:100C1000001001402DE9F041024600250026002089
:100C200000230024002791F803C00CF00F0591F871
:100C300003C00CF0100CBCF1000F03D091F802C0FF
:100C40004CEA050591F800C0BCF1000F31D01468E2
:100C500000202BE04FF0010C0CFA00F3B1F800C0BB
:100C60000CEA03069E4220D183004FF00F0C0CFAD1
:100C700003F7BC4305FA03FC4CEA040491F803C0F3
:100C8000BCF1280F06D14FF0010C0CFA00FCC2F8A1
:100C900014C00AE091F803C0BCF1480F05D14FF031
:100CA000010C0CFA00FCC2F810C0401C0828D1D37B
:100CB0001460B1F800C0BCF1FF0F34DD54680020AF
:100CC0002EE000F1080C4FF0010808FA0CF3B1F81F
:100CD00000C00CEA03069E4221D183004FF00F0CA6
:100CE0000CFA03F7BC4305FA03FC4CEA040491F840
:100CF00003C0BCF1280F05D100F1080C08FA0CF86C
:100D0000C2F8148091F803C0BCF1480F07D100F17C
:100D1000080C4FF0010808FA0CF8C2F81080401CCB
:100D20000828CED35460BDE8F0814161704701616D
:100D3000704700BFFEE7000008B501211C2001F04C
:100D4000EBF90720ADF8000010208DF80300032018
:100D50008DF8020069461148FFF75CFF07210F4834
:100D6000FFF7E3FF4FF40050ADF8000069460C4870
:100D7000FFF750FF4FF400510948FFF7D8FF4FF439
:100D80007E70ADF8000069460648FFF743FF4FF458
:100D900078710448FFF7C9FF08BD00000008014052
:100DA00000100140000C014000BFFEE710B50146F5
:100DB000002200200CE000EB4003074C34F8133015
:100DC0008B4204D100EB400304EB43039A88401CA0
:100DD0000628F0DD104610BDE8000020704708B579
:100DE0004FF4A06000F05CF814208DF800000020A3
:100DF0008DF801008DF8020001208DF8030068468F
:100E000000F016F808BD08B54FF4A06000F048F8EF
:100E100015208DF8000000208DF8010001208DF8CC
:100E200002008DF80300684600F002F808BD0000DB
:100E300070B5002100230F22C47804B3154C246838
:100E400004F4E064C4F5E064210AC1F10403CA407B
:100E5000447804FA03F184781440214309010E4CCC
:100E60000678A155047804F01F050124AC400578EC
:100E70006D11AD0005F1E025C5F8004109E00478E9
:100E800004F01F050124AC40044D0678761145F8A6
:100E9000264070BD0CED00E000E400E080E100E0E1
:100EA00002490143024A1160704700000000FA0540
:100EB0000CED00E0FFF782FD25A002F065F9254862
:100EC00002F062F9244802F05FF924A002F05CF914
:100ED000214802F059F91F4802F056F9012241F663
:100EE0001F4140F2CF7001F071FD002241F61F4119
:100EF00041F2873001F0E4FC01201F49087026E030
:100F00001E480088012809D101F094FA1C480168A4
:100F10001CA002F039F900201849088022480088F6
:100F2000012814D12148017821A002F02DF90123D4
:100F300003220421022001F00DFB00201A49088041
:100F40001A480078042802DB002018490870D7E707
:100F50000D0A0000D03C00088C3C00082A20204DDF
:100F60006173746572204E6F6465A3A15E5F5E203D
:100F7000202A0D0A000000009C010020240000200F
:100F8000200000207265666572656E6365206D6580
:100F900073736167652069732073656E743A2025E9
:100FA00064200D0A000000002600002048000020F8
:100FB0006D6173746572206E6F64652073656E6415
:100FC00073204D61737465724E756D4243203D25EB
:100FD000643A0D0A000000000EB500BF0120FE4972
:100FE0000870FFF735FAFDA002F0CEF8FC4802F0D9
:100FF000CBF8FC4802F0C8F8FBA002F0C5F8F948AD
:1010000002F0C2F8F64802F0BFF8002241F61F4194
:1010100040F6AC5001F0DAFCDAE3FD48008800F459
:10102000004000287ED0FA480088C0F30D06002456
:10103000C5E0F8480068032840DAF748005DF74942
:10104000F74A126841F82200F2480068401CF14952
:101050000860F348006802282AD1F0480068EF4988
:101060004968401AEF490860EC484068EB498968D4
:10107000401AED49086008460068FFF777F8054612
:10108000EA4801682846FFF785F80AD3E548006872
:10109000FFF76CF80546E54801682846FFF77AF83F
:1010A00003D20120E249087002E00220E049087002
:1010B000DB480068401CDA49086073E0D7484068A4
:1010C000D6490860084680684860D348005D88605B
:1010D0000320D0490860D1480068D0494968401AC7
:1010E000D0490860CD484068CC498968401ACE494B
:1010F000086008460068FFF739F80546CB480168E4
:101100002846FFF747F80AD3C6480068FFF72EF8CD
:101110000546C64801682846FFF73CF805D201207D
:10112000C34900E054E008703CE0BF480068FFF7A6
:101130001DF80546BD4801682846FFF721F803D28F
:10114000B948006803280EDCB6480068FFF70EF8BF
:101150000546B64801682846FFF712F807D2B1489D
:101160000068032803DD0220B14908701AE0AE4888
:10117000006810F1020F04DBAB48006810F1020FA9
:1011800003DA0320AA4908700CE0A748006810B1F0
:10119000A548006818B90420A549087002E0052098
:1011A000A34908709C48005DA249087000BF402117
:1011B000A14801F05FFE0128F9D1601C84B2B4425D
:1011C000FFF637AF9DA001F0DFFF002090490880B7
:1011D0009C48007801280ED19B48006808B901207E
:1011E00000E000209849086001F010F800209749BD
:1011F0000880944908709648007801287DD192486B
:10120000001D006808B9012000E000208E49091D7A
:1012100008608E480088042802DB00208B49088083
:101220006EA001F0B1FF894801888AA001F0ACFFEF
:101230009448017894480078944A1278CDE90020C7
:101240000291934803789348027893480178934831
:1012500001F09AFF924802889248018892A001F01A
:1012600093FF01F05FFC9E49086001F01BFD774889
:10127000008800EB40009B4901EB400040889A4900
:10128000088008460088FFF791FD984908800025EE
:1012900007E0974830F81520294696A001F074FF22
:1012A0006D1C8F4800688542F3DB8D48016899A06A
:1012B00001F06AFF8A480068002835D08C48008811
:1012C00050BB6248018899A001F05EFF5F49098820
:1012D00001EB4101834A02EB4101488800F0BAFE6C
:1012E0007F48006801280BDD81499E4A126831F869
:1012F0001200012241F61F4100E039E001F066FBD7
:101300007B48984A126830F81210974801F03CFF69
:1013100096A001F039FF0CE075490888012241F6DA
:101320001F4101F053FB04E0484801889CA001F0F4
:101330002BFF0120A649088044480088401C4349EF
:10134000088008460088042801DD00200880A1A04C
:1013500001F01AFFA8A001F017FF00203C49087017
:101360000120A64908607F4908600020A449086060
:10137000A4480088012824D1A348006808B90120A6
:1013800000E00020A0490860914801889FA001F07A
:10139000FBFE00F0B7FFA7490880A7A001F0F4FE0C
:1013A00095A001F0F1FEA3480088FFF7FFFCAC49CF
:1013B000088087480088401C8549088000209149A2
:1013C0000880A8480078012805D18F48001D0068D2
:1013D00000B949E14AE1FBE1AA0100200D0A000041
:1013E000D03C00088C3C00082A20206E6F646520E9
:1013F0003120676574732074686520726566657254
:10140000656E6365206D657373616765000000003C
:1014100044000020B8010020C8010020380300204B
:10142000AC010020B0010020B4010020C001002068
:101430008001002081010020003801400D0A0D0AC2
:101440000000000002000020B401224280000020C1
:101450000F0000202A2A2A2A2A2A2A2A2A2A2A2A65
:101460002025642E207265666572656E6365207343
:10147000746172742A2A2A2A2A2A2A2A2A2A200DE0
:101480000A0000000C0000200B0000200A000020D1
:10149000090000200800002007000020F0390008A3
:1014A00012000020100000202A2A2A74696D65208D
:1014B0007374616D702028616363756D756C617400
:1014C0006565642C206E657729206172652028256A
:1014D000642C202564292A2A2A200D0A00000000F5
:1014E00098010020AA0000209E010020A0010020F9
:1014F000C200002066696E616C54696D6572566148
:101500006C75655B25645D206973202564200D0A78
:10151000000000004D657354696D6573496E424368
:10152000206973202564200D0A0000002B2B2B2B33
:101530002B2B2B2B4E756D42633A20256420666958
:10154000727374206D6573736167652069732073AE
:10155000656E743A2B2B2B2B2B2B2B2B2B2B200D2F
:101560000A00000010010020483C00082B2B2B2B08
:101570002B2B2B2B436F6C756D6E203D313A666FB4
:1015800072206D6573736167652066696E69736843
:101590002B2B2B2B2B2B2B2B2B2B200D0A00000066
:1015A0002B2B2B474747206E6F7468696E6720743A
:1015B0006F2073656E64202120696E204E756D4228
:1015C000633A256420204747472B2B2B0D0A000048
:1015D000A60100202A2A2A2A2A2A2A2A2A2A2A2A4C
:1015E0007265666572656E636520656E64202A2A81
:1015F0002A2A2A2A2A2A2A2A200D0A000C01002037
:10160000CC0000200400002080012142232323235A
:10161000232323232323696E7465727275707420EB
:101620002564202323232323232323232323200D63
:101630000A000000A40100202323232323232323C3
:101640002323656E6420696E7465727275707423ED
:1016500023232323232323232323200D0A000000F5
:10166000A20100201C000020012000E000205949B8
:10167000086059480088B0F5907F14D15748006839
:1016800008B9012000E0002054490860544800785F
:10169000009054480378544802784F4801885348D2
:1016A00001F072FD91E04C48008840F2211188421F
:1016B00016D14A48001D006808B9012000E000204A
:1016C0004649091D0860464800780090454803785F
:1016D0004548027840480188454801F055FD74E0CE
:1016E0003D480088B0F5917F16D13C48083000682D
:1016F00008B9012000E00020384908310860384866
:1017000000780090374803783748027832480188DB
:10171000384801F039FD58E02F48008840F2231185
:10172000884216D12D480C30006808B9012000E02D
:1017300000202A490C310860294800780090294887
:10174000037829480278244801882B4801F01CFDC1
:101750003BE021480088B0F5927F16D11F48103039
:10176000006808B9012000E000201C491031086021
:101770001B48007800901B4803781B4802781648E5
:1017800001881E4801F000FD1FE01348008840F268
:101790002511884216D10F48001D006808B90120A4
:1017A00000E000200B49091D08600D4800780090FA
:1017B0000C4803780C48027807480188104801F06B
:1017C000E3FC02E00FA001F0DFFC002013490870E9
:1017D00023E40000840121421E0000209481214264
:1017E000170000201500002014000020443A0008D3
:1017F0009C3A0008F43A0008FC3B00084C3B000807
:10180000A43B00082A2A61726269747261727920AD
:1018100077696E646F7773202A2A00001C0000200D
:101820000EB500BF0120FB490870FEF711FEFAA0BB
:1018300001F0AAFCF94801F0A7FCF94801F0A4FC6A
:10184000F8A001F0A1FCF64801F09EFCF34801F07D
:101850009BFC002241F61F4140F6AC5001F0B6F867
:10186000D0E3FA48008800F4004000287ED0F74812
:101870000088C0F30D060024C5E0F5480068032881
:1018800040DAF448005DF449F44A126841F8220055
:10189000EF480068401CEE490860F04800680228E4
:1018A0002AD1ED480068EC494968401AEC490860C3
:1018B000E9484068E8498968401AEA4908600846EA
:1018C0000068FEF753FC0546E74801682846FEF726
:1018D00061FC0AD3E2480068FEF748FC0546E2488E
:1018E00001682846FEF756FC03D20120DF49087044
:1018F00002E00220DD490870D8480068401CD74942
:10190000086073E0D4484068D3490860084680689E
:101910004860D048005D88600320CD490860CE480B
:101920000068CD494968401ACD490860CA484068F6
:10193000C9498968401ACB49086008460068FEF723
:1019400015FC0546C84801682846FEF723FC0AD363
:10195000C3480068FEF70AFC0546C34801682846EC
:10196000FEF718FC05D20120C04900E054E00870E1
:101970003CE0BC480068FEF7F9FB0546BA48016840
:101980002846FEF7FDFB03D2B648006803280EDCAC
:10199000B3480068FEF7EAFB0546B34801682846ED
:1019A000FEF7EEFB07D2AE480068032803DD0220F5
:1019B000AE4908701AE0AB48006810F1020F04DB72
:1019C000A848006810F1020F03DA0320A749087045
:1019D0000CE0A448006810B1A248006818B90420BF
:1019E000A249087002E00520A04908709948005DEE
:1019F0009F49087000BF40219E4801F03BFA012832
:101A0000F9D1601C84B2B442FFF637AF9AA001F05E
:101A1000BBFB00208D4908809948007801280FD130
:101A20009848006808B9012000E000209549086046
:101A300000209349087000F0E9FB002092490880DB
:101A40009248007801287DD18E48001D006808B9B1
:101A5000012000E000208B49091D08608A480088A9
:101A6000042802DB0020884908806BA001F08CFB71
:101A70008548018886A001F087FB9148017891484C
:101A80000078914A1278CDE9002002918F480378BE
:101A90008F4802788F4801788F4801F075FB8F4896
:101AA00002888F4801888FA001F06EFB01F03AF8A0
:101AB0009A49086001F0F6F87348008800EB40008E
:101AC000974901EB40004088964908800846008805
:101AD000FFF76CF994490880002507E0934830F837
:101AE0001520294692A001F04FFB6D1C8B48006821
:101AF0008542F3DB8948016895A001F045FB8748E2
:101B0000006800282DD08948008810BB5E480188F5
:101B100095A001F039FB5C49098801EB4101804A3D
:101B200002EB4101488800F095FA7C4800680128E2
:101B30000BDD7E499A4A126831F81200012241F603
:101B40001F4100E031E000F041FF96A001F01CFBD6
:101B50000CE076490888012241F61F4100F036FF6B
:101B600004E0494801889CA001F00EFB0120A64931
:101B7000088045480088401C434908800846008882
:101B8000042801DD00200880A0A001F0FDFAA8A033
:101B900001F0FAFA00203D4908700120A5490860CB
:101BA0007F4908600020A4490860A44800880128F3
:101BB00024D1A348006808B9012000E00020A04912
:101BC0000860914801889FA001F0DEFA00F09AFBBE
:101BD000A6490880A6A001F0D7FA95A001F0D4FA92
:101BE000A2480088FFF7E2F8AB49088086480088E1
:101BF000401C85490880002090490880A74800784B
:101C0000012806D18E48001D006808B9012048E16E
:101C100046E1F7E1AB0100200D0A0000D03C0008CE
:101C20008C3C00082A20206E6F6465203220676596
:101C3000747320746865207265666572656E63658D
:101C4000206D65737361676500000000440000202B
:101C5000B8010020C801002038030020AC0100209A
:101C6000B0010020B4010020C0010020800100204C
:101C700081010020003801400D0A0D0A000000001B
:101C800002000020B4012242800000200F0000204A
:101C90002A2A2A2A2A2A2A2A2A2A2A2A2025642E75
:101CA000207265666572656E636520737461727417
:101CB0002A2A2A2A2A2A2A2A2A2A200D0A00000049
:101CC0000C0000200B0000200A000020090000206A
:101CD0000800002007000020F03900081200002052
:101CE000100000202A2A2A74696D65207374616DC2
:101CF000702028616363756D756C61746565642C13
:101D0000206E65772920617265202825642C2025A6
:101D100064292A2A2A200D0A0000000098010020C8
:101D2000AA0000209E010020A0010020C200002087
:101D300066696E616C54696D657256616C75655B40
:101D400025645D206973202564200D0A00000000D1
:101D50004D657354696D6573496E42432069732004
:101D60002564200D0A0000002B2B2B2B2B2B2B2B5B
:101D70004E756D42633A2025642066697273742043
:101D80006D6573736167652069732073656E743A5E
:101D90002B2B2B2B2B2B2B2B2B2B200D0A0000005E
:101DA000100100202B2B2B2B2B2B2B2B436F6C7517
:101DB0006D6E203D313A666F72206D657373616799
:101DC000652066696E6973682B2B2B2B2B2B2B2BB5
:101DD0002B2B200D0A0000002B2B2B474747206E92
:101DE0006F7468696E6720746F2073656E6420215C
:101DF00020696E204E756D42633A25642020474766
:101E0000472B2B2B0D0A0000A60100202A2A2A2A84
:101E10002A2A2A2A2A2A2A2A7265666572656E6328
:101E20006520656E64202A2A2A2A2A2A2A2A2A2A32
:101E3000200D0A000C010020CC000020040000202E
:101E40008001214223232323232323232323696E79
:101E500074657272757074202564202323232323F4
:101E6000232323232323200D0A000000A4010020A4
:101E700023232323232323232323656E6420696ED6
:101E80007465727275707423232323232323232301
:101E90002323200D0A000000A20100201C000020C6
:101EA00000205949086059480088B0F5907F14D146
:101EB0005748006808B9012000E000205449086034
:101EC00054480078009054480378544802784F48AA
:101ED0000188534801F058F991E04C48008840F2DD
:101EE0002111884216D14A48001D006808B9012016
:101EF00000E000204649091D08604648007800902F
:101F0000454803784548027840480188454801F033
:101F10003BF974E03D480088B0F5917F16D13C480C
:101F20000830006808B9012000E000203849083175
:101F300008603848007800903748037837480278BE
:101F400032480188384801F01FF958E02F480088CE
:101F500040F22311884216D12D480C30006808B990
:101F6000012000E000202A490C310860294800784F
:101F700000902948037829480278244801882B4892
:101F800001F002F93BE021480088B0F5927F16D1BC
:101F90001F481030006808B9012000E000201C49EB
:101FA000103108601B48007800901B4803781B48DC
:101FB0000278164801881E4801F0E6F81FE0134831
:101FC000008840F22511884216D10F48001D006894
:101FD00008B9012000E000200B49091D08600D48E8
:101FE000007800900C4803780C4802780748018874
:101FF000104801F0C9F802E00FA001F0C5F8002078
:10200000134908702DE40000840121421E000020C5
:1020100094812142170000201500002014000020A8
:10202000443A00089C3A0008F43A0008FC3B0008D7
:102030004C3B0008A43B00082A2A61726269747252
:102040006172792077696E646F7773202A2A0000A5
:102050001C00002010B50446A4F59070062822D27A
:10206000DFE800F003080D12171C4FF4907001F028
:1020700063FA1CE040F2211001F0E2FA17E04FF49D
:10208000917001F061FB12E040F2231001F022F8A0
:102090000DE04FF4927001F0A1FB08E040F2251032
:1020A00001F020FC03E003A001F06EF800BF00BFC8
:1020B00010BD000063616E20626520612061726264
:1020C000697472617279206D657373616765200D43
:1020D0000A0000007047000029B1064AD269024395
:1020E000044BDA6104E0034AD2698243014BDA61AE
:1020F000704700000010024029B1064A12690243ED
:10210000044B1A6104E0034A12698243014B1A61CD
:10211000704700000010024029B1064A926902434C
:10212000044B9A6104E0034A92698243014B9A612D
:10213000704700000010024030B50021002200244A
:1021400000232D4D6D6805F00C0121B1042905D047
:10215000082923D105E0294D056022E0274D0560BF
:102160001FE0254D6D6805F47012234D6D6805F470
:102170008034022505EB92421CB9214D5543056080
:102180000BE01D4D6D6805F400351DB11C4D554328
:10219000056002E0194D5543056002E0174D0560EA
:1021A00000BF00BF144D6D6805F0F0010909154D21
:1021B0006B5C0568DD4045600F4D6D6805F4E061BE
:1021C000090A104D6B5C4568DD4085600A4D6D68FD
:1021D00005F46051C90A0B4D6B5C4568DD40C56074
:1021E000054D6D6805F44041890B074D6B5CC56872
:1021F000B5FBF3F5056130BD0010024000127A0016
:1022000000093D002F0000203F00002070B52C4841
:1022100000782C4908602C4800782C4908602C482C
:1022200000782849096801EB41012A4A02EB410183
:10223000264A126821F812002248006800EB40008C
:10224000244901EB40002149096830F81100224976
:10225000097840EA01211B48006800EB40001D4A54
:1022600002EB4000194A126820F812101B4801784E
:102270001448006800EB4000194A1044134A1268E1
:10228000815410480068114909684843002815DB4B
:10229000002411E000250CE004EB44000D4901EBA3
:1022A000400030F815302A4621460EA000F06CFFA1
:1022B0006D1C032DF0DB641C042CEBDB70BD0000F7
:1022C0000700002028010020080000202C01002029
:1022D00009000020AA0000200A0000200B000020B6
:1022E000900200207265636569766564206D617493
:1022F0007269782020256420256420252378200D0C
:102300000A00000010B53648008860BB35490978DE
:10231000491E01EB4101344A02EB4101334A344B7F
:102320001B6852F8232031F81200FFF793FE304863
:102330000068401C2E4908602E480088401C2E4929
:102340000968884204DB00212C4800F072FB3BE066
:102350002349274A126831F81200012241F61F4131
:1023600000F034FB30E01F490978491E01EB4101C0
:102370001D4A02EB410222490968491E1B4B53F8D2
:10238000211032F81100FFF765FE1A4800881A493B
:102390000968884204DB0021184800F04AFB13E07A
:1023A0000F49174A126831F81200012241F61F4105
:1023B00000F00CFB1248016812A000F0E5FE104886
:1023C0000068401C0E4908600648007800EB400099
:1023D000054901EB40000749098830F8110010BD9C
:1023E000C200002080000020AA000020BC020020C3
:1023F00010010020A60100209801002000040040E8
:102400000C0100204E6F77207468652066696E614C
:102410006C54696D657256616C7565207368696688
:10242000742076616C75652069732025640D0A003F
:1024300070470000F0B587B00746012001900020EA
:102440008DF80D008DF80C0005208DF80E0000248D
:102450004AE0002545E0E0B28DF80F008DF81050FD
:1024600004EB4400244901EB400010F815108DF8EE
:10247000111004EB4400204901EB400030F8150036
:1024800001128DF8121004EB44001C4901EB4000CE
:1024900010F815108DF8131001A91948FEF7B4F9BA
:1024A00006464FF4167000F0EFFF00BF31461448A7
:1024B000FEF73DFA0028F9D02A46214611A000F087
:1024C00063FE9DF8111014A000F05EFE9DF812103E
:1024D00016A000F059FE9DF8131019A000F054FE4C
:1024E0006D1C032DB7DB641C042CB2DB0C208DF8B3
:1024F0000F0007B0F0BD000092000020D0000020C7
:102500000064004069203D2025642C6A203D202580
:102510006420200D0A000000534D2069732073656C
:102520006E74323A202523780D0A0000534D20693D
:10253000732073656E74333A20252378200D0A00CA
:10254000534D2069732073656E74343A20252378C7
:10255000200D0A002DE9F04186B004460E461746CC
:102560009846042028490870032028490870012053
:102570002749087027480078274908700420274910
:102580000870052026490870009400208DF8090085
:102590008DF8080008208DF80A001B4800788DF897
:1025A0000B001A4801788DF80C10194801788DF845
:1025B0000D10194801788DF80E10184801788DF823
:1025C0000F10174801788DF8101069461548FEF76E
:1025D0001BF90546144A0598D2E90032C01842F1A9
:1025E0000001114A03C20020059000BF29460D4892
:1025F000FEF79DF90028F9D00B480CC80BA000F09D
:10260000C3FD06B0BDE8F08158000020590000204D
:102610005A000020480000205B0000205C000020E1
:102620005D000020006400405000002054686520D8
:1026300073656E64696E67207265666572656E6348
:10264000652074696D652069732020256C6C642099
:102650000D0A000010B500F001F810BD0CB5002007
:10266000019000903348006840F4803031490860A0
:1026700000BF3048006800F4003000900198401C12
:102680000190009818B90198B0F5A06FF1D12948D0
:10269000006800F4003010B10120009001E000203B
:1026A00000900098012843D12348006840F01000B2
:1026B000214908600846006820F0030008600846C9
:1026C000006840F0020008601A48406819494860F4
:1026D0000846406848600846406840F480604860AA
:1026E0000846406820F47C1048600846406840F482
:1026F000E81048600846006840F08070086000BF3D
:102700000C48006800F000700028F9D009484068C3
:1027100020F00300074948600846406840F0020086
:10272000486000BF0348406800F00C000828F9D159
:102730000CBD00000010024000200240042808D117
:102740004FF0E021096941F004014FF0E0221161EE
:1027500007E04FF0E021096921F004014FF0E02289
:1027600011617047012808D14FF0E021096941F05B
:1027700001014FF0E02211610EE0811C41B94FF0E0
:10278000E021096921F001014FF0E022116103E02D
:1027900000214FF0E0229161704710B50146002200
:1027A00000230020CB10022B03D14FF0E02422693C
:1027B00002E04FF0E024E26901248C4014400CB1A7
:1027C000012000E0002010BD704740B14FF0E02133
:1027D000096941F002014FF0E022116107E04FF07A
:1027E000E021096921F002014FF0E02211617047F8
:1027F0004FF0E0214861704710B51348006840F081
:1028000001001149086008464068104908400E4917
:102810004860084600680E4908400B4908600846B1
:10282000006820F4802008600846406820F4FE001C
:1028300048604FF41F008860FFF70CFF4FF0006006
:102840000449086010BD0000001002400000FFF8BD
:10285000FFFFF6FE08ED00E010B50121880700F04B
:10286000F4F8A8B10121880700F0E0F809480078E1
:10287000012807D10849088008480078401C07490A
:10288000087005E006A000F07FFC01200B490870ED
:1028900010BD00009C010020260000204800002000
:1028A00074696D65723220696E74657272757074C8
:1028B00020636F6D6573200D0A0000002800002062
:1028C0007FB506460C46154601210846FFF704FC75
:1028D000ADF80860ADF804400020ADF80A00ADF88E
:1028E000060001A94FF0804000F0CAF8012211460D
:1028F000900700F0BBF81C208DF8000000208DF838
:10290000010004208DF8020001208DF803006846C4
:10291000FEF78EFA29464FF0804000F08AF87FBD1E
:1029200010B50121184800F090F800282AD00121A4
:10293000154800F07BF81548007801281FD114488D
:10294000006808B9012000E0002011490860114822
:102950000068401C0F490860084600680A280AD32E
:102960000DA000F011FC0021074800F062F80121E1
:10297000880700F05EF801201249088002E001207B
:102980001149088010BD0000000400409C01002097
:10299000B8012242200000204E6F77207468652025
:1029A000534D2069732073656E7420746F20616CC1
:1029B0006C2074686520736C617665206E6F646549
:1029C0007300000024000020040000207FB50646AC
:1029D0000C46154601210220FFF77EFBADF808608A
:1029E000ADF804400020ADF80A00ADF8060001A9DA
:1029F0000D4800F045F8012211460B4800F036F86A
:102A00001D208DF8000000208DF8010003208DF8B6
:102A1000020001208DF803006846FEF709FA2946F6
:102A2000014800F006F87FBD00040040CA4302825E
:102A3000704721B1028842F00102028004E002885E
:102A40004FF6FE731A400280704730B502460020F0
:102A500000230024158A05EA0103958905EA01048B
:102A600013B10CB1012000E0002030BD1AB1838900
:102A70000B43838102E083898B438381704700008D
:102A8000002202881D4B98420ED01D4B98420BD05D
:102A9000B0F1804F08D01B4B984205D01A4B98429A
:102AA00002D01A4B984204D14FF68F731A404B88CC
:102AB0001A43174B984207D0164B984204D04FF652
:102AC000FF431A40CB881A4302808B8883850B888A
:102AD00003850A4B98420BD0094B984208D00E4B05
:102AE000984205D00D4B984202D00D4B984201D12F
:102AF0000B7A03860123838270470000002C01407B
:102B0000003401400004004000080040000C004078
:102B1000001000400014004000400140004401400B
:102B2000004801402DE9FC410024A046002037E088
:102B3000002132E000EB40024D4B03EB420232F841
:102B400011804C4A1278012A11D100220CE04A4B24
:102B500033F81230434506D1484B43F8340003EBB9
:102B6000C4035960641C521C032AF0D314E0444A85
:102B70001278012A10D100220CE0424B33F81230B7
:102B8000434506D13D4B43F8340003EBC403596081
:102B9000641C521C032AF0D3491C0329CADB401CC5
:102BA0000428C5DB002538480068A04202DB00206D
:102BB000354908603449086814E0304951F830104C
:102BC000324A127891420CD12C4901EBC00149687C
:102BD0002F4A42F825106D1C2B490968491C2A4AC6
:102BE0001160401CA042E8DB00200090019000270B
:102BF00000BF0DE0264951F82010491E254A1160FA
:102C00001146098889B22DF81710791C8FB2401C23
:102C1000A842EFDBBDF800101F48FDF789FB1F49F4
:102C20000860012608E03DF816101B48FDF780FB00
:102C30001A4941F82600761CAE42F4DB002011E070
:102C400016490988164A118001280ADB134931F810
:102C50002020411E114B33F82110511A104A22F83E
:102C60001010401CA842EBDB2846BDE8FC810000A8
:102C7000AA000020AA01002086000020CC0200202B
:102C8000AB0100208C0000201C01002080000020EF
:102C9000BC020020CC000020820000202C03002079
:102CA000C20000202DE9F041002500260027002465
:102CB000012119E0124830F81160002011E000EB0A
:102CC0004002104B33F81250AE4209D100EB4002E3
:102CD00003EB420297880C4A22F81470621CD4B2AB
:102CE000401C0628EBDB491C0329E3DB06488388EC
:102CF0004288018805A000F047FABDE8F081000095
:102D0000AA000020E80000208200002074696D65A0
:102D100072206C697374206172653A205B25642CA3
:102D20002025642C2025645D200D0A0010B540F29A
:102D300025511D4800F0ABF810B31B4800F062F9B4
:102D4000C4B21A48008800F40040C8B91748008887
:102D500000F4804060B10A2C03D0002013490880A1
:102D600020E01248008840F400401049088019E033
:102D70000D2C06D10D48008840F480400B49088096
:102D800010E00A480088C0F30D0009490C540748B8
:102D90000088401C0549088008460088C72801DDD6
:102DA0000020088010BD00000038014044000020D1
:102DB000C801002021B1828942F40052828104E0DE
:102DC00082894DF6FF731A408281704700B587B043
:102DD000012144F20400FFF79FF94FF40070ADF8B1
:102DE000180018208DF81B0003208DF81A0006A982
:102DF0001E48FDF70FFF4FF48060ADF81800042067
:102E00008DF81B0003208DF81A0006A91748FDF75E
:102E100001FF25208DF8040003208DF805008DF8B2
:102E2000060001208DF8070001A8FEF701F84FF415
:102E3000612002900020ADF80C00ADF80E00ADF856
:102E40001000ADF814000C20ADF8120002A90848DB
:102E500000F06CF8012240F22551054800F041F8DD
:102E600001210348FFF7A6FF07B000BD000801409D
:102E70000038014002460020B1F5007F00D100BFBC
:102E800013880B400BB1012000E00020704770B5A3
:102E90000246002400230025002040F66A16B142B5
:102EA00000D100BFC1F3421501F01F03012606FA4D
:102EB00003F3012D02D19689334006E0022D02D1A1
:102EC000168A334001E0968A33400C12012606FA36
:102ED00004F41688344013B10CB1012000E0002046
:102EE00070BDF0B50346002400260025002040F602
:102EF0006A17B94200D100BF1846C1F3421401F06D
:102F00001F06012707FA06F5012C01D10C3004E059
:102F1000022C01D1103000E014301AB107682F43A1
:102F2000076002E00768AF430760F0BD2DE9F04796
:102F300086B005460E460024A24600BFA1460027E3
:102F4000B08900B100BF2F462C8A4CF6FF700440B8
:102F5000F08804432C82AC894EF6F3100440B0880C
:102F600031890843718908430443AC81AC8A4FF628
:102F7000FF400440B0890443AC8201A8FFF7DCF8AD
:102F80001F48874202D1DDF810A001E0DDF80CA057
:102F9000A88900F4004040B10AEBCA0000EB0A1017
:102FA00031684900B0FBF1F807E00AEBCA0000EB1A
:102FB0000A1031688900B0FBF1F86420B8FBF0F02A
:102FC00004012009642101FB1089A88900F4004054
:102FD00040B1322000EBC900B0FBF1F000F0070077
:102FE000044308E0322000EB09106421B0FBF1F04B
:102FF00000F00F0004432C8106B0BDE8F08700000C
:103000000038014001468888C0F308007047C1F3CA
:10301000080282807047000000B587B001AA002135
:103020001F48FDF762FB1F49019808809DF80F00BB
:103030001D4908709DF810001C4908709DF811008A
:103040001B4908709DF812001A4908709DF813007A
:10305000194908709DF8140018490870BDF8180047
:1030600017490880BDF81800164909880844154911
:1030700008800020ADF8180002210948FDF794F9F6
:1030800008480088012802D10F49088006E0054859
:103090000088022802D101200C49087007B000BD49
:1030A000006400400000002007000020080000200D
:1030B000090000200A0000200B0000200C00002066
:1030C0001200002010000020020000200F0000204D
:1030D00000BFFEE730B587B004461A480078401CB0
:1030E00018490870084600781749087001940020B4
:1030F0008DF80D008DF80C0008208DF80E00134897
:1031000000788DF80F00124801788DF810100E48E5
:1031100001788DF8121001A90E48FDF775FB0546E0
:10312000022000F0B1F900BF29460A48FDF7FFFB75
:103130000028F9D022460348017807A000F024F8BF
:1031400007B030BD60010020830100208001002015
:1031500081010020006400403E3E3E3E3E696E63B9
:1031600072656173655F666C6167202523782C202A
:10317000494420202523782069732073656E743CB0
:103180003C3C3C3C0D0A00000FB4054B10B503A9B4
:10319000044A029800F018F810BC5DF814FB000017
:1031A000DD340008C401002002E008C8121F08C175
:1031B000002AFAD170477047002001E001C1121FB8
:1031C000002AFBD1704700002DE9FF4F8DB09B46D0
:1031D0000F460446002606E025280BD05A460F99D4
:1031E0009047641C761C20780028F5D111B0304639
:1031F000BDE8F08F0025A8460122984900E005436C
:1032000014F8013F203B02FA03F00842F7D120787E
:103210002E2817D114F8010F45F004052A280ED0E6
:103220006FF02F022078A0F1300109290AD808EBAD
:10323000880102EB410100EB0108641CF2E757F83A
:10324000048B641C20786C280DD004DC4C2812D030
:103250006A2811D104E074280DD07A280CD10AE034
:1032600045F4001507E0617845F48015814202D1EC
:10327000641C05F58015641C2078692844D008DC9E
:103280000028B3D0582867D063280FD0642808D10D
:103290003AE0702865D0732812D075285AD0782863
:1032A0005AD05A460F999047761CD5E017F8040B70
:1032B0008DF8000000208DF80100E946012003E0B0
:1032C00057F8049B4FF0FF3069074FF0000501D419
:1032D0000AE06D1C45450DDA8542FADB19F8051048
:1032E0000029F6D106E06D1C8542FCDB19F80510BB
:1032F0000029F8D12E4404E019F8010B5A460F9921
:1033000090476D1EF8D2A7E00A200021CDE9080100
:10331000C5F3025002280CD001CFC117021E71F173
:1033200000020CDA0023D0EB030063EB01012D2235
:1033300008E0FF1D27F00707F7E80201EEE72A057E
:1033400004D52B228DF8282001223CE0EA073AD050
:103350002022F7E70A2000E010200021CDE9080133
:1033600007E01020002145F00405CDE908014FF0E9
:103370000808C5F30250022810D001CF00214FF0F9
:10338000000A2A0720D52278702A0DD0DDE908C36B
:103390008CF0100C5CEA030C0CD015E0FF1D27F03C
:1033A0000707F7E80201EAE740228DF828204FF0EE
:1033B000010A0CE050EA010306D030238DF82830D2
:1033C0008DF82920022292462278582A04D024A27D
:1033D0000DF120090B9209E026A2F9E7DDE90823A7
:1033E000FCF7E2FE0B9B9B5C09F8013D50EA0102F1
:1033F000F4D1ADEB090020300890680701D44FF0FC
:1034000001080899884503DD0898A8EB000000E052
:1034100000208046002506E00AA85A46405D0F9924
:1034200090476D1C761C5545F6DB04E030205A466B
:103430000F999047761CB8F10001A8F10108F5DC5E
:1034400005E019F8010B5A460F999047761C089928
:10345000481E08900029F4DC641CC4E60928010019
:1034600030313233343536373839616263646566FA
:1034700000000000303132333435363738394142BC
:10348000434445460000000070B5044611480088DA
:1034900000FB04F5B5F1807F01D36FF07F4528462E
:1034A000FFF7A6F90020FFF75DF90120FFF75AF9B1
:1034B00000BF1020FFF771F907490870084600782F
:1034C0000128F6D1C01EFFF74DF90020FFF74AF999
:1034D00070BD00002C0000202E00002070B50446B6
:1034E0000D46E1B20548FFF792FD00BF40210348B9
:1034F000FFF7C0FC0028F9D0204670BD003801401D
:1035000010B5FDF731FBFDF717FCFFF75FFC00205E
:1035100020B1012805D0022809D105E0FDF7CAFC39
:1035200006E0FDF759FD03E0FEF77AF900E000BF81
:1035300000BF002010BD000030B587B00446012058
:103540002A4908702A49087003202A490870042073
:103550002949087005202949087006202849087063
:10356000019400208DF80D008DF80C0008208DF8D6
:103570000E001E4800788DF80F001D4801788DF868
:1035800010101C4801788DF811101B4801788DF837
:1035900012101A4801788DF81310194801788DF827
:1035A000141001A91748FDF72FF905460120FFF770
:1035B0006BFF154A0698D2E90032C01842F10001AB
:1035C000114A03C20020069000BF29460D48FDF7AE
:1035D000AEF90028F9D00C480CC80CA0FFF7D4FDB8
:1035E000214610A0FFF7D0FD07B030BD68010020D4
:1035F000690100206A0100206B0100206C0100209D
:103600006D010020006400403001002074696D6588
:103610005478207374616D7020256C6C64200D0AE1
:10362000000000003E3E3E3E3E49442020252378D7
:103630002069732073656E743C3C3C3C3C0D0A0071
:1036400030B587B0044602202A4908702A4908701C
:1036500003202A49087004202949087005202949B7
:103660000870062028490870019400208DF80D008C
:103670008DF80C0008208DF80E001E4800788DF89B
:103680000F001D4801788DF810101C4801788DF846
:1036900011101B4801788DF812101A4801788DF826
:1036A0001310194801788DF8141001A91748FDF777
:1036B000ABF805460120FFF7E7FE154A0698D2E968
:1036C0000032C01842F10001114A03C200200690E6
:1036D00000BF29460D48FDF72AF90028F9D00C480B
:1036E0000CC80CA0FFF750FD214610A0FFF74CFDC1
:1036F00007B030BD70010020710100207201002070
:103700007301002074010020750100200064004056
:103710003801002074696D655478207374616D7090
:1037200020256C6C64200D0A000000003E3E3E3EE9
:103730003E494420202523782069732073656E74E8
:103740003C3C3C3C3C0D0A0030B587B00446174871
:103750000078401C15490870019400208DF80D0078
:103760008DF80C0008208DF80E00114800788DF8B7
:103770000F00104801788DF810100F4801788DF86F
:10378000121001A90D48FDF73FF805460120FFF78B
:103790007BFE00BF29460948FDF7C9F80028F9D08B
:1037A000214607A0FFF7F0FC07B030BD6001002004
:1037B00078010020790100207B0100200064004096
:1037C0003E3E3E3E3E49442020252378206973201A
:1037D00073656E743C3C3C3C3C0D0A0030B587B0D0
:1037E000044605202A4908702A49087003202A49FE
:1037F000087004202949087005202949087006200E
:1038000028490870019400208DF80D008DF80C00F7
:1038100008208DF80E001E4800788DF80F001D4816
:1038200001788DF810101C4801788DF811101B4894
:1038300001788DF812101A4801788DF81310194884
:1038400001788DF8141001A91748FCF7DDFF054633
:103850000220FFF719FE154A0698D2E90032C01877
:1038600042F10001114A03C20020069000BF294620
:103870000D48FDF75CF80028F9D00C480CC80CA0E6
:10388000FFF782FC214610A0FFF77EFC07B030BD99
:1038900088010020890100208A0100208B0100207E
:1038A0008C0100208D0100200064004050010020A8
:1038B00074696D655478207374616D7020256C6C2B
:1038C00064200D0A000000003E3E3E3E3E4944207A
:1038D000202523782069732073656E743C3C3C3C42
:1038E0003C0D0A0030B587B0044601202B49087012
:1038F00002202B49087003202A49087004202A4915
:10390000087005202949087006202949087001948B
:1039100000208DF80D008DF80C0008208DF80E00A9
:103920001E4800788DF80F001D4801788DF81010A2
:103930001C4801788DF811101B4801788DF8121081
:103940001A4801788DF81310194801788DF8141071
:1039500001A91848FCF758FF05460220FFF794FD1F
:10396000154A0698D2E90032C01842F10001124A05
:1039700003C20020069000BF29460E48FCF7D7FF7F
:103980000028F9D021460DA0FFF7FEFB0A480CC81D
:1039900011A0FFF7F9FB07B030BD00009001002037
:1039A0009101002092010020930100209401002049
:1039B0009501002000640040500100203E3E3E3E44
:1039C0003E494420202523782069732073656E7456
:1039D0003C3C3C3C3C0D0A0074696D655478207396
:1039E00074616D7020256C6C64200D0A000000006D
:1039F0002A2A726563656976655F2864617461303F
:103A00002C64617461312C64617461322C64617462
:103A100061332C64617461342C64617461352920D4
:103A20003D202825642C2025642C2025642C20256D
:103A3000642C2025642C20256420292A2A200D0AA4
:103A4000000000002A2A4D65733120494E464FA3DD
:103A5000BA2843414E52785F49442C205278315F56
:103A600044415441302C205278315F44415441311B
:103A70002C205278315F444154413329203D202885
:103A800020252378202C252378202C2025237820FE
:103A90002C20252378292A2A200D0A002A2A4D6560
:103AA000733220494E464FA3BA2843414E52785FA5
:103AB00049442C205278315F44415441302C2052EB
:103AC00078315F44415441312C205278315F444178
:103AD00054413329203D202820252378202C2523DC
:103AE00078202C20252378202C20252378292A2A89
:103AF000200D0A002A2A4D65733320494E464FA3F4
:103B0000BA2843414E52785F49442C205278315FA5
:103B100044415441302C205278315F44415441316A
:103B20002C205278315F444154413329203D2028D4
:103B300020252378202C252378202C20252378204D
:103B40002C20252378292A2A200D0A002A2A4D65AF
:103B5000733520494E464FA3BA2843414E52785FF1
:103B600049442C205278315F44415441302C20523A
:103B700078315F44415441312C205278315F4441C7
:103B800054413329203D202820252378202C25232B
:103B900078202C20252378202C20252378292A2AD8
:103BA000200D0A002A2A4D65733620494E464FA340
:103BB000BA2843414E52785F49442C205278315FF5
:103BC00044415441302C205278315F4441544131BA
:103BD0002C205278315F444154413329203D202824
:103BE00020252378202C252378202C20252378209D
:103BF0002C20252378292A2A200D0A002A2A41422E
:103C00005320494E464FA3BA2843414E52785F494C
:103C1000442C20776865656C207374617475732C0F
:103C200020737065656429203D2028202523782095
:103C30002C2564202C202564207270732C202523D1
:103C400078292A2A200D0A0066696E616C54696D14
:103C5000657256616C75655B66696E616C54696D01
:103C60006572417272617953686966745F7A6572D0
:103C70006F5D2076616C75653A2025642B2B2B2BAC
:103C80002B2B2B2B2B2B200D0A0000002A20202071
:103C90002020202020202020202020202020202024
:103CA0002020202020202020202020202020202014
:103CB0002020202020202020202020202020202004
:103CC0002020202020202020202020202A0D0A0033
:103CD0002A2A2A2A2A2A2A2A2A2A2A2A2A2A2A2A44
:103CE0002A2A2A2A2A2A2A2A2A2A2A2A2A2A2A2A34
:103CF0002A2A2A2A2A2A2A2A2A2A2A2A2A2A2A2A24
:103D00002A2A2A2A2A2A2A2A2A2A2A2A2A2A2A2A13
:103D10002A0D0A00343D000800000020C801000000
:103D2000DA020008A03D0008C8010020800500005C
:103D3000B831000801332D010203040400092706ED
:103D400007080902040608031A8713100E20012130
:103D5000012201230124012501011B230165091111
:103D60000609239D3928091006180E23011027582B
:103D70001B2201204ED00720064815B80B24013025
:103D800075A00F2501409CDC05210150C3FC082EC5
:103D90006948018C12010314102723C03F4370416E
:0400000508000131BD
:00000001FF
