:020000040800F2
:10000000C807002049010008010E0008570D00082C
:10001000CD0D00084B030008ED2F00080000000084
:10002000000000000000000000000000ED220008B9
:10003000890B000800000000AD1E0008852600089E
:100040006301000863010008630100086301000800
:1000500063010008630100086301000863010008F0
:1000600063010008630100086301000863010008E0
:1000700063010008630100086301000863010008D0
:1000800063010008630100086301000863010008C0
:10009000352F0008510300086301000863010008C0
:1000A00063010008630100086301000863010008A0
:1000B00015270008DD270008630100086301000818
:1000C0006301000863010008630100086301000880
:1000D000630100084D2C000863010008630100085B
:1000E0006301000863010008630100086301000860
:1000F0006301000863010008630100086301000850
:10010000630100086301000863010008630100083F
:10011000630100086301000863010008630100082F
:10012000630100086301000863010008630100081F
:10013000DFF810D000F0A0F80048004705340008B0
:10014000AFF30080C80700200648804706480047F4
:10015000FEE7FEE7FEE7FEE7FEE7FEE7FEE7FEE777
:10016000FEE7FEE7B526000831010008C10F80EA6E
:10017000E0700844CA079623002100F04FB8000041
:10018000002801DBC0F10040002901DBC1F1004182
:1001900081427047002801DBC0F10040002901DBEB
:1001A000C1F10041884270472DE9F05F054600200B
:1001B00092469B4688460646814640241BE02846D8
:1001C00041464746224600F078F853465A46C01A40
:1001D000914110D311461846224600F05FF82D1ABF
:1001E00067EB01084F4622460120002100F056F837
:1001F00017EB00094E41201EA4F10104DFDC484644
:1002000031462A464346BDE8F09F0029A8BF704703
:10021000401C490008BF20F00100704710B4B0FA3C
:1002200080FC00FA0CF050EA010404BF10BC7047D7
:1002300049B1CCF1200421FA04F411FA0CF118BFF1
:10024000012121430843A3EB0C01CB1D4FEA0061C0
:100250004FEA102042BF002010BC704700EBC35093
:1002600010440029A4BF10BC7047401C490008BFBF
:1002700020F0010010BC7047064C074D06E0E06816
:1002800040F0010394E8070098471034AC42F6D3DD
:10029000FFF752FF783C0008983C0008202A04DB56
:1002A000203A00FA02F1002070479140C2F1200389
:1002B00020FA03F3194390407047202A04DB203AC8
:1002C00021FA02F00021704721FA02F3D040C2F176
:1002D0002002914008431946704770B58C1810F8F9
:1002E000015B15F0070301D110F8013B2A1106D17B
:1002F00010F8012B03E010F8016B01F8016B5B1E95
:10030000F9D12B0705D40023521E0DD401F8013B6F
:10031000FAE710F8013BCB1A921C03E013F8015BDB
:1003200001F8015B521EF9D5A142D8D3002070BD5F
:1003300010B502460023002003E014882344921CD9
:10034000401C8842F9DB98B210BD00BFFEE70000F8
:1003500000B587B001AA0121134800F0D8F913496C
:10036000019808809DF80F00114908709DF8100051
:10037000104908709DF811000F4908709DF812008F
:100380000E4908709DF813000D4908709DF814007F
:100390000C4908701021044800F018F801200A499F
:1003A000087007B000BD0000006400401E0000207F
:1003B0001400002015000020160000201700002067
:1003C00018000020190000201C000020B1F5007F5B
:1003D0003AD00FDC202928D006DC01291CD00429C2
:1003E0001DD0082940D11DE0402921D0B1F5807FE2
:1003F0003AD126E0B1F5004F31D006DCB1F5806F7F
:1004000025D0B1F5006F2FD124E0B1F5803F12D097
:10041000B1F5003F28D111E0154A826025E008229D
:10042000C26022E01022C2601FE0082202611CE0CC
:100430001022026119E00822426016E01022426098
:1004400013E00422426010E0042242600DE0042226
:1004500042600AE0002282610422426005E000223C
:1004600082610422426000E000BF00BF70470000CC
:100470000101010010B500F055FB00F003FB00F096
:1004800029FB00F0BEFC00F0D0FC00F0A1FB10BD89
:1004900010B504460B48844209D10121480601F0F9
:1004A00017FD00214FF0007001F012FD08E001215E
:1004B000880601F00DFD00214FF0806001F008FD7D
:1004C00010BD00000064004021B9C26842F0200263
:1004D000C26003E0026942F020020261704700003E
:1004E00010B50021837A012202FA03F13D4A126815
:1004F00042F001023B4B1A603A4A1C3212688A43AE
:10050000384B1C331A60027BCAB9364A0C32126867
:100510008A43344B0C331A604288C38842EA03434F
:10052000304A4032847A42F834300288838842EA82
:1005300003432C4A4032847A02EBC4025360027BAC
:10054000012A19D1274A0C3212680A43254B0C3371
:100550001A604288038842EA0343224A4032847A7E
:1005600042F83430C288838842EA03431D4A40324D
:10057000847A02EBC4025360C27A3AB9194A121D56
:1005800012688A43174B1B1D1A6006E0154A121D9C
:1005900012680A43134B1B1D1A60028932B9114AB3
:1005A000143212688A430F4B14331A600289012AED
:1005B00006D10C4A143212680A430A4B14331A60EB
:1005C000427B012A06D1074A1C3212680A43054BB6
:1005D0001C331A60034A126822F00102014B1A60B0
:1005E00010BD0000006600401AB143690B4343612F
:1005F00002E043698B434361704730B502460020F7
:100600000023146824F002041460146844F0010408
:10061000146000E05B1C546804F001041CB94FF640
:10062000FF74A342F6D1546804F001040CB9002011
:100630006CE08C79012C04D1146844F080041460BF
:1006400003E0146824F080041460CC79012C04D1F8
:10065000146844F04004146003E0146824F040047B
:1006600014600C7A012C04D1146844F02004146046
:1006700003E0146824F0200414604C7A012C04D1A7
:10068000146844F01004146003E0146824F01004AB
:1006900014608C7A012C04D1146844F008041460AE
:1006A00003E0146824F008041460CC7A012C04D10F
:1006B000146844F00404146003E0146824F0040493
:1006C00014608C78A407CD7844EA05640D7944EA77
:1006D00005444D7944EA05540D886D1E2C43D461C0
:1006E000146824F001041460002300E05B1C5468CB
:1006F00004F001041CB14FF6FF74A342F6D1546814
:1007000004F001040CB1002000E0012030BD30B540
:1007100005460C46134605F5D87000EB041000683A
:1007200000F004001872187A50B905F5D87000EB83
:100730000410006840F2FF7101EA5050186009E0AF
:1007400005F5D87000EB041000686FF0604101EA15
:10075000D000586005F5D87000EB0410006800F078
:100760000200587205F5D87000EB0410406800F0E4
:100770000F00987205F5D87000EB04104068000A6D
:10078000D87405F5D87000EB041040684FF6FF717F
:1007900001EA1040988205F5D87000EB04108068DB
:1007A000D87205F5D87000EB04108068010A19733F
:1007B00005F5D87000EB04108068010C597305F53D
:1007C000D87000EB04108068000E987305F5D8709F
:1007D00000EB0410C068D87305F5D87000EB041066
:1007E000C068010A197405F5D87000EB0410C068E0
:1007F000010C597405F5D87000EB0410C068000EA8
:10080000987421462846FFF75FFE30BD00218171B4
:10081000C171017241728172C1728170C170032114
:1008200001710221417101210180704710B502461A
:100830000020936803F08063B3F1806F00D110E073
:10084000936803F00063B3F1006F01D1012008E069
:10085000936803F08053B3F1805F01D1022000E080
:100860000420042874D002F5C07303EB00131B6846
:1008700003F0010402F5C07303EB00131C600B7A54
:100880007BB94B7A0C8843EA445302F5C07404EBFD
:1008900000142468234302F5C07404EB00142360A1
:1008A00010E00B7A4C6843EAC4034C7A234302F508
:1008B000C07404EB00142468234302F5C07404EBF5
:1008C000001423608B7A03F00F038B7202F5C07360
:1008D00003EB00135B6823F00F0402F5C07303EB16
:1008E00000135C6002F5C07303EB00135B688C7A45
:1008F000234302F5C07404EB001463608B7B1C0679
:100900004B7B44EA03440B7B44EA0323CC7A234326
:1009100002F5C07404EB0014A3608B7C1C064B7CB6
:1009200044EA03440B7C44EA0323CC7B234302F5D3
:10093000C07404EB0014E36002F5C07303EB001312
:100940001B6843F0010402F5C07303EB00131C6045
:1009500010BD0246002021B1012910D002292CD15E
:100960001CE0936803F0010340EA8300936803F0FE
:10097000020318439368C3F3806318431FE093682E
:1009800003F4807340EA9310936803F4007340EA21
:1009900013209368C3F3C063184310E0936803F413
:1009A000803340EA9330936803F4003340EA134005
:1009B0009368C3F30073184301E0002000BF00BF39
:1009C00020B1052804D0072806D103E0022005E065
:1009D000002003E0012001E0002000BF00BF7047BD
:1009E00000B587B00121480601F062FA00F009FA6B
:1009F00000F0EEF82248FFF74BFD04A8FFF706FFD2
:100A000001208DF816008DF817008DF818000020D1
:100A10008DF819008DF81A008DF81B008DF8120062
:100A200003208DF8130002208DF8140000208DF8AB
:100A300015002D20ADF8100004A91148FFF7DDFDC9
:100A400001208DF80D000020ADF808008DF80A0097
:100A50008DF80B0001208DF80C000020ADF800008F
:100A6000ADF80200ADF80400ADF806000122022145
:100A70000348FFF7B9FD6846FFF732FD07B000BD38
:100A8000006400401FB501208DF80D000020ADF876
:100A900008008DF80A008DF80B0001208DF80C007D
:100AA0002020ADF800000020ADF802000122022154
:100AB0000748FFF799FD4FF69F70ADF804004FF619
:100AC000FF70ADF806006846FFF70AFD1FBD000085
:100AD000006400401FB501208DF80D00ADF808003E
:100AE0008DF80A0000208DF80B0001208DF80C0015
:100AF00042F26040ADF800000020ADF80200012293
:100B000010210748FFF770FD4FF61F70ADF8040085
:100B10004FF6FF70ADF806006846FFF7E1FC1FBD19
:100B2000006400400EB50121480601F0C1F91548E6
:100B3000FFF7AEFC6846FFF769FE01208DF806005E
:100B40008DF807008DF8080000208DF809008DF859
:100B50000A008DF80B008DF8020003208DF80300C9
:100B600002208DF8040000208DF805002D20ADF83E
:100B7000000069460348FFF740FD69460148FFF75A
:100B80003CFD0EBD006400407047000000B585B01C
:100B9000684601F0BDF96FF0040001F02DFD002062
:100BA00001F071FD07490198B0FBF1F006490870AA
:100BB0004FF4FA510198B0FBF1F00449088005B0F8
:100BC00000BD000000127A002A0000202C00002046
:100BD00008B50121142001F08BF94FF40060ADF845
:100BE000000003208DF8020048208DF803006946BC
:100BF0000F4800F021F84FF48050ADF800000320BA
:100C00008DF8020018208DF803006946084800F0AE
:100C100013F84FF4C040ADF8000003208DF8020037
:100C200010208DF803006946024800F005F808BD61
:100C300000080140001001402DE9F0410246002566
:100C40000026002000230024002791F803C00CF0A8
:100C50000F0591F803C00CF0100CBCF1000F03D08D
:100C600091F802C04CEA050591F800C0BCF1000FF4
:100C700031D0146800202BE04FF0010C0CFA00F387
:100C8000B1F800C00CEA03069E4220D183004FF069
:100C90000F0C0CFA03F7BC4305FA03FC4CEA0404FE
:100CA00091F803C0BCF1280F06D14FF0010C0CFAEB
:100CB00000FCC2F814C00AE091F803C0BCF1480F70
:100CC00005D14FF0010C0CFA00FCC2F810C0401C1A
:100CD0000828D1D31460B1F800C0BCF1FF0F34DD97
:100CE000546800202EE000F1080C4FF0010808FACB
:100CF0000CF3B1F800C00CEA03069E4221D1830038
:100D00004FF00F0C0CFA03F7BC4305FA03FC4CEA56
:100D1000040491F803C0BCF1280F05D100F1080CC0
:100D200008FA0CF8C2F8148091F803C0BCF1480F1F
:100D300007D100F1080C4FF0010808FA0CF8C2F8CE
:100D40001080401C0828CED35460BDE8F08141617A
:100D500070470161704700BFFEE7000008B5012140
:100D60001C2001F0C5F80720ADF8000010208DF818
:100D7000030003208DF8020069461148FFF75CFF6D
:100D800007210F48FFF7E3FF4FF40050ADF80000D4
:100D900069460C48FFF750FF4FF400510948FFF730
:100DA000D8FF4FF47E70ADF8000069460648FFF7A3
:100DB00043FF4FF478710448FFF7C9FF08BD0000F6
:100DC0000008014000100140000C014000BFFEE798
:100DD00010B50146002200200CE000EB4003074C58
:100DE00034F813308B4204D100EB400304EB43038F
:100DF0009A88401C0628F0DD104610BD0C0100202A
:100E0000704708B54FF4A06000F05CF814208DF82E
:100E1000000000208DF801008DF8020001208DF8FF
:100E20000300684600F016F808BD08B54FF4A0604E
:100E300000F048F815208DF8000000208DF8010022
:100E400001208DF802008DF80300684600F002F8DA
:100E500008BD000070B5002100230F22C47804B340
:100E6000154C246804F4E064C4F5E064210AC1F17F
:100E70000403CA40447804FA03F1847814402143FF
:100E800009010E4C0678A155047804F01F050124D1
:100E9000AC4005786D11AD0005F1E025C5F80041C5
:100EA00009E0047804F01F050124AC40044D0678E5
:100EB000761145F8264070BD0CED00E000E400E03E
:100EC00080E100E002490143024A116070470000DE
:100ED0000000FA050CED00E0FFF782FD25A002F00E
:100EE000D5F8254802F0D2F8244802F0CFF824A023
:100EF00002F0CCF8214802F0C9F81F4802F0C6F809
:100F0000012241F61F4140F2CF7001F0BDFC0022EA
:100F100041F61F4141F2873001F030FC01201F49AA
:100F2000087026E01E480088012809D101F0E0F988
:100F30001C4801681CA002F0A9F80020184908808C
:100F400022480088012814D12148017821A002F00C
:100F50009DF8012305220421022001F059FA002006
:100F60001A4908801A480078042802DB0020184932
:100F70000870D7E70D0A0000343C0008F03B000879
:100F80002A20204D6173746572204E6F6465A3A1A1
:100F90005E5F5E20202A0D0A00000000C4010020D0
:100FA00024000020200000207265666572656E6373
:100FB00065206D6573736167652069732073656E65
:100FC000743A202564200D0A00000000260000204D
:100FD000480000206D6173746572206E6F64652037
:100FE00073656E6473204D61737465724E756D42E6
:100FF00043203D25643A0D0A000000000EB500BFF5
:10100000FFF738FA0120FD490870002241F61F4120
:1010100040F6AC5001F038FC00BF56E3F8480088B9
:1010200000F4004000287DD0F5480088C0F30D068C
:10103000F4A002F02BF80024E8E0FC480068032844
:101040004ADAFB48015DFB48FB4A126840F822106F
:10105000F6480068401CF5490860F7480068022817
:1010600034D1F4480068F3494968401AF3490860EC
:10107000F0484068EF498968401AF149086008461D
:101080000068FFF773F80546EE4801682846FFF749
:1010900081F80AD3E9480068FFF768F80546E9488F
:1010A00001682846FFF776F808D20120E649087063
:1010B000E6480178E6A001F0E9FF07E00220E249F6
:1010C0000870E2480178E2A001F0E0FFDA48006829
:1010D000401CD94908608CE0D6484068D549086072
:1010E000084680684860D248005D88600320CF4988
:1010F0000860D0480068CF494968401ACF49086065
:10110000CC484068CB498968401ACD4908600846F8
:101110000068FFF72BF80546CA4801682846FFF724
:1011200039F800E07BE00AD3C4480068FFF71EF8F6
:101130000546C44801682846FFF72CF808D201206C
:10114000C1490870C1480178C1A001F09FFF50E07B
:10115000BB480068FFF70AF80546BA480168284608
:10116000FFF70EF803D2B648006803280EDCB34838
:101170000068FEF7FBFF0546B24801682846FEF707
:10118000FFFF0CD2AD480068032808DD0220AE49FD
:101190000870AE480178AEA001F078FF29E0A848B9
:1011A000006810F1020F04DBA548006810F1020F7F
:1011B00008DA0320A4490870A4480178A4A001F02B
:1011C00065FF16E09E48006810B19D48006840B970
:1011D00004209D4908709D4801789DA001F056FFAC
:1011E00007E00520984908709848017898A001F018
:1011F0004DFF8F48005D9849087000BF4021974817
:1012000001F0C6FD0128F9D1601C84B2B442FFF69A
:1012100014AF84A001F03AFF00207949088090487B
:10122000007801280FD18F48006808B9012000E03C
:1012300000208C49086000208949087000F0D2FE27
:101240000020894908808948007801287ED1854896
:10125000001D006808B9012000E000208149091D37
:10126000086081480088042802DB00207E4908804D
:101270007FA001F00BFF7C4801887EA001F006FFF3
:101280008848007888490978884A1278CDE9002191
:101290000290874803788748027887480178874812
:1012A00001F0F4FE01F09CFB8549086001F0A4FC0C
:1012B000002507E0834830F81520294682A001F078
:1012C000E5FE6D1C7E4800688542F3DB7C480068C3
:1012D00018B37C480088C0B96349098801EB8101D3
:1012E000814A02EB4101488800F0A0FD7448006883
:1012F000012817DD73497D4A126831F81200012276
:1013000041F61F4101F0C0FA0CE06E490888012245
:1013100041F61F4101F0B8FA04E05348018874A077
:1013200001F0B4FE01207E4908804F480088401C2F
:101330004D49088008460088042801DD0020088007
:1013400000204A4908700120764900E005E0086065
:1013500066490860002074490860744800880128C4
:1013600021D17348006808B9012000E000207049CD
:1013700008606B4801886FA001F088FE00F0AEFEA7
:101380007649088076A001F081FE74480088FFF756
:101390001FFD7D49088062480088401C6049088024
:1013A00000206249088079480078012823D16048EC
:1013B000001D006808B9012000E000205C49091DFB
:1013C000086073480088B0F5907F15D171480068B7
:1013D00008B9012000E000206E4908606E480078DE
:1013E00000906E4803786E480278694801886D481D
:1013F00001F04CFE66E168E1D6E00000D201002079
:10140000440000200D0A20746865206D65737361C7
:101410006765207468617420796F752073656E64E8
:101420002069733A0D0A0D0A00000000E001002057
:10143000F0010020BC030020D4010020D8010020CE
:10144000DC010020E8010020A80100208801002024
:101450002564200D0A000000A90100200038014089
:1014600002000020B4012242780000200F0000207A
:10147000200D0A002A2A2A2A2A2A2A2A2A2A2A2A3D
:101480002025642E207265666572656E6365207323
:10149000746172742A2A2A2A2A2A2A2A2A2A200DC0
:1014A0000A0000000C0000200B0000200A000020B1
:1014B000090000200800002007000020443900082F
:1014C000C0010020CC02002066696E616C54696D19
:1014D000657256616C75655B25645D2069732025B6
:1014E00064200D0A000000008C0000203401002060
:1014F0002B2B2B474747206E6F7468696E672074EB
:101500006F2073656E64202120696E204E756D42D8
:10151000633A256420204747472B2B2B0D0A0000F8
:10152000CE01002030010020B8000020040000207F
:101530008001214223232323232323232323696E92
:10154000746572727570742025642023232323230D
:10155000232323232323200D0A000000CC01002095
:1015600023232323232323232323656E6420696EEF
:10157000746572727570742323232323232323231A
:101580002323200D0A000000CA0100201C000020B7
:101590001E00002094812142170000201500002029
:1015A00014000020EC3900084848008840F221115E
:1015B000884214D14648006808B9012000E00020A4
:1015C0004349086043480078009043480378434803
:1015D00002783E480188424801F058FD72E03B48DD
:1015E0000088B0F5917F16D13948001D006808B910
:1015F000012000E000203649091D086035480078C8
:1016000000903548037835480278304801883548DD
:1016100001F03CFD56E02D48008840F2231188423D
:1016200016D12B480830006808B9012000E00020DE
:101630002749083108602748007800902648037839
:101640002648027821480188274801F01FFD39E02B
:101650001E480088B0F5927F16D11D480C300068F6
:1016600008B9012000E0002019490C310860194830
:1016700000780090184803781848027813480188C9
:101680001A4801F003FD1DE01048008840F22511C2
:10169000884214D11648006808B9012000E00020F3
:1016A000134908600B48007800900B4803780B48FA
:1016B0000278064801880F4801F0E8FC02E00EA01D
:1016C00001F0E4FC002012490870A7E41E0000208D
:1016D00098812142170000201500002014000020EE
:1016E000443A00089C3A0008A43B0008F43A000879
:1016F000880121424C3B00082A2A61726269747297
:101700006172792077696E646F7773202A2A0000EE
:101710001C0000200EB500BFFEF7ACFE0120FD4905
:101720000870002241F61F4140F6AC5001F0ACF8C1
:1017300000BF56E3F848008800F4004000287DD040
:10174000F5480088C0F30D06F4A001F09FFC0024CA
:10175000E8E0FC48006803284ADAFB48015DFB48E2
:10176000FB4A126840F82210F6480068401CF54910
:101770000860F7480068022834D1F4480068F3494B
:101780004968401AF3490860F0484068EF498968A1
:10179000401AF149086008460068FEF7E7FC054674
:1017A000EE4801682846FEF7F5FC0AD3E9480068D0
:1017B000FEF7DCFC0546E94801682846FEF7EAFC2E
:1017C00008D20120E649087008460178E5A001F03A
:1017D0005DFC07E00220E249087008460178E1A0BC
:1017E00001F054FCDA480068401CD94908608CE0DC
:1017F000D6484068D5490860084680684860D248A5
:10180000005D88600320CF490860D0480068CF4958
:101810004968401ACF490860CC484068CB4989687C
:10182000401ACD49086008460068FEF79FFC05464F
:10183000CA4801682846FEF7ADFC00E07BE00AD309
:10184000C4480068FEF792FC0546C4480168284673
:10185000FEF7A0FC08D20120C149087008460178B3
:10186000C0A001F013FC50E0BB480068FEF77EFC0E
:101870000546BA4801682846FEF782FC03D2B648FE
:10188000006803280EDCB3480068FEF76FFC0546CD
:10189000B24801682846FEF773FC0CD2AD480068D8
:1018A000032808DD0220AE49087008460178ADA083
:1018B00001F0ECFB29E0A848006810F1020F04DBFE
:1018C000A548006810F1020F08DA0320A449087047
:1018D00008460178A3A001F0D9FB16E09E480068F5
:1018E00010B19D48006840B904209D490870084621
:1018F00001789CA001F0CAFB07E005209849087018
:101900009A48017897A001F0C1FB8F48005D984983
:10191000087000BF4021974801F03AFA0128F9D138
:10192000601C84B2B442FFF614AF84A001F0AEFB99
:101930000020794908809048007801280FD18F480D
:10194000006808B9012000E000208C4908600020F0
:101950008949087000F046FB0020894908808948C1
:10196000007801287ED18548001D006808B9012053
:1019700000E000208149091D086081480088042892
:1019800002DB00207E4908807FA001F07FFB7C48BD
:1019900001887EA001F07AFB8848007888490978A0
:1019A000884A1278CDE90021029087480378874859
:1019B000027887480178874801F068FB01F010F849
:1019C0008549086001F018F9002507E0834830F8E0
:1019D0001520294682A001F059FB6D1C7E48006845
:1019E0008542F3DB7C48006818B37C480088C0B9A6
:1019F0006349098801EB8101814A02EB4101488872
:101A000000F014FA74480068012817DD73497D4A14
:101A1000126831F81200012241F61F4100F034FF34
:101A20000CE06E490888012241F61F4100F02CFFAE
:101A300004E05348018874A001F028FB01207E498E
:101A400008804F480088401C4D490880084600889F
:101A5000042801DD0020088000204A490870012088
:101A6000764900E005E00860664908600020744996
:101A7000086074480088012821D17348006808B9BB
:101A8000012000E00020704908606B4801886FA0C9
:101A900001F0FCFA00F022FB7649088076A001F004
:101AA000F5FA74480088FFF793F97D490880624889
:101AB0000088401C604908800020624908807948FD
:101AC0000078012823D16048001D006808B9012072
:101AD00000E000205C49091D086073480088B0F5EB
:101AE000907F15D17148006808B9012000E00020FE
:101AF0006E4908606E48007800906E4803786E4822
:101B00000278694801886D4801F0C0FA66E168E131
:101B1000D6E00000D3010020440000200D0A20740C
:101B20006865206D657373616765207468617420F2
:101B3000796F752073656E642069733A0D0A0D0A1A
:101B400000000000E0010020F0010020BC030020A4
:101B5000D4010020D8010020DC010020E801002091
:101B6000A80100202564200D0A0000008801002043
:101B7000A90100200038014002000020B4012242E7
:101B8000780000200F0000200D0A00002A2A2A2ACF
:101B90002A2A2A2A2A2A2A2A2025642E20726566C1
:101BA0006572656E63652073746172742A2A2A2ACD
:101BB0002A2A2A2A2A2A200D0A0000000C000020C6
:101BC0000B0000200A00002009000020080000206F
:101BD0000700002098390008C0010020CC02002036
:101BE00066696E616C54696D657256616C75655B92
:101BF00025645D206973202564200D0A0000000023
:101C00008C000020340100202B2B2B474747206EEF
:101C10006F7468696E6720746F2073656E6420212D
:101C200020696E204E756D42633A25642020474737
:101C3000472B2B2B0D0A0000CE0100203001002085
:101C4000B800002004000020800121422323232328
:101C5000232323232323696E7465727275707420A5
:101C60002564202323232323232323232323200D1D
:101C70000A000000CC010020232323232323232355
:101C80002323656E6420696E7465727275707423A7
:101C900023232323232323232323200D0A000000AF
:101CA000CA0100201C0000201E0000209481214257
:101CB000170000201500002014000020EC39000857
:101CC0004848008840F22111884214D146480068F3
:101CD00008B9012000E0002043490860434800782B
:101CE000009043480378434802783E4801884248C0
:101CF00001F0CCF972E03B480088B0F5917F16D135
:101D00003948001D006808B9012000E0002036496C
:101D1000091D08603548007800903548037835483B
:101D2000027830480188354801F0B0F956E02D4876
:101D3000008840F22311884216D12B4808300068F1
:101D400008B9012000E00020274908310860274831
:101D500000780090264803782648027821480188B8
:101D6000274801F093F939E01E480088B0F5927FCA
:101D700016D11D480C30006808B9012000E0002091
:101D800019490C3108601948007800901848037808
:101D900018480278134801881A4801F077F91DE0C5
:101DA0001048008840F22511884214D11648006876
:101DB00008B9012000E00020134908600B480078B2
:101DC00000900B4803780B480278064801880F48BA
:101DD00001F05CF902E00EA001F058F90020124970
:101DE0000870A7E41E0000209881214217000020FF
:101DF0001500002014000020443A00089C3A000816
:101E0000A43B0008F43A0008880121424C3B00083A
:101E10002A2A6172626974726172792077696E64CC
:101E20006F7773202A2A00001C00002010B504469A
:101E3000A4F59070062822D2DFE800F003080D1206
:101E4000171C4FF4907001F0F9FA1CE040F22110D9
:101E500001F078FB17E04FF4917001F0F7FB12E00E
:101E600040F2231001F0C4F80DE04FF4927001F03D
:101E700037FC08E040F2251001F0B6FC03E003A0B7
:101E800001F004F900BF00BF10BD000063616E20C7
:101E90006265206120617262697472617279206D7D
:101EA000657373616765200D0A00000070470000CC
:101EB00029B1064AD2690243044BDA6104E0034ABD
:101EC000D2698243014BDA61704700000010024082
:101ED00029B1064A12690243044B1A6104E0034A1D
:101EE00012698243014B1A617047000000100240E2
:101EF00029B1064A92690243044B9A6104E0034AFD
:101F000092698243014B9A617047000000100240C1
:101F100030B500210022002400232D4D6D6805F00E
:101F20000C0121B1042905D0082923D105E0294D50
:101F3000056022E0274D05601FE0254D6D6805F422
:101F40007012234D6D6805F48034022505EB924232
:101F50001CB9214D554305600BE01D4D6D6805F41E
:101F600000351DB11C4D5543056002E0194D554328
:101F7000056002E0174D056000BF00BF144D6D689D
:101F800005F0F0010909154D6B5C0568DD40456001
:101F90000F4D6D6805F4E061090A104D6B5C4568F2
:101FA000DD4085600A4D6D6805F46051C90A0B4D2E
:101FB0006B5C4568DD40C560054D6D6805F44041CA
:101FC000890B074D6B5CC568B5FBF3F5056130BD4A
:101FD0000010024000127A0000093D002F0000208E
:101FE0003F00002070B52C4800782C4908602C4830
:101FF00000782C4908602C4800782849096801EBD2
:1020000081012A4A02EB4101264A126821F8120096
:102010002248006800EB8000244901EB4000214980
:10202000096830F811002249097840EA01211B486B
:10203000006800EB80001D4A02EB4000194A12685C
:1020400020F812101B4801781448006800EB80004B
:10205000194A1044134A1268815410480068114903
:1020600009684843002815DB002411E000250CE036
:1020700004EB84000D4901EB400030F815302A468E
:1020800021460EA001F002F86D1C052DF0DB641C4A
:10209000042CEBDB70BD000007000020480100208D
:1020A000080000204C010020090000208C000020C6
:1020B0000A0000200B000020B80200207265636552
:1020C00069766564206D61747269782020256420CA
:1020D000256420252378200D0A00000010B545480E
:1020E000008800282FD144490978491E01EB81015D
:1020F000424A02EB4101424A424B1B6852F82320FC
:1021000031F81200FFF792FE3E480068401C3D493E
:1021100008603D480088401C3C490968884207DB4C
:102120003BA000F0B3FF0021454800F0E0FB55E084
:102130003049344A126831F81200012241F61F4139
:1021400000F0A2FB4AE02C490978491E01EB81010D
:102150002A4A02EB41023B490968491E284B53F8C1
:10216000211032F81100FFF761FE23480078421E6B
:102170002648016834A000F089FF234801883C48C4
:1021800000F084FF2F4801683AA000F07FFF1E484E
:1021900000881E49096888420CDB1C480068421E02
:1021A000194801883CA000F071FF0021244800F08C
:1021B0009EFB13E00F49234A126831F812000122F6
:1021C00041F61F4100F060FB1E4801683CA000F092
:1021D0005DFF1C480068401C1A49086006480078EA
:1021E00000EB8000054901EB40000749098830F801
:1021F000110010BDCC020020780000208C000020CF
:10220000F802002034010020CE010020C00100208F
:1022100064697361626C65642074686520696E74BA
:1022200065727270757420696E2066696E616C7477
:10223000696D65722069732030200D0A000000006E
:102240000004004030010020746865206D657373E0
:10225000616765732074696D6573206172652025FF
:102260006420696E2042432025640D0A00000000AE
:10227000F438000866696E616C54696D657241726C
:1022800072617953686966745F7A65726F206973E9
:102290002025640D0A00000064697361626C656446
:1022A0002074686520696E74657272707574206937
:1022B0006E2021302025642C202564200D0A00008A
:1022C0004E6F77207468652066696E616C54696D25
:1022D000657256616C7565207368696674207661F5
:1022E0006C75652069732025640D0A007047000035
:1022F000F0B587B007460120019000208DF80D0051
:102300008DF80C0005208DF80E0000244AE0002511
:1023100045E0E0B28DF80F008DF8105004EB84001A
:10232000244901EB400010F815108DF8111004EB52
:102330008400204901EB400030F8150001128DF8AF
:10234000121004EB84001C4901EB400010F815103A
:102350008DF8131001A91948FEF768FA06464FF4E4
:10236000167001F013F800BF31461448FEF7F1FA79
:102370000028F9D02A46214611A000F087FE9DF8DA
:10238000111014A000F082FE9DF8121016A000F0AB
:102390007DFE9DF8131019A000F078FE6D1C052D30
:1023A000B7DB641C042CB2DB14208DF80F0007B0DF
:1023B000F0BD0000BC000020E400002000640040EC
:1023C00069203D2025642C6A203D20256420200DB5
:1023D0000A000000534D2069732073656E74323A11
:1023E000202523780D0A0000534D20697320736562
:1023F0006E74333A20252378200D0A00534D20694E
:10240000732073656E74343A20252378200D0A00FA
:102410002DE9F04186B004460E4617469846042042
:1024200028490870052028490870012027490870AC
:10243000274800782749087004202749087005209C
:1024400026490870009400208DF809008DF80800D6
:1024500008208DF80A001B4800788DF80B001A48F8
:1024600001788DF80C10194801788DF80D10194875
:1024700001788DF80E10184801788DF80F10174864
:1024800001788DF8101069461548FEF7CFF905461A
:10249000144A0598D2E90032C01842F10001114AED
:1024A00003C20020059000BF29460D48FEF751FAEF
:1024B0000028F9D00B480CC80BA000F0E7FD06B0CF
:1024C000BDE8F08158000020590000205A0000208B
:1024D000480000205B0000205C0000205D00002020
:1024E00000640040500000205468652073656E64ED
:1024F000696E67207265666572656E6365207469D2
:102500006D652069732020256C6C64200D0A000025
:1025100010B500F001F810BD0CB50020019000903E
:102520003348006840F480303149086000BF3048CB
:10253000006800F4003000900198401C0190009861
:1025400018B90198B0F5A06FF1D12948006800F4DE
:10255000003010B10120009001E0002000900098B0
:10256000012843D12348006840F010002149086049
:102570000846006820F0030008600846006840F044
:10258000020008601A4840681949486008464068D7
:1025900048600846406840F48060486008464068EB
:1025A00020F47C1048600846406840F4E810486019
:1025B0000846006840F08070086000BF0C48006862
:1025C00000F000700028F9D00948406820F00300AE
:1025D000074948600846406840F00200486000BF74
:1025E0000348406800F00C000828F9D10CBD000039
:1025F0000010024000200240042808D14FF0E021E2
:10260000096941F004014FF0E022116107E04FF049
:10261000E021096921F004014FF0E02211617047C7
:10262000012808D14FF0E021096941F001014FF084
:10263000E02211610EE0811C41B94FF0E0210969EF
:1026400021F001014FF0E022116103E000214FF081
:10265000E0229161704710B501460022002300205E
:10266000CB10022B03D14FF0E024226902E04FF09F
:10267000E024E26901248C4014400CB1012000E008
:10268000002010BD704740B14FF0E021096941F0D2
:1026900002014FF0E022116107E04FF0E0210969EB
:1026A00021F002014FF0E022116170474FF0E0216C
:1026B0004861704710B51348006840F001001149A7
:1026C000086008464068104908400E4948600846BE
:1026D00000680E4908400B4908600846006820F46D
:1026E000802008600846406820F4FE0048604FF4EF
:1026F0001F008860FFF70CFF4FF00060044908607E
:1027000010BD0000001002400000FFF8FFFFF6FEC1
:1027100008ED00E010B50121880700F0F4F8A8B139
:102720000121880700F0E0F809480078012807D166
:102730000849088008480078401C0749087005E0EF
:1027400006A000F0A3FC01200B49087010BD00009A
:10275000C4010020260000204800002074696D6537
:10276000723220696E7465727275707420636F6D59
:102770006573200D0A000000280000207FB5064682
:102780000C46154601210846FFF792FBADF808609C
:10279000ADF804400020ADF80A00ADF8060001A92C
:1027A0004FF0804000F0CAF801221146900700F077
:1027B000BBF81C208DF8000000208DF801000420DB
:1027C0008DF8020001208DF803006846FEF742FBF9
:1027D00029464FF0804000F08AF87FBD10B50121F6
:1027E000184800F090F800282AD00121154800F080
:1027F0007BF81548007801281FD11448006808B9F3
:10280000012000E000201149086011480068401CC8
:102810000F490860084600680A280AD30DA000F096
:1028200035FC0021074800F062F80121880700F01C
:102830005EF801201249088002E001201149088059
:1028400010BD000000040040C4010020B801224275
:10285000200000204E6F772074686520534D20695A
:10286000732073656E7420746F20616C6C207468C3
:102870006520736C617665206E6F6465730000007F
:1028800024000020040000207FB506460C461546B3
:1028900001210220FFF70CFBADF80860ADF8044001
:1028A0000020ADF80A00ADF8060001A90D4800F0BF
:1028B00045F8012211460B4800F036F81D208DF82E
:1028C000000000208DF8010003208DF80200012097
:1028D0008DF803006846FEF7BDFA2946014800F06E
:1028E00006F87FBD00040040CA430282704721B150
:1028F000028842F00102028004E002884FF6FE7373
:102900001A400280704730B50246002000230024A0
:10291000158A05EA0103958905EA010413B10CB192
:10292000012000E0002030BD1AB183890B43838170
:1029300002E083898B438381704700000022028874
:102940001D4B98420ED01D4B98420BD0B0F1804FDA
:1029500008D01B4B984205D01A4B984202D01A4B14
:10296000984204D14FF68F731A404B881A43174B85
:10297000984207D0164B984204D04FF6FF431A40B6
:10298000CB881A4302808B8883850B8803850A4B8A
:1029900098420BD0094B984208D00E4B984205D074
:1029A0000D4B984202D00D4B984201D10B7A038611
:1029B0000123838270470000002C01400034014055
:1029C0000004004000080040000C004000100040DF
:1029D0000014004000400140004401400048014014
:1029E0002DE9FE430024A046002037E0002132E01C
:1029F00000EB80025A4B03EB420232F81180594A35
:102A00001278012A11D100220CE0574B33F8123012
:102A1000434506D1554B43F8340003EBC4035960DA
:102A2000641C521C032AF0D314E0514A1278012A84
:102A300010D100220CE04F4B33F81230434506D141
:102A40004A4B43F8340003EBC4035960641C521C26
:102A5000032AF0D3491C0529CADB401C0428C5DB26
:102A6000214645A000F012FB002610E049A000F02E
:102A70000DFB3E4800EBC60042683C4850F836105B
:102A800049A000F003FB51A000F000FB761CA64219
:102A9000ECDB002551480068A04202DB00204F49D2
:102AA00008604E49086814E0304951F830104C4A2B
:102AB000127891420CD12D4901EBC0014968494A75
:102AC00042F825106D1C45490968491C434A1160AC
:102AD000401CA042E8DB00200090019002900027FB
:102AE00000BF0DE03F4951F82010491E3E4A1160D9
:102AF0001146098889B22DF81710791C8FB2401C35
:102B0000A842EFDBBDF800103848FDF711FC38494A
:102B10000860012608E03DF816103448FDF708FC6F
:102B2000334941F82600761CAE42F4DB002011E068
:102B30002F4909882F4A118001280ADB2C4931F8D6
:102B40002020411E2A4B33F82110511A294A22F81D
:102B50001010401CA842EBDB2846BDE8FE830000B5
:102B60008C000020D20100208000002008030020FB
:102B7000D30100208600002023232374656D704D4F
:102B800065734C6F636174696F6E5F7823232325CF
:102B9000640D0A002323236A696162696E207761EC
:102BA0006E672323230D0A0072656C6176616E7473
:102BB000206D6573206C6F636174696F6E3A2028B5
:102BC00025642C202564290D0A0000004040404067
:102BD0004040404040404040400D0A00400100203D
:102BE00078000020F8020020B80000207A000020C1
:102BF000A8030020CC020020F0B50023002500240B
:102C00000022012119E00E4830F81150002011E097
:102C100000EB40060B4F37F816309D4209D100EB10
:102C2000400607EB4606B488074E26F81240561CAD
:102C3000F2B2401C0628EBDB491C0529E3DBF0BDA2
:102C40008C0000200C0100207A00002010B540F21A
:102C500025511D4800F0A9F810B31B4800F060F999
:102C6000C4B21A48008800F40040C8B91748008868
:102C700000F4804060B10A2C03D000201349088082
:102C800020E01248008840F400401049088019E014
:102C90000D2C06D10D48008840F480400B49088077
:102CA00010E00A480088C0F30D0009490C54074899
:102CB0000088401C0549088008460088C72801DDB7
:102CC0000020088010BD00000038014044000020B2
:102CD000F001002021B1828942F40052828104E097
:102CE00082894DF6FF731A408281704700B587B024
:102CF000012144F20400FFF7FBF84FF40070ADF837
:102D0000180003208DF81A0018208DF81B0006A962
:102D10001D48FDF791FF4FF48060ADF818000420C6
:102D20008DF81B0006A91848FDF786FF25208DF8B1
:102D3000040003208DF805008DF8060001208DF8B1
:102D4000070001A8FEF786F84FF47A3002900020C1
:102D5000ADF80C00ADF80E00ADF81000ADF81400A1
:102D60000C20ADF8120002A9084800F06DF801220D
:102D700040F22551054800F042F801210348FFF7D1
:102D8000A9FF07B000BD0000000801400038014065
:102D900002460020B1F5007F00D100BF13880B4030
:102DA0000BB1012000E00020704770B502460024FE
:102DB00000230025002040F66A16B14200D100BF72
:102DC000C1F3421501F01F03012606FA03F3012D9A
:102DD00002D19689334006E0022D02D1168A334093
:102DE00001E0968A33400C12012606FA04F4168894
:102DF000344013B10CB1012000E0002070BDF0B5EB
:102E00000346002400260025002040F66A17B94238
:102E100000D100BF1846C1F3421401F01F0601277C
:102E200007FA06F5012C01D10C3004E0022C01D187
:102E3000103000E014301AB107682F43076002E039
:102E40000768AF430760F0BD2DE9F04786B005463F
:102E50000E460024A24600BFA1460027B08900B15B
:102E600000BF2F462C8A4CF6FF700440F0880443C4
:102E70002C82AC894EF6F3100440B08831890843A7
:102E8000718908430443AC81AC8A4FF6FF4004408B
:102E9000B0890443AC8201A8FFF73AF81F48874283
:102EA00002D1DDF810A001E0DDF80CA0A88900F443
:102EB000004040B10AEBCA0000EB0A10316849003B
:102EC000B0FBF1F807E00AEBCA0000EB0A1031682A
:102ED0008900B0FBF1F86420B8FBF0F00401200990
:102EE000642101FB1089A88900F4004040B1322020
:102EF00000EBC900B0FBF1F000F00700044308E06C
:102F0000322000EB09106421B0FBF1F000F00F005B
:102F100004432C8106B0BDE8F08700000038014072
:102F200001468888C0F308007047C1F30802828018
:102F30007047000000B587B001AA00211F48FDF7C7
:102F4000E6FB1F49019808809DF80F001D49087095
:102F50009DF810001C4908709DF811001B4908706D
:102F60009DF812001A4908709DF81300194908705D
:102F70009DF8140018490870BDF81800174908801A
:102F8000BDF8180016490988084415490880002032
:102F9000ADF8180002210948FDF718FA0848008822
:102FA000012802D10F49088006E005480088022860
:102FB00002D101200C49087007B000BD0064004038
:102FC0000000002007000020080000200900002069
:102FD0000A0000200B0000200C000020120000203E
:102FE00010000020020000200F00002000BFFEE7BC
:102FF00030B587B0044619480078401C174908705E
:103000000846007816490870019400208DF80D00DC
:103010008DF80C0008208DF80E00124800788DF80D
:103020000F00114801788DF810100D4801788DF8C7
:10303000121001A90D48FDF7F9FB05460A2000F022
:10304000A5F900BF29460948FDF783FC0028F9D0FF
:10305000214607A000F01AF807B030BD800100201B
:10306000AB010020A8010020A9010020006400405D
:103070003E3E3E3E3E494420202523782069732071
:1030800073656E743C3C3C3C3C0D0A000FB4054B30
:1030900010B503A9044A029800F018F810BC5DF8B6
:1030A00014FB0000E1330008EC01002002E008C836
:1030B000121F08C1002AFAD170477047002001E0B2
:1030C00001C1121F002AFBD1704700002DE9FF4FFC
:1030D0008DB09B460F460446002606E025280BD0FF
:1030E0005A460F999047641C761C20780028F5D129
:1030F00011B03046BDE8F08F0025A846012298495E
:1031000000E0054314F8013F203B02FA03F00842B7
:10311000F7D120782E2817D114F8010F45F00405B7
:103120002A280ED06FF02F022078A0F13001092953
:103130000AD808EB880102EB410100EB0108641C8E
:10314000F2E757F8048B641C20786C280DD004DC5F
:103150004C2812D06A2811D104E074280DD07A28A6
:103160000CD10AE045F4001507E0617845F48015BC
:10317000814202D1641C05F58015641C2078692801
:1031800044D008DC0028B3D0582867D063280FD07B
:10319000642808D13AE0702865D0732812D07528C9
:1031A0005AD078285AD05A460F999047761CD5E0C5
:1031B00017F8040B8DF8000000208DF80100E94697
:1031C000012003E057F8049B4FF0FF3069074FF0F0
:1031D000000501D40AE06D1C45450DDA8542FADB95
:1031E00019F805100029F6D106E06D1C8542FCDBBC
:1031F00019F805100029F8D12E4404E019F8010B44
:103200005A460F9990476D1EF8D2A7E00A20002178
:10321000CDE90801C5F3025002280CD001CFC11737
:10322000021E71F100020CDA0023D0EB030063EB05
:1032300001012D2208E0FF1D27F00707F7E8020132
:10324000EEE72A0504D52B228DF8282001223CE048
:10325000EA073AD02022F7E70A2000E010200021F8
:10326000CDE9080107E01020002145F00405CDE973
:1032700008014FF00808C5F30250022810D001CF12
:1032800000214FF0000A2A0720D52278702A0DD09D
:10329000DDE908C38CF0100C5CEA030C0CD015E0DF
:1032A000FF1D27F00707F7E80201EAE740228DF843
:1032B00028204FF0010A0CE050EA010306D0302329
:1032C0008DF828308DF82920022292462278582A3B
:1032D00004D024A20DF120090B9209E026A2F9E7FF
:1032E000DDE90823FCF760FF0B9B9B5C09F8013DBF
:1032F00050EA0102F4D1ADEB0900203008906807D4
:1033000001D44FF001080899884503DD0898A8EB1F
:10331000000000E000208046002506E00AA85A468A
:10332000405D0F9990476D1C761C5545F6DB04E017
:1033300030205A460F999047761CB8F10001A8F149
:103340000108F5DC05E019F8010B5A460F99904782
:10335000761C0899481E08900029F4DC641CC4E619
:10336000092801003031323334353637383961625B
:10337000636465660000000030313233343536371F
:1033800038394142434445460000000070B50446C8
:103390001148008800FB04F5B5F1807F01D36FF080
:1033A0007F452846FFF782F90020FFF739F9012011
:1033B000FFF736F900BF1020FFF74DF907490870F5
:1033C000084600780128F6D1C01EFFF729F9002031
:1033D000FFF726F970BD00002C0000202E00002011
:1033E00070B504460D46E1B20548FFF79EFD00BFEB
:1033F00040210348FFF7CCFC0028F9D0204670BDDF
:103400000038014010B5FDF7C1FBFDF7A7FCFFF741
:103410006DFC012020B1012805D0022809D105E06A
:10342000FDF75AFD06E0FDF7E9FD03E0FEF772F94E
:1034300000E000BF00BF002010BD000030B587B025
:10344000044601202A4908702A49087003202A49A5
:1034500008700420294908700520294908700620B1
:1034600028490870019400208DF80D008DF80C009B
:1034700008208DF80E001E4800788DF80F001D48BA
:1034800001788DF810101C4801788DF811101B4838
:1034900001788DF812101A4801788DF81310194828
:1034A00001788DF8141001A91748FDF7BFF90546FA
:1034B0000A20FFF76BFF154A0698D2E90032C018C0
:1034C00042F10001114A03C20020069000BF2946C4
:1034D0000D48FDF73EFA0028F9D00C480CC80CA0A6
:1034E000FFF7D4FD214610A0FFF7D0FD07B030BD97
:1034F0009001002091010020920100209301002002
:10350000940100209501002000640040500100203B
:1035100074696D655478207374616D7020256C6CCE
:1035200064200D0A000000003E3E3E3E3E4944201D
:10353000202523782069732073656E743C3C3C3CE5
:103540003C0D0A0030B587B0044602202A490870B5
:103550002A49087003202A49087004202949087064
:103560000520294908700620284908700194002088
:103570008DF80D008DF80C0008208DF80E001E4807
:1035800000788DF80F001D4801788DF810101C4848
:1035900001788DF811101B4801788DF812101A4827
:1035A00001788DF81310194801788DF8141001A9CD
:1035B0001748FDF73BF905460A20FFF7E7FE154AD5
:1035C0000698D2E90032C01842F10001114A03C244
:1035D0000020069000BF29460D48FDF7BAF90028E3
:1035E000F9D00C480CC80CA0FFF750FD214610A0E4
:1035F000FFF74CFD07B030BD980100209901002075
:103600009A0100209B0100209C0100209D010020C8
:10361000006400405801002074696D65547820737F
:1036200074616D7020256C6C64200D0A0000000030
:103630003E3E3E3E3E4944202025237820697320AB
:1036400073656E743C3C3C3C3C0D0A0030B587B061
:10365000044617480078401C154908700194002062
:103660008DF80D008DF80C0008208DF80E00114823
:1036700000788DF80F00104801788DF810100F4871
:1036800001788DF8121001A90D48FDF7CFF8054615
:103690000A20FFF77BFE00BF29460948FDF759F9CC
:1036A0000028F9D0214607A0FFF7F0FC07B030BD95
:1036B00080010020A0010020A1010020A301002022
:1036C000006400403E3E3E3E3E4944202025237893
:1036D0002069732073656E743C3C3C3C3C0D0A00D1
:1036E00030B587B0044605202A4908702A49087079
:1036F00003202A4908700420294908700520294917
:103700000870062028490870019400208DF80D00EB
:103710008DF80C0008208DF80E001E4800788DF8FA
:103720000F001D4801788DF810101C4801788DF8A5
:1037300011101B4801788DF812101A4801788DF885
:103740001310194801788DF8141001A91748FDF7D6
:103750006DF805460A20FFF719FE154A0698D2E9CA
:103760000032C01842F10001114A03C20020069045
:1037700000BF29460D48FDF7ECF80028F9D00C48A9
:103780000CC80CA0FFF782FC214610A0FFF77EFCBE
:1037900007B030BDB0010020B1010020B20100200F
:1037A000B3010020B4010020B501002000640040F6
:1037B0007001002074696D655478207374616D70B8
:1037C00020256C6C64200D0A000000003E3E3E3E49
:1037D0003E494420202523782069732073656E7448
:1037E0003C3C3C3C3C0D0A0030B587B0044601200F
:1037F0002B49087002202B49087003202A490870C1
:1038000004202A4908700520294908700620294902
:103810000870019400208DF80D008DF80C00082030
:103820008DF80E001E4800788DF80F001D480178B5
:103830008DF810101C4801788DF811101B48017884
:103840008DF812101A4801788DF813101948017874
:103850008DF8141001A91848FCF7E8FF05460A2066
:10386000FFF794FD154A0698D2E90032C01842F1DC
:103870000001124A03C20020069000BF29460E48EC
:10388000FDF767F80028F9D021460DA0FFF7FEFBF1
:103890000A480CC811A0FFF7F9FB07B030BD0000C3
:1038A000B8010020B9010020BA010020BB010020AE
:1038B000BC010020BD010020006400407001002018
:1038C0003E3E3E3E3E494420202523782069732019
:1038D00073656E743C3C3C3C3C0D0A0074696D653C
:1038E0005478207374616D7020256C6C64200D0A0F
:1038F00000000000212121212121212066696E6123
:103900006C54696D657256616C75655B305D213D07
:10391000203020534F535F4953525F436F756E748D
:103920003A20256420666F72206D65737361676548
:103930002066696E697368202121212121212120BF
:103940000D0A00002A2A7265665F696E666F5F283D
:1039500064617461302C64617461312C64617461E0
:10396000322C64617461332C64617461342C646141
:1039700074613529203D20282564202C2025642CC5
:103980002025642C2025642C2025642C20256420EF
:10399000292A2A200D0A00002A2A726563656976A1
:1039A000655F2864617461302C64617461312C64DA
:1039B000617461322C64617461332C6461746134AC
:1039C0002C646174613529203D202825642C202534
:1039D000642C2025642C2025642C2025642C202593
:1039E0006420292A2A200D0A000000002A2A4D6599
:1039F000733120494E464FA3BA2843414E52785F57
:103A000049442C205278315F44415441302C20529B
:103A100078315F44415441312C205278315F444128
:103A200054413329203D202820252378202C25238C
:103A300078202C20252378202C20252378292A2A39
:103A4000200D0A002A2A4D65733220494E464FA3A5
:103A5000BA2843414E52785F49442C205278315F56
:103A600044415441302C205278315F44415441311B
:103A70002C205278315F444154413329203D202885
:103A800020252378202C252378202C2025237820FE
:103A90002C20252378292A2A200D0A002A2A4D6560
:103AA000733320494E464FA3BA2843414E52785FA4
:103AB00049442C205278315F44415441302C2052EB
:103AC00078315F44415441312C205278315F444178
:103AD00054413329203D202820252378202C2523DC
:103AE00078202C20252378202C20252378292A2A89
:103AF000200D0A002A2A4D65733520494E464FA3F2
:103B0000BA2843414E52785F49442C205278315FA5
:103B100044415441302C205278315F44415441316A
:103B20002C205278315F444154413329203D2028D4
:103B300020252378202C252378202C20252378204D
:103B40002C20252378292A2A200D0A002A2A4D65AF
:103B5000733620494E464FA3BA2843414E52785FF0
:103B600049442C205278315F44415441302C20523A
:103B700078315F44415441312C205278315F4441C7
:103B800054413329203D202820252378202C25232B
:103B900078202C20252378202C20252378292A2AD8
:103BA000200D0A002A2A41425320494E464FA3BA0B
:103BB0002843414E52785F49442C20776865656CF4
:103BC000207374617475732C20737065656429208B
:103BD0003D202820252378202C2564202C202564B6
:103BE000207270732C20252378292A2A200D0A00A0
:103BF0002A202020202020202020202020202020BB
:103C000020202020202020202020202020202020B4
:103C100020202020202020202020202020202020A4
:103C20002020202020202020202020202020202094
:103C30002A0D0A002A2A2A2A2A2A2A2A2A2A2A2A4B
:103C40002A2A2A2A2A2A2A2A2A2A2A2A2A2A2A2AD4
:103C50002A2A2A2A2A2A2A2A2A2A2A2A2A2A2A2AC4
:103C60002A2A2A2A2A2A2A2A2A2A2A2A2A2A2A2AB4
:103C70002A2A2A2A2A0D0A00983C0008000000205F
:103C8000F0010000DA020008143D0008F0010020F5
:103C9000D8050000BC30000801332D0102030404E4
:103CA00000091F0607080902040608031C871308F9
:103CB0000E2E200121012201230124012501018969
:103CC000111A253E1A2437120129403A200A2912D6
:103CD0005A25145A230A4902091E0A180E230110F4
:103CE00027581B2201204E082020064815E81C24D6
:103CF000013075401F2501409C4C1D210150C3849B
:103D00001C326980019012010314102723C03F4325
:043D100070410000FE
:0400000508000131BD
:00000001FF
