:020000040800F2
:10000000A006002049010008D10F0008470F000892
:100010009D0F00083B050008ED2D000800000000C2
:1000200000000000000000000000000001210008A6
:10003000790D000800000000F91D00088D2400085B
:100040006301000863010008630100086301000800
:1000500063010008630100086301000863010008F0
:1000600063010008630100086301000863010008E0
:1000700063010008630100086301000863010008D0
:1000800063010008630100086301000863010008C0
:10009000352D0008410500086301000863010008D0
:1000A00063010008630100086301000863010008A0
:1000B0001D250008E525000863010008630100080C
:1000C0006301000863010008630100086301000880
:1000D000630100084D2A000863010008630100085D
:1000E0006301000863010008630100086301000860
:1000F0006301000863010008630100086301000850
:10010000630100086301000863010008630100083F
:10011000630100086301000863010008630100082F
:10012000630100086301000863010008630100081F
:10013000DFF810D000F098F900480047B13100080E
:10014000AFF30080A006002006488047064800471D
:10015000FEE7FEE7FEE7FEE7FEE7FEE7FEE7FEE777
:10016000FEE7FEE7BD240008310100082DE9FE4F3F
:1001700081EA030404F0004421F0004100944FF0B0
:10018000000B23F0004350EA01045ED052EA03045E
:100190005BD0C3F30A54C1F30A552C44A4F2F334E0
:1001A0000194A0FB0254C1F3130141F48011C3F385
:1001B000130343F4801301FB024400FB034E840A43
:1001C000970A44EA815447EA8357A4FB07680295DB
:1001D0008D0A05FB07854FEA932C04FB0C54270579
:1001E000029D4FEA065847EA1637B5EB08056EEB55
:1001F000070C870E920E47EA811742EA8312A7FB8B
:100200000201B6EB0B0164EB00042B0D43EA0C3347
:100210005E1844EB1C50DA465146E7FB0201C5F379
:1002200013044FEA0B3343EA14534FEA0432019CA0
:1002300043EA0603A4F10C040294009CCDE900B447
:1002400000F0C3F803B0BDE8F08F00200146F9E7E5
:10025000C10F80EAE0700844CA079623002100F02D
:1002600077B80EB5C10F80EAE0700844CA070021D4
:1002700040F233438DE80E000A460B4600F0A5F825
:1002800003B000BD30B5041E71F1000404DB4FF073
:100290000044404264EB0101141E73F1000405DBCD
:1002A0001C464FF00043524263EB0403994208BFDF
:1002B000904230BD002801DBC0F10040002901DB85
:1002C000C1F1004181427047002801DBC0F10040CC
:1002D000002901DBC1F10041884270472DE9F05F40
:1002E0000546002092469B468846064681464024A5
:1002F0001BE0284641464746224600F0D6F85346C2
:100300005A46C01A914110D311461846224600F0B1
:10031000BDF82D1A67EB01084F4622460120002147
:1003200000F0B4F817EB00094E41201EA4F10104BF
:10033000DFDC484631462A464346BDE8F09F0029A7
:10034000A8BF7047401C490008BF20F0010070475B
:1003500010B4B0FA80FC00FA0CF050EA010404BFBB
:1003600010BC704749B1CCF1200421FA04F411FA11
:100370000CF118BF012121430843A3EB0C01CB1D55
:100380004FEA00614FEA102042BF002010BC7047C6
:1003900000EBC35010440029A4BF10BC7047401CA0
:1003A000490008BF20F0010010BC704710B5141EB2
:1003B00073F1000408DA401C41F1000192185B411E
:1003C0001A4301D120F0010010BD2DE9F04D9246F5
:1003D0009B4611B1B1FA81F202E0B0FA80F220320C
:1003E000904600F053F804460F4640EA0A0041EAFE
:1003F0000B0153465A46084313D0114653EA0100F5
:1004000019D0C8F14002504600F04FF805460E469C
:1004100050465946424600F039F8084305D00120BD
:1004200004E020463946BDE8F08D0020054346EA49
:10043000E0762C4337430A986305E40AA0EB0800F2
:100440000022FD0A44EA47540A3002D50020014642
:10045000E9E7010510196941DDE90845001969411D
:10046000BDE8F04DA2E70000064C074D06E0E0684D
:1004700040F0010394E8070098471034AC42F6D3EB
:10048000FFF75AFE1833000838330008202A04DB2F
:10049000203A00FA02F1002070479140C2F1200397
:1004A00020FA03F3194390407047202A04DB203AD6
:1004B00021FA02F00021704721FA02F3D040C2F184
:1004C0002002914008431946704770B58C1810F807
:1004D000015B15F0070301D110F8013B2A1106D189
:1004E00010F8012B03E010F8016B01F8016B5B1EA3
:1004F000F9D12B0705D40023521E0DD401F8013B7E
:10050000FAE710F8013BCB1A921C03E013F8015BE9
:1005100001F8015B521EF9D5A142D8D3002070BD6D
:1005200010B502460023002003E014882344921CE7
:10053000401C8842F9DB98B210BD00BFFEE7000006
:1005400000B587B001AA0121134800F0D8F913497A
:10055000019808809DF80F00114908709DF810005F
:10056000104908709DF811000F4908709DF812009D
:100570000E4908709DF813000D4908709DF814008D
:100580000C4908701021044800F018F801200A49AD
:10059000087007B000BD0000006400401E0000208D
:1005A0001400002015000020160000201700002075
:1005B00018000020190000201C000020B1F5007F69
:1005C0003AD00FDC202928D006DC01291CD00429D0
:1005D0001DD0082940D11DE0402921D0B1F5807FF0
:1005E0003AD126E0B1F5004F31D006DCB1F5806F8D
:1005F00025D0B1F5006F2FD124E0B1F5803F12D0A6
:10060000B1F5003F28D111E0154A826025E00822AB
:10061000C26022E01022C2601FE0082202611CE0DA
:100620001022026119E00822426016E010224260A6
:1006300013E00422426010E0042242600DE0042234
:1006400042600AE0002282610422426005E000224A
:1006500082610422426000E000BF00BF70470000DA
:100660000101010010B500F055FB00F003FB00F0A4
:1006700029FB00F0AEFC00F0C0FC00F0A1FB10BDB7
:1006800010B504460B48844209D10121480601F007
:10069000C5FB00214FF0007001F0C0FB08E0012114
:1006A000880601F0BBFB00214FF0806001F0B6FB33
:1006B00010BD00000064004021B9C26842F0200271
:1006C000C26003E0026942F020020261704700004C
:1006D00010B50021837A012202FA03F13D4A126823
:1006E00042F001023B4B1A603A4A1C3212688A43BC
:1006F000384B1C331A60027BCAB9364A0C32126876
:100700008A43344B0C331A604288C38842EA03435D
:10071000304A4032847A42F834300288838842EA90
:1007200003432C4A4032847A02EBC4025360027BBA
:10073000012A19D1274A0C3212680A43254B0C337F
:100740001A604288038842EA0343224A4032847A8C
:1007500042F83430C288838842EA03431D4A40325B
:10076000847A02EBC4025360C27A3AB9194A121D64
:1007700012688A43174B1B1D1A6006E0154A121DAA
:1007800012680A43134B1B1D1A60028932B9114AC1
:10079000143212688A430F4B14331A600289012AFB
:1007A00006D10C4A143212680A430A4B14331A60F9
:1007B000427B012A06D1074A1C3212680A43054BC4
:1007C0001C331A60034A126822F00102014B1A60BE
:1007D00010BD0000006600401AB143690B4343613D
:1007E00002E043698B434361704730B50246002005
:1007F0000023146824F002041460146844F0010417
:10080000146000E05B1C546804F001041CB94FF64E
:10081000FF74A342F6D1546804F001040CB900201F
:100820006CE08C79012C04D1146844F080041460CD
:1008300003E0146824F080041460CC79012C04D106
:10084000146844F04004146003E0146824F0400489
:1008500014600C7A012C04D1146844F02004146054
:1008600003E0146824F0200414604C7A012C04D1B5
:10087000146844F01004146003E0146824F01004B9
:1008800014608C7A012C04D1146844F008041460BC
:1008900003E0146824F008041460CC7A012C04D11D
:1008A000146844F00404146003E0146824F00404A1
:1008B00014608C78A407CD7844EA05640D7944EA85
:1008C00005444D7944EA05540D886D1E2C43D461CE
:1008D000146824F001041460002300E05B1C5468D9
:1008E00004F001041CB14FF6FF74A342F6D1546822
:1008F00004F001040CB1002000E0012030BD30B54F
:1009000005460C46134605F5D87000EB0410006848
:1009100000F004001872187A50B905F5D87000EB91
:100920000410006840F2FF7101EA5050186009E0BD
:1009300005F5D87000EB041000686FF0604101EA23
:10094000D000586005F5D87000EB0410006800F086
:100950000200587205F5D87000EB0410406800F0F2
:100960000F00987205F5D87000EB04104068000A7B
:10097000D87405F5D87000EB041040684FF6FF718D
:1009800001EA1040988205F5D87000EB04108068E9
:10099000D87205F5D87000EB04108068010A19734D
:1009A00005F5D87000EB04108068010C597305F54B
:1009B000D87000EB04108068000E987305F5D870AD
:1009C00000EB0410C068D87305F5D87000EB041074
:1009D000C068010A197405F5D87000EB0410C068EE
:1009E000010C597405F5D87000EB0410C068000EB6
:1009F000987421462846FFF75FFE30BD00218171C3
:100A0000C171017241728172C1728170C170032122
:100A100001710221417101210180704710B5024628
:100A20000020936803F08063B3F1806F00D110E081
:100A3000936803F00063B3F1006F01D1012008E077
:100A4000936803F08053B3F1805F01D1022000E08E
:100A50000420042874D002F5C07303EB00131B6854
:100A600003F0010402F5C07303EB00131C600B7A62
:100A70007BB94B7A0C8843EA445302F5C07404EB0B
:100A800000142468234302F5C07404EB00142360AF
:100A900010E00B7A4C6843EAC4034C7A234302F516
:100AA000C07404EB00142468234302F5C07404EB03
:100AB000001423608B7A03F00F038B7202F5C0736E
:100AC00003EB00135B6823F00F0402F5C07303EB24
:100AD00000135C6002F5C07303EB00135B688C7A53
:100AE000234302F5C07404EB001463608B7B1C0687
:100AF0004B7B44EA03440B7B44EA0323CC7A234335
:100B000002F5C07404EB0014A3608B7C1C064B7CC4
:100B100044EA03440B7C44EA0323CC7B234302F5E1
:100B2000C07404EB0014E36002F5C07303EB001320
:100B30001B6843F0010402F5C07303EB00131C6053
:100B400010BD0246002021B1012910D002292CD16C
:100B50001CE0936803F0010340EA8300936803F00C
:100B6000020318439368C3F3806318431FE093683C
:100B700003F4807340EA9310936803F4007340EA2F
:100B800013209368C3F3C063184310E0936803F421
:100B9000803340EA9330936803F4003340EA134013
:100BA0009368C3F30073184301E0002000BF00BF47
:100BB00020B1052804D0072806D103E0022005E073
:100BC000002003E0012001E0002000BF00BF7047CB
:100BD00000B587B00121480601F010F900F0F9F9DD
:100BE00000F0EEF82248FFF74BFD04A8FFF706FFE0
:100BF00001208DF816008DF817008DF818000020E0
:100C00008DF819008DF81A008DF81B008DF8120070
:100C100003208DF8130002208DF8140000208DF8B9
:100C200015002D20ADF8100004A91148FFF7DDFDD7
:100C300001208DF80D000020ADF808008DF80A00A5
:100C40008DF80B0001208DF80C000020ADF800009D
:100C5000ADF80200ADF80400ADF806000122022153
:100C60000348FFF7B9FD6846FFF732FD07B000BD46
:100C7000006400401FB501208DF80D000020ADF884
:100C800008008DF80A008DF80B0001208DF80C008B
:100C90002020ADF800000020ADF802000122022162
:100CA0000748FFF799FD4FF69F70ADF804004FF627
:100CB000FF70ADF806006846FFF70AFD1FBD000093
:100CC000006400401FB501208DF80D00ADF808004C
:100CD0008DF80A0000208DF80B0001208DF80C0023
:100CE00042F26040ADF800000020ADF802000122A1
:100CF00010210748FFF770FD4FF61F70ADF8040094
:100D00004FF6FF70ADF806006846FFF7E1FC1FBD27
:100D1000006400400EB50121480601F06FF8154847
:100D2000FFF7AEFC6846FFF769FE01208DF806006C
:100D30008DF807008DF8080000208DF809008DF867
:100D40000A008DF80B008DF8020003208DF80300D7
:100D500002208DF8040000208DF805002D20ADF84C
:100D6000000069460348FFF740FD69460148FFF768
:100D70003CFD0EBD006400407047000000B585B02A
:100D8000684601F06BF86FF0040001F039FB0020B9
:100D900001F07DFB07490198B0FBF1F006490870AE
:100DA0004FF4FA510198B0FBF1F00449088005B006
:100DB00000BD000000127A002A0000202C00002054
:100DC00008B50121142001F039F84FF40060ADF8A6
:100DD000000003208DF8020048208DF803006946CA
:100DE0000F4800F021F84FF48050ADF800000320C8
:100DF0008DF8020018208DF803006946084800F0BD
:100E000013F84FF4C040ADF8000003208DF8020045
:100E100010208DF803006946024800F005F808BD6F
:100E200000080140001001402DE9F0410246002574
:100E30000026002000230024002791F803C00CF0B6
:100E40000F0591F803C00CF0100CBCF1000F03D09B
:100E500091F802C04CEA050591F800C0BCF1000F02
:100E600031D0146800202BE04FF0010C0CFA00F395
:100E7000B1F800C00CEA03069E4220D183004FF077
:100E80000F0C0CFA03F7BC4305FA03FC4CEA04040C
:100E900091F803C0BCF1280F06D14FF0010C0CFAF9
:100EA00000FCC2F814C00AE091F803C0BCF1480F7E
:100EB00005D14FF0010C0CFA00FCC2F810C0401C28
:100EC0000828D1D31460B1F800C0BCF1FF0F34DDA5
:100ED000546800202EE000F1080C4FF0010808FAD9
:100EE0000CF3B1F800C00CEA03069E4221D1830046
:100EF0004FF00F0C0CFA03F7BC4305FA03FC4CEA65
:100F0000040491F803C0BCF1280F05D100F1080CCE
:100F100008FA0CF8C2F8148091F803C0BCF1480F2D
:100F200007D100F1080C4FF0010808FA0CF8C2F8DC
:100F30001080401C0828CED35460BDE8F081416188
:100F400070470161704700BFFEE7000008B501214E
:100F5000142000F073FF0320ADF8000010208DF87E
:100F6000030003208DF8020069460A48FFF75CFF82
:100F700003210848FFF7E3FF4FF40050ADF80000ED
:100F800069460548FFF750FF4FF400510248FFF74C
:100F9000D8FF08BD000801400010014000BFFEE777
:100FA00010B50146002200200CE000EB4003074C86
:100FB00034F813308B4204D100EB400304EB4303BD
:100FC0009A88401C0628F0DD104610BDD400002091
:100FD000704708B54FF4A06000F05CF814208DF85D
:100FE000000000208DF801008DF8020001208DF82E
:100FF0000300684600F016F808BD08B54FF4A0607D
:1010000000F048F815208DF8000000208DF8010050
:1010100001208DF802008DF80300684600F002F808
:1010200008BD000070B5002100230F22C47804B36E
:10103000154C246804F4E064C4F5E064210AC1F1AD
:101040000403CA40447804FA03F18478144021432D
:1010500009010E4C0678A155047804F01F050124FF
:10106000AC4005786D11AD0005F1E025C5F80041F3
:1010700009E0047804F01F050124AC40044D067813
:10108000761145F8264070BD0CED00E000E400E06C
:1010900080E100E002490143024A1160704700000C
:1010A0000000FA050CED00E0FFF792FD25A001F02D
:1010B0009FFE254801F09CFE244801F099FE24A0E3
:1010C00001F096FE214801F093FE1F4801F090FECA
:1010D000012241F61F4140F2CF7001F0D9FA0022FF
:1010E00041F61F4141F2873001F04CFA01201F49BF
:1010F000087026E01E480088012809D101F002F896
:101100001C4801681CA001F073FE002018490880EB
:1011100022480088012814D12148017821A001F03B
:1011200067FE012302220421104601F075F8002019
:101130001A4908801A480078042802DB0020184960
:101140000870D7E70D0A0000D4320008903200087A
:101150002A20204D6173746572204E6F6465A3A1CF
:101160005E5F5E20202A0D0A000000003001002092
:1011700024000020200000207265666572656E63A1
:1011800065206D6573736167652069732073656E93
:10119000743A202564200D0A00000000260000207B
:1011A000480000206D6173746572206E6F64652065
:1011B00073656E6473204D61737465724E756D4214
:1011C00043203D25643A0D0A000000000EB500BF23
:1011D000FFF748FA0120F4490870002241F61F4148
:1011E00040F6AC5001F054FA00BFDCE1EF48008853
:1011F00000F40040002827D0EC480088C0F30D0B15
:10120000EBA001F0F5FD4FF0000A15E0F24810F8F0
:101210000A00F2490870F04810F80A10F04801F08E
:1012200084FD00BF4021EE4801F0B2FC0128F9D155
:101230000AF101001FFA80FADA45E7DBE4A001F0C9
:10124000D7FD0020D9490880E648007801280FD151
:10125000E548006808B9012000E00020E249086084
:101260000020E049087000F063FE0020DF4908809C
:10127000DF480078012873D1DB48001D006808B9F9
:10128000012000E00020D849091D0860D7480088E7
:10129000042802DB0020D5490880D6A001F0A8FD73
:1012A000D2480188D4A001F0A3FDDF480078DF49CF
:1012B0000978DF4A1278CDE900210290DD480378F1
:1012C000DD480278DD480178DD4801F091FD01F04C
:1012D0008BFADC49086001F08FFBDA48006808B33C
:1012E000D9480088B0B9D949C04A128801EB8201B7
:1012F000488800F037FDD3480068012817DDD2493F
:10130000D34A126831F81200012241F61F4101F060
:10131000BFF90CE0CC490888012241F61F4101F0D9
:10132000B7F904E0B1480188CAA001F061FD0120CD
:10133000D4490880AD480088401CAC490880084664
:101340000088042801DD002008800020A8490870DA
:101350000120CD490860BE4908600020CB490860E3
:10136000CB480088012819D1CA48006808B9012073
:1013700000E00020C749086000F04CFEC649088024
:1013800008460088FFF70CFEC4490880BD48008865
:10139000401CBC4908800020BD490880C048007836
:1013A00001287DD1BB48001D006808B9012000E07C
:1013B0000020B849091D0860BA480378BA48027885
:1013C000BA480188BAA001F013FDC9480068032893
:1013D00040DAB5480078C749C74A126841F8220088
:1013E000C3480068401CC2490860C348006802281E
:1013F0002AD1C0480068BF494968401ABF490860FF
:10140000BC484068BB498968401ABD490860BB4870
:101410000068FEF726FF80464FF03332B94BFEF7E7
:10142000A5FE04460D46B6480068FEF71AFF0646BC
:1014300022462B46FEF726FF03D2B3A001F0D8FCCC
:1014400002E0B6A001F0D4FCAB480068401CAA49F9
:101450000860A5E0A7484068A6490860084680687B
:1014600048609148007888600320A1490860A1483D
:101470000068A0494968401AA04908609D48406832
:101480009C498968401A9E49086008460068FEF732
:10149000DFFE0446A64801682046FEF715FF00E07F
:1014A00081E00AD395480068FEF7D2FE0446A048C2
:1014B00001682046FEF708FF0DD2904801689DA004
:1014C00001F096FC8E4801689FA001F091FC8EA06F
:1014D00001F08EFC64E08A480068FEF7B9FE04461D
:1014E000934801682046FEF7E5FE03D28448006871
:1014F00003280EDC81480068FEF7AAFE04468C48EB
:1015000001682046FEF7D6FE11D27C480068032809
:101510000DDD7A48016887A001F06AFC784801680F
:1015200089A001F065FC8DA001F062FC38E07448F0
:10153000006810F1020F04DB7148006810F1020F1F
:101540000DDA6E4801687BA001F052FC6C4801681E
:101550007DA001F04DFC85A001F04AFC20E0684828
:10156000006810B16648006868B96448016871A0F5
:1015700001F03EFC6248016873A001F039FC7EA0D6
:1015800001F036FC0CE05D4801686AA001F030FC17
:101590005B4801686CA001F02BFC7CA001F028FCEA
:1015A00000203F49087021E63E0100204400002051
:1015B0000D0A20746865206D65737361676520741A
:1015C00068617420796F752073656E642069733A61
:1015D0000D0A0D0A000000005C010020240100201B
:1015E0000038014002000020B401224280000020A7
:1015F0000F000020200D0A002A2A2A2A2A2A2A2A35
:101600002A2A2A2A2025642E207265666572656E54
:1016100063652073746172742A2A2A2A2A2A2A2A64
:101620002A2A200D0A0000000C0000200B000020D8
:101630000A00002009000020080000200700002008
:10164000E83100082C010020A800002090000020B4
:10165000FC0000202B2B2B474747206E6F746869D6
:101660006E6720746F2073656E64202120696E2080
:101670004E756D42633A256420204747472B2B2B3C
:101680000D0A00003A010020F8000020B000002000
:101690000400002080012142380100203601002092
:1016A0001C00002017000020140000201E00002055
:1016B0002A2A41425320494E464FA3BA2843414E5D
:1016C00052785F49442C205278315F444154413074
:1016D00029203D202820252378202C256420727085
:1016E000732C20252378292A2A200D0A00000000C7
:1016F0004C01002094020020400100204401002001
:10170000480100203333F33F697420697320626C11
:101710006F636B6564200D0A000000006A757374C6
:1017200020646563656C6572617465200D0A000054
:101730005401002056656C6F566172312069732028
:101740002564200D0A00000056656C6F56617232E8
:10175000206973202564200D0A000000646563651C
:101760006C6572617465200D0A00000063656C652C
:1017700072617465200D0A00636F6E7374616E741C
:101780002073706565640D0A000000006F74686561
:1017900072207374617475730D0A00000EB500BF7A
:1017A000FEF760FF0120F3490870002241F61F4157
:1017B00040F6AC5000F06CFF00BFD9E1EE48008865
:1017C00000F40040002827D0EB480088C0F30D0B40
:1017D000EAA001F00DFB4FF0000A15E0F14810F807
:1017E0000A00F1490870EF4810F80A10EF4801F0BC
:1017F0009CFA00BF4021ED4801F0CAF90128F9D157
:101800000AF101001FFA80FADA45E7DBE3A001F0F4
:10181000EFFA0020D8490880E548007801280FD168
:10182000E448006808B9012000E00020E1490860B0
:101830000020DF49087000F07BFB0020DE490880B3
:10184000DE480078012870D1DA48001D006808B928
:10185000012000E00020D749091D0860D648008813
:10186000042802DB0020D4490880D3480188D4A092
:1018700001F0BEFADE480078DE490978DE4A1278C7
:10188000CDE900210290DD480378DD480278DD488B
:101890000178DD4801F0ACFA00F0A6FFDB490860F2
:1018A00001F0AAF8D948006808B3D9480088B0B94F
:1018B000D849C14A128801EB8201488800F052FAE7
:1018C000D2480068012817DDD149D34A126831F89F
:1018D0001200012241F61F4100F0DAFE0CE0CC4973
:1018E0000888012241F61F4100F0D2FE04E0B24810
:1018F0000188CAA001F07CFA0120D4490880AE48D2
:101900000088401CAC49088008460088042801DD96
:10191000002008800020A94908700120CC490860F7
:10192000BD4908600020CB490860CB4800880128E9
:1019300019D1CA48006808B9012000E00020C74951
:10194000086000F067FBC649088008460088FFF77A
:1019500027FBC4490880BD480088401CBB4908805B
:101960000020BD490880C048007801287ED1BB48CE
:10197000001D006808B9012000E00020B749091DDA
:101980000860BA480378BA480278BA480188BAA011
:1019900001F02EFAC8480068032840DAB4480078FD
:1019A000C649C74A126841F82200C3480068401C73
:1019B000C1490860C248006802282AD1BF480068AF
:1019C000BE494968401ABF490860BC484068BB49E5
:1019D0008968401ABC490860BA480068FEF741FCB3
:1019E00080464FF03332B94BFEF7C0FB04460D463C
:1019F000B5480068FEF735FC064622462B46FEF742
:101A000041FC03D2B2A001F0F3F902E0B5A001F06D
:101A1000EFF9AB480068401CA9490860A5E0A74859
:101A20004068A64908600846806848609048007889
:101A300088600320A0490860A04800689F49496861
:101A4000401AA04908609D4840689C498968401A2E
:101A50009D49086008460068FEF7FAFB0446A64860
:101A600001682046FEF730FC0CD300E080E095488A
:101A70000068FEF7EDFB04469F4801682046FEF72C
:101A800023FC0DD28F4801689CA001F0B1F98E486B
:101A900001689FA001F0ACF98DA001F0A9F964E004
:101AA00089480068FEF7D4FB044693480168204645
:101AB000FEF700FC03D28448006803280EDC81484E
:101AC0000068FEF7C5FB04468B4801682046FEF718
:101AD000F1FB11D27B48006803280DDD79480168CD
:101AE00086A001F085F97848016889A001F080F9A5
:101AF0008CA001F07DF938E07348006810F1020F06
:101B000004DB7148006810F1020F0DDA6D480168BE
:101B10007AA001F06DF96C4801687DA001F068F9C8
:101B200084A001F065F920E06748006810B16648BC
:101B3000006868B96348016870A001F059F962480B
:101B4000016873A001F054F97DA001F051F90CE097
:101B50005C48016869A001F04BF95B4801686CA022
:101B600001F046F97BA001F043F900203E490870DE
:101B700024E600003F010020440000200D0A2074EC
:101B80006865206D65737361676520746861742092
:101B9000796F752073656E642069733A0D0A0D0ABA
:101BA000000000005C0100202401002000380140FA
:101BB00002000020B4012242800000200F0000201B
:101BC0002A2A2A2A2A2A2A2A2A2A2A2A2025642E46
:101BD000207265666572656E6365207374617274E8
:101BE0002A2A2A2A2A2A2A2A2A2A200D0A0000001A
:101BF0000C0000200B0000200A000020090000203B
:101C000008000020070000203C3200082C010020C2
:101C1000A800002090000020FC0000202B2B2B4768
:101C20004747206E6F7468696E6720746F20736514
:101C30006E64202120696E204E756D42633A2564E2
:101C400020204747472B2B2B0D0A00003A0100208C
:101C5000F8000020B0000020040000208001214294
:101C600038010020360100201C0000201700002051
:101C7000140000201E0000202A2A41425320494E11
:101C8000464FA3BA2843414E52785F49442C205214
:101C900078315F444154413029203D2028202523BC
:101CA00078202C2564207270732C20252378292A13
:101CB0002A20720A000000004C010020940200203B
:101CC0004001002044010020480100203333F33F4D
:101CD000697420697320626C6F636B6564200D0A00
:101CE000000000006A75737420646563656C65723A
:101CF000617465200D0A00005401002056656C6F68
:101D000056617231206973202564200D0A0000009D
:101D100056656C6F56617232206973202564200D00
:101D20000A000000646563656C6572617465200D6E
:101D30000A00000063656C6572617465200D0A001D
:101D4000636F6E7374616E742073706565640D0AE1
:101D5000000000006F74686572207374617475739D
:101D60000D0A000030B587B0044618480078401CC2
:101D7000164908700846007815490870019400203B
:101D80008DF80D008DF80C0008208DF80E0011481C
:101D900000788DF80F00084601788DF8121001A91F
:101DA0000D48FEF73BFE054640F2E73001F0CAF968
:101DB00000BF29460848FEF7C4FE0028F9D0214696
:101DC00006A001F015F807B030BD0000600000204B
:101DD0002701002024010020006400403E3E3E3EDA
:101DE0003E494420202523782069732073656E7452
:101DF0003C3C3C3C3C0D0A007047000029B1064ABF
:101E0000D2690243044BDA6104E0034AD269824397
:101E1000014BDA61704700000010024029B1064A08
:101E200012690243044B1A6104E0034A12698243B7
:101E3000014B1A61704700000010024029B1064AA8
:101E400092690243044B9A6104E0034A9269824317
:101E5000014B9A61704700000010024030B500212C
:101E60000022002400232D4D6D6805F00C0121B1E6
:101E7000042905D0082923D105E0294D056022E079
:101E8000274D05601FE0254D6D6805F47012234D48
:101E90006D6805F48034022505EB92421CB9214D92
:101EA000554305600BE01D4D6D6805F400351DB10F
:101EB0001C4D5543056002E0194D5543056002E095
:101EC000174D056000BF00BF144D6D6805F0F001AF
:101ED0000909154D6B5C0568DD4045600F4D6D6867
:101EE00005F4E061090A104D6B5C4568DD408560D2
:101EF0000A4D6D6805F46051C90A0B4D6B5C45686D
:101F0000DD40C560054D6D6805F44041890B074D06
:101F10006B5CC568B5FBF3F5056130BD0010024090
:101F200000127A0000093D002F0000203F00002031
:101F300070B5274800782749086027480078274966
:101F40000860274800782749224A126801EB82017D
:101F5000224A126821F8120022481E49096800EB43
:101F600081001E49096830F811001F49097840EACC
:101F700001211C48174A126800EB8200174A1268B8
:101F800020F81210194800781949124A126801EB1A
:101F90004201124A126888540E4800680F490968C5
:101FA0004843002813DB00240FE000250AE00D4819
:101FB00000EB840030F815302A4621460DA000F0D1
:101FC00017FF6D1C022DF2DB641C042CEDDB70BDD1
:101FD0000700002018010020080000201C0100203C
:101FE00009000020900000200A0000200B000020C3
:101FF000A00000207265636569766564206D617478
:102000007269782020256420256420252378200DFE
:102010000A00000010B53148008850BB30490978EB
:10202000491E304A02EB81012F4A304B1B6852F89F
:10203000232031F81200FFF795FE2C480068401C61
:102040002A4908602A480088401C2A4909688842B1
:1020500004DB0021284800F04EFB34E01F49234AEE
:10206000126831F81200012241F61F4100F010FB06
:1020700029E01B490978491E1A4A02EB81021F49CF
:102080000968491E184B53F8211032F81100FFF768
:1020900069FE1748008817490968884204DB002157
:1020A000154800F028FB0EE00C49144A126831F87C
:1020B0001200012241F61F4100F0EAFA0F480068C1
:1020C000401C0E49086007480549097800EB81006B
:1020D0000749098830F8110010BD0000A800002051
:1020E000800000209000002044020020FC0000201E
:1020F0003A0100202C01002000040040F8000020DC
:1021000070470000F0B587B007460120019000201D
:102110008DF80D008DF80C0005208DF80E000024C0
:1021200044E000253FE0E0B28DF80F008DF810503C
:10213000224800EB840010F815108DF811101F488C
:1021400000EB840030F8150001128DF812101C48C5
:1021500000EB840010F815108DF8131001A9194830
:10216000FEF75CFC06464FF4167000F0C1FF00BF9E
:1021700031461448FEF7E5FC0028F9D02A462146EE
:1021800011A000F035FE9DF8111014A000F030FEF3
:102190009DF8121016A000F02BFE9DF8131019A048
:1021A00000F026FE6D1C022DBDDB641C042CB8DB88
:1021B00008208DF80F0007B0F0BD0000B40000202B
:1021C000C40000200064004069203D2025642C6A82
:1021D000203D20256420200D0A000000534D206979
:1021E000732073656E74323A202523780D0A00003F
:1021F000534D2069732073656E74333A202523781C
:10220000200D0A00534D2069732073656E74343AB3
:1022100020252378200D0A002DE9F04186B00446E0
:102220000E4617469846042028490870022028497F
:10223000087001202749087027480078274908704E
:1022400004202749087005202649087000940020C2
:102250008DF809008DF8080008208DF80A001B4849
:1022600000788DF80B001A4801788DF80C10194889
:1022700001788DF80D10194801788DF80E10184866
:1022800001788DF80F10174801788DF81010694605
:102290001548FEF7C3FB0546144A0598D2E90032FB
:1022A000C01842F10001114A03C20020059000BF8E
:1022B00029460D48FEF745FC0028F9D00B480CC80C
:1022C0000BA000F095FD06B0BDE8F081580000209D
:1022D000590000205A000020480000205B00002028
:1022E0005C0000205D0000200064004050000020E1
:1022F0005468652073656E64696E672072656665F3
:1023000072656E63652074696D6520697320202590
:102310006C6C64200D0A000010B500F001F810BDCF
:102320000CB50020019000903348006840F48030E4
:102330003149086000BF3048006800F40030009068
:102340000198401C0190009818B90198B0F5A06F51
:10235000F1D12948006800F4003010B1012000904C
:1023600001E0002000900098012843D12348006834
:1023700040F01000214908600846006820F0030082
:1023800008600846006840F0020008601A4840688B
:10239000194948600846406848600846406840F46B
:1023A000806048600846406820F47C104860084619
:1023B000406840F4E81048600846006840F08070CB
:1023C000086000BF0C48006800F000700028F9D0D9
:1023D0000948406820F00300074948600846406803
:1023E00040F00200486000BF0348406800F00C0065
:1023F0000828F9D10CBD0000001002400020024066
:10240000042808D14FF0E021096941F004014FF0A0
:10241000E022116107E04FF0E021096921F0040199
:102420004FF0E02211617047012808D14FF0E02100
:10243000096941F001014FF0E02211610EE0811CB9
:1024400041B94FF0E021096921F001014FF0E0228C
:10245000116103E000214FF0E0229161704710B557
:102460000146002200230020CB10022B03D14FF0A5
:10247000E024226902E04FF0E024E26901248C406C
:1024800014400CB1012000E0002010BD704740B1A5
:102490004FF0E021096941F002014FF0E0221161A3
:1024A00007E04FF0E021096921F002014FF0E0223E
:1024B000116170474FF0E0214861704710B5134833
:1024C000006840F001001149086008464068104962
:1024D00008400E494860084600680E4908400B490C
:1024E00008600846006820F48020086008464068BC
:1024F00020F4FE0048604FF41F008860FFF70CFFD7
:102500004FF000600449086010BD00000010024058
:102510000000FFF8FFFFF6FE08ED00E010B5012116
:10252000880700F0F4F8A8B10121880700F0E0F86E
:1025300009480078012807D1084908800848007830
:10254000401C0749087005E006A000F051FC01207E
:102550000B49087010BD000030010020260000204B
:102560004800002074696D65723220696E7465726E
:102570007275707420636F6D6573200D0A00000022
:10258000280000207FB506460C4615460121084666
:10259000FFF734FCADF80860ADF804400020ADF85A
:1025A0000A00ADF8060001A94FF0804000F0CAF81B
:1025B00001221146900700F0BBF81C208DF80000A6
:1025C00000208DF8010004208DF8020001208DF814
:1025D00003006846FEF726FD29464FF0804000F0D4
:1025E0008AF87FBD10B50121184800F090F8002846
:1025F0002AD00121154800F07BF815480078012801
:102600001FD11448006808B9012000E000201149DA
:10261000086011480068401C0F49086008460068BF
:102620000A280AD30DA000F0E3FB0021074800F0C0
:1026300062F80121880700F05EF801201249088045
:1026400002E001201149088010BD00000004004094
:1026500030010020B8012242200000204E6F772078
:1026600074686520534D2069732073656E742074FF
:102670006F20616C6C2074686520736C61766520D6
:102680006E6F6465730000002400002004000020C9
:102690007FB506460C46154601210220FFF7AEFB2A
:1026A000ADF80860ADF804400020ADF80A00ADF8C0
:1026B000060001A90D4800F045F8012211460B481B
:1026C00000F036F81D208DF8000000208DF8010084
:1026D00003208DF8020001208DF803006846FEF704
:1026E000A1FC2946014800F006F87FBD0004004027
:1026F000CA430282704721B1028842F0010202807F
:1027000004E002884FF6FE731A400280704730B52D
:102710000246002000230024158A05EA010395895A
:1027200005EA010413B10CB1012000E0002030BD26
:102730001AB183890B43838102E083898B438381B0
:1027400070470000002202881D4B98420ED01D4B9E
:1027500098420BD0B0F1804F08D01B4B984205D067
:102760001A4B984202D01A4B984204D14FF68F73FD
:102770001A404B881A43174B984207D0164B984281
:1027800004D04FF6FF431A40CB881A4302808B884F
:1027900083850B8803850A4B98420BD0094B9842DE
:1027A00008D00E4B984205D00D4B984202D00D4BED
:1027B000984201D10B7A038601238382704700007F
:1027C000002C01400034014000040040000800409B
:1027D000000C004000100040001400400040014088
:1027E00000440140004801402DE9F8430024A04680
:1027F000002035E0002130E0594A02EB800232F837
:102800001180584A1278012A11D100220CE0564B4F
:1028100033F81230434506D1544B43F8340003EBF0
:10282000C4035960641C521C032AF0D314E0504ABC
:102830001278012A10D100220CE04E4B33F81230EE
:10284000434506D1494B43F8340003EBC4035960B8
:10285000641C521C032AF0D3491C0229CCDB401C07
:102860000428C7DB214644A000F0C2FA002610E08D
:1028700048A000F0BDFA3D4800EBC60042683B4866
:1028800050F8361048A000F0B3FA50A000F0B0FAAB
:10289000761CA642ECDB002550480068A04202DB13
:1028A00000204E4908604D49086814E02F4951F84E
:1028B00030104B4A127891420CD12C4901EBC001E7
:1028C0004968484A42F825106D1C44490968491C6A
:1028D000424A1160401CA042E8DB00200090002723
:1028E00000BF0DE03F4951F82010491E3E4A1160DB
:1028F0001146098889B22DF81710791C8FB2401C37
:10290000A842EFDBBDF800103848FDF709FE384952
:102910000860012608E03DF816103448FDF700FE77
:10292000334941F82600761CAE42F4DB002011E06A
:102930002F4909882F4A118001280ADB2C4931F8D8
:102940002020411E2A4B33F82110511A294A22F81F
:102950001010401CA842EBDB2846BDE8F8830000BD
:10296000900000203E01002084000020540200203E
:102970003F0100208A00002023232374656D704DE1
:1029800065734C6F636174696F6E5F7823232325D1
:10299000640D0A002323236A696162696E207761EE
:1029A0006E672323230D0A0072656C6176616E7475
:1029B000206D6573206C6F636174696F6E3A2028B7
:1029C00025642C202564290D0A0000004040404069
:1029D0004040404040404040400D0A000801002077
:1029E0008000002044020020B0000020820000206F
:1029F00010010020A8000020F0B5002300250024CD
:102A00000022012119E00E4830F81150002011E099
:102A100000EB40060B4F37F816309D4209D100EB12
:102A2000400607EB4606B488074E26F81240561CAF
:102A3000F2B2401C0628EBDB491C0229E3DBF0BDA7
:102A400090000020D40000208200002010B540F249
:102A500025511D4800F0A9F810B31B4800F060F99B
:102A6000C4B21A48008800F40040C8B9174800886A
:102A700000F4804060B10A2C03D000201349088084
:102A800020E01248008840F400401049088019E016
:102A90000D2C06D10D48008840F480400B49088079
:102AA00010E00A480088C0F30D0009490C5407489B
:102AB0000088401C0549088008460088C72801DDB9
:102AC0000020088010BD00000038014044000020B4
:102AD0005C01002021B1828942F40052828104E02D
:102AE00082894DF6FF731A408281704700B587B026
:102AF000012144F20400FFF7A1F94FF40070ADF892
:102B0000180003208DF81A0018208DF81B0006A964
:102B10001D48FEF789F94FF48060ADF818000420D5
:102B20008DF81B0006A91848FEF77EF925208DF8C0
:102B3000040003208DF805008DF8060001208DF8B3
:102B4000070001A8FEF76EFA4FF47A3002900020D9
:102B5000ADF80C00ADF80E00ADF81000ADF81400A3
:102B60000C20ADF8120002A9084800F06DF801220F
:102B700040F22551054800F042F801210348FFF7D3
:102B8000A9FF07B000BD0000000801400038014067
:102B900002460020B1F5007F00D100BF13880B4032
:102BA0000BB1012000E00020704770B50246002400
:102BB00000230025002040F66A16B14200D100BF74
:102BC000C1F3421501F01F03012606FA03F3012D9C
:102BD00002D19689334006E0022D02D1168A334095
:102BE00001E0968A33400C12012606FA04F4168896
:102BF000344013B10CB1012000E0002070BDF0B5ED
:102C00000346002400260025002040F66A17B9423A
:102C100000D100BF1846C1F3421401F01F0601277E
:102C200007FA06F5012C01D10C3004E0022C01D189
:102C3000103000E014301AB107682F43076002E03B
:102C40000768AF430760F0BD2DE9F04786B0054641
:102C50000E460024A24600BFA1460027B08900B15D
:102C600000BF2F462C8A4CF6FF700440F0880443C6
:102C70002C82AC894EF6F3100440B08831890843A9
:102C8000718908430443AC81AC8A4FF6FF4004408D
:102C9000B0890443AC8201A8FFF7E0F81F488742DF
:102CA00002D1DDF810A001E0DDF80CA0A88900F445
:102CB000004040B10AEBCA0000EB0A10316849003D
:102CC000B0FBF1F807E00AEBCA0000EB0A1031682C
:102CD0008900B0FBF1F86420B8FBF0F00401200992
:102CE000642101FB1089A88900F4004040B1322022
:102CF00000EBC900B0FBF1F000F00700044308E06E
:102D0000322000EB09106421B0FBF1F000F00F005D
:102D100004432C8106B0BDE8F08700000038014074
:102D200001468888C0F308007047C1F3080282801A
:102D30007047000000B587B001AA00211F48FDF7C9
:102D4000DEFD1F49019808809DF80F001D4908709D
:102D50009DF810001C4908709DF811001B4908706F
:102D60009DF812001A4908709DF81300194908705F
:102D70009DF8140018490870BDF81800174908801C
:102D8000BDF8180016490988084415490880002034
:102D9000ADF8180002210948FDF710FC084800882A
:102DA000012802D10F49088006E005480088022862
:102DB00002D101200C49087007B000BD006400403A
:102DC000000000200700002008000020090000206B
:102DD0000A0000200B0000200C0000201200002040
:102DE00010000020020000200F00002000BFFEE7BE
:102DF0000FB4054B10B503A9044A029800F018F867
:102E000010BC5DF814FB00008D3100085801002053
:102E100002E008C8121F08C1002AFAD170477047A3
:102E2000002001E001C1121F002AFBD17047000001
:102E30002DE9FF4F8DB09B460F460446002606E065
:102E400025280BD05A460F999047641C761C207891
:102E50000028F5D111B03046BDE8F08F0025A84616
:102E60000122984900E0054314F8013F203B02FA93
:102E700003F00842F7D120782E2817D114F8010F5B
:102E800045F004052A280ED06FF02F022078A0F11B
:102E9000300109290AD808EB880102EB410100EB57
:102EA0000108641CF2E757F8048B641C20786C2836
:102EB0000DD004DC4C2812D06A2811D104E074280B
:102EC0000DD07A280CD10AE045F4001507E06178AE
:102ED00045F48015814202D1641C05F58015641CFF
:102EE0002078692844D008DC0028B3D0582867D05F
:102EF00063280FD0642808D13AE0702865D0732881
:102F000012D075285AD078285AD05A460F9990472F
:102F1000761CD5E017F8040B8DF8000000208DF822
:102F20000100E946012003E057F8049B4FF0FF3011
:102F300069074FF0000501D40AE06D1C45450DDA24
:102F40008542FADB19F805100029F6D106E06D1C60
:102F50008542FCDB19F805100029F8D12E4404E065
:102F600019F8010B5A460F9990476D1EF8D2A7E049
:102F70000A200021CDE90801C5F3025002280CD037
:102F800001CFC117021E71F100020CDA0023D0EB51
:102F9000030063EB01012D2208E0FF1D27F0070766
:102FA000F7E80201EEE72A0504D52B228DF8282048
:102FB00001223CE0EA073AD02022F7E70A2000E0AD
:102FC00010200021CDE9080107E01020002145F084
:102FD0000405CDE908014FF00808C5F302500228A6
:102FE00010D001CF00214FF0000A2A0720D5227807
:102FF000702A0DD0DDE908C38CF0100C5CEA030CDC
:103000000CD015E0FF1D27F00707F7E80201EAE7FB
:1030100040228DF828204FF0010A0CE050EA01030D
:1030200006D030238DF828308DF8292002229246D0
:103030002278582A04D024A20DF120090B9209E02D
:1030400026A2F9E7DDE90823FDF748F90B9B9B5C15
:1030500009F8013D50EA0102F4D1ADEB090020303E
:103060000890680701D44FF001080899884503DDEE
:103070000898A8EB000000E000208046002506E04C
:103080000AA85A46405D0F9990476D1C761C55451D
:10309000F6DB04E030205A460F999047761CB8F1D1
:1030A0000001A8F10108F5DC05E019F8010B5A460A
:1030B0000F999047761C0899481E08900029F4DC67
:1030C000641CC4E609280100303132333435363708
:1030D0003839616263646566000000003031323364
:1030E0003435363738394142434445460000000004
:1030F00070B504461148008800FB04F5B5F1807FE7
:1031000001D36FF07F452846FFF7D4F90020FFF781
:103110008BF90120FFF788F900BF1020FFF79FF916
:1031200007490870084600780128F6D1C01EFFF74D
:103130007BF90020FFF778F970BD00002C0000201B
:103140002E00002010B504460E49097801FB04F05A
:10315000FFF7B0F90020FFF767F90120FFF764F9E6
:1031600000BF1020FFF77BF9074908700846007878
:103170000128F6D1C01EFFF757F90020FFF754F9D8
:1031800010BD00002A0000202E00002070B504466B
:103190000D46E1B20548FFF7C8FD00BF40210348D6
:1031A000FFF7F6FC0028F9D0204670BD003801403A
:1031B00010B5FDF7E3FDFDF7C9FEFFF797FC012011
:1031C00020B1012805D0022809D105E0FDF76CFFE8
:1031D00006E0FDF7FBFF03E0FEF7E0FA00E000BFCA
:1031E00000BF002010BD00002A2A7265665F696E6C
:1031F000666F5F2864617461302C64617461312C86
:1032000064617461322C64617461332C6461746133
:10321000342C646174613529203D20282564202CDC
:103220002025642C2025642C2025642C2025642C4A
:1032300020256420292A2A200D0A00002A2A7265E6
:1032400063656976655F2864617461302C646174BC
:1032500061312C64617461322C64617461332C645B
:10326000617461342C646174613529203D20282506
:10327000642C2025642C2025642C2025642C2025FA
:10328000642C20256420292A2A200D0A0000000031
:103290002A20202020202020202020202020202024
:1032A000202020202020202020202020202020201E
:1032B000202020202020202020202020202020200E
:1032C00020202020202020202020202020202020FE
:1032D0002A0D0A002A2A2A2A2A2A2A2A2A2A2A2AB5
:1032E0002A2A2A2A2A2A2A2A2A2A2A2A2A2A2A2A3E
:1032F0002A2A2A2A2A2A2A2A2A2A2A2A2A2A2A2A2E
:103300002A2A2A2A2A2A2A2A2A2A2A2A2A2A2A2A1D
:103310002A2A2A2A2A0D0A00383300080000002031
:103320005C010000CA040008A43300085C0100200E
:1033300044050000202E000801332D01020304047F
:10334000000927060708090204060803188713085E
:103350000E222001210122012301240125010181E6
:10336000111A2328A904C902180E23011027581B7B
:103370002201204ED00720062815B80B24013075F5
:10338000A00F2501409CDC05210150C3FC086869A1
:103390006C0922740912860314102723C03F43705E
:0433A00041000000E8
:0400000508000131BD
:00000001FF
