:020000040800F2
:1000000060070020DD0B0008750500087705000873
:100010007B0500087F05000883050008000000003C
:10002000000000000000000000000000870500083C
:1000300089050008000000008B0500088D050008F8
:10004000F70B0008F70B0008F70B0008F70B000888
:10005000F70B0008F70B0008F70B0008F70B000878
:10006000F70B0008F70B0008F70B0008F70B000868
:10007000F70B0008F70B0008F70B0008F70B000858
:10008000F70B0008F70B0008F70B0008F70B000848
:10009000F70B0008F70B0008F70B0008F70B000838
:1000A000F70B0008F70B0008F70B0008F70B000828
:1000B0001509000895090008F70B0008F70B000860
:1000C000F70B0008F70B0008F70B0008F70B000808
:1000D000F70B0008510B0008F70B0008F70B00089E
:1000E000F70B0008F70B0008F70B0008F70B0008E8
:1000F000F70B0008F70B0008F70B0008F70B0008D8
:10010000F70B0008F70B0008F70B0008F70B0008C7
:10011000F70B0008F70B0008F70B0008F70B0008B7
:10012000F70B0008F70B0008F70B0008F70B0008A7
:1001300000F002F800F04AF80AA090E8000C8244AF
:100140008344AAF10107DA4501D100F03FF8AFF28C
:10015000090EBAE80F0013F0010F18BFFB1A43F0A5
:1001600001031847F04E0000104F0000103A24BF62
:1001700078C878C1FAD8520724BF30C830C144BF0C
:1001800004680C607047000000230024002500264E
:10019000103A28BF78C1FBD8520728BF30C148BFEA
:1001A0000B607047662904F04986642902F0448296
:1001B000002070471FB502F08BFD040000200021D5
:1001C00004F080F8E0601FBD10B510BD02F0A0FE85
:1001D0001146FFF7EFFF00F009F802F0BEFE03B48E
:1001E000FFF7F2FF03BC00F059FC000086B00020CE
:1001F00004904FF0640A00F0E1FA00F0E5FB4FF4E0
:10020000A06000F00BFD4FF4E13000F055FC00F071
:10021000AFFA504641F61F4100F08FFB0022BB4B66
:100220001046BB4903F03CFBCDE90201504604F007
:10023000A2FA8046DDE9022304F0F0FA0646002225
:10024000B44B04F011F9044604F066FA834600F05A
:10025000D4FB504641F61F4100F02EFB55E1002033
:1002600000F0C6FA04909DF810000028F6D09DF822
:100270001000012877D002286CD0032869D1AAF198
:10028000050ABAF10A0F01DC4FF00A0A5146A2A092
:1002900002F0C6F91FFA8AF041F61F4100F04DFB4B
:1002A00000229A4B10469A4903F0FAFA06460F4686
:1002B000504604F060FA804632463B4604F0AEFAFF
:1002C0000022944BCDE9020104F0CEF8044604F07C
:1002D00023FA834600F091FB1FFA8AF041F61F4192
:1002E00000F0EAFA0022894B1046894903F0D8FA57
:1002F000CDE90001504604F03EFA0646DDE9002350
:1003000004F08CFA04460022824B04F0ADF88046DB
:1003100004F002FA834600227C4B10467C4903F02D
:10032000BFFA80468946504604F025FA0646424602
:100330004B4604F073FA04460022764B04F094F81E
:1003400002460B46CDF800B0CDE9020176A002F0DE
:1003500067F9D9E00AF1050A41F26F70824500DBC6
:100360008246514600E063E079A002F059F91FFA95
:100370008AF041F61F4100F0E0FA0022634B10467C
:10038000634903F08DFA06460F46504604F0F3F930
:1003900032463B46CDE9020104F040FA0446002211
:1003A0005C4B04F061F8804604F0B6F9834600F037
:1003B00024FB1FFA8AF041F61F4100F07DFA00226B
:1003C000524B1046524903F06BFA06460F46504610
:1003D00004F0D1F9804632463B4604F01FFA044649
:1003E00000224C4B04F040F8CDE9000104F094F9F0
:1003F00083460022454B1046454903F051FA064614
:100400000F46504604F0B7F9804632463B4604F0AA
:1004100005FA044600223F4B04F026F802460B463C
:10042000CDF800B0CDE902013FA002F0F9F86BE091
:100430000AF10A0A41F26F70824500DB824651469A
:1004400048A002F0EDF81FFA8AF041F61F4100F0D3
:1004500074FA00222D4B10462D4903F021FA044670
:100460000D46504604F087F9064622462B4604F016
:10047000D5F980460022274B03F0F6FFCDE90201B3
:1004800004F04AF9834600F0B8FA1FFA8AF041F600
:100490001F4100F011FA00221C4B10461C4903F0CA
:1004A000FFF906460F46504604F065F9804632468D
:1004B0003B4604F0B3F904460022164B03F0D4FF88
:1004C000CDE9000104F028F9834600220F4B1046C5
:1004D0000F4903F0E5F904460D46504604F04BF988
:1004E000064622462B4604F099F980460022094B25
:1004F00003F0BAFF02460B46CDF800B0CDE9020189
:1005000009A002F08DF800BF00BFA8E60000084077
:1005100000002440000044407370656564207570DD
:10052000202564200D0A000064656C6179207469DF
:100530006D653A20252E3366202C20696E74206468
:10054000656C61792074696D652025640D0A000071
:10055000646563656C6572617465202564200D0AAD
:1005600000000000626C6F636B6564202564200DE1
:100570000A000000704700BFFEE700BFFEE700BFB3
:10058000FEE700BFFEE77047704770477047000006
:100590000CB50020019000906C48006840F4803059
:1005A0006A49086000BF6948006800F400300090A4
:1005B0000198401C0190009818B90198B0F5A06FFF
:1005C000F1D16248006800F4003010B101200090C1
:1005D00001E0002000900098012843D15C480068A9
:1005E00040F010005A4908600846006820F00300F7
:1005F00008600846006840F0020008605348406800
:10060000524948600846406848600846406840F4DF
:10061000806048600846406820F47C1048600846C6
:10062000406840F4E81048600846006840F0807078
:10063000086000BF4548006800F000700028F9D04D
:100640004248406820F0030040494860084640683E
:1006500040F00200486000BF3C48406800F00C00D9
:100660000828F9D10CBD10B5FFF792FF10BD10B5E9
:100670003648006840F00100344908600846406888
:10068000344908403149486008460068324908400A
:100690002E4908600846006820F48020086008465B
:1006A000406820F4FE0048604FF41F008860FFF7A8
:1006B000DAFF4FF000602949086010BD10B5002135
:1006C00000200022214B5B6803F00C0121B10429BA
:1006D00006D0082928D107E0214B224C236027E0CF
:1006E0001F4B204C236023E0184B5B6803F4701011
:1006F000164B5B6803F48032022303EB904022B96F
:10070000194B4343174C23600DE0104B5B6803F417
:10071000003323B1144B4343124C236003E0104BCE
:100720004343104C236003E00D4B0E4C236000BF8D
:1007300000BF064B5B68C3F303130C4CE15C094B31
:100740001B68CB40074C236010BD00000010024026
:10075000002002400000FFF8FFFFF6FE08ED00E079
:1007600000127A000000002000093D000400002073
:1007700008B50121482000F0DBFD6020ADF8000045
:1007800010208DF8030003208DF802006946094807
:1007900000F012FB6021074800F0BBFB2020ADF801
:1007A00000006946044800F007FB2021024800F0E1
:1007B000B0FB08BD000C01400018014008B5012144
:1007C000442000F0B5FD1C20ADF8000048208DF855
:1007D00003006946354800F0EFFA0120ADF800004B
:1007E00028208DF803006946314800F0E5FA08BD7D
:1007F00010B5044614B101202E4908702D48007828
:10080000002837D01021294800F069FB78B1082171
:10081000264800F064FB50B10421244800F05FFB3F
:1008200028B10121224800F05AFB012822D10A20D8
:1008300000F007F900201F49087010211B4800F044
:100840004EFB08B9012010BD0821184800F047FBF5
:1008500008B90220F7E70421144800F040FB08B96A
:100860000320F0E70121124800F039FB01281BD1D9
:100870000420E8E710210D4800F031FB012813D1D6
:1008800008210A4800F02BFB01280DD1042107485C
:1008900000F025FB012807D10121054800F01FFBCE
:1008A00010B90120034908700020CCE7001801406E
:1008B00000080140140000207FB505460C460121C8
:1008C000084600F042FDADF80850ADF804400020A5
:1008D000ADF80A00ADF8060001A94FF0804000F025
:1008E0005FFE01221146900701F0D1F91C208DF81E
:1008F000000000208DF8010002208DF80200012088
:100900008DF80300684600F08EF90121880701F098
:10091000A3F97FBD10B50121880701F066FC58B12D
:100920000121880701F072FC2548006808B9012000
:1009300000E000202249086010BD7FB505460C4646
:100940000121022000F001FDADF80850ADF804408F
:100950000020ADF80A00ADF8060001A9194800F022
:100960001FFE01221146174801F091F91D208DF854
:10097000000000208DF8010003208DF80200012006
:100980008DF80300684600F04EF901210D4801F092
:1009900063F97FBD10B501210A4801F026FC68B15A
:1009A0000121084801F032FC0548001D006808B923
:1009B000012000E000200249091D086010BD000070
:1009C000948121420004004010B56FF0040000F053
:1009D00074F92E4800682E49B0FBF1F02D490870DB
:1009E0000846007800EB4001C1EBC0104FF6FF71E4
:1009F00001EAC0002849088010BD0146254A127846
:100A00004A434FF0E0235A6100229A611A46126964
:100A100042F001021A6100BF4FF0E022106900F0BD
:100A200001021AB100F48032002AF5D04FF0E02222
:100A3000126922F001024FF0E0231A6100229A614C
:100A400070470146144A12884A434FF0E0235A6126
:100A500000229A611A46126942F001021A6100BF2F
:100A60004FF0E022106900F001021AB100F4803268
:100A7000002AF5D04FF0E022126922F001024FF077
:100A8000E0231A6100229A617047000000000020F4
:100A900000127A00160000201800002000BF7047E6
:100AA00000BF4A4A128802F04002002AF9D0C2B2BE
:100AB000464B1B1D1A80704710B586B004460121B5
:100AC00044F2040000F034FC4FF40070ADF8140060
:100AD00003208DF8160018208DF8170005A93C4852
:100AE00000F06AF94FF48060ADF8140004208DF82E
:100AF000170005A9364800F05FF925208DF80000A1
:100B000003208DF801008DF8020001208DF803000C
:100B1000684600F088F801940020ADF80800ADF8B0
:100B20000A00ADF80C00ADF810000C20ADF80E0076
:100B300001A9264801F0B1FB012240F225512348CA
:100B400001F043FC0121214801F033FC06B010BD47
:100B500010B540F225511D4801F01CFD10B31B4893
:100B600001F098FCC4B21B48008800F40040C8B9EA
:100B70001848008800F4804060B10A2C03D000209F
:100B80001449088020E01348008840F400401149CF
:100B9000088019E00D2C06D10E48008840F48040F2
:100BA0000C49088010E00B480088C0F30D000A498A
:100BB0000C5408480088401C0649088008460088F4
:100BC000C72801DD0020088010BD0000003801406A
:100BD000000801402000002038000020094880471C
:100BE00009480047FEE7FEE7FEE7FEE7FEE7FEE70F
:100BF000FEE7FEE7FEE7FEE704480549054A064B27
:100C0000704700006F0600083101000860010020F5
:100C10006007002060030020600300203149014389
:100C2000314A1160704770B5002100230F22C4784B
:100C300004B32D4C246804F4E064C4F5E064210A94
:100C4000C1F10403CA40447804FA03F184781440E3
:100C500021430901254C0678A155047804F01F05AD
:100C60000124AC4005786D11AD0005F1E025C5F813
:100C7000004109E0047804F01F050124AC401C4D3C
:100C80000678761145F8264070BD1A4A0A4002439C
:100C9000154B1B1F1A60704739B1134A121D126899
:100CA0000243114B1B1D1A6006E00F4A121D126809
:100CB00082430D4B1B1D1A607047042808D14FF06A
:100CC000E021096941F004014FF0E022116107E0E1
:100CD0004FF0E021096921F004014FF0E022116199
:100CE000704700000000FA050CED00E000E400E0B1
:100CF00080E100E080FFFF1F10B50446CC4884422D
:100D000008D10121042000F02DFB0021042000F077
:100D100029FB46E0C748844208D10121082000F0A1
:100D200021FB0021082000F01DFB3AE0C24884426C
:100D300008D10121102000F015FB0021102000F047
:100D400011FB2EE0BD48844208D10121202000F093
:100D500009FB0021202000F005FB22E0B848844276
:100D600008D10121402000F0FDFA0021402000F0D0
:100D7000F9FA16E0B348844208D10121802000F03E
:100D8000F1FA0021802000F0EDFA0AE0AE4884423A
:100D900007D10121801500F0E5FA0021A01500F02F
:100DA000E1FA10BD10B50121084600F0DBFA002180
:100DB000012000F0D7FA10BD2DE9F04102460025D0
:100DC0000026002000230024002791F803C00CF027
:100DD0000F0591F803C00CF0100CBCF1000F03D00C
:100DE00091F802C04CEA050591F800C0BCF1000F73
:100DF00031D0146800202BE04FF0010C0CFA00F306
:100E0000B1F800C00CEA03069E4220D183004FF0E7
:100E10000F0C0CFA03F7BC4305FA03FC4CEA04047C
:100E200091F803C0BCF1280F06D14FF0010C0CFA69
:100E300000FCC2F814C00AE091F803C0BCF1480FEE
:100E400005D14FF0010C0CFA00FCC2F810C0401C98
:100E50000828D1D31460B1F800C0BCF1FF0F34DD15
:100E6000546800202EE000F1080C4FF0010808FA49
:100E70000CF3B1F800C00CEA03069E4221D18300B6
:100E80004FF00F0C0CFA03F7BC4305FA03FC4CEAD5
:100E9000040491F803C0BCF1280F05D100F1080C3F
:100EA00008FA0CF8C2F8148091F803C0BCF1480F9E
:100EB00007D100F1080C4FF0010808FA0CF8C2F84D
:100EC0001080401C0828CED35460BDE8F0814FF656
:100ED000FF710180022181700421C17070470246B8
:100EE000002093680B400BB1012000E00020704708
:100EF0000146886880B2704702460020D3680B40E4
:100F00000BB1012000E0002070470146C86880B2A4
:100F1000704701617047416170470AB1016100E0AB
:100F200041617047C16070474FF480320A4382616B
:100F30008161826182698269704702460020434B69
:100F400018684FF68073184040EA021008433F4B80
:100F5000186070473E49C8617047F0B50A460023E3
:100F600000240021002500F00046B6F1004F02D118
:100F7000364EF16901E0354E7168C0F3034583B226
:100F800000F44016B6F5401F08D121F070612F4ED5
:100F9000766826F070662D4F7E6012E000F48016B1
:100FA000B6F5801F06D1032606FA05F4A14341F0E9
:100FB000706106E0460D360103FA06F6B14341F0D2
:100FC000706122B1460D360103FA06F6314300F096
:100FD0000046B6F1004F02D11C4EF16101E01B4EFC
:100FE0007160F0BD30B500228B071C0F0F2303FA90
:100FF00004F2164B08338C1053F824309343134CEF
:1010000008348D1044F8253023468C1053F82430D2
:101010008C07240F00FA04F423430C4C08348D1081
:1010200044F8253030BD0A49DC31086070470000C3
:1010300000080140000C0140001001400014014074
:1010400000180140001C0140002001400000014048
:1010500000002042DF48006840F00100DD490860E0
:1010600008464068DC490840DA494860084600689C
:10107000DA490840D74908600846006820F4802013
:1010800008600846406820F4FE0048604FF41F00E6
:1010900088607047CF49096821F48031CD4A1160DA
:1010A0001146096821F480211160B0F5803F03D01A
:1010B000B0F5802F0ED106E0C649096841F48031B1
:1010C000C44A116007E0C349096841F4A021C14A3C
:1010D000116000E000BF00BF704710B5014600225C
:1010E000002300204A11012A02D1BA4C236806E0ED
:1010F000022A02D1B74C236A01E0B64C636A01F0C0
:101100001F02012494401C400CB1012000E000208B
:1011100010BD38B5002000900024002500BF31200C
:10112000FFF7DBFF05460098401C00900098B0F5E3
:10113000A06F01D0002DF2D03120FFF7CEFF08B113
:10114000012400E00024204638BD01460020A14AC9
:10115000106820F0F80040EAC10010607047A04914
:1011600008607047024600209A4B586820F47C10B3
:1011700042EA01031843974B586070479849086644
:10118000704701460020934A506820F0030008434E
:10119000506070478F48406800F00C00704701466F
:1011A00000208C4A506820F0F000084350607047DF
:1011B00001460020874A506820F4E06008435060F0
:1011C000704701460020834A506820F4605040EA8E
:1011D000C1005060704729B17E4A527A02437D4B6C
:1011E0005A7204E07B4A527A82437A4B5A727047B1
:1011F0007B49D8310860704701460020754A506825
:1012000020F440400843506070470021714A20326A
:101210001170704A82F82010012802D004280AD1E7
:1012200004E001216B4A2032117005E00521694A72
:101230002032117000E000BF00BF704769490860AC
:1012400070476449096A0143624A116270476549FF
:1012500044390860704730B5002100220024002383
:101260005C4D6D6805F00C0121B1042905D00829F9
:1012700023D105E05C4D056022E05B4D05601FE079
:10128000544D6D6805F47012524D6D6805F480344C
:10129000022505EB92421CB9544D554305600BE005
:1012A0004C4D6D6805F400351DB1504D554305603A
:1012B00002E04D4D5543056002E04B4D056000BF17
:1012C00000BF444D6D6805F0F0010909484D6B5CA5
:1012D0000568DD4045603F4D6D6805F4E061090A31
:1012E000434D6B5C4568DD4085603A4D6D6805F4A3
:1012F0006051C90A3E4D6B5C4568DD40C560354DA7
:101300006D6805F44041890B3A4D6B5CC568B5FBCF
:10131000F3F5056130BD29B12E4A526902432D4BC8
:101320005A6104E02B4A526982432A4B5A61704742
:1013300029B1284A92690243264B9A6104E0254A62
:1013400092698243234B9A61704729B1214AD2693D
:101350000243204BDA6104E01E4AD26982431D4BEE
:10136000DA61704729B11B4AD2680243194BDA602F
:1013700004E0184AD2688243164BDA60704729B1FC
:10138000144A12690243134B1A6104E0114A1269AC
:101390008243104B1A617047124940390860704708
:1013A0000F49C86470470B49C87170470948406AC3
:1013B00040F0807007494862704701460020054AA6
:1013C00092680A400AB1012000E0002070470149FC
:1013D00088727047001002400000FFF8FFFFF6FE21
:1013E000000042428004424200127A0000093D009F
:1013F000220000203200002010B50446FE4884423E
:1014000008D10121C014FFF7ADFF0021E014FFF760
:10141000A9FFC4E0B4F1804F08D101210846FFF7CD
:10142000AEFF00210120FFF7AAFFB8E0F348844295
:1014300008D101210220FFF7A2FF00210220FFF7BF
:101440009EFFACE0EE48844208D101210420FFF762
:1014500096FF00210420FFF792FFA0E0E9488442B4
:1014600008D101210820FFF78AFF00210820FFF79B
:1014700086FF94E0E448844208D101211020FFF760
:101480007EFF00211020FFF77AFF88E0DF488442CA
:1014900008D101212020FFF772FF00212020FFF753
:1014A0006EFF7CE0DA48844208D101214014FFF746
:1014B00059FF00216014FFF755FF70E0D5488442C2
:1014C00009D10121C804FFF74DFF00214FF400208E
:1014D000FFF748FF63E0D048844209D101210805A5
:1014E000FFF740FF00214FF48010FFF73BFF56E06D
:1014F000CA48844209D101214805FFF733FF002182
:101500004FF40010FFF72EFF49E0C548844208D190
:1015100001214020FFF733FF00214020FFF72FFF7C
:101520003DE0C048844208D101218020FFF727FF19
:1015300000218020FFF723FF31E0BB48844208D11F
:1015400001218015FFF71BFF0021A015FFF717FFF2
:1015500025E0B648844209D101210804FFF702FFC3
:1015600000214FF48030FFF7FDFE18E0B0488442C0
:1015700009D101214804FFF7F5FE00214FF40030A6
:10158000FFF7F0FE0BE0AB48844208D1012188044C
:10159000FFF7E8FE00214FF48020FFF7E3FE10BDC7
:1015A00000220288944B98420ED0994B98420BD05F
:1015B000B0F1804F08D0914B984205D0904B9842A3
:1015C00002D0904B984204D14FF68F731A404B884B
:1015D0001A438D4B984207D08C4B984204D04FF65B
:1015E000FF431A40CB881A4302808B8883850B887F
:1015F0000385814B98420BD0854B984208D08B4B8A
:10160000984205D08A4B984202D08A4B984201D129
:101610000B7A038601238382704770B50024002271
:101620000023058C4FF6FE7635400584028C8388B6
:10163000048B4FF68F752C40B51E2C400D882C4323
:10164000751E2A400D892A434D882A436A4DA842B7
:101650000BD06F4DA84208D0744DA84205D0744DF0
:10166000A84202D0734DA84213D14FF6F7752A4015
:101670004D892A434FF6FB752A408D882A434FF641
:10168000FF652B404FF6FF552B408D892B43CD89AD
:101690002B4383800483CD888586028470BD70B51A
:1016A000002400220023058C4FF6EF763540058498
:1016B000028C8388048B48F6FF752C404FF6FF455B
:1016C0002C400D884FF6FF7606EA05252C434FF691
:1016D000DF752A400D8906EA05152A434D8806EA7A
:1016E00005152A43444DA84202D0494DA8421DD1B8
:1016F0004FF67F752A404D894FF6FF7606EA0515AD
:101700002A434FF6BF752A408D8806EA05152A43FD
:101710004FF6FF352B404FF2FF752B408D8906EABF
:1017200085052B43CD8906EA85052B4383800483F9
:10173000CD880587028470BD70B500240022002387
:10174000058C4FF6FF6635400584028C8388848BB8
:101750004FF68F752C404FF6FC752C400D882C43AE
:101760004FF6FF552A400D894FF6FF7606EA05250C
:101770002A434D8806EA05252A431F4DA84202D078
:10178000234DA8421DD14FF2FF752A404D894FF6D7
:10179000FF7606EA05252A434FF6FF352A408D8855
:1017A00006EA05252A434EF6FF752B404DF6FF75D8
:1017B0002B408D8906EA05152B43CD8906EA0515D0
:1017C0002B4383808483CD888587028470BD70B568
:1017D000002200230024058C4EF6FF763540058458
:1017E000038C8488828B48F6FF752A404FF6FF45AC
:1017F0002A400D8820E00000002C01400004004039
:1018000000080040000C00400010004000140040A0
:1018100000340140004C01400050014000540140A0
:1018200000180040001C0040002000400040014023
:1018300000440140004801404FF6FF7606EA0525C6
:101840002A434DF6FF752B400D8906EA05352B43DB
:101850004D8806EA05352B43FA4DA84202D0FA4DD1
:10186000A84208D14BF6FF752C408D894FF6FF76C4
:1018700006EA85152C4384808283CD88A0F84050E9
:10188000038470BD828B4FF2FF331A408283828BB8
:101890004FF6FF7303EA01231A4382837047F0B5C2
:1018A0000C461546002200210026078C4EF6FF7CD0
:1018B00007EA0C070784828B018C4FF6FF7707EA53
:1018C000043640F6FF473A404FF6FF7707EA052710
:1018D0003A434FF6FF7707EA03373A43D94FB84206
:1018E0000ED0D94FB8420BD0B0F1804F08D0D74FAF
:1018F000B84205D0D64FB84202D0D64FB84206D132
:101900004DF6FF77394046F48057394305E047F6F6
:10191000FF57394044F48057394382830184F0BD36
:10192000828B4FF6F3731A408283828B0A43828341
:101930007047F0B50C461546002200210026078CA2
:101940004FF6FF6C07EA0C070784828B018C4FF679
:10195000FF7707EA04264FF60C773A404FF6FF77F9
:1019600007EA03172F433A43B64FB8420ED0B64F9B
:10197000B8420BD0B0F1804F08D0B44FB84205D078
:10198000B34FB84202D0B34FB84206D14FF6FF571B
:10199000394046F48077394305E04FF2FF5739402C
:1019A00044F48077394382830184F0BD028B4FF287
:1019B000FF331A400283028B4FF6FF7303EA0123C1
:1019C0001A4302837047F0B50C46154600220021E9
:1019D0000026078C4FF6EF7C07EA0C070784028B82
:1019E000018C4FF6FF7707EA041640F6FF473A40AE
:1019F0004FF6FF7707EA03373A434FF6FF7707EAD8
:101A000005273A438F4FB8420ED08F4FB8420BD0C4
:101A1000B0F1804F08D08D4FB84205D08C4FB842FE
:101A200002D08C4FB84206D14FF6DF77394046F0EE
:101A30001007394305E04FF65F77394044F010074F
:101A4000394302830184F0BD028B4FF6F3731A40D1
:101A50000283028B0A4302837047F0B50C46154699
:101A600000220021068C4FF6FE773E400684028B52
:101A7000018C4FF60C7632407E1C06EA03162E438C
:101A80003243704EB0420ED06F4EB0420BD0B0F128
:101A9000804F08D06D4EB04205D06D4EB04202D09E
:101AA0006C4EB04206D14FF6FD76314044F001064F
:101AB000314305E04FF6F576314044F001063143FD
:101AC00002830184F0BD70B505460C465D48854231
:101AD0000ED05D4885420BD0B5F1804F08D05B48F1
:101AE000854205D05A48854202D05A48854200D1E5
:101AF00000E000BF208850B92389A2886188284669
:101B0000FFF7ABFFE1882846FFF79EFF25E020881E
:101B100004280AD12389A28861882846FFF753FF49
:101B2000E1882846FFF742FF17E0208808280AD1FD
:101B30002389A28861882846FFF7FBFEE1882846B2
:101B4000FFF7EEFE09E02389A28861882846FFF7A7
:101B5000A6FEE1882846FFF795FE70BD2DE9F0410D
:101B600005460C4600260127608808B9022600E0D9
:101B70000026A088012801D1022700E00127208843
:101B8000A0B92389A28861882846FFF766FFE1880B
:101B90002846FFF759FF23893A4631462846FFF782
:101BA00012FFE1882846FFF701FF13E02389A2888E
:101BB00061882846FFF707FFE1882846FFF7F6FE11
:101BC00023893A4631462846FFF747FFE1882846F1
:101BD000FFF73AFFBDE8F0810A884B881A438B88EB
:101BE0001A43CB881A430B891A434B891A438B89B2
:101BF0001A43A0F8442070474FF6FF7181800021FE
:101C00000180C180418001727047002101804180C4
:101C10008180C180018141818181C1817047002122
:101C200001804180012181800021C18001817047B4
:101C30000021018041808180C180018141818181B9
:101C400070470000002C01400034014000040040B7
:101C500000080040000C004021B1028842F001025F
:101C6000028004E002884FF6FE731A40028070473B
:101C700031B1B0F8442042F40042A0F8442005E01D
:101C8000B0F84420C2F30E02A0F8442070471AB105
:101C900083890B43838102E083898B43838170476F
:101CA0008182704741EA0203A0F8483070471AB1B8
:101CB00083890B43838102E083898B43838170474F
:101CC00001894FF6F8721140018170470A460021E0
:101CD00001894FF68F73194011430181704730B568
:101CE00004460D4629462046FFF7F0FF208940F0C4
:101CF0000700208130BD2DE9F04104460D4616460F
:101D00001F46602D06D13B46012231462046FFF793
:101D10005AFE05E03B46012231462046FFF79DFE74
:101D200029462046FFF7D2FF208940F00700208196
:101D3000BDE8F08130B50C4600210189C9B24FF6EB
:101D4000FF7505EA0325154325432943018130BD6D
:101D50002DE9F04105460E461746984600244346B5
:101D60003A4631462846FFF7E5FF2C894FF6F870D2
:101D7000044044F007044FF68F70044044F07004B0
:101D80002C81BDE8F081F0B504460D4616461F468D
:101D90003B46324629462046FFF7CCFF208940F4D7
:101DA00080402081F0BD0185828270470A46002173
:101DB00001884FF68F731940114301807047F0B5C9
:101DC0000C4615461E460021002200230189028B85
:101DD000038C4FF6F877394021434FF6FC473A40E1
:101DE00040F201173A434FF6DD773B404FF6FF775D
:101DF00007EA06172F433B43018102830384F0BDAA
:101E00000A460021018B4FF68F731940114301835D
:101E100070470A460021018B48F6FF7319404FF6C0
:101E2000FF7303EA02231943018370470A46002126
:101E3000818B4FF68F7319401143818370470A4697
:101E40000021818B48F6FF7319404FF6FF7303EAB8
:101E5000022319438183704721B1028842F0800236
:101E6000028004E002884FF67F731A4002807047B8
:101E700021B1828842F00402828004E082884FF619
:101E8000FB731A408280704721B1828842F00802B9
:101E9000828004E082884FF6F7731A408280704790
:101EA00021B1828842F00102828004E082884FF6EC
:101EB000FE731A40828070470A460021018B4FF65C
:101EC000F77319401143018370470A460021018BC3
:101ED0004FF2FF7319404FF6FF7303EA02231943D1
:101EE000018370470A460021818B4FF6F773194032
:101EF0001143818370470A460021818B4FF2FF73A3
:101F000019404FF6FF7303EA022319438183704798
:101F10000A460021018B4FF6FB73194011430183E0
:101F200070470A460021018B4FF6FF3319404FF6E8
:101F3000FF7303EA02231943018370470A46002115
:101F4000818B4FF6FB7319401143818370470A461A
:101F50000021818B4FF6FF3319404FF6FF7303EAE0
:101F600002231943818370470A460021018B4FF6F3
:101F70007F7319401143018370470A460021018B8A
:101F8000C1F30E014FF6FF7303EA022319430183E5
:101F900070470A460021818B4FF67F731940114329
:101FA000818370470A460021818BC1F30E014FF6F1
:101FB000FF7303EA02231943818370470A46002115
:101FC000018C4FF6FD7319401143018470470A4696
:101FD0000021018C4FF6F7731940114301847047BB
:101FE0000A460021018C4FF6DF7319404FF6FF734C
:101FF00003EA02131943018470470A460021018C49
:102000004FF67F7319404FF6FF7303EA021319432B
:10201000018470470A460021018C4FF6FF53194096
:102020004FF6FF7303EA02231943018470470A46FF
:102030000021018C4FF2FF7319404FF6FF7303EA42
:1020400002231943018470470A460021018C4DF692
:10205000FF7319404FF6FF7303EA023319430184FB
:10206000704730B5002301248C40A3B2048C9C43FC
:102070000484048C02FA01F5ADB22C43048430BD13
:1020800030B5002304248C40A3B2048C9C43048408
:10209000048C02FA01F5ADB22C43048430BD70B556
:1020A0000346002000241846183001258D40ACB2AC
:1020B0001D8CA5431D8409B1082909D100EB6100DD
:1020C000056825F0700505600568154305600EE09C
:1020D0000D1FC5F34E052844056825F4E04505604D
:1020E00005684FF6FF7606EA02263543056070BDA7
:1020F00021B1028842F00202028004E002884FF619
:10210000FD731A400280704721B1028842F0040238
:10211000028004E002884FF6FB731A400280704789
:1021200021B1828842F08002828004E082884FF6EA
:102130007F731A408280704702884FF6F7731A4007
:10214000028002880A430280704782884FF68F73AC
:102150001A40828082880A438280704702894FF643
:10216000F8731A40028102890A430281704702898A
:102170004FF67F731A40028102890A430281704739
:1021800081847047818570478186704701877047D9
:1021900081877047A0F84010704702884FF6FF43D0
:1021A0001A40028002880A43028070470146888EE6
:1021B00070470146088F70470146888F7047014677
:1021C000B1F8400070470146888C70470146088D81
:1021D000704702460020138A0B400BB1012000E03B
:1021E00000207047CA430282704730B50246002083
:1021F00000230024158A05EA0103958905EA0104F4
:1022000013B10CB1012000E0002030BDCA430282AE
:102210007047000010B50446FB48844209D10121F3
:102220008803FFF79FF800214FF48040FFF79AF8EA
:1022300032E0F648844209D101214804FFF79FF8B3
:1022400000214FF40030FFF79AF825E0F04884426F
:1022500009D101218804FFF792F800214FF4802072
:10226000FFF78DF818E0EB48844209D10121C8043A
:10227000FFF785F800214FF40020FFF780F80BE00E
:10228000E548844208D101210805FFF778F80021CC
:102290004FF48010FFF773F810BD2DE9F04786B0BA
:1022A00005460E460024A24600BFA1460027B0897D
:1022B00000B100BF2F462C8A4CF6FF700440F08816
:1022C00004432C82AC894EF6F3100440B088318967
:1022D0000843718908430443AC81AC8A4FF6FF4040
:1022E0000440B0890443AC8201A8FEF7B4FFC6489D
:1022F000874202D1DDF810A001E0DDF80CA0A8892A
:1023000000F4004040B10AEBCA0000EB0A1031684B
:102310004900B0FBF1F807E00AEBCA0000EB0A1035
:1023200031688900B0FBF1F86420B8FBF0F00401DB
:102330002009642101FB1089A88900F4004040B104
:10234000322000EBC900B0FBF1F000F007000443BD
:1023500008E0322000EB09106421B0FBF1F000F03E
:102360000F0004432C8106B0BDE8F0874FF41651EE
:10237000016000218180C18001810C214181002107
:102380008181704710B502460020108A4FF2FF038A
:1023900018400B884C8823438C882343CC882343E4
:1023A0001843108210BD0021018041808180C180CE
:1023B000704721B1828942F40052828104E082890F
:1023C0004DF6FF731A4082817047F0B50346002432
:1023D00000260025002040F66A17B94200D100BF50
:1023E0001846C1F3421401F01F06012707FA06F54B
:1023F000012C01D10C3004E0022C01D1103000E09E
:1024000014301AB107682F43076002E00768AF4332
:102410000760F0BD1AB1838A0B43838202E0838A8E
:102420008B4383827047028A4FF6F0731A40028210
:10243000028A0A430282704782894FF2FF731A4070
:10244000828182890A438281704721B1828942F068
:102450000202828104E082894FF6FD731A40828174
:102460007047028A4FF6DF731A400282028A0A43DB
:102470000282704721B1028A42F48042028204E063
:10248000028A4BF6FF731A4002827047C1F30802BA
:102490008280704701468888C0F3080070478189B0
:1024A00041F0010181817047028BD2B20283028B1D
:1024B00042EA012202837047028B02F47F420283C8
:1024C000028B0A430283704721B1828A42F02002C4
:1024D000828204E0828A4FF6DF731A40828270475C
:1024E00021B1828A42F01002828204E0828A4FF691
:1024F000EF731A408282704721B1828A42F008024B
:10250000828204E0828A4FF6F7731A408282704713
:1025100021B1828942F40042828103E08289C2F3C0
:102520000E028281704721B1828A42F40062828267
:1025300004E0828A4FF2FF731A4082827047828AD7
:102540004FF6FB731A408282828A0A438282704766
:1025500021B1828A42F00202828204E0828A4FF62E
:10256000FD731A408282704702460020B1F5007F59
:1025700000D100BF13880B400BB1012000E0002008
:10258000704701F40072B2F5007F00D100BFCA436A
:102590000280704770B50246002400230025002009
:1025A00040F66A16B14200D100BFC1F3421501F0F6
:1025B0001F03012606FA03F3012D02D19689334049
:1025C00006E0022D02D1168A334001E0968A33409C
:1025D0000C12012606FA04F41688344013B10CB12B
:1025E000012000E0002070BD10B50022002340F65D
:1025F0006A14A14200D100BF0A1201249440A3B280
:10260000DC43048010BD000000380140004400405D
:1026100000480040004C004000500040704700005F
:102620000FB4044910B503AA029800F03FFB10BC98
:102630005DF814FB1C0000202DE9F0410646002443
:1026400010687529314616A510D0AFF30080002818
:1026500002DA404213A507E031688A0701D512A5C6
:1026600002E0490704D511A5012401E0AFF3008081
:1026700000210A2206F1240709E0B0FBF2FCB0FBBE
:10268000F2F302FB1C00303078541846491C002835
:10269000F3D123462A463046BDE8F04100F09EB80B
:1026A000000000002D0000002B00000020000000B2
:1026B0002DE9F0474FF0000A89460446C0F820A0F3
:1026C0002046E1688847002876D0252806D0D4E93E
:1026D00001219047206A401C2062F1E7E168204612
:1026E00000258847C4F81CA006460027C4F818A097
:1026F0002A2E09D0304601F0CBF838B304EB870816
:10270000303EC8F8186019E059F8041B204604EB65
:1027100087029161E1688847012F064618D1E06978
:10272000002820DA25F020051DE0D8F8180000EB7D
:10273000800006EB40003038C8F818002046E168F9
:102740008847064601F0A4F80028EED1012F0AD0F0
:102750002E2E08D12046E16888477F1C0646022FAE
:1027600045F02005C4DBA069002803DA404245F0AB
:102770000105A061E80701D025F01005B6B1A6F16A
:102780004100192802D8203645F400654A463146F2
:10279000204625604D46FDF705FD58B1012806D0BD
:1027A000ED1D25F0070000F1080989E704E005F1B7
:1027B000040985E730468AE7206ABDE8F08770475C
:1027C00070477047704710B500F086FA006810BD7A
:1027D00010B5044600F080FA046010BD2DE9F04702
:1027E0000D4699469246044600F124080168880681
:1027F00004D5E06921F01001216000E00120A84229
:1028000001DD471B00E00027A1697A1902EB0900EE
:10281000081AA0612078C00602D42046AFF30080D9
:10282000002608E0D4E901211AF806009047206A42
:10283000401C761C20624E45F4DB2078C0060AD589
:102840002046AFF3008006E0D4E901213020904714
:10285000206A401C2062381EA7F10107F4DC07E063
:10286000D4E9012118F805009047206A401C206235
:10287000281EA5F10105F3DC2046AFF30080207887
:10288000000602D50220BDE8F0870120FBE7704773
:102890002DE9FF4F0C461E464FF0FF378BB0D2E9B3
:1028A0000001DDF860800A908A46C1F30A5505B937
:1028B0003D46002108464FF00000BAF1000F00F439
:1028C000400005DA00EB80004FF4400101EA5000BF
:1028D0004FEA9059B9F1010F00DDB9460A9850EA64
:1028E0004A000ED044F61050A5F2FF3545432F1490
:1028F000B8F1000F1ED07542291E1EDDC9F100027D
:102900001CE0B8F1010F4FF0000001D0302103E0CE
:10291000F24305E02154401CB042FBDB304600226C
:10292000002121540B99C1F80880C1E900200FB0A3
:10293000BDE8F08FBD1B6D1CDEE74A4600DA694238
:1029400006A800F06BFA06AB93E8070003AB83E838
:10295000070050460A9900F049FB8DE80700A0F5F2
:1029600000501F3800900398002D0ADD42F21F012D
:102970004A460844002303A90390684600F0B2FDCC
:1029800009E0A0F500504A461F38002303A9039030
:10299000684600F0BCFD8DE807000004000C03D081
:1029A0004FF0FF30410800E01046B8F1000F03D0AF
:1029B0000022009215461EE0751E05D400F090F925
:1029C000303262556D1EF9D5B3460122084302D05C
:1029D00000227F1C04E02078302801D100227F1ED5
:1029E000002A099784D01DE0112D07DA00F078F94C
:1029F000303262556D1C50EA0102F5D1084302D015
:102A00000098C8B10EE00021681E05E0235C625CFE
:102A100063542254401E491C8142F7DBAB46A81B7D
:102A2000401E0990002004F80B000B98099AC0F88A
:102A30000880C0E9002B7AE711264FF0000857E71D
:102A40002DE9F04F88460446D21D22F0070191B0CF
:102A5000D1E90001CDE90A0100F090FE02460B9891
:102A6000C00F01D02D2007E02068810701D52B2061
:102A700002E0202101EAC000032A099001D0072AC0
:102A800005DB03464146204600F088F90BE120783B
:102A9000800601D5E06900E00620B8F1650F8146A7
:102AA00006D0B8F1660F18D0B8F1670F70D131E0D9
:102AB0000020B9F1110F009001DB112301E009F1B1
:102AC00001030AAA01A90CA8FFF7E2FEDDE90C70D8
:102AD000002609F10105834647E001204B4600909E
:102AE0004FF000470AAA01A90CA8FFF7D1FEDDE9C3
:102AF0000DB00C995D46002610B909F101000D18C2
:102B0000B9EB050003D4C0F1FF3609F10105A5EBCF
:102B100009002BE0B9F1010F01DA4FF001090020A3
:102B2000B9F1110F0090484601DD112300E0034682
:102B30000AAA01A90CA8FFF7ABFEDDE90C704D460F
:102B400000268346207800070AD4AB4500DA5D46AC
:102B500001A8012D04DD411911F8011C302907D00D
:102B60004F4502DA17F1040F04DA012082460FE024
:102B70006D1EEEE7002F02DCED1B3E4403E0781CE7
:102B8000A84200DD7D1CB81B00F1010A4FF0004790
:102B90002078000703D4AA4501DB4FF0FF3A00215B
:102BA000B7F1004F0DF143088DF8431024D00220F7
:102BB0002B23002F01DA7F422D230A21021EA0F1D0
:102BC000010000DC5FB197FBF1FC97FBF1F201FB28
:102BD0001C7C17460CF1300C08F801CDEEE7A8F18B
:102BE000010003702188090501D5452100E0652118
:102BF000A0F1010800F8011C09980FA9A1EB080732
:102C0000FF1D00B10120411901EBEA70A1693844B0
:102C1000081A401EA0612078C00602D42046AFF3F7
:102C20000080099828B1D4E901219047206A401C0E
:102C300020622078C00622D52046AFF300801EE037
:102C4000002E04DBB34502DD01A8805D00E03020EA
:102C5000D4E901219047206A401C2062761CAAF129
:102C600001005FEA000A0AD100F032F8C06801688A
:102C7000405CD4E901219047206A401C2062281E54
:102C8000A5F10105DCDC07E0D4E9012118F8010B0E
:102C90009047206A401C2062381EA7F10107F3DC30
:102CA0002046AFF30080032011B041E6074B70B51A
:102CB0000D467B4400F05FF80446284600F020F9FA
:102CC00010B14FF0FF3070BD204670BDEBDDFFFF4F
:102CD0000048704720010020004870470001002094
:102CE00030B5B0F10A024FEA900E71F100034EEADE
:102CF000817EB0EB0E0061EB91014FEA101E4EEAAF
:102D0000017E10EB0E0041EB11114FEA102E4EEA3E
:102D1000016E10EB0E0041EB11214FEA104E4EEA0E
:102D2000014E10EB0E0041EB1141401841F1000142
:102D30004FEAD00040EA41704FEAD10110EB800524
:102D40004FEA810444EA907444EB01046D1944EBAA
:102D50000404521BA3414FF0000348BF0A3200D5C0
:102D600030BD401C41F1000130BD000001694A1C2A
:102D700002610878704700B58FB0CDE901310021BC
:102D8000059105497944CDE9031011466846FFF7DE
:102D90008FFC0FB000BD0000E5FFFFFF2DE9F04103
:102DA0001F46044603260168072A01F4006004DB7D
:102DB00008B116A505E016A503E008B115A500E0C9
:102DC00015A521F010002060A069C01EA0610FB100
:102DD000401EA0612046AFF300804FB1D4E901212D
:102DE00038469047206A401C2062C01C206206E0E2
:102DF000206AFAE7D4E9012115F8010B9047761E05
:102E0000F8D22046AFF30080BDE8F0814E414E007D
:102E10006E616E00494E4600696E66002DE9F0470E
:102E2000814616468AB0354878440DC88DE80D00B5
:102E300032487844801C03AC0DC884E80D0041F68C
:102E40009B300844372190FBF1F290FBF1F5A5F19E
:102E5000800501FB12041B3C02D56442012000E006
:102E60000020DFF898A080460027FA44AAF1BE0AA5
:102E70000EE0E0070AD03246684607EB470101231F
:102E80000AEB810100F043FB8DE8070064107F1C12
:102E9000002CEED1194F7F44AE3F19E0E80715D062
:102EA00007EB04100DF1180A90E80E008AE80E00F6
:102EB000C068F04201D1981908903246012306A952
:102EC00003A800F024FB03AB83E807006D10641C2B
:102ED000002DE3D14FF0010332466946B8F1000FEF
:102EE00003A802D000F0FEFA01E000F010FBC9E9EF
:102EF0000001C9F808200AB0BDE8F08710220000E0
:102F0000007B00F0800070470048704700010020FF
:102F10007546FFF7F9FFAE4605006946534620F0B7
:102F20000700854618B020B5FDF766FEBDE82040D5
:102F30004FF000064FF000074FF000084FF0000B75
:102F400021F00701AC46ACE8C009ACE8C009ACE828
:102F5000C009ACE8C0098D46704710B50446AFF310
:102F600000802046BDE81040FDF739B94FF0013C24
:102F700050F8042B51F8043B9A4221D1A2EB0C03E8
:102F8000934313EACC1317D150F8042B51F8043BA8
:102F90009A4215D1A2EB0C03934313EACC130BD145
:102FA00050F8042B51F8043B9A4209D1A2EB0C03D0
:102FB000934313EACC13DBD04FF00000704700BFFF
:102FC000D01A01BAB1FA81F101F0180122FA01F028
:102FD000CB40C1F12001DBB2C0B2C01A2CFA01F320
:102FE000D11A914311EAC311E6D170475FEA400C50
:102FF00008BF91F0000F4FEA8C234FEAC12243EA49
:1030000051514FEA1C5018BF00F5F0404FEA300014
:1030100018BF41F000415FEA6C5C00F02980BCF110
:10302000FF3F08BF40F080407047130C06BF1204FA
:103030004FF0100C4FF0000C130E04BF12020CF1F5
:10304000080C130F04BF12010CF1040C930F04BF02
:1030500092000CF1020CD30F04BF52000CF1010CD2
:1030600011464FF00002A0F11F00A0EB0C007047CA
:1030700011F0004F08BF704731F000413FF4D5AF69
:103080000B0C06BF09044FF0100C4FF0000C0B0E98
:1030900004BF09020CF1080C0B0F04BF09010CF16D
:1030A000040C8B0F04BF89000CF1020CCB0F04BF82
:1030B00049000CF1010CCCF12003A0EB0C0022FA2A
:1030C00003F302FA0CF241EA030100F10100704738
:1030D00020F07F4C80EA030023F07F47ACEB07032E
:1030E00003F57C5300F0004003F1FF032DE9804914
:1030F0004FEA154B09B44FEA144325EA0B4E24EA74
:1031000003480FF2042606EB132749083E785FEACE
:10311000320203FB0667C7F5000707FB06F64FEA16
:1031200054374FEAD64606F1020607FB066CCCF18F
:10313000005C4FEA1C472CEA074C07FB06F40CFB2B
:1031400006F504EB15464FEA961634BF00204FF003
:1031500000404FEAD13706FB07FC4FEA1C4C0CFB42
:103160000BF7D21B03FB0CF761EB07010CFB0EF70F
:10317000B0EB074072EB17420CFB08F734BFA2EB31
:103180000742B2EB074261EB17414FEA0C444FEAAA
:10319000910706FB07FC4FEA1C4C0CFB0BF7B0EB4E
:1031A000C74072EB573203FB0CF734BFA2EBC742A8
:1031B000B2EBC74261EB57310CFB0EF7B0EBC70027
:1031C00072EB57720CFB08F734BFA2EBC702B2EBED
:1031D000C70261EB5771039F4FEA816141EA921187
:1031E00004EBCC044FEAD1374FEA826206FB07FCBE
:1031F00042EA90124FEA80604FEA1C4C0CFB0BF73E
:10320000D21B03FB0CF761EB07010CFB0EF7B0EBD5
:10321000074072EB17420CFB08F734BFA2EB0742E2
:10322000B2EB074261EB17414FEA8C554FEA910729
:1032300004EB9C2406FB07FC4FEA1C4C0CFB0BF731
:10324000B0EBC74072EB573203FB0CF734BFA2EB75
:10325000C742B2EBC74261EB57310CFB0EF7B0EB44
:10326000C70072EB57720CFB08F734BFA2EBC70222
:10327000B2EBC70261EB577115EB4C254FEA816148
:1032800041EA92114FEA82624FEAD13742EA901244
:1032900006FB07FC44F100044FEA80604FEA1C4C37
:1032A0000CFB0BF7D21B03FB0CF761EB07010CFBCC
:1032B0000EF7B0EB074072EB17420CFB08F734BF78
:1032C000A2EB0742B2EB074261EB174115EB1C156D
:1032D0004FEA813141EA92414FEA823242EA90421A
:1032E0004FEA80304FEA0C7644F1000448EA034389
:1032F0004EEA0B484FF0000EB2EB080C71EB0307DF
:1033000024BF624639464EEB0E0E4FF0000B0018FC
:10331000524149414BEB0B0BB2EB080C71EB03072D
:103320007BF1000B24BF624639464EEB0E0E4FF088
:10333000000B0018524149414BEB0B0BB2EB080C50
:1033400071EB03077BF1000B24BF624639464EEB5D
:103350000E0E51EA020718BF46F0010616EB0E7674
:1033600055F1000254F1000103D5BDE88901BDE823
:103370000088BDE88901BDE80048B619524141EB1B
:103380000101A3F10103704780807F7E7D7C7B7A01
:103390007978777676757473727171706F6E6E6D01
:1033A0006C6C6B6A6A6968686766666564646363A7
:1033B00062616160605F5F5E5E5D5D5C5C5B5B5A2D
:1033C0005A5959585857575656555555545453539A
:1033D00052525251515050504F4F4F4E4E4D4D4DF5
:1033E0004C4C4C4B4B4B4A4A4A4949494848484740
:1033F000474747464646454545444444444343437E
:103400004342424242414141002B9C4630D4770026
:103410002BD01CB54FEA370703B44FF010004FF024
:103420001001BAF1000F06D0BCF1000FDCBF40F074
:10343000080040F008014FF000000FBCBDE810404C
:103440000BF1010BBBF1010F08BF5FEA170722BFA9
:1034500012F1010211F101014FF0004143F10003AB
:1034600000F0004043EA00007047F9D35708D0E766
:1034700046EA064613F1400F4FEA16461FDD13F1E8
:10348000200FDFBF16430A46002120335B42BED027
:10349000C3F1200746EA064602FA07F74FEA164646
:1034A00046EA0706C3F1200722FA03F201FA07F7FA
:1034B00021FA03F14FF0000342EA0702A7E746EAC8
:1034C000020646EA06464FEA164646EA0106BCBF31
:1034D00046EA0646360C4FF000034FF000024FF06C
:1034E000000194E72DE9804C9A46934670B491E828
:1034F000380007C831EA400C48BF34EA430C03D512
:10350000FFF7E6FDFFF780FFF0BCBDE8008C2DE97A
:10351000804C9A46934670B491E8380007C810F082
:10352000804F08BF13F0804F03D100F005F8FFF77C
:103530006BFFF0BCBDE8008C20F07F4780EA030001
:1035400023F07F4C07EB0C03A3F57C5300F0004005
:10355000A3F1FE0392F0000F00F0B38095F0000F8E
:1035600000F077802DE901494FEA11404FEA1446F7
:1035700021EA004800FB06FC24EA064708FB06F6A1
:1035800007FB08F800FB07F718EB06484CEB164C56
:103590004FEA124B18EB07484FEA15464CEB174021
:1035A00022EA0B4E0BFB06FC25EA06470EFB06F64D
:1035B00007FB0EFE0BFB07F71EEB064E4CEB164C03
:1035C0004FF000061EEB074E4CEB174B18EB0B08A9
:1035D00040F1000018EB0E0B58EB000840F1000022
:1035E0008F1A4FF000013CBFC943661B14BFB5EBF7
:1035F000040C00213CBFC943F61B4FEA17444EEAB6
:103600008E0E27EA04454FEA1C4704FB07622CEAAA
:10361000074C05FB07F70CFB05F604FB0CFC16EB4F
:10362000074642EB174216EB0C4642EB1C421BEBE3
:10363000060658EB0202414146EA9E0601D5BDE866
:103640000189B619524141EB0101A3F10103BDE823
:1036500001894FEA14454FEA114724EA054621EA59
:10366000074C05FB07F406FB07F70CFB06F105FB0F
:103670000CFC11EB074144EB17444FEA124711EBE6
:103680000C4144EB1C4422EA074C05FB07F206FB05
:1036900007F70CFB06F605FB0CFC16EB074642EBA6
:1036A000174216EB0C4642EB1C456A1854F1000118
:1036B00048BF7047B619524141EB0101A3F1010324
:1036C000704795F0000F37D04FEA11424FEA144788
:1036D00021EA024624EA074C02FB07F106FB07F742
:1036E0000CFB06F402FB0CFC14EB074441EB174106
:1036F0004FEA154714EB0C4441EB1C4125EA074CFB
:1037000002FB07F506FB07F70CFB06F602FB0CFCB9
:1037100016EB074645EB174516EB0C4645EB1C42EE
:10372000121951F1000148BF7047B619524141EBDF
:103730000101A3F1010370474FEA14454FEA114715
:1037400024EA054621EA074C05FB07F106FB07F7CB
:103750000CFB06F24FF0000605FB0CFC12EB0742D7
:1037600041EB174112EB0C4251EB1C4148BF704733
:10377000921841EB0101A3F101037047490050EA9F
:10378000C12018BF04204A0D18BF40F0010040F2CC
:10379000FF72B2EB515F08BF40F00200012808BF82
:1037A000052070472DE9F0414F1E00EBC70104468C
:1037B000D1E9000115461E4637F006020DD02A4613
:1037C000334601F02BF87F1E04EBC703D3E9002337
:1037D00000F08EFD37F00602F1D1022F25D0042F24
:1037E00013D0062F18BFBDE8F0812A46334601F0FA
:1037F00015F8D4E90A2300F07BFD2A46334601F090
:103800000DF8D4E9082300F073FD2A46334601F091
:1038100005F8D4E9062300F06BFD2A46334600F094
:10382000FDFFD4E9042300F063FD2A46334600F08F
:10383000F5FFD4E9022300F05BFD2A46334600F091
:10384000EDFFD4E90023BDE8F04100F051BD0000D8
:10385000002213461046014900F006BE0000F03F6A
:1038600000F046BD002213461046114600F0FCBD94
:1038700040F2013200204FF0E04101F013BB0000A4
:10388000024A0020110701F00DBB000001FDFFFFFF
:1038900030380A2801D2012070470020704700000C
:1038A0002DE9F04D1D460C4698B0174621F0004119
:1038B00023F00043002814BF4FF0010C4FF0000C20
:1038C0000CEB440CFE4A0CEB02064FEA620C664518
:1038D0002BD33E0018BF012606EB45061644F94AD5
:1038E000964222D3F84A53EA070C02D0944205D1FB
:1038F00048B918B000201146BDE8F08D002808BF77
:103900004FF0000C01D04FF0010C0CEB440212F50B
:10391000001F0AD8002F14BF4FF0010C4FF0000C0D
:103920000CEB450212F5001F07D918B03A462B469A
:103930002146BDE8F04DFFF793BF0022DFF88CA3CE
:10394000002CB8BF534526DADFF884C36345A8BF0F
:10395000022220DADFF870C39C451CDCDFF874C358
:103960000CEB235CBCF1140F08DDCCF1340627FA14
:1039700006FC0CFA06F6BE420DD108E05FB9CCF1A8
:10398000140623FA06FC0CFA06F69E4203D10CF04C
:103990000102C2F1020251EA000C19D1002D17DA1E
:1039A000002C18BF022A01D0012A07D00220FEF7FE
:1039B0000FFF18B0BDE8F04DFFF74ABF0220FEF739
:1039C00007FFFFF745FF18B081F00041BDE8F08D1B
:1039D000B7F1000C6CD1534525D104F1804212F5AA
:1039E000801201BF00280020B74918B008BFBDE809
:1039F000F08DB548884207DC002DA1BF60462946FE
:103A000018B0BDE8F08D07E0281E05DA80F000410F
:103A100018B06046BDE8F08DAF497944D1E90001A6
:103A200018B0BDE8F08DDFF8A0C2634525D1002DA8
:103A30001FDA19B1514512D1D8B909E0002840F078
:103A4000EC82A24A214618B062F31E01BDE8F08D57
:103A50000020214618B060F31E01BDE8F08D08DAA1
:103A600018B02346BDE8F04D02460020614600F044
:103A7000FBBC18B02146BDE8F08D514518DAB5F110
:103A8000804F0DD0A5F1005CBCF1FF5C10D1B4F10A
:103A9000000C0DDB18B06146BDE8F04D00F0ECBB4A
:103AA000234618B00246BDE8F04D194600F0B6BEF8
:103AB000060024F0004C3BD1D9B1514533D1002C44
:103AC00006DD002DA1BF0020514618B0BDE8F08DE5
:103AD000002C01DD002D1BDB002C13DA002D11DB87
:103AE000012A4FF0000014BF78497C4918B0BDE8A6
:103AF000F08D022A18BF002C0AD0012A08D1002C10
:103B000006DA0AE0002CB8BF002D11DA012A04D031
:103B1000002018B00146BDE8F08D18B000204FF02D
:103B20000041BDE8F08DA1F14050B0F17F601AD0A6
:103B3000012000EBE47050EA020421D0624C521ED6
:103B40004FF0000B104304BF4FF0000B644C65486E
:103B500083427CDD644A654893421FDD884217DB5F
:103B6000002D25DB37E0002C00DA4AB1022A0CBF19
:103B700001204FF0FF3018B0BDE8F04D00F0FBBD64
:103B80000120FEF725FE18B0BDE8F04DFFF76ABE34
:103B90004D4A8A4202DC002D0ADC1CE0814202DA36
:103BA000002D18DA04E0484B994220DD002D12DD8B
:103BB0000220FEF70DFEFFF75BFE05460E460022D3
:103BC00053465846214600F029FE18B066F31E0100
:103BD0002846BDE8F08D0220FEF7FAFDFFF750FE03
:103BE0000A46214618B062F31E01BDE8F08D00229E
:103BF0003046614601F038F880460E466FF001020B
:103C000001F050F94FF05532394B00F03BFF42467E
:103C1000334600F003FE0022364B00F033FF8246AD
:103C20004246334604911046194600F0F7FD5246CD
:103C3000049B00F0F3FD8A4600904FF0C0422E4BEB
:103C40004046314600F0EAFD2C4A2B4B00E027E0CD
:103C5000CDE906015146009800F0E0FD8246019151
:103C6000274A284B4046314600F0D8FD5246019B7A
:103C700000F0FAFF82460B4602460591DDE9060197
:103C800000F036FBDDE9062300268846304600F0CA
:103C9000EBFF5246059B00F0F5FE024600F07EB9B0
:103CA0000020B1F5801F07DA35223046614601F069
:103CB000F9F806466FF0340000EB215024E00000D4
:103CC000FFFF1F00FFFF0F000000F03F0000F07F2C
:103CD0000000404301FCFFFF9A1500000000F0FFC8
:103CE0000000F0BF0000E0410000F043FFFFEF3FA5
:103CF0005555D53F0000E03F4715F73FFE822B6545
:103D000044DF5DF80BAE543EA0F2FF300190C1F3EA
:103D1000130040F07F6141F040510291FE4988421A
:103D2000D8BF002004DDFD498142C8BF012001DD6C
:103D30000D9008E000200D900198401C0190029821
:103D4000A0F5801002900299F54878440B910D99E6
:103D500000EBC100D0E900230F9330460A920B9983
:103D600000F082FFCDE90601DDE90A2130460F9B14
:103D700000F0BEFA02460B460020EA4900F074FB50
:103D8000059102460B460090DDE9060100F046FD74
:103D90001490E5488A464FF000087844029900687C
:103DA00012904FF0005040EA61010D980F9B01EB1B
:103DB000804000F5002109910A9A129800F054FF02
:103DC00032460B9B00F05EFE4246534600F026FD55
:103DD0000646029140465146099B129A00F01EFD8C
:103DE000DDE9062300F04EFE3246029B00F03CFF68
:103DF000059B009A00F012FD0091149A049053461E
:103E00001046194600F00AFD06460246C7480B4612
:103E1000029106217844FFF7C5FCCDE90510029B0D
:103E200032461046194600F0F9FCDDE9053200F093
:103E3000F5FC05910646534640461946149A00F093
:103E400057FA009B049A00F0E9FC3246059B00F00B
:103E50004FFACDE90510424653461046194600F088
:103E6000DDFC0022B24B02910A9000F041FADDE93C
:103E7000053200F03DFA0E464246AD4B404600F09A
:103E8000F3FE029B0A9A00F0EFFEDDE9053200F036
:103E9000F9FD424602910A9033461046514600F021
:103EA000BDFCCDE906015346149A02990A9800F028
:103EB000B5FC8A460290334642460099049800F0C9
:103EC000ADFC5346029A00F013FA82460B460246B6
:103ED0000591DDE9060100F00BFADDE9062300207B
:103EE0008846064600F0C0FE5246059B00F0CAFD1B
:103EF000824609914FF060428E4B3046414600F0B9
:103F00008DFC049006918C4A8A4B5046099900F02A
:103F100085FC82460291894A894B3046414600F031
:103F20007DFC5246029B00F0E3F9864B7B440D9AE0
:103F300003EBC203D3E9002300F0DAF90E900791F6
:103F4000019800F018FC0591DDE9061382460E9AEF
:103F5000049800F0CDF97C4A7A440D9B02EBC30330
:103F6000D3E900230093029200F0C2F95246059B68
:103F700000F0BEF90026884652463046059B00F008
:103F800073FE009B029A00F06FFE069B049A00F0FD
:103F90006BFE079B0E9A00F075FD024600200B4653
:103FA00002903846294600F039FC824601912B46A2
:103FB00038461946029A00F057FE3246434600F052
:103FC0002DFC5246019B00F093F907468A46324683
:103FD00043462946029800F021FC05460E463A4623
:103FE000534600F085F9594A8846914221DBA8EBF7
:103FF000020353EA000210D12A46334600F034FE91
:10400000CDE90401524A534B3846514600F070F94D
:10401000DDE9042300F000FD21D20220FEF7D8FBE9
:10402000FFF726FC0A46214618B062F31E01BDE8E0
:10403000F08D494B28F000429A4210D3474A08EBD2
:10404000020353EA00027FF4C6AD2A46334600F06D
:104050000BFE3A46534600F0DFFC7FF6BCAD002273
:10406000019228F000403E493E4A01EB2051824235
:1040700023DA481C4FF4801121FA00F040443A4AF8
:10408000C0F30A517A44394BA1F2FF31CB4020EA08
:104090000303C0F3130040F48010C1F11401C840C1
:1040A00012680190B8F1000FBCBF40420190284651
:1040B000314600F0D9FD05460E462A4633463846BD
:1040C000514600F015F94FF000084246284B404693
:1040D000059100F0A3FBCDE90601264A264B404698
:1040E000059900F09BFB009102902A46334640461A
:1040F000059900F0B9FD3A46534600F0C3FC1F4A4B
:104100001F4B00F08BFB009B029A00F0F1F8074672
:10411000884602460B4635E08E9803007AB60B00BF
:10412000E21100000000F03F1A12000048110000E8
:104130000000084009C7EE3FFD033ADCF5015B14BF
:10414000E02F3EBE20100000E40F00000000904071
:10415000FE822B654715973C00CC904000346F3FA2
:1041600001FCFFFF0000E03F300F0000FFFF0F00E9
:10417000432EE63F396CA80C615C20BEEF39FAFE95
:10418000422EE63FDDE9060100F0B2F8DDE9062344
:1041900005460E4600F068FD3A46434600F072FCC4
:1041A0000F462A46334600901046194600F036FB6B
:1041B000824602462E4888460B4605217844FFF782
:1041C000F1FA5246434600F029FB2A46334600F0F6
:1041D00059FC80468A463B4628463146009A00F004
:1041E0001DFB3B46009A00F083F8069100900022E8
:1041F0004FF080434046514600F036FD0F460C908C
:10420000424653462846314600F008FB3B460C9A8E
:1042100000F02AF9069B009A00F026FD2A46334654
:1042200000F022FD0022134B00F02CFC0546019803
:104230000E4601EB00510815002810DC28463146D7
:10424000019A00F02FFEFFF799FA042808BFFFF744
:1042500017FB28463146019A00F024FE05460B461E
:1042600018B02A4658462146BDE8F04D00F0D6BAAF
:10427000D00D00000000F03F2DE9F04106460F464A
:1042800000F00CFC041E0D4618BF0120284320F04E
:104290000040C0F17F6000F1E040C00F0ED0301C44
:1042A00018BF0120384320F00040C0F17F6000F1CA
:1042B000E040C00F04BF0120FEF78AFA20462946DD
:1042C000BDE8F08110B500290AD00878002807D091
:1042D00005487844FEF74AFE002801D0002010BDB2
:1042E0000248784410BD0000A20D00009A0D0000A5
:1042F00010B591EA030F48BF83F0004300F1BC847E
:10430000841A71EB030C05D2121943EB0C03001B4A
:1043100061EB0C01DFF824E14FEA1154A4EB135CCC
:104320001EEA430F18BF9EEA445F73D023EA0E03D0
:10433000DCF1200E21EA045143F4801332D322FA37
:104340000CFE10EB0E0023FA0CFE41EB0E01CCF13B
:10435000200E03FA0EFE10EB0E0051F10001B1F534
:10436000801FCCF1200E32D201EB045112FA0EF272
:10437000BDE8104058BF7047401C38BF5FEA42029A
:1043800018BF7047002814BF20F0010041F1000160
:104390004FEA410313F5001F38BF7047A1F1C04138
:1043A00000F034BB012A43EB0302ACF1200CDCF13A
:1043B0001F0E32BF4FF0000E23FA0CF310EB030078
:1043C00041EB0451B4EB115FD0D0A1EB045101F5E6
:1043D000801149085FEA300001EB04510ED350F11F
:1043E000000038BF12FA0EFE08D1BDE81040C9E740
:1043F000401C38BF5FEA4202CAD1C3E7BDE81040A3
:104400004FEA410313F5001F38BF7047A1F1C041C7
:1044100000F0FCBA9EEA445F08D011EA5E0FBDE8E6
:10442000104004BF01F0004100207047BDE810407B
:1044300070B500F09DFA00BF64FBBE3E0000E0FFD7
:1044400002494FF0000000F0FBBC00BF0000F87F05
:10445000491058BFC1F140415B1058BFC3F1404300
:104460008B42EFF3008070472DE9C04130B4DFF894
:10447000A0C23CEA111418BF3CEA131400F0EC800F
:1044800081EA03051CEA111444EAD57418BF1CEA3A
:10449000131500F0C780A4EB05044FF0004545EA72
:1044A000C12145EAC32341EA505143EA525304F182
:1044B0007F74994204F500344FEAC0204FEAC222CB
:1044C00008BF904200F09C804FEA13650FF240163F
:1044D000765D4FEA134506FB05F7C7F1807706FBCB
:1044E00007F74FEAD737A7FB03687642C8F580384D
:1044F000A7FB06CE38BFA8F1010807FB08E64FF07E
:10450000000EA6FB028CE6FB03CEDCF1000CCEF124
:10451000004E38BFAEF1010EA6FB0C584FF000075D
:104520004FF00005E6FB0E87A1FB08C6A0FB07CEF7
:1045300016EB0E0645F10005E1FB076515F1E04EAF
:104540007EBFA4F580345FEA46066D4116F1800710
:1045500045F100054FEA17274FEA066647EA056767
:10456000A6F1DE46B6F1805F4FEA15251FD9384621
:1045700024F0010C05EBC471BCF1FE6F01EB0C11D2
:1045800002D8F0BCBDE8008124425CBF01F5801E6A
:104590009EEAC47F02D4F0BCBDE80081244238D436
:1045A000F0BCA1F1C041BDE8004100F02FBA4FEAD4
:1045B000D22242EA43524FEAD323A7FB02864FEAB4
:1045C000D02040EA415007FB03661EEA0E0F4FEA77
:1045D000D12105FB026658BFA6EB0056B6EB00568C
:1045E0004FEA520E4EEAC37E18EB0E0E56EB530EF8
:1045F000BDD518EB02085E417F1C55F10005B6E7FA
:104600004FF480154FF000074FF000064FF0000800
:10461000ADE7F0BC4FF0000001F1C04101F00041F6
:10462000BDE8008111EA0C1F0CEA131500D00CE064
:1046300013EA0C1F00F025804FF00000F0BC81EA67
:10464000030101F00041BDE80081F0BCBDE800417C
:1046500081EA030100F0DAB9F0BCBDE8004170B5B1
:1046600000F086F9097EFC3E00F007B881EA0301FC
:104670004FF0000001F00041704781EA030100F0B3
:10468000C5B9F0BCBDE800414FF0000021497047BA
:10469000FFFDFBF9F7F5F4F2F0EEEDEBE9E8E6E407
:1046A000E3E1E0DEDDDBDAD8D7D5D4D3D1D0CFCD8E
:1046B000CCCBCAC8C7C6C5C4C2C1C0BFBEBDBCBBC7
:1046C000BAB9B8B7B6B5B4B3B2B1B0AFAEADACABC2
:1046D000AAA9A8A8A7A6A5A4A3A3A2A1A09F9F9E9C
:1046E0009D9C9C9B9A99999897979695959493934E
:1046F000929191908F8F8E8E8D8C8C8B8B8A8989E5
:104700008888878786858584848383828281818067
:104710000000FF070000F87F4FEA41034FEA5353C0
:10472000A3F58063D3F11E03C8BFD3F1210C0CDDC8
:104730004FF0004242EAC12242EA505232FA03FCF0
:104740008CEAE17CACEBE1707047102BC4BF002019
:10475000704703F5787CBCF1FF3F04D06FF0004256
:1047600082EA2100704770B500F002F94992248076
:1047700000207047F2E710F0004248BF4042B0FA14
:1047800080F310FA03F10AD0C3F11D0303F580632F
:104790004FEA415002EB035202EBD12170474FF038
:1047A0000000704751EA030C17D41CF5801F58BF56
:1047B000BCF5801F00F10680994218BF704708BF02
:1047C0009042704707D711F5801F58BF13F5801F1F
:1047D00019D499427047894270471CF5801F08D54B
:1047E000BCF5801FF7D58B4218BF704708BF8242C7
:1047F00070474FF4001C1CEB410F38BF1CEB430FFC
:1048000001D28B42704770B500F0B2F89224490093
:104810004FF000514FF08053FFF71ABEDFF848C148
:1048200070B51CEA111E1EBF1CEA13159EEA0C0F80
:1048300095EA0C0F00F06F8081EA030423EA4C1321
:104840004EEAD47E21EA4C1141F4801143F48013E6
:10485000AE44A1FB024CA0FB0365AEF17F7E36198E
:1048600055EB0C05A1FB034C4CF10003A0FB021C13
:1048700016EB0C06654153F10003094218BF46F0E0
:10488000010613F4007F0BD14FEA03314FEA0530E4
:10489000340341EA155140EA16506FF003020AE072
:1048A0004FEAC3214FEAC520F40241EA555140EADC
:1048B00056506FF0020202EB2E4201EB025585EAE0
:1048C000CE710AD05FEA440C18BF24F0004450F1C6
:1048D000000041F1000120EAD47040F2FE7C624504
:1048E00000D270BDA84214BF4FF080444FF0404446
:1048F000002E08BF0024BEF1806FA8BFA1F1C04107
:10490000BDE8704080F282804FF0000001F1C041AC
:1049100001F0004170479EEA0C0F0CEA131518BF16
:1049200095EA0C0F06D04FF0000081EA030E0EF05E
:10493000004170BD00F01CF88900013E00F007B88E
:1049400000F009B84FEA430C5FEA5C5C08D081EAEA
:10495000030100F05BB84FEA410C5FEA5C5CF6D102
:104960004FF00000014970470000FF070000F87F8A
:104970000EF1020E2EF0030E5EF8046B364205D4E3
:10498000012A43EB030515F5001F12D8012841EB5E
:10499000010C1CF5001F0CD80ED14FEAD17C15F587
:1049A000001F0CEB4C0C0CF1020C08BF4CEBD37C41
:1049B00004E04FF0080C01E04FEAD37C0CEB4C050F
:1049C00026FA05F606F00706B6F1040C06D20EEB41
:1049D000860CBDE870404CF0010C6047DFE80CF03D
:1049E000090B02024FF000414FF00000A1F5002139
:1049F00070BD19461046012851EB010418BFD4F5CB
:104A0000001484BF002001F0004170BD0808A0F52B
:104A100000114FEA3101704753EA010C17D41CF51D
:104A2000801F58BFBCF5801F00F106808B4218BF65
:104A3000704708BF8242704707D713F5801F58BFE1
:104A400011F5801F19D48B4270479B4270471CF5AB
:104A5000801F08D5BCF5801FF7D5994218BF704755
:104A600008BF904270474FF4001C1CEB430F38BF47
:104A70001CEB410F01D2994270470FB40CBC03BC30
:104A8000FFF7C1BE91EA030F10B581F000413FF579
:104A900037AC83F0004300F0EFB800002DE9F0419F
:104AA00001F5801CBCF5001FC0F2C3804FEA115C09
:104AB00021EA0C510CF1FD0C41F480115FEA5C0C11
:104AC0000CF5C07C01D3400049413DA4890241EA74
:104AD000905187028E0E0A0CA45D04FB04F602FBC3
:104AE00006F6C6F14046A4FB0662F60D46EA4226EB
:104AF00006FB06F4A4FB01235242C3F1404338BF36
:104B00005B1EA6FB02420024E6FB0324D20B42EA12
:104B10004446A6FB0623A1FB02E2A3FB07E4A4187C
:104B20004FF0000252F10002E3FB01426442C2F185
:104B3000404E38BFAEF1010EA6FB04234FF0000239
:104B4000E6FB0E32A2FB03464FF00004B61954F107
:104B50000004E2FB0264A1FB06E6A4FB07E816EBF7
:104B600008064FF0000858F10008E4FB016876429F
:104B7000C8F1405838BFA8F10108A2FB06E4A3FB26
:104B800008E52D194FF0000454F10004E2FB08542D
:104B9000A1FB05E6A7FB04E818EB06084FF00006AA
:104BA00056F10006E1FB048618F1200556F10006D7
:104BB000A809A8F11B08B10908F03F08B8F10A0FCD
:104BC00040EA86601CD901EB0C51BDE8F08100BFC2
:104BD000FCF5EEE8E2DDD8D3CFCBC7C3C0BDB9B694
:104BE000B4B1AEACA9A7A5A3A19F9D9B9A98969599
:104BF0009392908F8D8C8B89888786858483828120
:104C0000A0FB006800FB01F208EB4208B8EB872824
:104C100007D5341858EB0104D5D5401C51F10001DB
:104C2000D1E7341A78EB0104CDD4401E71F10001B4
:104C3000C9E75FEA4C0C5FEA9C5C0DD105D34FF0ED
:104C4000000001F00041BDE8F081BDE8F04170B521
:104C5000FFF78EFE6DDBFFBEBDE8F0414FF00000B8
:104C6000004970470000F87F10B591EA030F48BF74
:104C700083F000433FF544AB841A71EB030C07D279
:104C800012198CF0004C43EB0C03001B61EB0C0180
:104C9000DFF8A4E14FEA1154A4EB135C1EEA430FC2
:104CA00018BF9EEA445F00F0B08023EA6E035242D0
:104CB00021EA0451C3EB6E0338BF5B1EDCF1200E0A
:104CC00025D322FA0CFE10EB0E0043FA0CFE41EB4A
:104CD0000E01CCF1200E03FA0EFE10EB0E0051F186
:104CE0000001CCF1200E29D412FA0EF201EB04518E
:104CF000BDE8104058BF7047401C1CBFB2F1004FC8
:104D0000704700280CBF491C20F00100704712EBCF
:104D1000020E43EB030218BF4FF0010E4EEA4202AF
:104D2000ACF1200CDCF11E0E54D943FA0CFE10EB52
:104D30000E0051F1FF31CCF11E0ED5D50EF1010E52
:104D400012FA0EFE404141EB010101EB445C5FEAC7
:104D50005C5C10D910EBDE7001EB045138BFBEF182
:104D6000004FBDE8104018BF704700280CBF491C19
:104D700020F00100704730D24FEAD42C11F5001119
:104D800024F400641BD0B1FA81F20B3AA41AA41ED9
:104D9000D2F12003914030FA03F31943904001EB24
:104DA000CC71002C01EB0451BDE81040A8BF704746
:104DB00001F1C0414FF0000001F000417047B0FA2E
:104DC00080F310FA03F100D110BDE41A173C480536
:104DD000C90AE4E701EB045110BD491001EB04518D
:104DE000BDE810404FEA300002E04FF0000170478C
:104DF0004A0008BF0042F8D0B2F5001F28BF704734
:104E000001F000414FF0000070479EEA445F07D078
:104E100011EA5E0FBDE8104004BF0021002070477A
:104E2000BDE8104070B5FFF7A3FD00BF40DFF63EC0
:104E300083F00041104670470000E0FFFDF700BE20
:104E40000CF00F03092B08BF082000F059800A2B33
:104E50000BD0082B18BF704708BF1CF0400F0AD0BA
:104E60004FF000004FF0000170471CF0400F18BFDA
:104E70004FF0004070471CF0100F08D020F0704336
:104E800000F07F4242EAD3014FEA4370704700F0DE
:104E9000604021F07F4242EA000201F07F4040EA98
:104EA000727070474FF0FF0C4CF4E06C1CEA115329
:104EB0001CBF9CEA030C9445C2BFDA4201EB0251CD
:104EC0007047002B0DD0BCF1000F0FD0002A01F06D
:104ED0000041A4BF41F0E04141F07F614FF000008C
:104EE000704701F000414FF00000704750EA013375
:104EF0004FF09B0C18BF4CF0806C7FF4A1AA704758
:104F00001CF4801F11D01CF4E02F03D06FEACC31C9
:104F1000490070474FF04050EFF3008222F070429A
:104F200042EA000282F3008870474FF000007047A9
:104F3000000000000000F03F000000000000F83F0B
:104F400000000000000000000000004003B8E23F45
:104F5000000000000000000006D0CF43EBFD4C3EF7
:104F6000033333333333E33FFFAB6FDBB66DDB3FEC
:104F70004D268F515555D53F01411DA96074D13F34
:104F800065DBC9934A86CD3FEF4E454A287ECA3F2E
:104F90003E5555555555C53F93BDBE166CC166BFB0
:104FA0002CDE25AF6A56113FF16BD2C541BDBBBEA9
:104FB000D0A4BE726937663E000000000000000009
:104FC00002400000000000A00000000005400000BA
:104FD000000000C8000000000C4000000000409CE1
:104FE00000000000194000000020BCBE00000000CE
:104FF00034400000BFC91B8E00000004B540000013
:10500000504BCFD06607E2CF010000006C4100009A
:105010003E8251AADFEEA73401000000D942000011
:10502000DCB5A0E23A301F97FFFFFFFFB445000058
:10503000FD25A0C8E9A3C14FFFFFFFFFFF3F000010
:105040000000008000000000FF3F00000000008022
:105050000000000090500008000000203800000010
:105060006C010008C8500008380000202807000024
:10507000880100081C00000043000000F8FFFFFF4B
:105080000C0000000E0000000F0000002E000000C9
:1050900000A24A0400000000000000000102030416
:1050A00006070809010000000000000000000000E1
:1050B00000000000000001020304010203040607CF
:0850C0000809020406080000C3
:0400000508000131BD
:00000001FF
